{
  "contractName": "PlayToken",
  "abi": [
    {
      "constant": true,
      "inputs": [],
      "name": "tokenDecimalPlaces",
      "outputs": [
        {
          "name": "",
          "type": "uint256"
        }
      ],
      "payable": false,
      "stateMutability": "view",
      "type": "function"
    },
    {
      "constant": false,
      "inputs": [],
      "name": "unpause",
      "outputs": [],
      "payable": false,
      "stateMutability": "nonpayable",
      "type": "function"
    },
    {
      "constant": true,
      "inputs": [],
      "name": "paused",
      "outputs": [
        {
          "name": "",
          "type": "bool"
        }
      ],
      "payable": false,
      "stateMutability": "view",
      "type": "function"
    },
    {
      "constant": true,
      "inputs": [],
      "name": "registeredToken",
      "outputs": [
        {
          "name": "",
          "type": "bool"
        }
      ],
      "payable": false,
      "stateMutability": "view",
      "type": "function"
    },
    {
      "constant": false,
      "inputs": [],
      "name": "renounceOwnership",
      "outputs": [],
      "payable": false,
      "stateMutability": "nonpayable",
      "type": "function"
    },
    {
      "constant": true,
      "inputs": [],
      "name": "tokenWinRatio",
      "outputs": [
        {
          "name": "",
          "type": "uint256"
        }
      ],
      "payable": false,
      "stateMutability": "view",
      "type": "function"
    },
    {
      "constant": false,
      "inputs": [],
      "name": "pause",
      "outputs": [],
      "payable": false,
      "stateMutability": "nonpayable",
      "type": "function"
    },
    {
      "constant": true,
      "inputs": [],
      "name": "owner",
      "outputs": [
        {
          "name": "",
          "type": "address"
        }
      ],
      "payable": false,
      "stateMutability": "view",
      "type": "function"
    },
    {
      "constant": true,
      "inputs": [],
      "name": "tokenLossRatio",
      "outputs": [
        {
          "name": "",
          "type": "uint256"
        }
      ],
      "payable": false,
      "stateMutability": "view",
      "type": "function"
    },
    {
      "constant": true,
      "inputs": [],
      "name": "tokenAddress",
      "outputs": [
        {
          "name": "",
          "type": "address"
        }
      ],
      "payable": false,
      "stateMutability": "view",
      "type": "function"
    },
    {
      "constant": false,
      "inputs": [
        {
          "name": "_newOwner",
          "type": "address"
        }
      ],
      "name": "transferOwnership",
      "outputs": [],
      "payable": false,
      "stateMutability": "nonpayable",
      "type": "function"
    },
    {
      "anonymous": false,
      "inputs": [],
      "name": "Pause",
      "type": "event"
    },
    {
      "anonymous": false,
      "inputs": [],
      "name": "Unpause",
      "type": "event"
    },
    {
      "anonymous": false,
      "inputs": [
        {
          "indexed": true,
          "name": "previousOwner",
          "type": "address"
        }
      ],
      "name": "OwnershipRenounced",
      "type": "event"
    },
    {
      "anonymous": false,
      "inputs": [
        {
          "indexed": true,
          "name": "previousOwner",
          "type": "address"
        },
        {
          "indexed": true,
          "name": "newOwner",
          "type": "address"
        }
      ],
      "name": "OwnershipTransferred",
      "type": "event"
    },
    {
      "constant": false,
      "inputs": [
        {
          "name": "_tokenAddress",
          "type": "address"
        },
        {
          "name": "decimalPlaces",
          "type": "uint256"
        }
      ],
      "name": "registerToken",
      "outputs": [],
      "payable": false,
      "stateMutability": "nonpayable",
      "type": "function"
    },
    {
      "constant": true,
      "inputs": [
        {
          "name": "who",
          "type": "address"
        }
      ],
      "name": "remainingTokens",
      "outputs": [
        {
          "name": "",
          "type": "uint256"
        }
      ],
      "payable": false,
      "stateMutability": "view",
      "type": "function"
    },
    {
      "constant": true,
      "inputs": [
        {
          "name": "betInWei",
          "type": "uint256"
        }
      ],
      "name": "getTokenWinValue",
      "outputs": [
        {
          "name": "",
          "type": "uint256"
        }
      ],
      "payable": false,
      "stateMutability": "view",
      "type": "function"
    },
    {
      "constant": true,
      "inputs": [
        {
          "name": "betInWei",
          "type": "uint256"
        }
      ],
      "name": "getTokenLossValue",
      "outputs": [
        {
          "name": "",
          "type": "uint256"
        }
      ],
      "payable": false,
      "stateMutability": "view",
      "type": "function"
    },
    {
      "constant": false,
      "inputs": [
        {
          "name": "winAmount",
          "type": "uint256"
        },
        {
          "name": "lossAmount",
          "type": "uint256"
        }
      ],
      "name": "setWinLossAmount",
      "outputs": [],
      "payable": false,
      "stateMutability": "nonpayable",
      "type": "function"
    },
    {
      "constant": true,
      "inputs": [],
      "name": "getWinTokenAmount",
      "outputs": [
        {
          "name": "",
          "type": "uint256"
        }
      ],
      "payable": false,
      "stateMutability": "view",
      "type": "function"
    },
    {
      "constant": true,
      "inputs": [],
      "name": "getLossTokenAmount",
      "outputs": [
        {
          "name": "",
          "type": "uint256"
        }
      ],
      "payable": false,
      "stateMutability": "view",
      "type": "function"
    }
  ],
  "bytecode": "0x608060405260008060146101000a81548160ff0219169083151502179055506000600160146101000a81548160ff021916908315150217905550600280556601f9465b8ab8e36004556611c37937e08000600555336000806101000a81548173ffffffffffffffffffffffffffffffffffffffff021916908373ffffffffffffffffffffffffffffffffffffffff160217905550610c67806100a26000396000f3006080604052600436106100fc576000357c0100000000000000000000000000000000000000000000000000000000900463ffffffff16806302ca5994146101015780631792cc611461014e578063236f86a114610179578063282651fe146101d05780633f4ba83a146101fb5780635b5e760c146102125780635c975abb1461025357806362eb6da11461028257806365e807ab146102b1578063715018a6146102f2578063778317c4146103095780637ea5d50e146103405780638456cb591461036b5780638da5cb5b14610382578063963d62fb146103d95780639d76ea5814610404578063f2fde38b1461045b578063f91a545b1461049e575b600080fd5b34801561010d57600080fd5b5061014c600480360381019080803573ffffffffffffffffffffffffffffffffffffffff169060200190929190803590602001909291905050506104c9565b005b34801561015a57600080fd5b506101636105cb565b6040518082815260200191505060405180910390f35b34801561018557600080fd5b506101ba600480360381019080803573ffffffffffffffffffffffffffffffffffffffff1690602001909291905050506105d1565b6040518082815260200191505060405180910390f35b3480156101dc57600080fd5b506101e56106e2565b6040518082815260200191505060405180910390f35b34801561020757600080fd5b506102106106ff565b005b34801561021e57600080fd5b5061023d600480360381019080803590602001909291905050506107bd565b6040518082815260200191505060405180910390f35b34801561025f57600080fd5b506102686107d4565b604051808215151515815260200191505060405180910390f35b34801561028e57600080fd5b506102976107e7565b604051808215151515815260200191505060405180910390f35b3480156102bd57600080fd5b506102dc600480360381019080803590602001909291905050506107fa565b6040518082815260200191505060405180910390f35b3480156102fe57600080fd5b50610307610811565b005b34801561031557600080fd5b5061033e6004803603810190808035906020019092919080359060200190929190505050610913565b005b34801561034c57600080fd5b506103556109a6565b6040518082815260200191505060405180910390f35b34801561037757600080fd5b506103806109ac565b005b34801561038e57600080fd5b50610397610a6c565b604051808273ffffffffffffffffffffffffffffffffffffffff1673ffffffffffffffffffffffffffffffffffffffff16815260200191505060405180910390f35b3480156103e557600080fd5b506103ee610a91565b6040518082815260200191505060405180910390f35b34801561041057600080fd5b50610419610a97565b604051808273ffffffffffffffffffffffffffffffffffffffff1673ffffffffffffffffffffffffffffffffffffffff16815260200191505060405180910390f35b34801561046757600080fd5b5061049c600480360381019080803573ffffffffffffffffffffffffffffffffffffffff169060200190929190505050610abd565b005b3480156104aa57600080fd5b506104b3610b24565b6040518082815260200191505060405180910390f35b6000809054906101000a900473ffffffffffffffffffffffffffffffffffffffff1673ffffffffffffffffffffffffffffffffffffffff163373ffffffffffffffffffffffffffffffffffffffff1614151561052457600080fd5b81600160006101000a81548173ffffffffffffffffffffffffffffffffffffffff021916908373ffffffffffffffffffffffffffffffffffffffff16021790555081600360006101000a81548173ffffffffffffffffffffffffffffffffffffffff021916908373ffffffffffffffffffffffffffffffffffffffff16021790555060018060146101000a81548160ff021916908315150217905550806002819055505050565b60025481565b6000600254600a0a600160009054906101000a900473ffffffffffffffffffffffffffffffffffffffff1673ffffffffffffffffffffffffffffffffffffffff166370a08231846040518263ffffffff167c0100000000000000000000000000000000000000000000000000000000028152600401808273ffffffffffffffffffffffffffffffffffffffff1673ffffffffffffffffffffffffffffffffffffffff168152602001915050602060405180830381600087803b15801561069657600080fd5b505af11580156106aa573d6000803e3d6000fd5b505050506040513d60208110156106c057600080fd5b81019080805190602001909291905050508115156106da57fe5b049050919050565b6000600454670de0b6b3a76400008115156106f957fe5b04905090565b6000809054906101000a900473ffffffffffffffffffffffffffffffffffffffff1673ffffffffffffffffffffffffffffffffffffffff163373ffffffffffffffffffffffffffffffffffffffff1614151561075a57600080fd5b600060149054906101000a900460ff16151561077557600080fd5b60008060146101000a81548160ff0219169083151502179055507f7805862f689e2f13df9f062ff482ad3ad112aca9e0847911ed832e158c525b3360405160405180910390a1565b6000600454828115156107cc57fe5b049050919050565b600060149054906101000a900460ff1681565b600160149054906101000a900460ff1681565b60006005548281151561080957fe5b049050919050565b6000809054906101000a900473ffffffffffffffffffffffffffffffffffffffff1673ffffffffffffffffffffffffffffffffffffffff163373ffffffffffffffffffffffffffffffffffffffff1614151561086c57600080fd5b6000809054906101000a900473ffffffffffffffffffffffffffffffffffffffff1673ffffffffffffffffffffffffffffffffffffffff167ff8df31144d9c2f0f6b59d69b8b98abd5459d07f2742c4df920b25aae33c6482060405160405180910390a260008060006101000a81548173ffffffffffffffffffffffffffffffffffffffff021916908373ffffffffffffffffffffffffffffffffffffffff160217905550565b6000809054906101000a900473ffffffffffffffffffffffffffffffffffffffff1673ffffffffffffffffffffffffffffffffffffffff163373ffffffffffffffffffffffffffffffffffffffff1614151561096e57600080fd5b81670de0b6b3a764000081151561098157fe5b0460048190555080670de0b6b3a764000081151561099b57fe5b046005819055505050565b60045481565b6000809054906101000a900473ffffffffffffffffffffffffffffffffffffffff1673ffffffffffffffffffffffffffffffffffffffff163373ffffffffffffffffffffffffffffffffffffffff16141515610a0757600080fd5b600060149054906101000a900460ff16151515610a2357600080fd5b6001600060146101000a81548160ff0219169083151502179055507f6985a02210a168e66602d3235cb6db0e70f92b3ba4d376a33c0f3d9434bff62560405160405180910390a1565b6000809054906101000a900473ffffffffffffffffffffffffffffffffffffffff1681565b60055481565b600360009054906101000a900473ffffffffffffffffffffffffffffffffffffffff1681565b6000809054906101000a900473ffffffffffffffffffffffffffffffffffffffff1673ffffffffffffffffffffffffffffffffffffffff163373ffffffffffffffffffffffffffffffffffffffff16141515610b1857600080fd5b610b2181610b41565b50565b6000600554670de0b6b3a7640000811515610b3b57fe5b04905090565b600073ffffffffffffffffffffffffffffffffffffffff168173ffffffffffffffffffffffffffffffffffffffff1614151515610b7d57600080fd5b8073ffffffffffffffffffffffffffffffffffffffff166000809054906101000a900473ffffffffffffffffffffffffffffffffffffffff1673ffffffffffffffffffffffffffffffffffffffff167f8be0079c531659141344cd1fd0a4f28419497f9722a3daafe3b4186f6b6457e060405160405180910390a3806000806101000a81548173ffffffffffffffffffffffffffffffffffffffff021916908373ffffffffffffffffffffffffffffffffffffffff160217905550505600a165627a7a7230582003069b458786ac441b9f0dde013687abf81d44f9e574e3695536a7b5ea52835b0029",
  "source": "pragma solidity ^0.4.24;\n\nimport \"zeppelin-solidity/contracts/lifecycle/Pausable.sol\";\n\ninterface ERC20Token {\n    function totalSupply() external view returns (uint);\n    function balanceOf(address who) external constant returns (uint256);\n    function transfer(address to, uint256 value) external returns (bool);\n}\n\ncontract PlayToken is Pausable{\n\n    ERC20Token Token;\n\n    bool public registeredToken = false;\n    uint public tokenDecimalPlaces = 2;\n    address public tokenAddress;\n\n    uint public tokenWinRatio = 555555555555555 wei; //1800\n    uint public tokenLossRatio = 5000000000000000 wei; //200\n\n    modifier TokenCheck() {\n       if (registeredToken != true) { //check balance\n            revert();\n        }\n        _;\n    }\n\n    function registerToken(address _tokenAddress, uint decimalPlaces) public onlyOwner{\n        Token = ERC20Token(_tokenAddress);\n        tokenAddress = _tokenAddress;\n        registeredToken = true;\n        tokenDecimalPlaces = decimalPlaces;\n    }\n\n    function remainingTokens(address who) public constant returns (uint){\n        return Token.balanceOf(who)/(10 ** tokenDecimalPlaces);\n    }\n\n    function getTokenWinValue(uint betInWei) public view returns(uint){\n        return betInWei/tokenWinRatio;\n    }\n\n    function getTokenLossValue(uint betInWei) public view returns(uint){\n        return betInWei/tokenLossRatio;\n    }\n\n    function setWinLossAmount(uint winAmount, uint lossAmount)public onlyOwner{\n        tokenWinRatio = 1 ether/winAmount;\n        tokenLossRatio = 1 ether/lossAmount;\n    }\n    function getWinTokenAmount()public constant returns(uint){\n        return 1 ether/tokenWinRatio;\n    }\n    function getLossTokenAmount()public constant returns(uint){\n        return 1 ether/tokenLossRatio;\n    }\n\n}\n",
  "sourcePath": "/Users/kuaiyu/Documents/Projects/Ethereum/temp/EthinoWar/contracts/PlayToken.sol",
  "compiler": {
    "name": "solc",
    "version": "0.4.24+commit.e67f0147.Emscripten.clang"
  },
  "schemaVersion": "2.0.1",
  "updatedAt": "2018-09-06T00:30:39.764Z"
}