{
  "contractName": "War",
  "abi": [
    {
      "constant": true,
      "inputs": [
        {
          "name": "",
          "type": "address"
        }
      ],
      "name": "firstHandInfo",
      "outputs": [
        {
          "name": "isTied",
          "type": "bool"
        },
        {
          "name": "fees",
          "type": "uint256"
        },
        {
          "name": "mainBetAmount",
          "type": "uint256"
        }
      ],
      "payable": false,
      "stateMutability": "view",
      "type": "function"
    },
    {
      "constant": false,
      "inputs": [
        {
          "name": "_tokenAddress",
          "type": "address"
        },
        {
          "name": "decimalPlaces",
          "type": "uint256"
        }
      ],
      "name": "registerToken",
      "outputs": [],
      "payable": false,
      "stateMutability": "nonpayable",
      "type": "function"
    },
    {
      "constant": true,
      "inputs": [],
      "name": "tokenDecimalPlaces",
      "outputs": [
        {
          "name": "",
          "type": "uint256"
        }
      ],
      "payable": false,
      "stateMutability": "view",
      "type": "function"
    },
    {
      "constant": true,
      "inputs": [
        {
          "name": "who",
          "type": "address"
        }
      ],
      "name": "remainingTokens",
      "outputs": [
        {
          "name": "",
          "type": "uint256"
        }
      ],
      "payable": false,
      "stateMutability": "view",
      "type": "function"
    },
    {
      "constant": true,
      "inputs": [],
      "name": "getWinTokenAmount",
      "outputs": [
        {
          "name": "",
          "type": "uint256"
        }
      ],
      "payable": false,
      "stateMutability": "view",
      "type": "function"
    },
    {
      "constant": false,
      "inputs": [],
      "name": "unpause",
      "outputs": [],
      "payable": false,
      "stateMutability": "nonpayable",
      "type": "function"
    },
    {
      "constant": true,
      "inputs": [],
      "name": "gasForShuffle",
      "outputs": [
        {
          "name": "",
          "type": "uint256"
        }
      ],
      "payable": false,
      "stateMutability": "view",
      "type": "function"
    },
    {
      "constant": true,
      "inputs": [
        {
          "name": "betInWei",
          "type": "uint256"
        }
      ],
      "name": "getTokenWinValue",
      "outputs": [
        {
          "name": "",
          "type": "uint256"
        }
      ],
      "payable": false,
      "stateMutability": "view",
      "type": "function"
    },
    {
      "constant": true,
      "inputs": [],
      "name": "paused",
      "outputs": [
        {
          "name": "",
          "type": "bool"
        }
      ],
      "payable": false,
      "stateMutability": "view",
      "type": "function"
    },
    {
      "constant": true,
      "inputs": [],
      "name": "registeredToken",
      "outputs": [
        {
          "name": "",
          "type": "bool"
        }
      ],
      "payable": false,
      "stateMutability": "view",
      "type": "function"
    },
    {
      "constant": true,
      "inputs": [
        {
          "name": "betInWei",
          "type": "uint256"
        }
      ],
      "name": "getTokenLossValue",
      "outputs": [
        {
          "name": "",
          "type": "uint256"
        }
      ],
      "payable": false,
      "stateMutability": "view",
      "type": "function"
    },
    {
      "constant": false,
      "inputs": [],
      "name": "renounceOwnership",
      "outputs": [],
      "payable": false,
      "stateMutability": "nonpayable",
      "type": "function"
    },
    {
      "constant": false,
      "inputs": [
        {
          "name": "winAmount",
          "type": "uint256"
        },
        {
          "name": "lossAmount",
          "type": "uint256"
        }
      ],
      "name": "setWinLossAmount",
      "outputs": [],
      "payable": false,
      "stateMutability": "nonpayable",
      "type": "function"
    },
    {
      "constant": true,
      "inputs": [],
      "name": "tokenWinRatio",
      "outputs": [
        {
          "name": "",
          "type": "uint256"
        }
      ],
      "payable": false,
      "stateMutability": "view",
      "type": "function"
    },
    {
      "constant": false,
      "inputs": [],
      "name": "pause",
      "outputs": [],
      "payable": false,
      "stateMutability": "nonpayable",
      "type": "function"
    },
    {
      "constant": true,
      "inputs": [],
      "name": "TEST_HOUSE",
      "outputs": [
        {
          "name": "",
          "type": "uint256"
        }
      ],
      "payable": false,
      "stateMutability": "view",
      "type": "function"
    },
    {
      "constant": true,
      "inputs": [],
      "name": "owner",
      "outputs": [
        {
          "name": "",
          "type": "address"
        }
      ],
      "payable": false,
      "stateMutability": "view",
      "type": "function"
    },
    {
      "constant": true,
      "inputs": [
        {
          "name": "",
          "type": "address"
        }
      ],
      "name": "hasHandInProgress",
      "outputs": [
        {
          "name": "",
          "type": "bool"
        }
      ],
      "payable": false,
      "stateMutability": "view",
      "type": "function"
    },
    {
      "constant": true,
      "inputs": [],
      "name": "tokenLossRatio",
      "outputs": [
        {
          "name": "",
          "type": "uint256"
        }
      ],
      "payable": false,
      "stateMutability": "view",
      "type": "function"
    },
    {
      "constant": true,
      "inputs": [],
      "name": "tokenAddress",
      "outputs": [
        {
          "name": "",
          "type": "address"
        }
      ],
      "payable": false,
      "stateMutability": "view",
      "type": "function"
    },
    {
      "constant": true,
      "inputs": [],
      "name": "TEST_MODE",
      "outputs": [
        {
          "name": "",
          "type": "bool"
        }
      ],
      "payable": false,
      "stateMutability": "view",
      "type": "function"
    },
    {
      "constant": true,
      "inputs": [],
      "name": "sideBetPercent_MAX",
      "outputs": [
        {
          "name": "",
          "type": "uint256"
        }
      ],
      "payable": false,
      "stateMutability": "view",
      "type": "function"
    },
    {
      "constant": false,
      "inputs": [
        {
          "name": "state",
          "type": "bool"
        }
      ],
      "name": "ToggleTestMode",
      "outputs": [],
      "payable": false,
      "stateMutability": "nonpayable",
      "type": "function"
    },
    {
      "constant": false,
      "inputs": [
        {
          "name": "house",
          "type": "uint256"
        },
        {
          "name": "player",
          "type": "uint256"
        }
      ],
      "name": "SetTestModeHands",
      "outputs": [],
      "payable": false,
      "stateMutability": "nonpayable",
      "type": "function"
    },
    {
      "constant": true,
      "inputs": [
        {
          "name": "",
          "type": "bytes32"
        }
      ],
      "name": "hand_info",
      "outputs": [
        {
          "name": "playerAddress",
          "type": "address"
        },
        {
          "name": "fees",
          "type": "uint256"
        },
        {
          "name": "mainBetAmount",
          "type": "uint256"
        },
        {
          "name": "sideBetAmount",
          "type": "uint256"
        },
        {
          "name": "sideBetPercentage",
          "type": "uint256"
        },
        {
          "name": "playerHand",
          "type": "uint256"
        },
        {
          "name": "houseHand",
          "type": "uint256"
        }
      ],
      "payable": false,
      "stateMutability": "view",
      "type": "function"
    },
    {
      "constant": true,
      "inputs": [],
      "name": "TEST_PLAYER",
      "outputs": [
        {
          "name": "",
          "type": "uint256"
        }
      ],
      "payable": false,
      "stateMutability": "view",
      "type": "function"
    },
    {
      "constant": true,
      "inputs": [],
      "name": "bet_MAX",
      "outputs": [
        {
          "name": "",
          "type": "uint256"
        }
      ],
      "payable": false,
      "stateMutability": "view",
      "type": "function"
    },
    {
      "constant": true,
      "inputs": [
        {
          "name": "",
          "type": "address"
        }
      ],
      "name": "refundPool",
      "outputs": [
        {
          "name": "",
          "type": "uint256"
        }
      ],
      "payable": false,
      "stateMutability": "view",
      "type": "function"
    },
    {
      "constant": false,
      "inputs": [
        {
          "name": "_newOwner",
          "type": "address"
        }
      ],
      "name": "transferOwnership",
      "outputs": [],
      "payable": false,
      "stateMutability": "nonpayable",
      "type": "function"
    },
    {
      "constant": true,
      "inputs": [],
      "name": "getLossTokenAmount",
      "outputs": [
        {
          "name": "",
          "type": "uint256"
        }
      ],
      "payable": false,
      "stateMutability": "view",
      "type": "function"
    },
    {
      "constant": true,
      "inputs": [],
      "name": "bet_MIN",
      "outputs": [
        {
          "name": "",
          "type": "uint256"
        }
      ],
      "payable": false,
      "stateMutability": "view",
      "type": "function"
    },
    {
      "inputs": [],
      "payable": false,
      "stateMutability": "nonpayable",
      "type": "constructor"
    },
    {
      "payable": true,
      "stateMutability": "payable",
      "type": "fallback"
    },
    {
      "anonymous": false,
      "inputs": [
        {
          "indexed": true,
          "name": "playerAddr",
          "type": "address"
        },
        {
          "indexed": false,
          "name": "amount",
          "type": "uint256"
        }
      ],
      "name": "betPayout",
      "type": "event"
    },
    {
      "anonymous": false,
      "inputs": [
        {
          "indexed": true,
          "name": "playerAddr",
          "type": "address"
        },
        {
          "indexed": false,
          "name": "amount",
          "type": "uint256"
        }
      ],
      "name": "betPayoutToken",
      "type": "event"
    },
    {
      "anonymous": false,
      "inputs": [
        {
          "indexed": true,
          "name": "player",
          "type": "address"
        },
        {
          "indexed": false,
          "name": "orcID",
          "type": "bytes32"
        },
        {
          "indexed": false,
          "name": "dealerHand",
          "type": "uint256"
        },
        {
          "indexed": false,
          "name": "playerHand",
          "type": "uint256"
        },
        {
          "indexed": false,
          "name": "dealerSuit",
          "type": "uint256"
        },
        {
          "indexed": false,
          "name": "playerSuit",
          "type": "uint256"
        }
      ],
      "name": "dealtCards",
      "type": "event"
    },
    {
      "anonymous": false,
      "inputs": [
        {
          "indexed": false,
          "name": "orcID",
          "type": "bytes32"
        }
      ],
      "name": "currentOrcID",
      "type": "event"
    },
    {
      "anonymous": false,
      "inputs": [
        {
          "indexed": false,
          "name": "mainBet",
          "type": "uint256"
        },
        {
          "indexed": false,
          "name": "sideBet",
          "type": "uint256"
        },
        {
          "indexed": false,
          "name": "percent",
          "type": "uint256"
        }
      ],
      "name": "DEBUG_betSplit",
      "type": "event"
    },
    {
      "anonymous": false,
      "inputs": [
        {
          "indexed": false,
          "name": "msg",
          "type": "string"
        }
      ],
      "name": "DEBUG_str",
      "type": "event"
    },
    {
      "anonymous": false,
      "inputs": [
        {
          "indexed": false,
          "name": "error",
          "type": "string"
        }
      ],
      "name": "DEBUG_invalidOp",
      "type": "event"
    },
    {
      "anonymous": false,
      "inputs": [
        {
          "indexed": false,
          "name": "addr",
          "type": "address"
        }
      ],
      "name": "DEBUG_addr",
      "type": "event"
    },
    {
      "anonymous": false,
      "inputs": [
        {
          "indexed": false,
          "name": "thing",
          "type": "bytes32"
        }
      ],
      "name": "DEBUG_byte",
      "type": "event"
    },
    {
      "anonymous": false,
      "inputs": [
        {
          "indexed": false,
          "name": "thing",
          "type": "uint256"
        }
      ],
      "name": "DEBUG_uint",
      "type": "event"
    },
    {
      "anonymous": false,
      "inputs": [],
      "name": "Pause",
      "type": "event"
    },
    {
      "anonymous": false,
      "inputs": [],
      "name": "Unpause",
      "type": "event"
    },
    {
      "anonymous": false,
      "inputs": [
        {
          "indexed": true,
          "name": "previousOwner",
          "type": "address"
        }
      ],
      "name": "OwnershipRenounced",
      "type": "event"
    },
    {
      "anonymous": false,
      "inputs": [
        {
          "indexed": true,
          "name": "previousOwner",
          "type": "address"
        },
        {
          "indexed": true,
          "name": "newOwner",
          "type": "address"
        }
      ],
      "name": "OwnershipTransferred",
      "type": "event"
    },
    {
      "constant": false,
      "inputs": [
        {
          "name": "gasPrice",
          "type": "uint256"
        }
      ],
      "name": "setGasPrice",
      "outputs": [],
      "payable": false,
      "stateMutability": "nonpayable",
      "type": "function"
    },
    {
      "constant": false,
      "inputs": [
        {
          "name": "gasAmount",
          "type": "uint32"
        }
      ],
      "name": "setOraclizeGas",
      "outputs": [],
      "payable": false,
      "stateMutability": "nonpayable",
      "type": "function"
    },
    {
      "constant": false,
      "inputs": [
        {
          "name": "min_bet",
          "type": "uint256"
        },
        {
          "name": "max_bet",
          "type": "uint256"
        }
      ],
      "name": "setBetMinMax",
      "outputs": [],
      "payable": false,
      "stateMutability": "nonpayable",
      "type": "function"
    },
    {
      "constant": false,
      "inputs": [
        {
          "name": "percentage",
          "type": "uint256"
        }
      ],
      "name": "setSideBetPercentage",
      "outputs": [],
      "payable": false,
      "stateMutability": "nonpayable",
      "type": "function"
    },
    {
      "constant": false,
      "inputs": [
        {
          "name": "sideBetPercent",
          "type": "uint256"
        }
      ],
      "name": "playWar",
      "outputs": [],
      "payable": true,
      "stateMutability": "payable",
      "type": "function"
    },
    {
      "constant": false,
      "inputs": [
        {
          "name": "myid",
          "type": "bytes32"
        },
        {
          "name": "result",
          "type": "string"
        },
        {
          "name": "proof",
          "type": "bytes"
        }
      ],
      "name": "__callback",
      "outputs": [],
      "payable": false,
      "stateMutability": "nonpayable",
      "type": "function"
    },
    {
      "constant": false,
      "inputs": [
        {
          "name": "orcID",
          "type": "bytes32"
        },
        {
          "name": "result",
          "type": "string"
        }
      ],
      "name": "__callback",
      "outputs": [],
      "payable": false,
      "stateMutability": "nonpayable",
      "type": "function"
    },
    {
      "constant": false,
      "inputs": [],
      "name": "playerSurrender",
      "outputs": [],
      "payable": true,
      "stateMutability": "payable",
      "type": "function"
    },
    {
      "constant": false,
      "inputs": [],
      "name": "refund",
      "outputs": [
        {
          "name": "",
          "type": "uint256"
        }
      ],
      "payable": false,
      "stateMutability": "nonpayable",
      "type": "function"
    },
    {
      "constant": true,
      "inputs": [],
      "name": "houseBankRoll",
      "outputs": [
        {
          "name": "",
          "type": "uint256"
        }
      ],
      "payable": false,
      "stateMutability": "view",
      "type": "function"
    },
    {
      "constant": false,
      "inputs": [],
      "name": "withdrawFunds",
      "outputs": [],
      "payable": false,
      "stateMutability": "nonpayable",
      "type": "function"
    },
    {
      "constant": false,
      "inputs": [],
      "name": "withdrawTokens",
      "outputs": [],
      "payable": false,
      "stateMutability": "nonpayable",
      "type": "function"
    }
  ],
  "bytecode": "0x60806040526000600560146101000a81548160ff0219169083151502179055506000600660146101000a81548160ff02191690831515021790555060026007556601f9465b8ab8e36009556611c37937e08000600a556000600b60006101000a81548160ff021916908315150217905550606f600c55606f600d556050600e55678ac7230489e80000600f5566b1a2bc2ec500006010556202d2a8601155348015620000aa57600080fd5b5033600560006101000a81548173ffffffffffffffffffffffffffffffffffffffff021916908373ffffffffffffffffffffffffffffffffffffffff1602179055506200010b6404a817c80062000111640100000000026401000000009004565b62000ad1565b60008060009054906101000a900473ffffffffffffffffffffffffffffffffffffffff1673ffffffffffffffffffffffffffffffffffffffff1614806200019257506000620001906000809054906101000a900473ffffffffffffffffffffffffffffffffffffffff1662000481640100000000026401000000009004565b145b15620001b557620001b360006200048c640100000000026401000000009004565b505b6000809054906101000a900473ffffffffffffffffffffffffffffffffffffffff1673ffffffffffffffffffffffffffffffffffffffff166338cc48316040518163ffffffff167c0100000000000000000000000000000000000000000000000000000000028152600401602060405180830381600087803b1580156200023b57600080fd5b505af115801562000250573d6000803e3d6000fd5b505050506040513d60208110156200026757600080fd5b810190808051906020019092919050505073ffffffffffffffffffffffffffffffffffffffff16600160009054906101000a900473ffffffffffffffffffffffffffffffffffffffff1673ffffffffffffffffffffffffffffffffffffffff16141515620003d3576000809054906101000a900473ffffffffffffffffffffffffffffffffffffffff1673ffffffffffffffffffffffffffffffffffffffff166338cc48316040518163ffffffff167c0100000000000000000000000000000000000000000000000000000000028152600401602060405180830381600087803b1580156200035557600080fd5b505af11580156200036a573d6000803e3d6000fd5b505050506040513d60208110156200038157600080fd5b8101908080519060200190929190505050600160006101000a81548173ffffffffffffffffffffffffffffffffffffffff021916908373ffffffffffffffffffffffffffffffffffffffff1602179055505b600160009054906101000a900473ffffffffffffffffffffffffffffffffffffffff1673ffffffffffffffffffffffffffffffffffffffff1663ca6ad1e4826040518263ffffffff167c010000000000000000000000000000000000000000000000000000000002815260040180828152602001915050600060405180830381600087803b1580156200046557600080fd5b505af11580156200047a573d6000803e3d6000fd5b5050505050565b6000813b9050919050565b6000620004a7620004ae640100000000026401000000009004565b9050919050565b600080620004df731d3b2638a7cc9f2cb3d298a3da7a90b67e5506ed62000481640100000000026401000000009004565b11156200059357731d3b2638a7cc9f2cb3d298a3da7a90b67e5506ed6000806101000a81548173ffffffffffffffffffffffffffffffffffffffff021916908373ffffffffffffffffffffffffffffffffffffffff160217905550620005896040805190810160405280600b81526020017f6574685f6d61696e6e657400000000000000000000000000000000000000000081525062000a06640100000000026401000000009004565b6001905062000a03565b6000620005c373c03a2615d5efaf5f49f60b7bb6583eaec212fdf162000481640100000000026401000000009004565b1115620006775773c03a2615d5efaf5f49f60b7bb6583eaec212fdf16000806101000a81548173ffffffffffffffffffffffffffffffffffffffff021916908373ffffffffffffffffffffffffffffffffffffffff1602179055506200066d6040805190810160405280600c81526020017f6574685f726f707374656e33000000000000000000000000000000000000000081525062000a06640100000000026401000000009004565b6001905062000a03565b6000620006a773b7a07bcf2ba2f2703b24c0691b5278999c59ac7e62000481640100000000026401000000009004565b11156200075b5773b7a07bcf2ba2f2703b24c0691b5278999c59ac7e6000806101000a81548173ffffffffffffffffffffffffffffffffffffffff021916908373ffffffffffffffffffffffffffffffffffffffff160217905550620007516040805190810160405280600981526020017f6574685f6b6f76616e000000000000000000000000000000000000000000000081525062000a06640100000000026401000000009004565b6001905062000a03565b60006200078b73146500cfd35b22e4a392fe0adc06de1a1368ed4862000481640100000000026401000000009004565b11156200083f5773146500cfd35b22e4a392fe0adc06de1a1368ed486000806101000a81548173ffffffffffffffffffffffffffffffffffffffff021916908373ffffffffffffffffffffffffffffffffffffffff160217905550620008356040805190810160405280600b81526020017f6574685f72696e6b65627900000000000000000000000000000000000000000081525062000a06640100000000026401000000009004565b6001905062000a03565b60006200086f736f485c8bf6fc43ea212e93bbf8ce046c7f1cb47562000481640100000000026401000000009004565b1115620008d457736f485c8bf6fc43ea212e93bbf8ce046c7f1cb4756000806101000a81548173ffffffffffffffffffffffffffffffffffffffff021916908373ffffffffffffffffffffffffffffffffffffffff1602179055506001905062000a03565b6000620009047320e12a1f859b3feae5fb2a0a32c18f5a65555bbf62000481640100000000026401000000009004565b111562000969577320e12a1f859b3feae5fb2a0a32c18f5a65555bbf6000806101000a81548173ffffffffffffffffffffffffffffffffffffffff021916908373ffffffffffffffffffffffffffffffffffffffff1602179055506001905062000a03565b6000620009997351efaf4c8b3c9afbd5ab9f4bbc82784ab6ef8faa62000481640100000000026401000000009004565b1115620009fe577351efaf4c8b3c9afbd5ab9f4bbc82784ab6ef8faa6000806101000a81548173ffffffffffffffffffffffffffffffffffffffff021916908373ffffffffffffffffffffffffffffffffffffffff1602179055506001905062000a03565b600090505b90565b806002908051906020019062000a1e92919062000a22565b5050565b828054600181600116156101000203166002900490600052602060002090601f016020900481019282601f1062000a6557805160ff191683800117855562000a96565b8280016001018555821562000a96579182015b8281111562000a9557825182559160200191906001019062000a78565b5b50905062000aa5919062000aa9565b5090565b62000ace91905b8082111562000aca57600081600090555060010162000ab0565b5090565b90565b6150448062000ae16000396000f30060806040526004361061020e576000357c0100000000000000000000000000000000000000000000000000000000900463ffffffff168062ecd3111461021057806302ca59941461027957806316a54085146102c65780631792cc61146102f3578063236f86a11461031e57806324600fc31461037557806327dc297e1461038c578063282651fe14610403578063339ac1741461042e57806338bbfa50146104385780633f4ba83a146104f557806358aaf48a1461050c578063590e1ae3146105375780635b5e760c146105625780635c975abb146105a357806362eb6da1146105d257806365e807ab14610601578063715018a614610642578063778317c4146106595780637ea5d50e146106905780638456cb59146106bb57806389ed0b30146106d25780638a25aefa146107055780638d8f2adb146107305780638da5cb5b146107475780639429d2d91461079e578063963d62fb146107f95780639d76ea5814610824578063a4009e231461087b578063aa3dacac146108aa578063b1648152146108d5578063b2f3319e1461090c578063b45cff5f1461093b578063b46631cd14610966578063bf1fe4201461099d578063c6e2a071146109ca578063d02cc69f14610a65578063df065d7814610a85578063e320697514610ab0578063e4db0c5e14610adb578063f2fde38b14610b32578063f91a545b14610b75578063fc0808e514610ba0575b005b34801561021c57600080fd5b50610251600480360381019080803573ffffffffffffffffffffffffffffffffffffffff169060200190929190505050610bcb565b6040518084151515158152602001838152602001828152602001935050505060405180910390f35b34801561028557600080fd5b506102c4600480360381019080803573ffffffffffffffffffffffffffffffffffffffff16906020019092919080359060200190929190505050610c02565b005b3480156102d257600080fd5b506102f160048036038101908080359060200190929190505050610d06565b005b3480156102ff57600080fd5b50610308610d89565b6040518082815260200191505060405180910390f35b34801561032a57600080fd5b5061035f600480360381019080803573ffffffffffffffffffffffffffffffffffffffff169060200190929190505050610d8f565b6040518082815260200191505060405180910390f35b34801561038157600080fd5b5061038a610ea0565b005b34801561039857600080fd5b506104016004803603810190808035600019169060200190929190803590602001908201803590602001908080601f0160208091040260200160405190810160405280939291908181526020018383808284378201915050505050509192919290505050610f5c565b005b34801561040f57600080fd5b50610418611686565b6040518082815260200191505060405180910390f35b6104366116a3565b005b34801561044457600080fd5b506104f36004803603810190808035600019169060200190929190803590602001908201803590602001908080601f0160208091040260200160405190810160405280939291908181526020018383808284378201915050505050509192919290803590602001908201803590602001908080601f01602080910402602001604051908101604052809392919081815260200183838082843782019150505050505091929192905050506118ff565b005b34801561050157600080fd5b5061050a611904565b005b34801561051857600080fd5b506105216119c4565b6040518082815260200191505060405180910390f35b34801561054357600080fd5b5061054c6119ca565b6040518082815260200191505060405180910390f35b34801561056e57600080fd5b5061058d60048036038101908080359060200190929190505050611be7565b6040518082815260200191505060405180910390f35b3480156105af57600080fd5b506105b8611bfe565b604051808215151515815260200191505060405180910390f35b3480156105de57600080fd5b506105e7611c11565b604051808215151515815260200191505060405180910390f35b34801561060d57600080fd5b5061062c60048036038101908080359060200190929190505050611c24565b6040518082815260200191505060405180910390f35b34801561064e57600080fd5b50610657611c3b565b005b34801561066557600080fd5b5061068e6004803603810190808035906020019092919080359060200190929190505050611d40565b005b34801561069c57600080fd5b506106a5611dd4565b6040518082815260200191505060405180910390f35b3480156106c757600080fd5b506106d0611dda565b005b3480156106de57600080fd5b50610703600480360381019080803563ffffffff169060200190929190505050611e9b565b005b34801561071157600080fd5b5061071a611f07565b6040518082815260200191505060405180910390f35b34801561073c57600080fd5b50610745611f0d565b005b34801561075357600080fd5b5061075c612169565b604051808273ffffffffffffffffffffffffffffffffffffffff1673ffffffffffffffffffffffffffffffffffffffff16815260200191505060405180910390f35b3480156107aa57600080fd5b506107df600480360381019080803573ffffffffffffffffffffffffffffffffffffffff16906020019092919050505061218f565b604051808215151515815260200191505060405180910390f35b34801561080557600080fd5b5061080e6121af565b6040518082815260200191505060405180910390f35b34801561083057600080fd5b506108396121b5565b604051808273ffffffffffffffffffffffffffffffffffffffff1673ffffffffffffffffffffffffffffffffffffffff16815260200191505060405180910390f35b34801561088757600080fd5b506108906121db565b604051808215151515815260200191505060405180910390f35b3480156108b657600080fd5b506108bf6121ee565b6040518082815260200191505060405180910390f35b3480156108e157600080fd5b5061090a60048036038101908080359060200190929190803590602001909291905050506121f4565b005b34801561091857600080fd5b50610939600480360381019080803515159060200190929190505050612270565b005b34801561094757600080fd5b506109506122e9565b6040518082815260200191505060405180910390f35b34801561097257600080fd5b5061099b6004803603810190808035906020019092919080359060200190929190505050612308565b005b3480156109a957600080fd5b506109c8600480360381019080803590602001909291905050506123b2565b005b3480156109d657600080fd5b506109f9600480360381019080803560001916906020019092919050505061241a565b604051808873ffffffffffffffffffffffffffffffffffffffff1673ffffffffffffffffffffffffffffffffffffffff16815260200187815260200186815260200185815260200184815260200183815260200182815260200197505050505050505060405180910390f35b610a836004803603810190808035906020019092919050505061247c565b005b348015610a9157600080fd5b50610a9a6129e4565b6040518082815260200191505060405180910390f35b348015610abc57600080fd5b50610ac56129ea565b6040518082815260200191505060405180910390f35b348015610ae757600080fd5b50610b1c600480360381019080803573ffffffffffffffffffffffffffffffffffffffff1690602001909291905050506129f0565b6040518082815260200191505060405180910390f35b348015610b3e57600080fd5b50610b73600480360381019080803573ffffffffffffffffffffffffffffffffffffffff169060200190929190505050612a08565b005b348015610b8157600080fd5b50610b8a612a70565b6040518082815260200191505060405180910390f35b348015610bac57600080fd5b50610bb5612a8d565b6040518082815260200191505060405180910390f35b60136020528060005260406000206000915090508060000160009054906101000a900460ff16908060010154908060020154905083565b600560009054906101000a900473ffffffffffffffffffffffffffffffffffffffff1673ffffffffffffffffffffffffffffffffffffffff163373ffffffffffffffffffffffffffffffffffffffff16141515610c5e57600080fd5b81600660006101000a81548173ffffffffffffffffffffffffffffffffffffffff021916908373ffffffffffffffffffffffffffffffffffffffff16021790555081600860006101000a81548173ffffffffffffffffffffffffffffffffffffffff021916908373ffffffffffffffffffffffffffffffffffffffff1602179055506001600660146101000a81548160ff021916908315150217905550806007819055505050565b600560009054906101000a900473ffffffffffffffffffffffffffffffffffffffff1673ffffffffffffffffffffffffffffffffffffffff163373ffffffffffffffffffffffffffffffffffffffff16141515610d6257600080fd5b60008110158015610d74575060648111155b1515610d7f57600080fd5b80600e8190555050565b60075481565b6000600754600a0a600660009054906101000a900473ffffffffffffffffffffffffffffffffffffffff1673ffffffffffffffffffffffffffffffffffffffff166370a08231846040518263ffffffff167c0100000000000000000000000000000000000000000000000000000000028152600401808273ffffffffffffffffffffffffffffffffffffffff1673ffffffffffffffffffffffffffffffffffffffff168152602001915050602060405180830381600087803b158015610e5457600080fd5b505af1158015610e68573d6000803e3d6000fd5b505050506040513d6020811015610e7e57600080fd5b8101908080519060200190929190505050811515610e9857fe5b049050919050565b600560009054906101000a900473ffffffffffffffffffffffffffffffffffffffff1673ffffffffffffffffffffffffffffffffffffffff163373ffffffffffffffffffffffffffffffffffffffff16141515610efc57600080fd5b3373ffffffffffffffffffffffffffffffffffffffff166108fc3073ffffffffffffffffffffffffffffffffffffffff16319081150290604051600060405180830381858888f19350505050158015610f59573d6000803e3d6000fd5b50565b6000806000806000610f6c614ee1565b6000806000610f79612a93565b73ffffffffffffffffffffffffffffffffffffffff163373ffffffffffffffffffffffffffffffffffffffff16141515610fb257600080fd5b6000601260008d6000191660001916815260200190815260200160002060000160009054906101000a900473ffffffffffffffffffffffffffffffffffffffff1673ffffffffffffffffffffffffffffffffffffffff161415151561101657600080fd5b601260008c6000191660001916815260200190815260200160002060000160009054906101000a900473ffffffffffffffffffffffffffffffffffffffff16985060011515601460008b73ffffffffffffffffffffffffffffffffffffffff1673ffffffffffffffffffffffffffffffffffffffff16815260200190815260200160002060009054906101000a900460ff1615151415156110b657600080fd5b6000601460008b73ffffffffffffffffffffffffffffffffffffffff1673ffffffffffffffffffffffffffffffffffffffff16815260200190815260200160002060006101000a81548160ff021916908315150217905550601560008a73ffffffffffffffffffffffffffffffffffffffff1673ffffffffffffffffffffffffffffffffffffffff1681526020019081526020016000206000905561115c8b8b8b612df1565b80985081995050508688141561143557601360008a73ffffffffffffffffffffffffffffffffffffffff1673ffffffffffffffffffffffffffffffffffffffff168152602001908152602001600020600201549450601360008a73ffffffffffffffffffffffffffffffffffffffff1673ffffffffffffffffffffffffffffffffffffffff168152602001908152602001600020600101549550601360008a73ffffffffffffffffffffffffffffffffffffffff1673ffffffffffffffffffffffffffffffffffffffff16815260200190815260200160002060000160009054906101000a900460ff16156112e657611256898688613081565b61127b89611276600361126889611be7565b61313090919063ffffffff16565b613168565b601360008a73ffffffffffffffffffffffffffffffffffffffff1673ffffffffffffffffffffffffffffffffffffffff168152602001908152602001600020600080820160006101000a81549060ff0219169055600182016000905560028201600090555050611434565b6001601360008b73ffffffffffffffffffffffffffffffffffffffff1673ffffffffffffffffffffffffffffffffffffffff16815260200190815260200160002060000160006101000a81548160ff021916908315150217905550601260008c6000191660001916815260200190815260200160002060e060405190810160405290816000820160009054906101000a900473ffffffffffffffffffffffffffffffffffffffff1673ffffffffffffffffffffffffffffffffffffffff1673ffffffffffffffffffffffffffffffffffffffff16815260200160018201548152602001600282015481526020016003820154815260200160048201548152602001600582015481526020016006820154815250509350600084606001511115611420576114128b6132c2565b61141b8b6133ae565b611433565b6114328961142d87611c24565b613168565b5b5b5b601260008c60001916600019168152602001908152602001600020600201549250601260008c600019166000191681526020019081526020016000206001015495508688111561157f5761148883611be7565b9150611495898488613081565b61149f8983613168565b601360008a73ffffffffffffffffffffffffffffffffffffffff1673ffffffffffffffffffffffffffffffffffffffff168152602001908152602001600020600080820160006101000a81549060ff0219169055600182016000905560028201600090555050601260008c60001916600019168152602001908152602001600020600080820160006101000a81549073ffffffffffffffffffffffffffffffffffffffff02191690556001820160009055600282016000905560038201600090556004820160009055600582016000905560068201600090555050611679565b868810156116785761159083611c24565b905061159c8982613168565b601360008a73ffffffffffffffffffffffffffffffffffffffff1673ffffffffffffffffffffffffffffffffffffffff168152602001908152602001600020600080820160006101000a81549060ff0219169055600182016000905560028201600090555050601260008c60001916600019168152602001908152602001600020600080820160006101000a81549073ffffffffffffffffffffffffffffffffffffffff021916905560018201600090556002820160009055600382016000905560048201600090556005820160009055600682016000905550505b5b5050505050505050505050565b6000600954670de0b6b3a764000081151561169d57fe5b04905090565b600080600560149054906101000a900460ff161515156116c257600080fd5b601360003373ffffffffffffffffffffffffffffffffffffffff1673ffffffffffffffffffffffffffffffffffffffff16815260200190815260200160002060000160009054906101000a900460ff1615611892577f6e4a8547a0f2d6541a77a459eff545d4777c23401787089993b1780e7ab979a06040518080602001828103825260138152602001807f706c617965722073757272656e646572696e670000000000000000000000000081525060200191505060405180910390a16117d56002601360003373ffffffffffffffffffffffffffffffffffffffff1673ffffffffffffffffffffffffffffffffffffffff168152602001908152602001600020600201546134b690919063ffffffff16565b9150601360003373ffffffffffffffffffffffffffffffffffffffff1673ffffffffffffffffffffffffffffffffffffffff168152602001908152602001600020600101549050611827338383613081565b601360003373ffffffffffffffffffffffffffffffffffffffff1673ffffffffffffffffffffffffffffffffffffffff168152602001908152602001600020600080820160006101000a81549060ff02191690556001820160009055600282016000905550506118fb565b7f6e4a8547a0f2d6541a77a459eff545d4777c23401787089993b1780e7ab979a06040518080602001828103825260148152602001807f6e6f7468696e6720746f2073757272656e64657200000000000000000000000081525060200191505060405180910390a15b5050565b505050565b600560009054906101000a900473ffffffffffffffffffffffffffffffffffffffff1673ffffffffffffffffffffffffffffffffffffffff163373ffffffffffffffffffffffffffffffffffffffff1614151561196057600080fd5b600560149054906101000a900460ff16151561197b57600080fd5b6000600560146101000a81548160ff0219169083151502179055507f7805862f689e2f13df9f062ff482ad3ad112aca9e0847911ed832e158c525b3360405160405180910390a1565b60115481565b6000806000600560149054906101000a900460ff161515156119eb57600080fd5b339150601560008373ffffffffffffffffffffffffffffffffffffffff1673ffffffffffffffffffffffffffffffffffffffff16815260200190815260200160002054905060011515601460008473ffffffffffffffffffffffffffffffffffffffff1673ffffffffffffffffffffffffffffffffffffffff16815260200190815260200160002060009054906101000a900460ff161515141515611a8f57600080fd5b600081111515611a9e57600080fd5b600f548111151515611aaf57600080fd5b8173ffffffffffffffffffffffffffffffffffffffff166108fc829081150290604051600060405180830381858888f19350505050158015611af5573d6000803e3d6000fd5b508173ffffffffffffffffffffffffffffffffffffffff167f325741c2c5ea17ea8829fb19547120786d784369cacb62dce5bad13aed3df6e5826040518082815260200191505060405180910390a26000601460008473ffffffffffffffffffffffffffffffffffffffff1673ffffffffffffffffffffffffffffffffffffffff16815260200190815260200160002060006101000a81548160ff021916908315150217905550601560008373ffffffffffffffffffffffffffffffffffffffff1673ffffffffffffffffffffffffffffffffffffffff16815260200190815260200160002060009055809250505090565b600060095482811515611bf657fe5b049050919050565b600560149054906101000a900460ff1681565b600660149054906101000a900460ff1681565b6000600a5482811515611c3357fe5b049050919050565b600560009054906101000a900473ffffffffffffffffffffffffffffffffffffffff1673ffffffffffffffffffffffffffffffffffffffff163373ffffffffffffffffffffffffffffffffffffffff16141515611c9757600080fd5b600560009054906101000a900473ffffffffffffffffffffffffffffffffffffffff1673ffffffffffffffffffffffffffffffffffffffff167ff8df31144d9c2f0f6b59d69b8b98abd5459d07f2742c4df920b25aae33c6482060405160405180910390a26000600560006101000a81548173ffffffffffffffffffffffffffffffffffffffff021916908373ffffffffffffffffffffffffffffffffffffffff160217905550565b600560009054906101000a900473ffffffffffffffffffffffffffffffffffffffff1673ffffffffffffffffffffffffffffffffffffffff163373ffffffffffffffffffffffffffffffffffffffff16141515611d9c57600080fd5b81670de0b6b3a7640000811515611daf57fe5b0460098190555080670de0b6b3a7640000811515611dc957fe5b04600a819055505050565b60095481565b600560009054906101000a900473ffffffffffffffffffffffffffffffffffffffff1673ffffffffffffffffffffffffffffffffffffffff163373ffffffffffffffffffffffffffffffffffffffff16141515611e3657600080fd5b600560149054906101000a900460ff16151515611e5257600080fd5b6001600560146101000a81548160ff0219169083151502179055507f6985a02210a168e66602d3235cb6db0e70f92b3ba4d376a33c0f3d9434bff62560405160405180910390a1565b600560009054906101000a900473ffffffffffffffffffffffffffffffffffffffff1673ffffffffffffffffffffffffffffffffffffffff163373ffffffffffffffffffffffffffffffffffffffff16141515611ef757600080fd5b8063ffffffff1660118190555050565b600c5481565b6000600560009054906101000a900473ffffffffffffffffffffffffffffffffffffffff1673ffffffffffffffffffffffffffffffffffffffff163373ffffffffffffffffffffffffffffffffffffffff16141515611f6b57600080fd5b600660009054906101000a900473ffffffffffffffffffffffffffffffffffffffff1673ffffffffffffffffffffffffffffffffffffffff166370a08231306040518263ffffffff167c0100000000000000000000000000000000000000000000000000000000028152600401808273ffffffffffffffffffffffffffffffffffffffff1673ffffffffffffffffffffffffffffffffffffffff168152602001915050602060405180830381600087803b15801561202857600080fd5b505af115801561203c573d6000803e3d6000fd5b505050506040513d602081101561205257600080fd5b81019080805190602001909291905050509050600660009054906101000a900473ffffffffffffffffffffffffffffffffffffffff1673ffffffffffffffffffffffffffffffffffffffff1663a9059cbb33836040518363ffffffff167c0100000000000000000000000000000000000000000000000000000000028152600401808373ffffffffffffffffffffffffffffffffffffffff1673ffffffffffffffffffffffffffffffffffffffff16815260200182815260200192505050602060405180830381600087803b15801561212a57600080fd5b505af115801561213e573d6000803e3d6000fd5b505050506040513d602081101561215457600080fd5b81019080805190602001909291905050505050565b600560009054906101000a900473ffffffffffffffffffffffffffffffffffffffff1681565b60146020528060005260406000206000915054906101000a900460ff1681565b600a5481565b600860009054906101000a900473ffffffffffffffffffffffffffffffffffffffff1681565b600b60009054906101000a900460ff1681565b600e5481565b600560009054906101000a900473ffffffffffffffffffffffffffffffffffffffff1673ffffffffffffffffffffffffffffffffffffffff163373ffffffffffffffffffffffffffffffffffffffff1614151561225057600080fd5b808211151561225e57600080fd5b8160108190555080600f819055505050565b600560009054906101000a900473ffffffffffffffffffffffffffffffffffffffff1673ffffffffffffffffffffffffffffffffffffffff163373ffffffffffffffffffffffffffffffffffffffff161415156122cc57600080fd5b80600b60006101000a81548160ff02191690831515021790555050565b60003073ffffffffffffffffffffffffffffffffffffffff1631905090565b600560009054906101000a900473ffffffffffffffffffffffffffffffffffffffff1673ffffffffffffffffffffffffffffffffffffffff163373ffffffffffffffffffffffffffffffffffffffff1614151561236457600080fd5b6101a08211158015612377575060018210155b151561238257600080fd5b6101a08111158015612395575060018110155b15156123a057600080fd5b81600c8190555080600d819055505050565b600560009054906101000a900473ffffffffffffffffffffffffffffffffffffffff1673ffffffffffffffffffffffffffffffffffffffff163373ffffffffffffffffffffffffffffffffffffffff1614151561240e57600080fd5b612417816134cc565b50565b60126020528060005260406000206000915090508060000160009054906101000a900473ffffffffffffffffffffffffffffffffffffffff16908060010154908060020154908060030154908060040154908060050154908060060154905087565b600080600080600061248c614f35565b612494614ee1565b600560149054906101000a900460ff161515156124b057600080fd5b60011515600660149054906101000a900460ff1615151415156124d257600080fd5b600088101580156124e55750600e548811155b15156124f057600080fd5b60001515601460003373ffffffffffffffffffffffffffffffffffffffff1673ffffffffffffffffffffffffffffffffffffffff16815260200190815260200160002060009054906101000a900460ff16151514151561254f57600080fd5b600f54341115801561256357506010543410155b151561256e57600080fd5b34965061259760646125898a8a61313090919063ffffffff16565b6134b690919063ffffffff16565b95506125ac868861380f90919063ffffffff16565b94507fb82d4524d34e03b0c1b0d83049ea84e18809aab1d6b3274cbb96d1617e45c3fd85878a60405180848152602001838152602001828152602001935050505060405180910390a161266c6040805190810160405280600c81526020017f576f6c6672616d416c70686100000000000000000000000000000000000000008152506040805190810160405280601a81526020017f52616e646f6d53616d706c655b52616e67655b3431365d2c325d000000000000815250601154613828565b93507f8415f67b82459151888994d7f123752ba9004f85aa373a5d717ae79a063c3faf8460405180826000191660001916815260200191505060405180910390a16126ee6040805190810160405280600c81526020017f576f6c6672616d416c7068610000000000000000000000000000000000000000815250601154613dd8565b9250601360003373ffffffffffffffffffffffffffffffffffffffff1673ffffffffffffffffffffffffffffffffffffffff16815260200190815260200160002060000160009054906101000a900460ff16156127a357601360003373ffffffffffffffffffffffffffffffffffffffff1673ffffffffffffffffffffffffffffffffffffffff168152602001908152602001600020600201543414151561279257fe5b60008614151561279e57fe5b61283c565b60606040519081016040528060001515815260200184815260200186815250915081601360003373ffffffffffffffffffffffffffffffffffffffff1673ffffffffffffffffffffffffffffffffffffffff16815260200190815260200160002060008201518160000160006101000a81548160ff02191690831515021790555060208201518160010155604082015181600201559050505b60e0604051908101604052803373ffffffffffffffffffffffffffffffffffffffff16815260200184815260200186815260200187815260200189815260200160008152602001600081525090508060126000866000191660001916815260200190815260200160002060008201518160000160006101000a81548173ffffffffffffffffffffffffffffffffffffffff021916908373ffffffffffffffffffffffffffffffffffffffff1602179055506020820151816001015560408201518160020155606082015181600301556080820151816004015560a0820151816005015560c0820151816006015590505061293f833461380f90919063ffffffff16565b601560003373ffffffffffffffffffffffffffffffffffffffff1673ffffffffffffffffffffffffffffffffffffffff168152602001908152602001600020819055506001601460003373ffffffffffffffffffffffffffffffffffffffff1673ffffffffffffffffffffffffffffffffffffffff16815260200190815260200160002060006101000a81548160ff0219169083151502179055505050505050505050565b600d5481565b600f5481565b60156020528060005260406000206000915090505481565b600560009054906101000a900473ffffffffffffffffffffffffffffffffffffffff1673ffffffffffffffffffffffffffffffffffffffff163373ffffffffffffffffffffffffffffffffffffffff16141515612a6457600080fd5b612a6d816141b1565b50565b6000600a54670de0b6b3a7640000811515612a8757fe5b04905090565b60105481565b6000806000809054906101000a900473ffffffffffffffffffffffffffffffffffffffff1673ffffffffffffffffffffffffffffffffffffffff161480612b0357506000612b016000809054906101000a900473ffffffffffffffffffffffffffffffffffffffff166142ad565b145b15612b1457612b1260006142b8565b505b6000809054906101000a900473ffffffffffffffffffffffffffffffffffffffff1673ffffffffffffffffffffffffffffffffffffffff166338cc48316040518163ffffffff167c0100000000000000000000000000000000000000000000000000000000028152600401602060405180830381600087803b158015612b9957600080fd5b505af1158015612bad573d6000803e3d6000fd5b505050506040513d6020811015612bc357600080fd5b810190808051906020019092919050505073ffffffffffffffffffffffffffffffffffffffff16600160009054906101000a900473ffffffffffffffffffffffffffffffffffffffff1673ffffffffffffffffffffffffffffffffffffffff16141515612d2b576000809054906101000a900473ffffffffffffffffffffffffffffffffffffffff1673ffffffffffffffffffffffffffffffffffffffff166338cc48316040518163ffffffff167c0100000000000000000000000000000000000000000000000000000000028152600401602060405180830381600087803b158015612caf57600080fd5b505af1158015612cc3573d6000803e3d6000fd5b505050506040513d6020811015612cd957600080fd5b8101908080519060200190929190505050600160006101000a81548173ffffffffffffffffffffffffffffffffffffffff021916908373ffffffffffffffffffffffffffffffffffffffff1602179055505b600160009054906101000a900473ffffffffffffffffffffffffffffffffffffffff1673ffffffffffffffffffffffffffffffffffffffff1663c281d19e6040518163ffffffff167c0100000000000000000000000000000000000000000000000000000000028152600401602060405180830381600087803b158015612db157600080fd5b505af1158015612dc5573d6000803e3d6000fd5b505050506040513d6020811015612ddb57600080fd5b8101908080519060200190929190505050905090565b600080612dfc614f59565b612e04614f59565b600080600080612e138a6142c9565b9550612eb4612e566040805190810160405280600181526020017f7d000000000000000000000000000000000000000000000000000000000000008152506142c9565b612ea6612e976040805190810160405280600181526020017f7b000000000000000000000000000000000000000000000000000000000000008152506142c9565b896142f790919063ffffffff16565b61438190919063ffffffff16565b50612ef36040805190810160405280600181526020017f2c000000000000000000000000000000000000000000000000000000000000008152506142c9565b9450612f18612f13612f0e878961440290919063ffffffff16565b61441c565b61447e565b9350612f3d612f38612f33878961440290919063ffffffff16565b61441c565b61447e565b9250600b60009054906101000a900460ff1615612f5f57600c549350600d5492505b612f6884614492565b601260008d6000191660001916815260200190815260200160002060060181905550612f9383614492565b601260008d6000191660001916815260200190815260200160002060050181905550601260008c60001916600019168152602001908152602001600020600601549150601260008c600019166000191681526020019081526020016000206005015490508873ffffffffffffffffffffffffffffffffffffffff167fa3afae828658e1e58da778b78eeab7f29d71765dbd93a09381b6bcad486866e58c848488886040518086600019166000191681526020018581526020018481526020018381526020018281526020019550505050505060405180910390a2808297509750505050505050935093915050565b613094818361380f90919063ffffffff16565b91508273ffffffffffffffffffffffffffffffffffffffff166108fc839081150290604051600060405180830381858888f193505050501580156130dc573d6000803e3d6000fd5b508273ffffffffffffffffffffffffffffffffffffffff167f325741c2c5ea17ea8829fb19547120786d784369cacb62dce5bad13aed3df6e5836040518082815260200191505060405180910390a2505050565b6000808314156131435760009050613162565b818302905081838281151561315457fe5b0414151561315e57fe5b8090505b92915050565b600660009054906101000a900473ffffffffffffffffffffffffffffffffffffffff1673ffffffffffffffffffffffffffffffffffffffff1663a9059cbb83600754600a0a84026040518363ffffffff167c0100000000000000000000000000000000000000000000000000000000028152600401808373ffffffffffffffffffffffffffffffffffffffff1673ffffffffffffffffffffffffffffffffffffffff16815260200182815260200192505050602060405180830381600087803b15801561323457600080fd5b505af1158015613248573d6000803e3d6000fd5b505050506040513d602081101561325e57600080fd5b8101908080519060200190929190505050508173ffffffffffffffffffffffffffffffffffffffff167f636445730b1bbf400b84597c178e4bd11b72e774f51f9f3c524e51ad8f88a2aa826040518082815260200191505060405180910390a25050565b6132ca614ee1565b60126000836000191660001916815260200190815260200160002060e060405190810160405290816000820160009054906101000a900473ffffffffffffffffffffffffffffffffffffffff1673ffffffffffffffffffffffffffffffffffffffff1673ffffffffffffffffffffffffffffffffffffffff168152602001600182015481526020016002820154815260200160038201548152602001600482015481526020016005820154815260200160068201548152505090506000816060015111156133aa576133a9816000015182606001518360200151613081565b5b5050565b6133b6614ee1565b600060126000846000191660001916815260200190815260200160002060e060405190810160405290816000820160009054906101000a900473ffffffffffffffffffffffffffffffffffffffff1673ffffffffffffffffffffffffffffffffffffffff1673ffffffffffffffffffffffffffffffffffffffff168152602001600182015481526020016002820154815260200160038201548152602001600482015481526020016005820154815260200160068201548152505091506000826060015111156134b1576134a0600a6134928460600151611be7565b61313090919063ffffffff16565b90506134b0826000015182613168565b5b505050565b600081838115156134c357fe5b04905092915050565b60008060009054906101000a900473ffffffffffffffffffffffffffffffffffffffff1673ffffffffffffffffffffffffffffffffffffffff16148061353b575060006135396000809054906101000a900473ffffffffffffffffffffffffffffffffffffffff166142ad565b145b1561354c5761354a60006142b8565b505b6000809054906101000a900473ffffffffffffffffffffffffffffffffffffffff1673ffffffffffffffffffffffffffffffffffffffff166338cc48316040518163ffffffff167c0100000000000000000000000000000000000000000000000000000000028152600401602060405180830381600087803b1580156135d157600080fd5b505af11580156135e5573d6000803e3d6000fd5b505050506040513d60208110156135fb57600080fd5b810190808051906020019092919050505073ffffffffffffffffffffffffffffffffffffffff16600160009054906101000a900473ffffffffffffffffffffffffffffffffffffffff1673ffffffffffffffffffffffffffffffffffffffff16141515613763576000809054906101000a900473ffffffffffffffffffffffffffffffffffffffff1673ffffffffffffffffffffffffffffffffffffffff166338cc48316040518163ffffffff167c0100000000000000000000000000000000000000000000000000000000028152600401602060405180830381600087803b1580156136e757600080fd5b505af11580156136fb573d6000803e3d6000fd5b505050506040513d602081101561371157600080fd5b8101908080519060200190929190505050600160006101000a81548173ffffffffffffffffffffffffffffffffffffffff021916908373ffffffffffffffffffffffffffffffffffffffff1602179055505b600160009054906101000a900473ffffffffffffffffffffffffffffffffffffffff1673ffffffffffffffffffffffffffffffffffffffff1663ca6ad1e4826040518263ffffffff167c010000000000000000000000000000000000000000000000000000000002815260040180828152602001915050600060405180830381600087803b1580156137f457600080fd5b505af1158015613808573d6000803e3d6000fd5b5050505050565b600082821115151561381d57fe5b818303905092915050565b60008060008060009054906101000a900473ffffffffffffffffffffffffffffffffffffffff1673ffffffffffffffffffffffffffffffffffffffff16148061389a575060006138986000809054906101000a900473ffffffffffffffffffffffffffffffffffffffff166142ad565b145b156138ab576138a960006142b8565b505b6000809054906101000a900473ffffffffffffffffffffffffffffffffffffffff1673ffffffffffffffffffffffffffffffffffffffff166338cc48316040518163ffffffff167c0100000000000000000000000000000000000000000000000000000000028152600401602060405180830381600087803b15801561393057600080fd5b505af1158015613944573d6000803e3d6000fd5b505050506040513d602081101561395a57600080fd5b810190808051906020019092919050505073ffffffffffffffffffffffffffffffffffffffff16600160009054906101000a900473ffffffffffffffffffffffffffffffffffffffff1673ffffffffffffffffffffffffffffffffffffffff16141515613ac2576000809054906101000a900473ffffffffffffffffffffffffffffffffffffffff1673ffffffffffffffffffffffffffffffffffffffff166338cc48316040518163ffffffff167c0100000000000000000000000000000000000000000000000000000000028152600401602060405180830381600087803b158015613a4657600080fd5b505af1158015613a5a573d6000803e3d6000fd5b505050506040513d6020811015613a7057600080fd5b8101908080519060200190929190505050600160006101000a81548173ffffffffffffffffffffffffffffffffffffffff021916908373ffffffffffffffffffffffffffffffffffffffff1602179055505b600160009054906101000a900473ffffffffffffffffffffffffffffffffffffffff1673ffffffffffffffffffffffffffffffffffffffff16632ef3accc86856040518363ffffffff167c01000000000000000000000000000000000000000000000000000000000281526004018080602001838152602001828103825284818151815260200191508051906020019080838360005b83811015613b73578082015181840152602081019050613b58565b50505050905090810190601f168015613ba05780820380516001836020036101000a031916815260200191505b509350505050602060405180830381600087803b158015613bc057600080fd5b505af1158015613bd4573d6000803e3d6000fd5b505050506040513d6020811015613bea57600080fd5b81019080805190602001909291905050509050823a02670de0b6b3a764000001811115613c1d5760006001029150613dd0565b600160009054906101000a900473ffffffffffffffffffffffffffffffffffffffff1673ffffffffffffffffffffffffffffffffffffffff1663c51be90f8260008888886040518663ffffffff167c0100000000000000000000000000000000000000000000000000000000028152600401808581526020018060200180602001848152602001838103835286818151815260200191508051906020019080838360005b83811015613cdc578082015181840152602081019050613cc1565b50505050905090810190601f168015613d095780820380516001836020036101000a031916815260200191505b50838103825285818151815260200191508051906020019080838360005b83811015613d42578082015181840152602081019050613d27565b50505050905090810190601f168015613d6f5780820380516001836020036101000a031916815260200191505b5096505050505050506020604051808303818588803b158015613d9157600080fd5b505af1158015613da5573d6000803e3d6000fd5b50505050506040513d6020811015613dbc57600080fd5b810190808051906020019092919050505091505b509392505050565b6000806000809054906101000a900473ffffffffffffffffffffffffffffffffffffffff1673ffffffffffffffffffffffffffffffffffffffff161480613e4857506000613e466000809054906101000a900473ffffffffffffffffffffffffffffffffffffffff166142ad565b145b15613e5957613e5760006142b8565b505b6000809054906101000a900473ffffffffffffffffffffffffffffffffffffffff1673ffffffffffffffffffffffffffffffffffffffff166338cc48316040518163ffffffff167c0100000000000000000000000000000000000000000000000000000000028152600401602060405180830381600087803b158015613ede57600080fd5b505af1158015613ef2573d6000803e3d6000fd5b505050506040513d6020811015613f0857600080fd5b810190808051906020019092919050505073ffffffffffffffffffffffffffffffffffffffff16600160009054906101000a900473ffffffffffffffffffffffffffffffffffffffff1673ffffffffffffffffffffffffffffffffffffffff16141515614070576000809054906101000a900473ffffffffffffffffffffffffffffffffffffffff1673ffffffffffffffffffffffffffffffffffffffff166338cc48316040518163ffffffff167c0100000000000000000000000000000000000000000000000000000000028152600401602060405180830381600087803b158015613ff457600080fd5b505af1158015614008573d6000803e3d6000fd5b505050506040513d602081101561401e57600080fd5b8101908080519060200190929190505050600160006101000a81548173ffffffffffffffffffffffffffffffffffffffff021916908373ffffffffffffffffffffffffffffffffffffffff1602179055505b600160009054906101000a900473ffffffffffffffffffffffffffffffffffffffff1673ffffffffffffffffffffffffffffffffffffffff16632ef3accc84846040518363ffffffff167c01000000000000000000000000000000000000000000000000000000000281526004018080602001838152602001828103825284818151815260200191508051906020019080838360005b83811015614121578082015181840152602081019050614106565b50505050905090810190601f16801561414e5780820380516001836020036101000a031916815260200191505b509350505050602060405180830381600087803b15801561416e57600080fd5b505af1158015614182573d6000803e3d6000fd5b505050506040513d602081101561419857600080fd5b8101908080519060200190929190505050905092915050565b600073ffffffffffffffffffffffffffffffffffffffff168173ffffffffffffffffffffffffffffffffffffffff16141515156141ed57600080fd5b8073ffffffffffffffffffffffffffffffffffffffff16600560009054906101000a900473ffffffffffffffffffffffffffffffffffffffff1673ffffffffffffffffffffffffffffffffffffffff167f8be0079c531659141344cd1fd0a4f28419497f9722a3daafe3b4186f6b6457e060405160405180910390a380600560006101000a81548173ffffffffffffffffffffffffffffffffffffffff021916908373ffffffffffffffffffffffffffffffffffffffff16021790555050565b6000813b9050919050565b60006142c2614559565b9050919050565b6142d1614f59565b600060208301905060408051908101604052808451815260200182815250915050919050565b6142ff614f59565b60008260000151846000015110156143195783915061437a565b6001905082602001518460200151141515614347578251602085015160208501518281208383201493505050505b801561437657826000015184600001818151039150818152505082600001518460200181815101915081815250505b8391505b5092915050565b614389614f59565b6000808360000151856000015110156143a4578492506143fa565b83600001518560000151866020015101039150600190508360200151821415156143db578351602085015181812082852014925050505b80156143f65783600001518560000181815103915081815250505b8492505b505092915050565b61440a614f59565b6144158383836149e8565b5092915050565b606080600083600001516040519080825280601f01601f1916602001820160405280156144585781602001602082028038833980820191505090505b5091506020820190506144748185602001518660000151614a86565b8192505050919050565b600061448b826000614ad1565b9050919050565b60006101a08211806144a45750600182105b156144b25760009050614554565b6034828115156144be57fe5b06915060008214156144d357600d9050614554565b6004821115156144e657600e9050614554565b60006004838115156144f457fe5b0611156145295761452260016145146004856134b690919063ffffffff16565b614dc590919063ffffffff16565b9150614540565b61453d6004836134b690919063ffffffff16565b91505b6001821461454e5781614551565b600e5b90505b919050565b600080614579731d3b2638a7cc9f2cb3d298a3da7a90b67e5506ed6142ad565b111561461a57731d3b2638a7cc9f2cb3d298a3da7a90b67e5506ed6000806101000a81548173ffffffffffffffffffffffffffffffffffffffff021916908373ffffffffffffffffffffffffffffffffffffffff1602179055506146116040805190810160405280600b81526020017f6574685f6d61696e6e6574000000000000000000000000000000000000000000815250614de1565b600190506149e5565b600061463973c03a2615d5efaf5f49f60b7bb6583eaec212fdf16142ad565b11156146da5773c03a2615d5efaf5f49f60b7bb6583eaec212fdf16000806101000a81548173ffffffffffffffffffffffffffffffffffffffff021916908373ffffffffffffffffffffffffffffffffffffffff1602179055506146d16040805190810160405280600c81526020017f6574685f726f707374656e330000000000000000000000000000000000000000815250614de1565b600190506149e5565b60006146f973b7a07bcf2ba2f2703b24c0691b5278999c59ac7e6142ad565b111561479a5773b7a07bcf2ba2f2703b24c0691b5278999c59ac7e6000806101000a81548173ffffffffffffffffffffffffffffffffffffffff021916908373ffffffffffffffffffffffffffffffffffffffff1602179055506147916040805190810160405280600981526020017f6574685f6b6f76616e0000000000000000000000000000000000000000000000815250614de1565b600190506149e5565b60006147b973146500cfd35b22e4a392fe0adc06de1a1368ed486142ad565b111561485a5773146500cfd35b22e4a392fe0adc06de1a1368ed486000806101000a81548173ffffffffffffffffffffffffffffffffffffffff021916908373ffffffffffffffffffffffffffffffffffffffff1602179055506148516040805190810160405280600b81526020017f6574685f72696e6b656279000000000000000000000000000000000000000000815250614de1565b600190506149e5565b6000614879736f485c8bf6fc43ea212e93bbf8ce046c7f1cb4756142ad565b11156148dc57736f485c8bf6fc43ea212e93bbf8ce046c7f1cb4756000806101000a81548173ffffffffffffffffffffffffffffffffffffffff021916908373ffffffffffffffffffffffffffffffffffffffff160217905550600190506149e5565b60006148fb7320e12a1f859b3feae5fb2a0a32c18f5a65555bbf6142ad565b111561495e577320e12a1f859b3feae5fb2a0a32c18f5a65555bbf6000806101000a81548173ffffffffffffffffffffffffffffffffffffffff021916908373ffffffffffffffffffffffffffffffffffffffff160217905550600190506149e5565b600061497d7351efaf4c8b3c9afbd5ab9f4bbc82784ab6ef8faa6142ad565b11156149e0577351efaf4c8b3c9afbd5ab9f4bbc82784ab6ef8faa6000806101000a81548173ffffffffffffffffffffffffffffffffffffffff021916908373ffffffffffffffffffffffffffffffffffffffff160217905550600190506149e5565b600090505b90565b6149f0614f59565b6000614a0e8560000151866020015186600001518760200151614dfb565b90508460200151836020018181525050846020015181038360000181815250508460000151856020015101811415614a50576000856000018181525050614a7b565b8360000151836000015101856000018181510391508181525050836000015181018560200181815250505b829150509392505050565b60005b602082101515614aae5782518452602084019350602083019250602082039150614a89565b6001826020036101000a0390508019835116818551168181178652505050505050565b6000606060008060008693506000925060009150600090505b8351811015614da65760307f0100000000000000000000000000000000000000000000000000000000000000028482815181101515614b2557fe5b9060200101517f010000000000000000000000000000000000000000000000000000000000000090047f0100000000000000000000000000000000000000000000000000000000000000027effffffffffffffffffffffffffffffffffffffffffffffffffffffffffffff191610158015614c3d575060397f0100000000000000000000000000000000000000000000000000000000000000028482815181101515614bcd57fe5b9060200101517f010000000000000000000000000000000000000000000000000000000000000090047f0100000000000000000000000000000000000000000000000000000000000000027effffffffffffffffffffffffffffffffffffffffffffffffffffffffffffff191611155b15614cee578115614c60576000861415614c5657614da6565b8580600190039650505b600a8302925060308482815181101515614c7657fe5b9060200101517f010000000000000000000000000000000000000000000000000000000000000090047f0100000000000000000000000000000000000000000000000000000000000000027f010000000000000000000000000000000000000000000000000000000000000090040383019250614d99565b602e7f0100000000000000000000000000000000000000000000000000000000000000028482815181101515614d2057fe5b9060200101517f010000000000000000000000000000000000000000000000000000000000000090047f0100000000000000000000000000000000000000000000000000000000000000027effffffffffffffffffffffffffffffffffffffffffffffffffffffffffffff19161415614d9857600191505b5b8080600101915050614aea565b6000861115614db85785600a0a830292505b8294505050505092915050565b60008183019050828110151515614dd857fe5b80905092915050565b8060029080519060200190614df7929190614f73565b5050565b60008060008060008060008060008b97508c8b111515614ecb5760208b111515614e855760018b60200360080260020a03196001029550858a511694508a8d8d010393508588511692505b84600019168360001916141515614e7d578388101515614e6a578c8c019850614ed1565b8780600101985050858851169250614e46565b879850614ed1565b8a8a209150600096505b8a8d0387111515614eca578a88209050806000191682600019161415614eb757879850614ed1565b6001880197508680600101975050614e8f565b5b8c8c0198505b5050505050505050949350505050565b60e060405190810160405280600073ffffffffffffffffffffffffffffffffffffffff1681526020016000815260200160008152602001600081526020016000815260200160008152602001600081525090565b60606040519081016040528060001515815260200160008152602001600081525090565b604080519081016040528060008152602001600081525090565b828054600181600116156101000203166002900490600052602060002090601f016020900481019282601f10614fb457805160ff1916838001178555614fe2565b82800160010185558215614fe2579182015b82811115614fe1578251825591602001919060010190614fc6565b5b509050614fef9190614ff3565b5090565b61501591905b80821115615011576000816000905550600101614ff9565b5090565b905600a165627a7a7230582008b2e3b3f1283e6ed3da7f1f182c0842c081f2aadbe33d9f2877f29cd6cf8a610029",
  "source": "pragma solidity 0.4.24;\n\nimport \"../installed_contracts/oraclize/contracts/usingOraclize.sol\";\nimport \"../installed_contracts/stringutils/strings.sol\";\nimport \"zeppelin-solidity/contracts/lifecycle/Pausable.sol\";\nimport \"zeppelin-solidity/contracts/math/SafeMath.sol\";\nimport \"./PlayToken.sol\";\nimport \"./CustomEvents.sol\";\nimport \"./TestMode.sol\";\n\ncontract War is usingOraclize, Pausable, PlayToken, CustomEvents, TestMode {\n    using strings for *;\n    using SafeMath for uint;\n\n    // default game settings\n    uint public sideBetPercent_MAX = 80;\n    uint public bet_MAX = 10 ether;\n    uint public bet_MIN = 0.05 ether;\n    uint public gasForShuffle = 185000;\n\n    // player info store\n    struct Info{\n        address playerAddress;\n        uint fees;\n        uint mainBetAmount;\n        uint sideBetAmount;\n        uint sideBetPercentage;\n        uint playerHand;\n        uint houseHand;\n    }\n\n    struct FirstHand{\n      bool isTied;\n      uint fees;\n      uint mainBetAmount;\n    }\n\n    mapping (bytes32 => Info) public hand_info;\n    mapping (address => FirstHand) public firstHandInfo;\n    mapping (address => bool) public hasHandInProgress;\n    mapping (address => uint) public refundPool;\n\n    constructor() public {\n      oraclize_setCustomGasPrice(20000000000);\n    }\n    function() public payable {}\n\n//=====================\n// Game Settings\n//=====================\n    function setGasPrice(uint gasPrice) public onlyOwner{\n      oraclize_setCustomGasPrice(gasPrice);\n    }\n    function setOraclizeGas(uint32 gasAmount) public onlyOwner{\n      gasForShuffle = gasAmount;\n    }\n\n    function setBetMinMax(uint min_bet, uint max_bet) public onlyOwner{\n      require(min_bet > max_bet);\n      bet_MIN = min_bet;\n      bet_MAX = max_bet;\n    }\n\n    function setSideBetPercentage(uint percentage) public onlyOwner{\n      require(percentage >= 0 && percentage <= 100);\n      sideBetPercent_MAX = percentage;\n    }\n//=====================\n// Main gameplay\n//=====================\n    function playWar(uint sideBetPercent) public whenNotPaused TokenCheck payable {\n\n      require(sideBetPercent >= 0 && sideBetPercent <= sideBetPercent_MAX);\n\n      require(hasHandInProgress[msg.sender]==false);\n\n      require(msg.value <= bet_MAX && msg.value >= bet_MIN);\n\n      uint betAmount = msg.value;\n      uint sideBetAmount = betAmount.mul(sideBetPercent).div(100);\n      uint mainBetAmount = betAmount.sub(sideBetAmount);\n\n      emit DEBUG_betSplit(mainBetAmount, sideBetAmount, sideBetPercent);\n\n      //Initiate oraclize call\n      bytes32 orcID = oraclize_query(\"WolframAlpha\", \"RandomSample[Range[416],2]\",gasForShuffle);\n      emit currentOrcID(orcID);\n\n      uint orcFees = oraclize_getPrice(\"WolframAlpha\", gasForShuffle);\n\n      //check if previous hand was a tie and player chose to go to WAR\n      if(firstHandInfo[msg.sender].isTied){\n        assert(msg.value == firstHandInfo[msg.sender].mainBetAmount);\n        assert(sideBetAmount == 0);\n      }\n      else{\n        FirstHand memory thisHand = FirstHand({\n          isTied : false,\n          fees: orcFees,\n          mainBetAmount : mainBetAmount\n        });\n        firstHandInfo[msg.sender] = thisHand;\n      }\n\n      Info memory info = Info({\n          playerAddress : msg.sender,\n          mainBetAmount : mainBetAmount,\n          sideBetAmount : sideBetAmount,\n          fees: orcFees,\n          sideBetPercentage : sideBetPercent,\n          playerHand : 0,\n          houseHand : 0\n      });\n\n      hand_info[orcID] = info;\n      refundPool[msg.sender] = msg.value.sub(orcFees);\n      hasHandInProgress[msg.sender] = true;\n    }\n\n    function parseResult(bytes32 orcID, string result, address playerAddr) private returns(uint, uint){\n        strings.slice memory partition = result.toSlice();\n        partition.beyond(\"{\".toSlice()).until(\"}\".toSlice());\n        strings.slice memory delim = \",\".toSlice();\n\n        uint houseRaw = parseInt(partition.split(delim).toString());\n        uint playerRaw = parseInt(partition.split(delim).toString());\n\n        if(TEST_MODE){\n          houseRaw = TEST_HOUSE;\n          playerRaw = TEST_PLAYER;\n        }\n\n        hand_info[orcID].houseHand = getCardValue(houseRaw);\n        hand_info[orcID].playerHand = getCardValue(playerRaw);\n\n        uint houseHand = hand_info[orcID].houseHand;\n        uint playerHand = hand_info[orcID].playerHand;\n\n        emit dealtCards(playerAddr, orcID, houseHand, playerHand, houseRaw, playerRaw);\n\n        return(playerHand, houseHand);\n    }\n\n    function __callback(bytes32 orcID, string result) public{\n        //security checks\n        require(msg.sender == oraclize_cbAddress());\n        require(hand_info[orcID].playerAddress!=0x0);\n\n        address playerAddr = hand_info[orcID].playerAddress;\n        require(hasHandInProgress[playerAddr]==true);\n\n        hasHandInProgress[playerAddr] = false;\n        delete refundPool[playerAddr];\n\n        uint playerHand;\n        uint houseHand;\n\n        (playerHand, houseHand) =  parseResult(orcID, result, playerAddr);\n\n        uint fees;\n\n        if(playerHand == houseHand){\n            uint betAmount = firstHandInfo[playerAddr].mainBetAmount;\n            fees = firstHandInfo[playerAddr].fees;\n\n            if(firstHandInfo[playerAddr].isTied){\n                pay(playerAddr, betAmount,fees);\n                payToken(playerAddr, getTokenWinValue(betAmount).mul(3));\n                delete firstHandInfo[playerAddr];\n            }\n            else{\n                firstHandInfo[playerAddr].isTied = true;\n\n                Info memory hand = hand_info[orcID];\n\n                if(hand.sideBetAmount > 0){\n                    sideBetPay(orcID);\n                    sideBetPayToken(orcID);\n                }\n                else{\n                    payToken(playerAddr, getTokenLossValue(betAmount));\n                }\n            }\n        }\n\n        uint winAmount = hand_info[orcID].mainBetAmount;\n        fees = hand_info[orcID].fees;\n\n        //Pay winner\n        if(playerHand > houseHand){\n          uint winTokenAmount = getTokenWinValue(winAmount);\n\n          pay(playerAddr,winAmount,fees);\n          payToken(playerAddr,winTokenAmount);\n          delete firstHandInfo[playerAddr];\n          delete hand_info[orcID];\n        }\n        else if(playerHand < houseHand){\n            uint lossTokenAmount = getTokenLossValue(winAmount);\n\n            payToken(playerAddr,lossTokenAmount);\n            delete firstHandInfo[playerAddr];\n            delete hand_info[orcID];\n        }\n    }\n\n    function playerSurrender() public whenNotPaused payable {\n\n      if(firstHandInfo[msg.sender].isTied){\n          emit DEBUG_str(\"player surrendering\");\n\n        //   uint returnAmount = div(firstHandInfo[msg.sender].mainBetAmount,2);\n          uint returnAmount = (firstHandInfo[msg.sender].mainBetAmount).div(2);\n          uint fees = firstHandInfo[msg.sender].fees;\n\n          pay(msg.sender,returnAmount,fees);\n          delete firstHandInfo[msg.sender];\n      }\n      else{\n        emit DEBUG_str(\"nothing to surrender\"); //change this function to return false\n      }\n\n    }\n//=====================\n// Payment methods\n//=====================\n    function pay(address _addr, uint amount, uint fees) private {\n        amount = amount.sub(fees);\n        _addr.transfer(amount);\n        emit betPayout(_addr, amount);\n    }\n\n    function payToken(address _addr, uint amount) private {\n        Token.transfer(_addr,amount * 10 ** tokenDecimalPlaces);\n        emit betPayoutToken(_addr, amount);\n    }\n\n    function sideBetPay(bytes32 orcID) private{\n        Info memory hand = hand_info[orcID];\n\n        if(hand.sideBetAmount > 0) {\n          pay(hand.playerAddress,hand.sideBetAmount,hand.fees);\n        }\n    }\n\n    function sideBetPayToken(bytes32 orcID) private{\n        Info memory hand = hand_info[orcID];\n\n        if(hand.sideBetAmount > 0){\n          uint sideBetWin = getTokenWinValue(hand.sideBetAmount).mul(10);\n          payToken(hand.playerAddress,sideBetWin);\n        }\n    }\n\n    function refund() whenNotPaused public returns(uint){\n      address _addr = msg.sender;\n      uint amount = refundPool[_addr];\n      require(hasHandInProgress[_addr]==true);\n      require(amount>0);\n      require(amount<=bet_MAX);\n\n      _addr.transfer(amount);\n      emit betPayout(_addr, amount);\n      hasHandInProgress[_addr]=false;\n      delete refundPool[_addr];\n      return amount;\n    }\n\n    function houseBankRoll() view public returns(uint){\n        return address(this).balance;\n    }\n//=====================\n// Owner\n//=====================\n    function withdrawFunds() public onlyOwner{\n      msg.sender.transfer(address(this).balance);\n    }\n\n    function withdrawTokens() public onlyOwner{\n      uint amount = Token.balanceOf(address(this));\n      Token.transfer(msg.sender, amount);\n    }\n//=====================\n// Special\n//=====================\n    function getCardValue(uint card) private pure returns(uint){\n      if (card > 416 || card < 1) {\n        return 0;\n      }\n\n      card = card % 52;\n\n      if (card == 0) {\n        return 13;\n      } else if (card <= 4) {\n        return 14;\n      } else if (card % 4 > 0) {\n        card = card.div(4).add(1);\n      } else {\n        card = card.div(4);\n      }\n\n      return card == 1 ? 14 : card;\n    }\n}\n",
  "sourcePath": "/Users/kuaiyu/Documents/Projects/Ethereum/temp/EthinoWar/contracts/War.sol",
  "compiler": {
    "name": "solc",
    "version": "0.4.24+commit.e67f0147.Emscripten.clang"
  },
  "schemaVersion": "2.0.1",
  "updatedAt": "2018-09-06T00:30:39.765Z"
}