{
  "contractName": "War",
  "abi": [
    {
      "constant": true,
      "inputs": [
        {
          "name": "",
          "type": "address"
        }
      ],
      "name": "firstHandInfo",
      "outputs": [
        {
          "name": "isTied",
          "type": "bool"
        },
        {
          "name": "fees",
          "type": "uint256"
        },
        {
          "name": "mainBetAmount",
          "type": "uint256"
        }
      ],
      "payable": false,
      "stateMutability": "view",
      "type": "function"
    },
    {
      "constant": false,
      "inputs": [
        {
          "name": "_tokenAddress",
          "type": "address"
        },
        {
          "name": "decimalPlaces",
          "type": "uint256"
        }
      ],
      "name": "registerToken",
      "outputs": [],
      "payable": false,
      "stateMutability": "nonpayable",
      "type": "function"
    },
    {
      "constant": true,
      "inputs": [],
      "name": "tokenDecimalPlaces",
      "outputs": [
        {
          "name": "",
          "type": "uint256"
        }
      ],
      "payable": false,
      "stateMutability": "view",
      "type": "function"
    },
    {
      "constant": true,
      "inputs": [
        {
          "name": "who",
          "type": "address"
        }
      ],
      "name": "remainingTokens",
      "outputs": [
        {
          "name": "",
          "type": "uint256"
        }
      ],
      "payable": false,
      "stateMutability": "view",
      "type": "function"
    },
    {
      "constant": true,
      "inputs": [],
      "name": "getWinTokenAmount",
      "outputs": [
        {
          "name": "",
          "type": "uint256"
        }
      ],
      "payable": false,
      "stateMutability": "view",
      "type": "function"
    },
    {
      "constant": false,
      "inputs": [],
      "name": "unpause",
      "outputs": [],
      "payable": false,
      "stateMutability": "nonpayable",
      "type": "function"
    },
    {
      "constant": true,
      "inputs": [],
      "name": "gasForShuffle",
      "outputs": [
        {
          "name": "",
          "type": "uint256"
        }
      ],
      "payable": false,
      "stateMutability": "view",
      "type": "function"
    },
    {
      "constant": true,
      "inputs": [
        {
          "name": "betInWei",
          "type": "uint256"
        }
      ],
      "name": "getTokenWinValue",
      "outputs": [
        {
          "name": "",
          "type": "uint256"
        }
      ],
      "payable": false,
      "stateMutability": "view",
      "type": "function"
    },
    {
      "constant": true,
      "inputs": [],
      "name": "paused",
      "outputs": [
        {
          "name": "",
          "type": "bool"
        }
      ],
      "payable": false,
      "stateMutability": "view",
      "type": "function"
    },
    {
      "constant": true,
      "inputs": [],
      "name": "registeredToken",
      "outputs": [
        {
          "name": "",
          "type": "bool"
        }
      ],
      "payable": false,
      "stateMutability": "view",
      "type": "function"
    },
    {
      "constant": true,
      "inputs": [
        {
          "name": "betInWei",
          "type": "uint256"
        }
      ],
      "name": "getTokenLossValue",
      "outputs": [
        {
          "name": "",
          "type": "uint256"
        }
      ],
      "payable": false,
      "stateMutability": "view",
      "type": "function"
    },
    {
      "constant": false,
      "inputs": [],
      "name": "renounceOwnership",
      "outputs": [],
      "payable": false,
      "stateMutability": "nonpayable",
      "type": "function"
    },
    {
      "constant": false,
      "inputs": [
        {
          "name": "winAmount",
          "type": "uint256"
        },
        {
          "name": "lossAmount",
          "type": "uint256"
        }
      ],
      "name": "setWinLossAmount",
      "outputs": [],
      "payable": false,
      "stateMutability": "nonpayable",
      "type": "function"
    },
    {
      "constant": true,
      "inputs": [],
      "name": "tokenWinRatio",
      "outputs": [
        {
          "name": "",
          "type": "uint256"
        }
      ],
      "payable": false,
      "stateMutability": "view",
      "type": "function"
    },
    {
      "constant": false,
      "inputs": [],
      "name": "pause",
      "outputs": [],
      "payable": false,
      "stateMutability": "nonpayable",
      "type": "function"
    },
    {
      "constant": true,
      "inputs": [],
      "name": "TEST_HOUSE",
      "outputs": [
        {
          "name": "",
          "type": "uint256"
        }
      ],
      "payable": false,
      "stateMutability": "view",
      "type": "function"
    },
    {
      "constant": true,
      "inputs": [],
      "name": "owner",
      "outputs": [
        {
          "name": "",
          "type": "address"
        }
      ],
      "payable": false,
      "stateMutability": "view",
      "type": "function"
    },
    {
      "constant": true,
      "inputs": [
        {
          "name": "",
          "type": "address"
        }
      ],
      "name": "hasHandInProgress",
      "outputs": [
        {
          "name": "",
          "type": "bool"
        }
      ],
      "payable": false,
      "stateMutability": "view",
      "type": "function"
    },
    {
      "constant": true,
      "inputs": [],
      "name": "tokenLossRatio",
      "outputs": [
        {
          "name": "",
          "type": "uint256"
        }
      ],
      "payable": false,
      "stateMutability": "view",
      "type": "function"
    },
    {
      "constant": true,
      "inputs": [],
      "name": "tokenAddress",
      "outputs": [
        {
          "name": "",
          "type": "address"
        }
      ],
      "payable": false,
      "stateMutability": "view",
      "type": "function"
    },
    {
      "constant": true,
      "inputs": [],
      "name": "TEST_MODE",
      "outputs": [
        {
          "name": "",
          "type": "bool"
        }
      ],
      "payable": false,
      "stateMutability": "view",
      "type": "function"
    },
    {
      "constant": true,
      "inputs": [],
      "name": "sideBetPercent_MAX",
      "outputs": [
        {
          "name": "",
          "type": "uint256"
        }
      ],
      "payable": false,
      "stateMutability": "view",
      "type": "function"
    },
    {
      "constant": false,
      "inputs": [
        {
          "name": "state",
          "type": "bool"
        }
      ],
      "name": "ToggleTestMode",
      "outputs": [],
      "payable": false,
      "stateMutability": "nonpayable",
      "type": "function"
    },
    {
      "constant": false,
      "inputs": [
        {
          "name": "house",
          "type": "uint256"
        },
        {
          "name": "player",
          "type": "uint256"
        }
      ],
      "name": "SetTestModeHands",
      "outputs": [],
      "payable": false,
      "stateMutability": "nonpayable",
      "type": "function"
    },
    {
      "constant": true,
      "inputs": [
        {
          "name": "",
          "type": "bytes32"
        }
      ],
      "name": "hand_info",
      "outputs": [
        {
          "name": "playerAddress",
          "type": "address"
        },
        {
          "name": "fees",
          "type": "uint256"
        },
        {
          "name": "mainBetAmount",
          "type": "uint256"
        },
        {
          "name": "sideBetAmount",
          "type": "uint256"
        },
        {
          "name": "sideBetPercentage",
          "type": "uint256"
        },
        {
          "name": "playerHand",
          "type": "uint256"
        },
        {
          "name": "houseHand",
          "type": "uint256"
        }
      ],
      "payable": false,
      "stateMutability": "view",
      "type": "function"
    },
    {
      "constant": true,
      "inputs": [],
      "name": "TEST_PLAYER",
      "outputs": [
        {
          "name": "",
          "type": "uint256"
        }
      ],
      "payable": false,
      "stateMutability": "view",
      "type": "function"
    },
    {
      "constant": true,
      "inputs": [],
      "name": "bet_MAX",
      "outputs": [
        {
          "name": "",
          "type": "uint256"
        }
      ],
      "payable": false,
      "stateMutability": "view",
      "type": "function"
    },
    {
      "constant": true,
      "inputs": [
        {
          "name": "",
          "type": "address"
        }
      ],
      "name": "refundPool",
      "outputs": [
        {
          "name": "",
          "type": "uint256"
        }
      ],
      "payable": false,
      "stateMutability": "view",
      "type": "function"
    },
    {
      "constant": false,
      "inputs": [
        {
          "name": "_newOwner",
          "type": "address"
        }
      ],
      "name": "transferOwnership",
      "outputs": [],
      "payable": false,
      "stateMutability": "nonpayable",
      "type": "function"
    },
    {
      "constant": true,
      "inputs": [],
      "name": "getLossTokenAmount",
      "outputs": [
        {
          "name": "",
          "type": "uint256"
        }
      ],
      "payable": false,
      "stateMutability": "view",
      "type": "function"
    },
    {
      "constant": true,
      "inputs": [],
      "name": "bet_MIN",
      "outputs": [
        {
          "name": "",
          "type": "uint256"
        }
      ],
      "payable": false,
      "stateMutability": "view",
      "type": "function"
    },
    {
      "inputs": [],
      "payable": false,
      "stateMutability": "nonpayable",
      "type": "constructor"
    },
    {
      "payable": true,
      "stateMutability": "payable",
      "type": "fallback"
    },
    {
      "anonymous": false,
      "inputs": [
        {
          "indexed": true,
          "name": "playerAddr",
          "type": "address"
        },
        {
          "indexed": false,
          "name": "amount",
          "type": "uint256"
        }
      ],
      "name": "betPayout",
      "type": "event"
    },
    {
      "anonymous": false,
      "inputs": [
        {
          "indexed": true,
          "name": "playerAddr",
          "type": "address"
        },
        {
          "indexed": false,
          "name": "amount",
          "type": "uint256"
        }
      ],
      "name": "betPayoutToken",
      "type": "event"
    },
    {
      "anonymous": false,
      "inputs": [
        {
          "indexed": true,
          "name": "playerAddr",
          "type": "address"
        },
        {
          "indexed": false,
          "name": "orcID",
          "type": "bytes32"
        },
        {
          "indexed": false,
          "name": "dealerHand",
          "type": "uint256"
        },
        {
          "indexed": false,
          "name": "playerHand",
          "type": "uint256"
        },
        {
          "indexed": false,
          "name": "dealerSuit",
          "type": "uint256"
        },
        {
          "indexed": false,
          "name": "playerSuit",
          "type": "uint256"
        }
      ],
      "name": "dealtCards",
      "type": "event"
    },
    {
      "anonymous": false,
      "inputs": [
        {
          "indexed": true,
          "name": "playerAddr",
          "type": "address"
        },
        {
          "indexed": false,
          "name": "orcID",
          "type": "bytes32"
        }
      ],
      "name": "currentOrcID",
      "type": "event"
    },
    {
      "anonymous": false,
      "inputs": [],
      "name": "Pause",
      "type": "event"
    },
    {
      "anonymous": false,
      "inputs": [],
      "name": "Unpause",
      "type": "event"
    },
    {
      "anonymous": false,
      "inputs": [
        {
          "indexed": true,
          "name": "previousOwner",
          "type": "address"
        }
      ],
      "name": "OwnershipRenounced",
      "type": "event"
    },
    {
      "anonymous": false,
      "inputs": [
        {
          "indexed": true,
          "name": "previousOwner",
          "type": "address"
        },
        {
          "indexed": true,
          "name": "newOwner",
          "type": "address"
        }
      ],
      "name": "OwnershipTransferred",
      "type": "event"
    },
    {
      "constant": false,
      "inputs": [
        {
          "name": "gasPrice",
          "type": "uint256"
        }
      ],
      "name": "setGasPrice",
      "outputs": [],
      "payable": false,
      "stateMutability": "nonpayable",
      "type": "function"
    },
    {
      "constant": false,
      "inputs": [
        {
          "name": "gasAmount",
          "type": "uint32"
        }
      ],
      "name": "setOraclizeGas",
      "outputs": [],
      "payable": false,
      "stateMutability": "nonpayable",
      "type": "function"
    },
    {
      "constant": false,
      "inputs": [
        {
          "name": "min_bet",
          "type": "uint256"
        },
        {
          "name": "max_bet",
          "type": "uint256"
        }
      ],
      "name": "setBetMinMax",
      "outputs": [],
      "payable": false,
      "stateMutability": "nonpayable",
      "type": "function"
    },
    {
      "constant": false,
      "inputs": [
        {
          "name": "percentage",
          "type": "uint256"
        }
      ],
      "name": "setSideBetPercentage",
      "outputs": [],
      "payable": false,
      "stateMutability": "nonpayable",
      "type": "function"
    },
    {
      "constant": false,
      "inputs": [
        {
          "name": "sideBetPercent",
          "type": "uint256"
        }
      ],
      "name": "playWar",
      "outputs": [],
      "payable": true,
      "stateMutability": "payable",
      "type": "function"
    },
    {
      "constant": false,
      "inputs": [
        {
          "name": "myid",
          "type": "bytes32"
        },
        {
          "name": "result",
          "type": "string"
        },
        {
          "name": "proof",
          "type": "bytes"
        }
      ],
      "name": "__callback",
      "outputs": [],
      "payable": false,
      "stateMutability": "nonpayable",
      "type": "function"
    },
    {
      "constant": false,
      "inputs": [
        {
          "name": "orcID",
          "type": "bytes32"
        },
        {
          "name": "result",
          "type": "string"
        }
      ],
      "name": "__callback",
      "outputs": [],
      "payable": false,
      "stateMutability": "nonpayable",
      "type": "function"
    },
    {
      "constant": false,
      "inputs": [],
      "name": "playerSurrender",
      "outputs": [],
      "payable": true,
      "stateMutability": "payable",
      "type": "function"
    },
    {
      "constant": false,
      "inputs": [],
      "name": "refund",
      "outputs": [
        {
          "name": "",
          "type": "uint256"
        }
      ],
      "payable": false,
      "stateMutability": "nonpayable",
      "type": "function"
    },
    {
      "constant": true,
      "inputs": [],
      "name": "houseBankRoll",
      "outputs": [
        {
          "name": "",
          "type": "uint256"
        }
      ],
      "payable": false,
      "stateMutability": "view",
      "type": "function"
    },
    {
      "constant": false,
      "inputs": [],
      "name": "withdrawFunds",
      "outputs": [],
      "payable": false,
      "stateMutability": "nonpayable",
      "type": "function"
    },
    {
      "constant": false,
      "inputs": [],
      "name": "withdrawTokens",
      "outputs": [],
      "payable": false,
      "stateMutability": "nonpayable",
      "type": "function"
    }
  ],
  "bytecode": "0x60806040526000600560146101000a81548160ff0219169083151502179055506000600660146101000a81548160ff02191690831515021790555060026007556601f9465b8ab8e36009556611c37937e08000600a556000600b60006101000a81548160ff021916908315150217905550606f600c55606f600d556050600e55678ac7230489e80000600f5566b1a2bc2ec500006010556202d2a8601155348015620000aa57600080fd5b5033600560006101000a81548173ffffffffffffffffffffffffffffffffffffffff021916908373ffffffffffffffffffffffffffffffffffffffff1602179055506200010b6404a817c80062000111640100000000026401000000009004565b62000ad1565b60008060009054906101000a900473ffffffffffffffffffffffffffffffffffffffff1673ffffffffffffffffffffffffffffffffffffffff1614806200019257506000620001906000809054906101000a900473ffffffffffffffffffffffffffffffffffffffff1662000481640100000000026401000000009004565b145b15620001b557620001b360006200048c640100000000026401000000009004565b505b6000809054906101000a900473ffffffffffffffffffffffffffffffffffffffff1673ffffffffffffffffffffffffffffffffffffffff166338cc48316040518163ffffffff167c0100000000000000000000000000000000000000000000000000000000028152600401602060405180830381600087803b1580156200023b57600080fd5b505af115801562000250573d6000803e3d6000fd5b505050506040513d60208110156200026757600080fd5b810190808051906020019092919050505073ffffffffffffffffffffffffffffffffffffffff16600160009054906101000a900473ffffffffffffffffffffffffffffffffffffffff1673ffffffffffffffffffffffffffffffffffffffff16141515620003d3576000809054906101000a900473ffffffffffffffffffffffffffffffffffffffff1673ffffffffffffffffffffffffffffffffffffffff166338cc48316040518163ffffffff167c0100000000000000000000000000000000000000000000000000000000028152600401602060405180830381600087803b1580156200035557600080fd5b505af11580156200036a573d6000803e3d6000fd5b505050506040513d60208110156200038157600080fd5b8101908080519060200190929190505050600160006101000a81548173ffffffffffffffffffffffffffffffffffffffff021916908373ffffffffffffffffffffffffffffffffffffffff1602179055505b600160009054906101000a900473ffffffffffffffffffffffffffffffffffffffff1673ffffffffffffffffffffffffffffffffffffffff1663ca6ad1e4826040518263ffffffff167c010000000000000000000000000000000000000000000000000000000002815260040180828152602001915050600060405180830381600087803b1580156200046557600080fd5b505af11580156200047a573d6000803e3d6000fd5b5050505050565b6000813b9050919050565b6000620004a7620004ae640100000000026401000000009004565b9050919050565b600080620004df731d3b2638a7cc9f2cb3d298a3da7a90b67e5506ed62000481640100000000026401000000009004565b11156200059357731d3b2638a7cc9f2cb3d298a3da7a90b67e5506ed6000806101000a81548173ffffffffffffffffffffffffffffffffffffffff021916908373ffffffffffffffffffffffffffffffffffffffff160217905550620005896040805190810160405280600b81526020017f6574685f6d61696e6e657400000000000000000000000000000000000000000081525062000a06640100000000026401000000009004565b6001905062000a03565b6000620005c373c03a2615d5efaf5f49f60b7bb6583eaec212fdf162000481640100000000026401000000009004565b1115620006775773c03a2615d5efaf5f49f60b7bb6583eaec212fdf16000806101000a81548173ffffffffffffffffffffffffffffffffffffffff021916908373ffffffffffffffffffffffffffffffffffffffff1602179055506200066d6040805190810160405280600c81526020017f6574685f726f707374656e33000000000000000000000000000000000000000081525062000a06640100000000026401000000009004565b6001905062000a03565b6000620006a773b7a07bcf2ba2f2703b24c0691b5278999c59ac7e62000481640100000000026401000000009004565b11156200075b5773b7a07bcf2ba2f2703b24c0691b5278999c59ac7e6000806101000a81548173ffffffffffffffffffffffffffffffffffffffff021916908373ffffffffffffffffffffffffffffffffffffffff160217905550620007516040805190810160405280600981526020017f6574685f6b6f76616e000000000000000000000000000000000000000000000081525062000a06640100000000026401000000009004565b6001905062000a03565b60006200078b73146500cfd35b22e4a392fe0adc06de1a1368ed4862000481640100000000026401000000009004565b11156200083f5773146500cfd35b22e4a392fe0adc06de1a1368ed486000806101000a81548173ffffffffffffffffffffffffffffffffffffffff021916908373ffffffffffffffffffffffffffffffffffffffff160217905550620008356040805190810160405280600b81526020017f6574685f72696e6b65627900000000000000000000000000000000000000000081525062000a06640100000000026401000000009004565b6001905062000a03565b60006200086f736f485c8bf6fc43ea212e93bbf8ce046c7f1cb47562000481640100000000026401000000009004565b1115620008d457736f485c8bf6fc43ea212e93bbf8ce046c7f1cb4756000806101000a81548173ffffffffffffffffffffffffffffffffffffffff021916908373ffffffffffffffffffffffffffffffffffffffff1602179055506001905062000a03565b6000620009047320e12a1f859b3feae5fb2a0a32c18f5a65555bbf62000481640100000000026401000000009004565b111562000969577320e12a1f859b3feae5fb2a0a32c18f5a65555bbf6000806101000a81548173ffffffffffffffffffffffffffffffffffffffff021916908373ffffffffffffffffffffffffffffffffffffffff1602179055506001905062000a03565b6000620009997351efaf4c8b3c9afbd5ab9f4bbc82784ab6ef8faa62000481640100000000026401000000009004565b1115620009fe577351efaf4c8b3c9afbd5ab9f4bbc82784ab6ef8faa6000806101000a81548173ffffffffffffffffffffffffffffffffffffffff021916908373ffffffffffffffffffffffffffffffffffffffff1602179055506001905062000a03565b600090505b90565b806002908051906020019062000a1e92919062000a22565b5050565b828054600181600116156101000203166002900490600052602060002090601f016020900481019282601f1062000a6557805160ff191683800117855562000a96565b8280016001018555821562000a96579182015b8281111562000a9557825182559160200191906001019062000a78565b5b50905062000aa5919062000aa9565b5090565b62000ace91905b8082111562000aca57600081600090555060010162000ab0565b5090565b90565b614f3f8062000ae16000396000f30060806040526004361061020e576000357c0100000000000000000000000000000000000000000000000000000000900463ffffffff168062ecd3111461021057806302ca59941461027957806316a54085146102c65780631792cc61146102f3578063236f86a11461031e57806324600fc31461037557806327dc297e1461038c578063282651fe14610403578063339ac1741461042e57806338bbfa50146104385780633f4ba83a146104f557806358aaf48a1461050c578063590e1ae3146105375780635b5e760c146105625780635c975abb146105a357806362eb6da1146105d257806365e807ab14610601578063715018a614610642578063778317c4146106595780637ea5d50e146106905780638456cb59146106bb57806389ed0b30146106d25780638a25aefa146107055780638d8f2adb146107305780638da5cb5b146107475780639429d2d91461079e578063963d62fb146107f95780639d76ea5814610824578063a4009e231461087b578063aa3dacac146108aa578063b1648152146108d5578063b2f3319e1461090c578063b45cff5f1461093b578063b46631cd14610966578063bf1fe4201461099d578063c6e2a071146109ca578063d02cc69f14610a65578063df065d7814610a85578063e320697514610ab0578063e4db0c5e14610adb578063f2fde38b14610b32578063f91a545b14610b75578063fc0808e514610ba0575b005b34801561021c57600080fd5b50610251600480360381019080803573ffffffffffffffffffffffffffffffffffffffff169060200190929190505050610bcb565b6040518084151515158152602001838152602001828152602001935050505060405180910390f35b34801561028557600080fd5b506102c4600480360381019080803573ffffffffffffffffffffffffffffffffffffffff16906020019092919080359060200190929190505050610c02565b005b3480156102d257600080fd5b506102f160048036038101908080359060200190929190505050610d06565b005b3480156102ff57600080fd5b50610308610d89565b6040518082815260200191505060405180910390f35b34801561032a57600080fd5b5061035f600480360381019080803573ffffffffffffffffffffffffffffffffffffffff169060200190929190505050610d8f565b6040518082815260200191505060405180910390f35b34801561038157600080fd5b5061038a610ea0565b005b34801561039857600080fd5b506104016004803603810190808035600019169060200190929190803590602001908201803590602001908080601f0160208091040260200160405190810160405280939291908181526020018383808284378201915050505050509192919290505050610f5c565b005b34801561040f57600080fd5b50610418611686565b6040518082815260200191505060405180910390f35b6104366116a3565b005b34801561044457600080fd5b506104f36004803603810190808035600019169060200190929190803590602001908201803590602001908080601f0160208091040260200160405190810160405280939291908181526020018383808284378201915050505050509192919290803590602001908201803590602001908080601f016020809104026020016040519081016040528093929190818152602001838380828437820191505050505050919291929050505061182a565b005b34801561050157600080fd5b5061050a61182f565b005b34801561051857600080fd5b506105216118ef565b6040518082815260200191505060405180910390f35b34801561054357600080fd5b5061054c6118f5565b6040518082815260200191505060405180910390f35b34801561056e57600080fd5b5061058d60048036038101908080359060200190929190505050611b12565b6040518082815260200191505060405180910390f35b3480156105af57600080fd5b506105b8611b29565b604051808215151515815260200191505060405180910390f35b3480156105de57600080fd5b506105e7611b3c565b604051808215151515815260200191505060405180910390f35b34801561060d57600080fd5b5061062c60048036038101908080359060200190929190505050611b4f565b6040518082815260200191505060405180910390f35b34801561064e57600080fd5b50610657611b66565b005b34801561066557600080fd5b5061068e6004803603810190808035906020019092919080359060200190929190505050611c6b565b005b34801561069c57600080fd5b506106a5611cff565b6040518082815260200191505060405180910390f35b3480156106c757600080fd5b506106d0611d05565b005b3480156106de57600080fd5b50610703600480360381019080803563ffffffff169060200190929190505050611dc6565b005b34801561071157600080fd5b5061071a611e32565b6040518082815260200191505060405180910390f35b34801561073c57600080fd5b50610745611e38565b005b34801561075357600080fd5b5061075c612094565b604051808273ffffffffffffffffffffffffffffffffffffffff1673ffffffffffffffffffffffffffffffffffffffff16815260200191505060405180910390f35b3480156107aa57600080fd5b506107df600480360381019080803573ffffffffffffffffffffffffffffffffffffffff1690602001909291905050506120ba565b604051808215151515815260200191505060405180910390f35b34801561080557600080fd5b5061080e6120da565b6040518082815260200191505060405180910390f35b34801561083057600080fd5b506108396120e0565b604051808273ffffffffffffffffffffffffffffffffffffffff1673ffffffffffffffffffffffffffffffffffffffff16815260200191505060405180910390f35b34801561088757600080fd5b50610890612106565b604051808215151515815260200191505060405180910390f35b3480156108b657600080fd5b506108bf612119565b6040518082815260200191505060405180910390f35b3480156108e157600080fd5b5061090a600480360381019080803590602001909291908035906020019092919050505061211f565b005b34801561091857600080fd5b5061093960048036038101908080351515906020019092919050505061219b565b005b34801561094757600080fd5b50610950612214565b6040518082815260200191505060405180910390f35b34801561097257600080fd5b5061099b6004803603810190808035906020019092919080359060200190929190505050612233565b005b3480156109a957600080fd5b506109c8600480360381019080803590602001909291905050506122dd565b005b3480156109d657600080fd5b506109f96004803603810190808035600019169060200190929190505050612345565b604051808873ffffffffffffffffffffffffffffffffffffffff1673ffffffffffffffffffffffffffffffffffffffff16815260200187815260200186815260200185815260200184815260200183815260200182815260200197505050505050505060405180910390f35b610a83600480360381019080803590602001909291905050506123a7565b005b348015610a9157600080fd5b50610a9a6128df565b6040518082815260200191505060405180910390f35b348015610abc57600080fd5b50610ac56128e5565b6040518082815260200191505060405180910390f35b348015610ae757600080fd5b50610b1c600480360381019080803573ffffffffffffffffffffffffffffffffffffffff1690602001909291905050506128eb565b6040518082815260200191505060405180910390f35b348015610b3e57600080fd5b50610b73600480360381019080803573ffffffffffffffffffffffffffffffffffffffff169060200190929190505050612903565b005b348015610b8157600080fd5b50610b8a61296b565b6040518082815260200191505060405180910390f35b348015610bac57600080fd5b50610bb5612988565b6040518082815260200191505060405180910390f35b60136020528060005260406000206000915090508060000160009054906101000a900460ff16908060010154908060020154905083565b600560009054906101000a900473ffffffffffffffffffffffffffffffffffffffff1673ffffffffffffffffffffffffffffffffffffffff163373ffffffffffffffffffffffffffffffffffffffff16141515610c5e57600080fd5b81600660006101000a81548173ffffffffffffffffffffffffffffffffffffffff021916908373ffffffffffffffffffffffffffffffffffffffff16021790555081600860006101000a81548173ffffffffffffffffffffffffffffffffffffffff021916908373ffffffffffffffffffffffffffffffffffffffff1602179055506001600660146101000a81548160ff021916908315150217905550806007819055505050565b600560009054906101000a900473ffffffffffffffffffffffffffffffffffffffff1673ffffffffffffffffffffffffffffffffffffffff163373ffffffffffffffffffffffffffffffffffffffff16141515610d6257600080fd5b60008110158015610d74575060648111155b1515610d7f57600080fd5b80600e8190555050565b60075481565b6000600754600a0a600660009054906101000a900473ffffffffffffffffffffffffffffffffffffffff1673ffffffffffffffffffffffffffffffffffffffff166370a08231846040518263ffffffff167c0100000000000000000000000000000000000000000000000000000000028152600401808273ffffffffffffffffffffffffffffffffffffffff1673ffffffffffffffffffffffffffffffffffffffff168152602001915050602060405180830381600087803b158015610e5457600080fd5b505af1158015610e68573d6000803e3d6000fd5b505050506040513d6020811015610e7e57600080fd5b8101908080519060200190929190505050811515610e9857fe5b049050919050565b600560009054906101000a900473ffffffffffffffffffffffffffffffffffffffff1673ffffffffffffffffffffffffffffffffffffffff163373ffffffffffffffffffffffffffffffffffffffff16141515610efc57600080fd5b3373ffffffffffffffffffffffffffffffffffffffff166108fc3073ffffffffffffffffffffffffffffffffffffffff16319081150290604051600060405180830381858888f19350505050158015610f59573d6000803e3d6000fd5b50565b6000806000806000610f6c614ddc565b6000806000610f7961298e565b73ffffffffffffffffffffffffffffffffffffffff163373ffffffffffffffffffffffffffffffffffffffff16141515610fb257600080fd5b6000601260008d6000191660001916815260200190815260200160002060000160009054906101000a900473ffffffffffffffffffffffffffffffffffffffff1673ffffffffffffffffffffffffffffffffffffffff161415151561101657600080fd5b601260008c6000191660001916815260200190815260200160002060000160009054906101000a900473ffffffffffffffffffffffffffffffffffffffff16985060011515601460008b73ffffffffffffffffffffffffffffffffffffffff1673ffffffffffffffffffffffffffffffffffffffff16815260200190815260200160002060009054906101000a900460ff1615151415156110b657600080fd5b6000601460008b73ffffffffffffffffffffffffffffffffffffffff1673ffffffffffffffffffffffffffffffffffffffff16815260200190815260200160002060006101000a81548160ff021916908315150217905550601560008a73ffffffffffffffffffffffffffffffffffffffff1673ffffffffffffffffffffffffffffffffffffffff1681526020019081526020016000206000905561115c8b8b8b612cec565b80985081995050508688141561143557601360008a73ffffffffffffffffffffffffffffffffffffffff1673ffffffffffffffffffffffffffffffffffffffff168152602001908152602001600020600201549450601360008a73ffffffffffffffffffffffffffffffffffffffff1673ffffffffffffffffffffffffffffffffffffffff168152602001908152602001600020600101549550601360008a73ffffffffffffffffffffffffffffffffffffffff1673ffffffffffffffffffffffffffffffffffffffff16815260200190815260200160002060000160009054906101000a900460ff16156112e657611256898688612f7c565b61127b89611276600361126889611b12565b61302b90919063ffffffff16565b613063565b601360008a73ffffffffffffffffffffffffffffffffffffffff1673ffffffffffffffffffffffffffffffffffffffff168152602001908152602001600020600080820160006101000a81549060ff0219169055600182016000905560028201600090555050611434565b6001601360008b73ffffffffffffffffffffffffffffffffffffffff1673ffffffffffffffffffffffffffffffffffffffff16815260200190815260200160002060000160006101000a81548160ff021916908315150217905550601260008c6000191660001916815260200190815260200160002060e060405190810160405290816000820160009054906101000a900473ffffffffffffffffffffffffffffffffffffffff1673ffffffffffffffffffffffffffffffffffffffff1673ffffffffffffffffffffffffffffffffffffffff16815260200160018201548152602001600282015481526020016003820154815260200160048201548152602001600582015481526020016006820154815250509350600084606001511115611420576114128b6131bd565b61141b8b6132a9565b611433565b6114328961142d87611b4f565b613063565b5b5b5b601260008c60001916600019168152602001908152602001600020600201549250601260008c600019166000191681526020019081526020016000206001015495508688111561157f5761148883611b12565b9150611495898488612f7c565b61149f8983613063565b601360008a73ffffffffffffffffffffffffffffffffffffffff1673ffffffffffffffffffffffffffffffffffffffff168152602001908152602001600020600080820160006101000a81549060ff0219169055600182016000905560028201600090555050601260008c60001916600019168152602001908152602001600020600080820160006101000a81549073ffffffffffffffffffffffffffffffffffffffff02191690556001820160009055600282016000905560038201600090556004820160009055600582016000905560068201600090555050611679565b868810156116785761159083611b4f565b905061159c8982613063565b601360008a73ffffffffffffffffffffffffffffffffffffffff1673ffffffffffffffffffffffffffffffffffffffff168152602001908152602001600020600080820160006101000a81549060ff0219169055600182016000905560028201600090555050601260008c60001916600019168152602001908152602001600020600080820160006101000a81549073ffffffffffffffffffffffffffffffffffffffff021916905560018201600090556002820160009055600382016000905560048201600090556005820160009055600682016000905550505b5b5050505050505050505050565b6000600954670de0b6b3a764000081151561169d57fe5b04905090565b600080600560149054906101000a900460ff161515156116c257600080fd5b601360003373ffffffffffffffffffffffffffffffffffffffff1673ffffffffffffffffffffffffffffffffffffffff16815260200190815260200160002060000160009054906101000a900460ff16156118265761176d6002601360003373ffffffffffffffffffffffffffffffffffffffff1673ffffffffffffffffffffffffffffffffffffffff168152602001908152602001600020600201546133b190919063ffffffff16565b9150601360003373ffffffffffffffffffffffffffffffffffffffff1673ffffffffffffffffffffffffffffffffffffffff1681526020019081526020016000206001015490506117bf338383612f7c565b601360003373ffffffffffffffffffffffffffffffffffffffff1673ffffffffffffffffffffffffffffffffffffffff168152602001908152602001600020600080820160006101000a81549060ff02191690556001820160009055600282016000905550505b5050565b505050565b600560009054906101000a900473ffffffffffffffffffffffffffffffffffffffff1673ffffffffffffffffffffffffffffffffffffffff163373ffffffffffffffffffffffffffffffffffffffff1614151561188b57600080fd5b600560149054906101000a900460ff1615156118a657600080fd5b6000600560146101000a81548160ff0219169083151502179055507f7805862f689e2f13df9f062ff482ad3ad112aca9e0847911ed832e158c525b3360405160405180910390a1565b60115481565b6000806000600560149054906101000a900460ff1615151561191657600080fd5b339150601560008373ffffffffffffffffffffffffffffffffffffffff1673ffffffffffffffffffffffffffffffffffffffff16815260200190815260200160002054905060011515601460008473ffffffffffffffffffffffffffffffffffffffff1673ffffffffffffffffffffffffffffffffffffffff16815260200190815260200160002060009054906101000a900460ff1615151415156119ba57600080fd5b6000811115156119c957600080fd5b600f5481111515156119da57600080fd5b8173ffffffffffffffffffffffffffffffffffffffff166108fc829081150290604051600060405180830381858888f19350505050158015611a20573d6000803e3d6000fd5b508173ffffffffffffffffffffffffffffffffffffffff167f325741c2c5ea17ea8829fb19547120786d784369cacb62dce5bad13aed3df6e5826040518082815260200191505060405180910390a26000601460008473ffffffffffffffffffffffffffffffffffffffff1673ffffffffffffffffffffffffffffffffffffffff16815260200190815260200160002060006101000a81548160ff021916908315150217905550601560008373ffffffffffffffffffffffffffffffffffffffff1673ffffffffffffffffffffffffffffffffffffffff16815260200190815260200160002060009055809250505090565b600060095482811515611b2157fe5b049050919050565b600560149054906101000a900460ff1681565b600660149054906101000a900460ff1681565b6000600a5482811515611b5e57fe5b049050919050565b600560009054906101000a900473ffffffffffffffffffffffffffffffffffffffff1673ffffffffffffffffffffffffffffffffffffffff163373ffffffffffffffffffffffffffffffffffffffff16141515611bc257600080fd5b600560009054906101000a900473ffffffffffffffffffffffffffffffffffffffff1673ffffffffffffffffffffffffffffffffffffffff167ff8df31144d9c2f0f6b59d69b8b98abd5459d07f2742c4df920b25aae33c6482060405160405180910390a26000600560006101000a81548173ffffffffffffffffffffffffffffffffffffffff021916908373ffffffffffffffffffffffffffffffffffffffff160217905550565b600560009054906101000a900473ffffffffffffffffffffffffffffffffffffffff1673ffffffffffffffffffffffffffffffffffffffff163373ffffffffffffffffffffffffffffffffffffffff16141515611cc757600080fd5b81670de0b6b3a7640000811515611cda57fe5b0460098190555080670de0b6b3a7640000811515611cf457fe5b04600a819055505050565b60095481565b600560009054906101000a900473ffffffffffffffffffffffffffffffffffffffff1673ffffffffffffffffffffffffffffffffffffffff163373ffffffffffffffffffffffffffffffffffffffff16141515611d6157600080fd5b600560149054906101000a900460ff16151515611d7d57600080fd5b6001600560146101000a81548160ff0219169083151502179055507f6985a02210a168e66602d3235cb6db0e70f92b3ba4d376a33c0f3d9434bff62560405160405180910390a1565b600560009054906101000a900473ffffffffffffffffffffffffffffffffffffffff1673ffffffffffffffffffffffffffffffffffffffff163373ffffffffffffffffffffffffffffffffffffffff16141515611e2257600080fd5b8063ffffffff1660118190555050565b600c5481565b6000600560009054906101000a900473ffffffffffffffffffffffffffffffffffffffff1673ffffffffffffffffffffffffffffffffffffffff163373ffffffffffffffffffffffffffffffffffffffff16141515611e9657600080fd5b600660009054906101000a900473ffffffffffffffffffffffffffffffffffffffff1673ffffffffffffffffffffffffffffffffffffffff166370a08231306040518263ffffffff167c0100000000000000000000000000000000000000000000000000000000028152600401808273ffffffffffffffffffffffffffffffffffffffff1673ffffffffffffffffffffffffffffffffffffffff168152602001915050602060405180830381600087803b158015611f5357600080fd5b505af1158015611f67573d6000803e3d6000fd5b505050506040513d6020811015611f7d57600080fd5b81019080805190602001909291905050509050600660009054906101000a900473ffffffffffffffffffffffffffffffffffffffff1673ffffffffffffffffffffffffffffffffffffffff1663a9059cbb33836040518363ffffffff167c0100000000000000000000000000000000000000000000000000000000028152600401808373ffffffffffffffffffffffffffffffffffffffff1673ffffffffffffffffffffffffffffffffffffffff16815260200182815260200192505050602060405180830381600087803b15801561205557600080fd5b505af1158015612069573d6000803e3d6000fd5b505050506040513d602081101561207f57600080fd5b81019080805190602001909291905050505050565b600560009054906101000a900473ffffffffffffffffffffffffffffffffffffffff1681565b60146020528060005260406000206000915054906101000a900460ff1681565b600a5481565b600860009054906101000a900473ffffffffffffffffffffffffffffffffffffffff1681565b600b60009054906101000a900460ff1681565b600e5481565b600560009054906101000a900473ffffffffffffffffffffffffffffffffffffffff1673ffffffffffffffffffffffffffffffffffffffff163373ffffffffffffffffffffffffffffffffffffffff1614151561217b57600080fd5b808211151561218957600080fd5b8160108190555080600f819055505050565b600560009054906101000a900473ffffffffffffffffffffffffffffffffffffffff1673ffffffffffffffffffffffffffffffffffffffff163373ffffffffffffffffffffffffffffffffffffffff161415156121f757600080fd5b80600b60006101000a81548160ff02191690831515021790555050565b60003073ffffffffffffffffffffffffffffffffffffffff1631905090565b600560009054906101000a900473ffffffffffffffffffffffffffffffffffffffff1673ffffffffffffffffffffffffffffffffffffffff163373ffffffffffffffffffffffffffffffffffffffff1614151561228f57600080fd5b6101a082111580156122a2575060018210155b15156122ad57600080fd5b6101a081111580156122c0575060018110155b15156122cb57600080fd5b81600c8190555080600d819055505050565b600560009054906101000a900473ffffffffffffffffffffffffffffffffffffffff1673ffffffffffffffffffffffffffffffffffffffff163373ffffffffffffffffffffffffffffffffffffffff1614151561233957600080fd5b612342816133c7565b50565b60126020528060005260406000206000915090508060000160009054906101000a900473ffffffffffffffffffffffffffffffffffffffff16908060010154908060020154908060030154908060040154908060050154908060060154905087565b60008060008060006123b7614e30565b6123bf614ddc565b600560149054906101000a900460ff161515156123db57600080fd5b60011515600660149054906101000a900460ff1615151415156123fd57600080fd5b600088101580156124105750600e548811155b151561241b57600080fd5b60001515601460003373ffffffffffffffffffffffffffffffffffffffff1673ffffffffffffffffffffffffffffffffffffffff16815260200190815260200160002060009054906101000a900460ff16151514151561247a57600080fd5b600f54341115801561248e57506010543410155b151561249957600080fd5b3496506124c260646124b48a8a61302b90919063ffffffff16565b6133b190919063ffffffff16565b95506124d7868861370a90919063ffffffff16565b94506125506040805190810160405280600c81526020017f576f6c6672616d416c70686100000000000000000000000000000000000000008152506040805190810160405280601a81526020017f52616e646f6d53616d706c655b52616e67655b3431365d2c325d000000000000815250601154613723565b93503373ffffffffffffffffffffffffffffffffffffffff167f95daaef3935d640f7b839e6634ddbfb793ee1535b00e949fce5cc8233ac016008560405180826000191660001916815260200191505060405180910390a26125e96040805190810160405280600c81526020017f576f6c6672616d416c7068610000000000000000000000000000000000000000815250601154613cd3565b9250601360003373ffffffffffffffffffffffffffffffffffffffff1673ffffffffffffffffffffffffffffffffffffffff16815260200190815260200160002060000160009054906101000a900460ff161561269e57601360003373ffffffffffffffffffffffffffffffffffffffff1673ffffffffffffffffffffffffffffffffffffffff168152602001908152602001600020600201543414151561268d57fe5b60008614151561269957fe5b612737565b60606040519081016040528060001515815260200184815260200186815250915081601360003373ffffffffffffffffffffffffffffffffffffffff1673ffffffffffffffffffffffffffffffffffffffff16815260200190815260200160002060008201518160000160006101000a81548160ff02191690831515021790555060208201518160010155604082015181600201559050505b60e0604051908101604052803373ffffffffffffffffffffffffffffffffffffffff16815260200184815260200186815260200187815260200189815260200160008152602001600081525090508060126000866000191660001916815260200190815260200160002060008201518160000160006101000a81548173ffffffffffffffffffffffffffffffffffffffff021916908373ffffffffffffffffffffffffffffffffffffffff1602179055506020820151816001015560408201518160020155606082015181600301556080820151816004015560a0820151816005015560c0820151816006015590505061283a833461370a90919063ffffffff16565b601560003373ffffffffffffffffffffffffffffffffffffffff1673ffffffffffffffffffffffffffffffffffffffff168152602001908152602001600020819055506001601460003373ffffffffffffffffffffffffffffffffffffffff1673ffffffffffffffffffffffffffffffffffffffff16815260200190815260200160002060006101000a81548160ff0219169083151502179055505050505050505050565b600d5481565b600f5481565b60156020528060005260406000206000915090505481565b600560009054906101000a900473ffffffffffffffffffffffffffffffffffffffff1673ffffffffffffffffffffffffffffffffffffffff163373ffffffffffffffffffffffffffffffffffffffff1614151561295f57600080fd5b612968816140ac565b50565b6000600a54670de0b6b3a764000081151561298257fe5b04905090565b60105481565b6000806000809054906101000a900473ffffffffffffffffffffffffffffffffffffffff1673ffffffffffffffffffffffffffffffffffffffff1614806129fe575060006129fc6000809054906101000a900473ffffffffffffffffffffffffffffffffffffffff166141a8565b145b15612a0f57612a0d60006141b3565b505b6000809054906101000a900473ffffffffffffffffffffffffffffffffffffffff1673ffffffffffffffffffffffffffffffffffffffff166338cc48316040518163ffffffff167c0100000000000000000000000000000000000000000000000000000000028152600401602060405180830381600087803b158015612a9457600080fd5b505af1158015612aa8573d6000803e3d6000fd5b505050506040513d6020811015612abe57600080fd5b810190808051906020019092919050505073ffffffffffffffffffffffffffffffffffffffff16600160009054906101000a900473ffffffffffffffffffffffffffffffffffffffff1673ffffffffffffffffffffffffffffffffffffffff16141515612c26576000809054906101000a900473ffffffffffffffffffffffffffffffffffffffff1673ffffffffffffffffffffffffffffffffffffffff166338cc48316040518163ffffffff167c0100000000000000000000000000000000000000000000000000000000028152600401602060405180830381600087803b158015612baa57600080fd5b505af1158015612bbe573d6000803e3d6000fd5b505050506040513d6020811015612bd457600080fd5b8101908080519060200190929190505050600160006101000a81548173ffffffffffffffffffffffffffffffffffffffff021916908373ffffffffffffffffffffffffffffffffffffffff1602179055505b600160009054906101000a900473ffffffffffffffffffffffffffffffffffffffff1673ffffffffffffffffffffffffffffffffffffffff1663c281d19e6040518163ffffffff167c0100000000000000000000000000000000000000000000000000000000028152600401602060405180830381600087803b158015612cac57600080fd5b505af1158015612cc0573d6000803e3d6000fd5b505050506040513d6020811015612cd657600080fd5b8101908080519060200190929190505050905090565b600080612cf7614e54565b612cff614e54565b600080600080612d0e8a6141c4565b9550612daf612d516040805190810160405280600181526020017f7d000000000000000000000000000000000000000000000000000000000000008152506141c4565b612da1612d926040805190810160405280600181526020017f7b000000000000000000000000000000000000000000000000000000000000008152506141c4565b896141f290919063ffffffff16565b61427c90919063ffffffff16565b50612dee6040805190810160405280600181526020017f2c000000000000000000000000000000000000000000000000000000000000008152506141c4565b9450612e13612e0e612e0987896142fd90919063ffffffff16565b614317565b614379565b9350612e38612e33612e2e87896142fd90919063ffffffff16565b614317565b614379565b9250600b60009054906101000a900460ff1615612e5a57600c549350600d5492505b612e638461438d565b601260008d6000191660001916815260200190815260200160002060060181905550612e8e8361438d565b601260008d6000191660001916815260200190815260200160002060050181905550601260008c60001916600019168152602001908152602001600020600601549150601260008c600019166000191681526020019081526020016000206005015490508873ffffffffffffffffffffffffffffffffffffffff167fa3afae828658e1e58da778b78eeab7f29d71765dbd93a09381b6bcad486866e58c848488886040518086600019166000191681526020018581526020018481526020018381526020018281526020019550505050505060405180910390a2808297509750505050505050935093915050565b612f8f818361370a90919063ffffffff16565b91508273ffffffffffffffffffffffffffffffffffffffff166108fc839081150290604051600060405180830381858888f19350505050158015612fd7573d6000803e3d6000fd5b508273ffffffffffffffffffffffffffffffffffffffff167f325741c2c5ea17ea8829fb19547120786d784369cacb62dce5bad13aed3df6e5836040518082815260200191505060405180910390a2505050565b60008083141561303e576000905061305d565b818302905081838281151561304f57fe5b0414151561305957fe5b8090505b92915050565b600660009054906101000a900473ffffffffffffffffffffffffffffffffffffffff1673ffffffffffffffffffffffffffffffffffffffff1663a9059cbb83600754600a0a84026040518363ffffffff167c0100000000000000000000000000000000000000000000000000000000028152600401808373ffffffffffffffffffffffffffffffffffffffff1673ffffffffffffffffffffffffffffffffffffffff16815260200182815260200192505050602060405180830381600087803b15801561312f57600080fd5b505af1158015613143573d6000803e3d6000fd5b505050506040513d602081101561315957600080fd5b8101908080519060200190929190505050508173ffffffffffffffffffffffffffffffffffffffff167f636445730b1bbf400b84597c178e4bd11b72e774f51f9f3c524e51ad8f88a2aa826040518082815260200191505060405180910390a25050565b6131c5614ddc565b60126000836000191660001916815260200190815260200160002060e060405190810160405290816000820160009054906101000a900473ffffffffffffffffffffffffffffffffffffffff1673ffffffffffffffffffffffffffffffffffffffff1673ffffffffffffffffffffffffffffffffffffffff168152602001600182015481526020016002820154815260200160038201548152602001600482015481526020016005820154815260200160068201548152505090506000816060015111156132a5576132a4816000015182606001518360200151612f7c565b5b5050565b6132b1614ddc565b600060126000846000191660001916815260200190815260200160002060e060405190810160405290816000820160009054906101000a900473ffffffffffffffffffffffffffffffffffffffff1673ffffffffffffffffffffffffffffffffffffffff1673ffffffffffffffffffffffffffffffffffffffff168152602001600182015481526020016002820154815260200160038201548152602001600482015481526020016005820154815260200160068201548152505091506000826060015111156133ac5761339b600a61338d8460600151611b12565b61302b90919063ffffffff16565b90506133ab826000015182613063565b5b505050565b600081838115156133be57fe5b04905092915050565b60008060009054906101000a900473ffffffffffffffffffffffffffffffffffffffff1673ffffffffffffffffffffffffffffffffffffffff161480613436575060006134346000809054906101000a900473ffffffffffffffffffffffffffffffffffffffff166141a8565b145b156134475761344560006141b3565b505b6000809054906101000a900473ffffffffffffffffffffffffffffffffffffffff1673ffffffffffffffffffffffffffffffffffffffff166338cc48316040518163ffffffff167c0100000000000000000000000000000000000000000000000000000000028152600401602060405180830381600087803b1580156134cc57600080fd5b505af11580156134e0573d6000803e3d6000fd5b505050506040513d60208110156134f657600080fd5b810190808051906020019092919050505073ffffffffffffffffffffffffffffffffffffffff16600160009054906101000a900473ffffffffffffffffffffffffffffffffffffffff1673ffffffffffffffffffffffffffffffffffffffff1614151561365e576000809054906101000a900473ffffffffffffffffffffffffffffffffffffffff1673ffffffffffffffffffffffffffffffffffffffff166338cc48316040518163ffffffff167c0100000000000000000000000000000000000000000000000000000000028152600401602060405180830381600087803b1580156135e257600080fd5b505af11580156135f6573d6000803e3d6000fd5b505050506040513d602081101561360c57600080fd5b8101908080519060200190929190505050600160006101000a81548173ffffffffffffffffffffffffffffffffffffffff021916908373ffffffffffffffffffffffffffffffffffffffff1602179055505b600160009054906101000a900473ffffffffffffffffffffffffffffffffffffffff1673ffffffffffffffffffffffffffffffffffffffff1663ca6ad1e4826040518263ffffffff167c010000000000000000000000000000000000000000000000000000000002815260040180828152602001915050600060405180830381600087803b1580156136ef57600080fd5b505af1158015613703573d6000803e3d6000fd5b5050505050565b600082821115151561371857fe5b818303905092915050565b60008060008060009054906101000a900473ffffffffffffffffffffffffffffffffffffffff1673ffffffffffffffffffffffffffffffffffffffff161480613795575060006137936000809054906101000a900473ffffffffffffffffffffffffffffffffffffffff166141a8565b145b156137a6576137a460006141b3565b505b6000809054906101000a900473ffffffffffffffffffffffffffffffffffffffff1673ffffffffffffffffffffffffffffffffffffffff166338cc48316040518163ffffffff167c0100000000000000000000000000000000000000000000000000000000028152600401602060405180830381600087803b15801561382b57600080fd5b505af115801561383f573d6000803e3d6000fd5b505050506040513d602081101561385557600080fd5b810190808051906020019092919050505073ffffffffffffffffffffffffffffffffffffffff16600160009054906101000a900473ffffffffffffffffffffffffffffffffffffffff1673ffffffffffffffffffffffffffffffffffffffff161415156139bd576000809054906101000a900473ffffffffffffffffffffffffffffffffffffffff1673ffffffffffffffffffffffffffffffffffffffff166338cc48316040518163ffffffff167c0100000000000000000000000000000000000000000000000000000000028152600401602060405180830381600087803b15801561394157600080fd5b505af1158015613955573d6000803e3d6000fd5b505050506040513d602081101561396b57600080fd5b8101908080519060200190929190505050600160006101000a81548173ffffffffffffffffffffffffffffffffffffffff021916908373ffffffffffffffffffffffffffffffffffffffff1602179055505b600160009054906101000a900473ffffffffffffffffffffffffffffffffffffffff1673ffffffffffffffffffffffffffffffffffffffff16632ef3accc86856040518363ffffffff167c01000000000000000000000000000000000000000000000000000000000281526004018080602001838152602001828103825284818151815260200191508051906020019080838360005b83811015613a6e578082015181840152602081019050613a53565b50505050905090810190601f168015613a9b5780820380516001836020036101000a031916815260200191505b509350505050602060405180830381600087803b158015613abb57600080fd5b505af1158015613acf573d6000803e3d6000fd5b505050506040513d6020811015613ae557600080fd5b81019080805190602001909291905050509050823a02670de0b6b3a764000001811115613b185760006001029150613ccb565b600160009054906101000a900473ffffffffffffffffffffffffffffffffffffffff1673ffffffffffffffffffffffffffffffffffffffff1663c51be90f8260008888886040518663ffffffff167c0100000000000000000000000000000000000000000000000000000000028152600401808581526020018060200180602001848152602001838103835286818151815260200191508051906020019080838360005b83811015613bd7578082015181840152602081019050613bbc565b50505050905090810190601f168015613c045780820380516001836020036101000a031916815260200191505b50838103825285818151815260200191508051906020019080838360005b83811015613c3d578082015181840152602081019050613c22565b50505050905090810190601f168015613c6a5780820380516001836020036101000a031916815260200191505b5096505050505050506020604051808303818588803b158015613c8c57600080fd5b505af1158015613ca0573d6000803e3d6000fd5b50505050506040513d6020811015613cb757600080fd5b810190808051906020019092919050505091505b509392505050565b6000806000809054906101000a900473ffffffffffffffffffffffffffffffffffffffff1673ffffffffffffffffffffffffffffffffffffffff161480613d4357506000613d416000809054906101000a900473ffffffffffffffffffffffffffffffffffffffff166141a8565b145b15613d5457613d5260006141b3565b505b6000809054906101000a900473ffffffffffffffffffffffffffffffffffffffff1673ffffffffffffffffffffffffffffffffffffffff166338cc48316040518163ffffffff167c0100000000000000000000000000000000000000000000000000000000028152600401602060405180830381600087803b158015613dd957600080fd5b505af1158015613ded573d6000803e3d6000fd5b505050506040513d6020811015613e0357600080fd5b810190808051906020019092919050505073ffffffffffffffffffffffffffffffffffffffff16600160009054906101000a900473ffffffffffffffffffffffffffffffffffffffff1673ffffffffffffffffffffffffffffffffffffffff16141515613f6b576000809054906101000a900473ffffffffffffffffffffffffffffffffffffffff1673ffffffffffffffffffffffffffffffffffffffff166338cc48316040518163ffffffff167c0100000000000000000000000000000000000000000000000000000000028152600401602060405180830381600087803b158015613eef57600080fd5b505af1158015613f03573d6000803e3d6000fd5b505050506040513d6020811015613f1957600080fd5b8101908080519060200190929190505050600160006101000a81548173ffffffffffffffffffffffffffffffffffffffff021916908373ffffffffffffffffffffffffffffffffffffffff1602179055505b600160009054906101000a900473ffffffffffffffffffffffffffffffffffffffff1673ffffffffffffffffffffffffffffffffffffffff16632ef3accc84846040518363ffffffff167c01000000000000000000000000000000000000000000000000000000000281526004018080602001838152602001828103825284818151815260200191508051906020019080838360005b8381101561401c578082015181840152602081019050614001565b50505050905090810190601f1680156140495780820380516001836020036101000a031916815260200191505b509350505050602060405180830381600087803b15801561406957600080fd5b505af115801561407d573d6000803e3d6000fd5b505050506040513d602081101561409357600080fd5b8101908080519060200190929190505050905092915050565b600073ffffffffffffffffffffffffffffffffffffffff168173ffffffffffffffffffffffffffffffffffffffff16141515156140e857600080fd5b8073ffffffffffffffffffffffffffffffffffffffff16600560009054906101000a900473ffffffffffffffffffffffffffffffffffffffff1673ffffffffffffffffffffffffffffffffffffffff167f8be0079c531659141344cd1fd0a4f28419497f9722a3daafe3b4186f6b6457e060405160405180910390a380600560006101000a81548173ffffffffffffffffffffffffffffffffffffffff021916908373ffffffffffffffffffffffffffffffffffffffff16021790555050565b6000813b9050919050565b60006141bd614454565b9050919050565b6141cc614e54565b600060208301905060408051908101604052808451815260200182815250915050919050565b6141fa614e54565b600082600001518460000151101561421457839150614275565b6001905082602001518460200151141515614242578251602085015160208501518281208383201493505050505b801561427157826000015184600001818151039150818152505082600001518460200181815101915081815250505b8391505b5092915050565b614284614e54565b60008083600001518560000151101561429f578492506142f5565b83600001518560000151866020015101039150600190508360200151821415156142d6578351602085015181812082852014925050505b80156142f15783600001518560000181815103915081815250505b8492505b505092915050565b614305614e54565b6143108383836148e3565b5092915050565b606080600083600001516040519080825280601f01601f1916602001820160405280156143535781602001602082028038833980820191505090505b50915060208201905061436f8185602001518660000151614981565b8192505050919050565b60006143868260006149cc565b9050919050565b60006101a082118061439f5750600182105b156143ad576000905061444f565b6034828115156143b957fe5b06915060008214156143ce57600d905061444f565b6004821115156143e157600e905061444f565b60006004838115156143ef57fe5b0611156144245761441d600161440f6004856133b190919063ffffffff16565b614cc090919063ffffffff16565b915061443b565b6144386004836133b190919063ffffffff16565b91505b60018214614449578161444c565b600e5b90505b919050565b600080614474731d3b2638a7cc9f2cb3d298a3da7a90b67e5506ed6141a8565b111561451557731d3b2638a7cc9f2cb3d298a3da7a90b67e5506ed6000806101000a81548173ffffffffffffffffffffffffffffffffffffffff021916908373ffffffffffffffffffffffffffffffffffffffff16021790555061450c6040805190810160405280600b81526020017f6574685f6d61696e6e6574000000000000000000000000000000000000000000815250614cdc565b600190506148e0565b600061453473c03a2615d5efaf5f49f60b7bb6583eaec212fdf16141a8565b11156145d55773c03a2615d5efaf5f49f60b7bb6583eaec212fdf16000806101000a81548173ffffffffffffffffffffffffffffffffffffffff021916908373ffffffffffffffffffffffffffffffffffffffff1602179055506145cc6040805190810160405280600c81526020017f6574685f726f707374656e330000000000000000000000000000000000000000815250614cdc565b600190506148e0565b60006145f473b7a07bcf2ba2f2703b24c0691b5278999c59ac7e6141a8565b11156146955773b7a07bcf2ba2f2703b24c0691b5278999c59ac7e6000806101000a81548173ffffffffffffffffffffffffffffffffffffffff021916908373ffffffffffffffffffffffffffffffffffffffff16021790555061468c6040805190810160405280600981526020017f6574685f6b6f76616e0000000000000000000000000000000000000000000000815250614cdc565b600190506148e0565b60006146b473146500cfd35b22e4a392fe0adc06de1a1368ed486141a8565b11156147555773146500cfd35b22e4a392fe0adc06de1a1368ed486000806101000a81548173ffffffffffffffffffffffffffffffffffffffff021916908373ffffffffffffffffffffffffffffffffffffffff16021790555061474c6040805190810160405280600b81526020017f6574685f72696e6b656279000000000000000000000000000000000000000000815250614cdc565b600190506148e0565b6000614774736f485c8bf6fc43ea212e93bbf8ce046c7f1cb4756141a8565b11156147d757736f485c8bf6fc43ea212e93bbf8ce046c7f1cb4756000806101000a81548173ffffffffffffffffffffffffffffffffffffffff021916908373ffffffffffffffffffffffffffffffffffffffff160217905550600190506148e0565b60006147f67320e12a1f859b3feae5fb2a0a32c18f5a65555bbf6141a8565b1115614859577320e12a1f859b3feae5fb2a0a32c18f5a65555bbf6000806101000a81548173ffffffffffffffffffffffffffffffffffffffff021916908373ffffffffffffffffffffffffffffffffffffffff160217905550600190506148e0565b60006148787351efaf4c8b3c9afbd5ab9f4bbc82784ab6ef8faa6141a8565b11156148db577351efaf4c8b3c9afbd5ab9f4bbc82784ab6ef8faa6000806101000a81548173ffffffffffffffffffffffffffffffffffffffff021916908373ffffffffffffffffffffffffffffffffffffffff160217905550600190506148e0565b600090505b90565b6148eb614e54565b60006149098560000151866020015186600001518760200151614cf6565b9050846020015183602001818152505084602001518103836000018181525050846000015185602001510181141561494b576000856000018181525050614976565b8360000151836000015101856000018181510391508181525050836000015181018560200181815250505b829150509392505050565b60005b6020821015156149a95782518452602084019350602083019250602082039150614984565b6001826020036101000a0390508019835116818551168181178652505050505050565b6000606060008060008693506000925060009150600090505b8351811015614ca15760307f0100000000000000000000000000000000000000000000000000000000000000028482815181101515614a2057fe5b9060200101517f010000000000000000000000000000000000000000000000000000000000000090047f0100000000000000000000000000000000000000000000000000000000000000027effffffffffffffffffffffffffffffffffffffffffffffffffffffffffffff191610158015614b38575060397f0100000000000000000000000000000000000000000000000000000000000000028482815181101515614ac857fe5b9060200101517f010000000000000000000000000000000000000000000000000000000000000090047f0100000000000000000000000000000000000000000000000000000000000000027effffffffffffffffffffffffffffffffffffffffffffffffffffffffffffff191611155b15614be9578115614b5b576000861415614b5157614ca1565b8580600190039650505b600a8302925060308482815181101515614b7157fe5b9060200101517f010000000000000000000000000000000000000000000000000000000000000090047f0100000000000000000000000000000000000000000000000000000000000000027f010000000000000000000000000000000000000000000000000000000000000090040383019250614c94565b602e7f0100000000000000000000000000000000000000000000000000000000000000028482815181101515614c1b57fe5b9060200101517f010000000000000000000000000000000000000000000000000000000000000090047f0100000000000000000000000000000000000000000000000000000000000000027effffffffffffffffffffffffffffffffffffffffffffffffffffffffffffff19161415614c9357600191505b5b80806001019150506149e5565b6000861115614cb35785600a0a830292505b8294505050505092915050565b60008183019050828110151515614cd357fe5b80905092915050565b8060029080519060200190614cf2929190614e6e565b5050565b60008060008060008060008060008b97508c8b111515614dc65760208b111515614d805760018b60200360080260020a03196001029550858a511694508a8d8d010393508588511692505b84600019168360001916141515614d78578388101515614d65578c8c019850614dcc565b8780600101985050858851169250614d41565b879850614dcc565b8a8a209150600096505b8a8d0387111515614dc5578a88209050806000191682600019161415614db257879850614dcc565b6001880197508680600101975050614d8a565b5b8c8c0198505b5050505050505050949350505050565b60e060405190810160405280600073ffffffffffffffffffffffffffffffffffffffff1681526020016000815260200160008152602001600081526020016000815260200160008152602001600081525090565b60606040519081016040528060001515815260200160008152602001600081525090565b604080519081016040528060008152602001600081525090565b828054600181600116156101000203166002900490600052602060002090601f016020900481019282601f10614eaf57805160ff1916838001178555614edd565b82800160010185558215614edd579182015b82811115614edc578251825591602001919060010190614ec1565b5b509050614eea9190614eee565b5090565b614f1091905b80821115614f0c576000816000905550600101614ef4565b5090565b905600a165627a7a72305820c466ad60dbca5c6e1c73b75a3c48cf4a99146bf831eb55ad189e4555351c30f30029",
  "source": "pragma solidity 0.4.24;\n\nimport \"../installed_contracts/oraclize/contracts/usingOraclize.sol\";\nimport \"../installed_contracts/stringutils/strings.sol\";\nimport \"zeppelin-solidity/contracts/lifecycle/Pausable.sol\";\nimport \"zeppelin-solidity/contracts/math/SafeMath.sol\";\nimport \"./PlayToken.sol\";\nimport \"./CustomEvents.sol\";\nimport \"./TestMode.sol\";\n\ncontract War is usingOraclize, Pausable, PlayToken, CustomEvents, TestMode {\n    using strings for *;\n    using SafeMath for uint;\n\n    // default game settings\n    uint public sideBetPercent_MAX = 80;\n    uint public bet_MAX = 10 ether;\n    uint public bet_MIN = 0.05 ether;\n    uint public gasForShuffle = 185000;\n\n    // player info store\n    struct Info{\n        address playerAddress;\n        uint fees;\n        uint mainBetAmount;\n        uint sideBetAmount;\n        uint sideBetPercentage;\n        uint playerHand;\n        uint houseHand;\n    }\n\n    struct FirstHand{\n      bool isTied;\n      uint fees;\n      uint mainBetAmount;\n    }\n\n    mapping (bytes32 => Info) public hand_info;\n    mapping (address => FirstHand) public firstHandInfo;\n    mapping (address => bool) public hasHandInProgress;\n    mapping (address => uint) public refundPool;\n\n    constructor() public {\n      oraclize_setCustomGasPrice(20000000000);\n    }\n    function() public payable {}\n\n//=====================\n// Game Settings\n//=====================\n    function setGasPrice(uint gasPrice) public onlyOwner{\n      oraclize_setCustomGasPrice(gasPrice);\n    }\n    function setOraclizeGas(uint32 gasAmount) public onlyOwner{\n      gasForShuffle = gasAmount;\n    }\n\n    function setBetMinMax(uint min_bet, uint max_bet) public onlyOwner{\n      require(min_bet > max_bet);\n      bet_MIN = min_bet;\n      bet_MAX = max_bet;\n    }\n\n    function setSideBetPercentage(uint percentage) public onlyOwner{\n      require(percentage >= 0 && percentage <= 100);\n      sideBetPercent_MAX = percentage;\n    }\n//=====================\n// Main gameplay\n//=====================\n    function playWar(uint sideBetPercent) public whenNotPaused TokenCheck payable {\n\n      require(sideBetPercent >= 0 && sideBetPercent <= sideBetPercent_MAX);\n\n      require(hasHandInProgress[msg.sender]==false);\n\n      require(msg.value <= bet_MAX && msg.value >= bet_MIN);\n\n      uint betAmount = msg.value;\n      uint sideBetAmount = betAmount.mul(sideBetPercent).div(100);\n      uint mainBetAmount = betAmount.sub(sideBetAmount);\n\n      //Initiate oraclize call\n      bytes32 orcID = oraclize_query(\"WolframAlpha\", \"RandomSample[Range[416],2]\",gasForShuffle);\n      emit currentOrcID(msg.sender, orcID);\n\n      uint orcFees = oraclize_getPrice(\"WolframAlpha\", gasForShuffle);\n\n      //check if previous hand was a tie and player chose to go to WAR\n      if(firstHandInfo[msg.sender].isTied){\n        assert(msg.value == firstHandInfo[msg.sender].mainBetAmount);\n        assert(sideBetAmount == 0);\n      }\n      else{\n        FirstHand memory thisHand = FirstHand({\n          isTied : false,\n          fees: orcFees,\n          mainBetAmount : mainBetAmount\n        });\n        firstHandInfo[msg.sender] = thisHand;\n      }\n\n      Info memory info = Info({\n          playerAddress : msg.sender,\n          mainBetAmount : mainBetAmount,\n          sideBetAmount : sideBetAmount,\n          fees: orcFees,\n          sideBetPercentage : sideBetPercent,\n          playerHand : 0,\n          houseHand : 0\n      });\n\n      hand_info[orcID] = info;\n      refundPool[msg.sender] = msg.value.sub(orcFees);\n      hasHandInProgress[msg.sender] = true;\n    }\n\n    function parseResult(bytes32 orcID, string result, address playerAddr) private returns(uint, uint){\n        strings.slice memory partition = result.toSlice();\n        partition.beyond(\"{\".toSlice()).until(\"}\".toSlice());\n        strings.slice memory delim = \",\".toSlice();\n\n        uint houseRaw = parseInt(partition.split(delim).toString());\n        uint playerRaw = parseInt(partition.split(delim).toString());\n\n        if(TEST_MODE){\n          houseRaw = TEST_HOUSE;\n          playerRaw = TEST_PLAYER;\n        }\n\n        hand_info[orcID].houseHand = getCardValue(houseRaw);\n        hand_info[orcID].playerHand = getCardValue(playerRaw);\n\n        uint houseHand = hand_info[orcID].houseHand;\n        uint playerHand = hand_info[orcID].playerHand;\n\n        emit dealtCards(playerAddr, orcID, houseHand, playerHand, houseRaw, playerRaw);\n\n        return(playerHand, houseHand);\n    }\n\n    function __callback(bytes32 orcID, string result) public{\n        //security checks\n        require(msg.sender == oraclize_cbAddress());\n        require(hand_info[orcID].playerAddress!=0x0);\n\n        address playerAddr = hand_info[orcID].playerAddress;\n        require(hasHandInProgress[playerAddr]==true);\n\n        hasHandInProgress[playerAddr] = false;\n        delete refundPool[playerAddr];\n\n        uint playerHand;\n        uint houseHand;\n\n        (playerHand, houseHand) =  parseResult(orcID, result, playerAddr);\n\n        uint fees;\n\n        if(playerHand == houseHand){\n            uint betAmount = firstHandInfo[playerAddr].mainBetAmount;\n            fees = firstHandInfo[playerAddr].fees;\n\n            if(firstHandInfo[playerAddr].isTied){\n                pay(playerAddr, betAmount,fees);\n                payToken(playerAddr, getTokenWinValue(betAmount).mul(3));\n                delete firstHandInfo[playerAddr];\n            }\n            else{\n                firstHandInfo[playerAddr].isTied = true;\n\n                Info memory hand = hand_info[orcID];\n\n                if(hand.sideBetAmount > 0){\n                    sideBetPay(orcID);\n                    sideBetPayToken(orcID);\n                }\n                else{\n                    payToken(playerAddr, getTokenLossValue(betAmount));\n                }\n            }\n        }\n\n        uint winAmount = hand_info[orcID].mainBetAmount;\n        fees = hand_info[orcID].fees;\n\n        //Pay winner\n        if(playerHand > houseHand){\n          uint winTokenAmount = getTokenWinValue(winAmount);\n\n          pay(playerAddr,winAmount,fees);\n          payToken(playerAddr,winTokenAmount);\n          delete firstHandInfo[playerAddr];\n          delete hand_info[orcID];\n        }\n        else if(playerHand < houseHand){\n            uint lossTokenAmount = getTokenLossValue(winAmount);\n\n            payToken(playerAddr,lossTokenAmount);\n            delete firstHandInfo[playerAddr];\n            delete hand_info[orcID];\n        }\n    }\n\n    function playerSurrender() public whenNotPaused payable {\n\n      if(firstHandInfo[msg.sender].isTied){\n          uint returnAmount = (firstHandInfo[msg.sender].mainBetAmount).div(2);\n          uint fees = firstHandInfo[msg.sender].fees;\n\n          pay(msg.sender,returnAmount,fees);\n          delete firstHandInfo[msg.sender];\n      }\n    }\n//=====================\n// Payment methods\n//=====================\n    function pay(address _addr, uint amount, uint fees) private {\n        amount = amount.sub(fees);\n        _addr.transfer(amount);\n        emit betPayout(_addr, amount);\n    }\n\n    function payToken(address _addr, uint amount) private {\n        Token.transfer(_addr,amount * 10 ** tokenDecimalPlaces);\n        emit betPayoutToken(_addr, amount);\n    }\n\n    function sideBetPay(bytes32 orcID) private{\n        Info memory hand = hand_info[orcID];\n\n        if(hand.sideBetAmount > 0) {\n          pay(hand.playerAddress,hand.sideBetAmount,hand.fees);\n        }\n    }\n\n    function sideBetPayToken(bytes32 orcID) private{\n        Info memory hand = hand_info[orcID];\n\n        if(hand.sideBetAmount > 0){\n          uint sideBetWin = getTokenWinValue(hand.sideBetAmount).mul(10);\n          payToken(hand.playerAddress,sideBetWin);\n        }\n    }\n\n    function refund() whenNotPaused public returns(uint){\n      address _addr = msg.sender;\n      uint amount = refundPool[_addr];\n      require(hasHandInProgress[_addr]==true);\n      require(amount>0);\n      require(amount<=bet_MAX);\n\n      _addr.transfer(amount);\n      emit betPayout(_addr, amount);\n      hasHandInProgress[_addr]=false;\n      delete refundPool[_addr];\n      return amount;\n    }\n\n    function houseBankRoll() view public returns(uint){\n        return address(this).balance;\n    }\n//=====================\n// Owner\n//=====================\n    function withdrawFunds() public onlyOwner{\n      msg.sender.transfer(address(this).balance);\n    }\n\n    function withdrawTokens() public onlyOwner{\n      uint amount = Token.balanceOf(address(this));\n      Token.transfer(msg.sender, amount);\n    }\n//=====================\n// Special\n//=====================\n    function getCardValue(uint card) private pure returns(uint){\n      if (card > 416 || card < 1) {\n        return 0;\n      }\n\n      card = card % 52;\n\n      if (card == 0) {\n        return 13;\n      } else if (card <= 4) {\n        return 14;\n      } else if (card % 4 > 0) {\n        card = card.div(4).add(1);\n      } else {\n        card = card.div(4);\n      }\n\n      return card == 1 ? 14 : card;\n    }\n}\n",
  "sourcePath": "/Users/kuaiyu/Documents/Projects/Ethereum/temp/EthinoWar/contracts/War.sol",
  "compiler": {
    "name": "solc",
    "version": "0.4.24+commit.e67f0147.Emscripten.clang"
  },
  "schemaVersion": "2.0.1",
  "updatedAt": "2018-10-23T04:10:53.243Z"
}