{
  "contractName": "PlayToken",
  "abi": [
    {
      "constant": true,
      "inputs": [],
      "name": "tokenDecimalPlaces",
      "outputs": [
        {
          "name": "",
          "type": "uint256"
        }
      ],
      "payable": false,
      "stateMutability": "view",
      "type": "function"
    },
    {
      "constant": false,
      "inputs": [],
      "name": "unpause",
      "outputs": [],
      "payable": false,
      "stateMutability": "nonpayable",
      "type": "function"
    },
    {
      "constant": true,
      "inputs": [],
      "name": "paused",
      "outputs": [
        {
          "name": "",
          "type": "bool"
        }
      ],
      "payable": false,
      "stateMutability": "view",
      "type": "function"
    },
    {
      "constant": true,
      "inputs": [],
      "name": "registeredToken",
      "outputs": [
        {
          "name": "",
          "type": "bool"
        }
      ],
      "payable": false,
      "stateMutability": "view",
      "type": "function"
    },
    {
      "constant": true,
      "inputs": [],
      "name": "tokenWinRatio",
      "outputs": [
        {
          "name": "",
          "type": "uint256"
        }
      ],
      "payable": false,
      "stateMutability": "view",
      "type": "function"
    },
    {
      "constant": false,
      "inputs": [],
      "name": "pause",
      "outputs": [],
      "payable": false,
      "stateMutability": "nonpayable",
      "type": "function"
    },
    {
      "constant": true,
      "inputs": [],
      "name": "owner",
      "outputs": [
        {
          "name": "",
          "type": "address"
        }
      ],
      "payable": false,
      "stateMutability": "view",
      "type": "function"
    },
    {
      "constant": true,
      "inputs": [],
      "name": "tokenLossRatio",
      "outputs": [
        {
          "name": "",
          "type": "uint256"
        }
      ],
      "payable": false,
      "stateMutability": "view",
      "type": "function"
    },
    {
      "constant": true,
      "inputs": [],
      "name": "tokenAddress",
      "outputs": [
        {
          "name": "",
          "type": "address"
        }
      ],
      "payable": false,
      "stateMutability": "view",
      "type": "function"
    },
    {
      "constant": false,
      "inputs": [
        {
          "name": "newOwner",
          "type": "address"
        }
      ],
      "name": "transferOwnership",
      "outputs": [],
      "payable": false,
      "stateMutability": "nonpayable",
      "type": "function"
    },
    {
      "anonymous": false,
      "inputs": [],
      "name": "Pause",
      "type": "event"
    },
    {
      "anonymous": false,
      "inputs": [],
      "name": "Unpause",
      "type": "event"
    },
    {
      "anonymous": false,
      "inputs": [
        {
          "indexed": true,
          "name": "previousOwner",
          "type": "address"
        },
        {
          "indexed": true,
          "name": "newOwner",
          "type": "address"
        }
      ],
      "name": "OwnershipTransferred",
      "type": "event"
    },
    {
      "constant": false,
      "inputs": [
        {
          "name": "_tokenAddress",
          "type": "address"
        },
        {
          "name": "decimalPlaces",
          "type": "uint256"
        }
      ],
      "name": "RegisterToken",
      "outputs": [],
      "payable": false,
      "stateMutability": "nonpayable",
      "type": "function"
    },
    {
      "constant": true,
      "inputs": [
        {
          "name": "who",
          "type": "address"
        }
      ],
      "name": "RemainingTokens",
      "outputs": [
        {
          "name": "",
          "type": "uint256"
        }
      ],
      "payable": false,
      "stateMutability": "view",
      "type": "function"
    },
    {
      "constant": true,
      "inputs": [
        {
          "name": "betInWei",
          "type": "uint256"
        }
      ],
      "name": "getTokenWinValue",
      "outputs": [
        {
          "name": "",
          "type": "uint256"
        }
      ],
      "payable": false,
      "stateMutability": "view",
      "type": "function"
    },
    {
      "constant": true,
      "inputs": [
        {
          "name": "betInWei",
          "type": "uint256"
        }
      ],
      "name": "getTokenLossValue",
      "outputs": [
        {
          "name": "",
          "type": "uint256"
        }
      ],
      "payable": false,
      "stateMutability": "view",
      "type": "function"
    },
    {
      "constant": false,
      "inputs": [
        {
          "name": "winAmount",
          "type": "uint256"
        },
        {
          "name": "lossAmount",
          "type": "uint256"
        }
      ],
      "name": "setWinLossAmount",
      "outputs": [],
      "payable": false,
      "stateMutability": "nonpayable",
      "type": "function"
    },
    {
      "constant": true,
      "inputs": [],
      "name": "getWinTokenAmount",
      "outputs": [
        {
          "name": "",
          "type": "uint256"
        }
      ],
      "payable": false,
      "stateMutability": "view",
      "type": "function"
    },
    {
      "constant": true,
      "inputs": [],
      "name": "getLossTokenAmount",
      "outputs": [
        {
          "name": "",
          "type": "uint256"
        }
      ],
      "payable": false,
      "stateMutability": "view",
      "type": "function"
    }
  ],
  "bytecode": "0x606060405260008060146101000a81548160ff0219169083151502179055506000600160146101000a81548160ff021916908315150217905550600280556601f9465b8ab8e36004556611c37937e08000600555336000806101000a81548173ffffffffffffffffffffffffffffffffffffffff021916908373ffffffffffffffffffffffffffffffffffffffff160217905550610abe806100a26000396000f3006060604052600436106100f1576000357c0100000000000000000000000000000000000000000000000000000000900463ffffffff1680631792cc61146100f6578063282651fe1461011f5780633f4ba83a146101485780635b5e760c1461015d5780635c975abb1461019457806362eb6da1146101c157806365e807ab146101ee578063778317c4146102255780637ea5d50e146102515780638456cb591461027a5780638da5cb5b1461028f578063963d62fb146102e45780639d76ea581461030d578063bb42e8e514610362578063f2fde38b146103a4578063f69a65b3146103dd578063f91a545b1461042a575b600080fd5b341561010157600080fd5b610109610453565b6040518082815260200191505060405180910390f35b341561012a57600080fd5b610132610459565b6040518082815260200191505060405180910390f35b341561015357600080fd5b61015b610476565b005b341561016857600080fd5b61017e6004808035906020019091905050610534565b6040518082815260200191505060405180910390f35b341561019f57600080fd5b6101a761054b565b604051808215151515815260200191505060405180910390f35b34156101cc57600080fd5b6101d461055e565b604051808215151515815260200191505060405180910390f35b34156101f957600080fd5b61020f6004808035906020019091905050610571565b6040518082815260200191505060405180910390f35b341561023057600080fd5b61024f6004808035906020019091908035906020019091905050610588565b005b341561025c57600080fd5b61026461061b565b6040518082815260200191505060405180910390f35b341561028557600080fd5b61028d610621565b005b341561029a57600080fd5b6102a26106e1565b604051808273ffffffffffffffffffffffffffffffffffffffff1673ffffffffffffffffffffffffffffffffffffffff16815260200191505060405180910390f35b34156102ef57600080fd5b6102f7610706565b6040518082815260200191505060405180910390f35b341561031857600080fd5b61032061070c565b604051808273ffffffffffffffffffffffffffffffffffffffff1673ffffffffffffffffffffffffffffffffffffffff16815260200191505060405180910390f35b341561036d57600080fd5b6103a2600480803573ffffffffffffffffffffffffffffffffffffffff16906020019091908035906020019091905050610732565b005b34156103af57600080fd5b6103db600480803573ffffffffffffffffffffffffffffffffffffffff16906020019091905050610834565b005b34156103e857600080fd5b610414600480803573ffffffffffffffffffffffffffffffffffffffff16906020019091905050610989565b6040518082815260200191505060405180910390f35b341561043557600080fd5b61043d610a75565b6040518082815260200191505060405180910390f35b60025481565b6000600454670de0b6b3a764000081151561047057fe5b04905090565b6000809054906101000a900473ffffffffffffffffffffffffffffffffffffffff1673ffffffffffffffffffffffffffffffffffffffff163373ffffffffffffffffffffffffffffffffffffffff161415156104d157600080fd5b600060149054906101000a900460ff1615156104ec57600080fd5b60008060146101000a81548160ff0219169083151502179055507f7805862f689e2f13df9f062ff482ad3ad112aca9e0847911ed832e158c525b3360405160405180910390a1565b60006004548281151561054357fe5b049050919050565b600060149054906101000a900460ff1681565b600160149054906101000a900460ff1681565b60006005548281151561058057fe5b049050919050565b6000809054906101000a900473ffffffffffffffffffffffffffffffffffffffff1673ffffffffffffffffffffffffffffffffffffffff163373ffffffffffffffffffffffffffffffffffffffff161415156105e357600080fd5b81670de0b6b3a76400008115156105f657fe5b0460048190555080670de0b6b3a764000081151561061057fe5b046005819055505050565b60045481565b6000809054906101000a900473ffffffffffffffffffffffffffffffffffffffff1673ffffffffffffffffffffffffffffffffffffffff163373ffffffffffffffffffffffffffffffffffffffff1614151561067c57600080fd5b600060149054906101000a900460ff1615151561069857600080fd5b6001600060146101000a81548160ff0219169083151502179055507f6985a02210a168e66602d3235cb6db0e70f92b3ba4d376a33c0f3d9434bff62560405160405180910390a1565b6000809054906101000a900473ffffffffffffffffffffffffffffffffffffffff1681565b60055481565b600360009054906101000a900473ffffffffffffffffffffffffffffffffffffffff1681565b6000809054906101000a900473ffffffffffffffffffffffffffffffffffffffff1673ffffffffffffffffffffffffffffffffffffffff163373ffffffffffffffffffffffffffffffffffffffff1614151561078d57600080fd5b81600160006101000a81548173ffffffffffffffffffffffffffffffffffffffff021916908373ffffffffffffffffffffffffffffffffffffffff16021790555081600360006101000a81548173ffffffffffffffffffffffffffffffffffffffff021916908373ffffffffffffffffffffffffffffffffffffffff16021790555060018060146101000a81548160ff021916908315150217905550806002819055505050565b6000809054906101000a900473ffffffffffffffffffffffffffffffffffffffff1673ffffffffffffffffffffffffffffffffffffffff163373ffffffffffffffffffffffffffffffffffffffff1614151561088f57600080fd5b600073ffffffffffffffffffffffffffffffffffffffff168173ffffffffffffffffffffffffffffffffffffffff16141515156108cb57600080fd5b8073ffffffffffffffffffffffffffffffffffffffff166000809054906101000a900473ffffffffffffffffffffffffffffffffffffffff1673ffffffffffffffffffffffffffffffffffffffff167f8be0079c531659141344cd1fd0a4f28419497f9722a3daafe3b4186f6b6457e060405160405180910390a3806000806101000a81548173ffffffffffffffffffffffffffffffffffffffff021916908373ffffffffffffffffffffffffffffffffffffffff16021790555050565b6000600254600a0a600160009054906101000a900473ffffffffffffffffffffffffffffffffffffffff1673ffffffffffffffffffffffffffffffffffffffff166370a08231846040518263ffffffff167c0100000000000000000000000000000000000000000000000000000000028152600401808273ffffffffffffffffffffffffffffffffffffffff1673ffffffffffffffffffffffffffffffffffffffff168152602001915050602060405180830381600087803b1515610a4d57600080fd5b5af11515610a5a57600080fd5b50505060405180519050811515610a6d57fe5b049050919050565b6000600554670de0b6b3a7640000811515610a8c57fe5b049050905600a165627a7a7230582066797a84d2f1d1bc8747f8711a33a752f4e0e7b1219e48f2c5e13280ad94361f0029",
  "source": "pragma solidity 0.4.21;\n\nimport \"../installed_contracts/zeppelin/contracts/lifecycle/Pausable.sol\";\n\ninterface ERC20Token {\n    function totalSupply() external view returns (uint);\n    function balanceOf(address who) external constant returns (uint256);\n    function transfer(address to, uint256 value) external returns (bool);\n}\n\ncontract PlayToken is Pausable{\n\n    ERC20Token Token;\n\n    bool public registeredToken = false;\n    uint public tokenDecimalPlaces = 2;\n    address public tokenAddress;\n\n    uint public tokenWinRatio = 555555555555555 wei; //1800\n    uint public tokenLossRatio = 5000000000000000 wei; //200\n\n    modifier TokenCheck() {\n       if (registeredToken != true) { //check balance\n            revert();\n        }\n        _;\n    }\n\n    function RegisterToken(address _tokenAddress, uint decimalPlaces) public onlyOwner{\n        Token = ERC20Token(_tokenAddress);\n        tokenAddress = _tokenAddress;\n        registeredToken = true;\n        tokenDecimalPlaces = decimalPlaces;\n    }\n\n    function RemainingTokens(address who) public constant returns (uint){\n        return Token.balanceOf(who)/(10 ** tokenDecimalPlaces);\n    }\n\n    function getTokenWinValue(uint betInWei) public view returns(uint){\n        return betInWei/tokenWinRatio;\n    }\n\n    function getTokenLossValue(uint betInWei) public view returns(uint){\n        return betInWei/tokenLossRatio;\n    }\n\n    function setWinLossAmount(uint winAmount, uint lossAmount)public onlyOwner{\n        tokenWinRatio = 1 ether/winAmount;\n        tokenLossRatio = 1 ether/lossAmount;\n    }\n    function getWinTokenAmount()public constant returns(uint){\n        return 1 ether/tokenWinRatio;\n    }\n    function getLossTokenAmount()public constant returns(uint){\n        return 1 ether/tokenLossRatio;\n    }\n\n}\n",
  "sourcePath": "/Users/kuaiyu/Documents/Projects/Ethereum/temp/EthinoWar/contracts/PlayToken.sol",
  "compiler": {
    "name": "solc",
    "version": "0.4.21+commit.dfe3193c.Emscripten.clang"
  },
  "schemaVersion": "2.0.0",
  "updatedAt": "2018-06-22T17:17:16.813Z"
}