{
  "contractName": "TestMode",
  "abi": [
    {
      "constant": false,
      "inputs": [],
      "name": "unpause",
      "outputs": [],
      "payable": false,
      "stateMutability": "nonpayable",
      "type": "function"
    },
    {
      "constant": true,
      "inputs": [],
      "name": "paused",
      "outputs": [
        {
          "name": "",
          "type": "bool"
        }
      ],
      "payable": false,
      "stateMutability": "view",
      "type": "function"
    },
    {
      "constant": false,
      "inputs": [],
      "name": "pause",
      "outputs": [],
      "payable": false,
      "stateMutability": "nonpayable",
      "type": "function"
    },
    {
      "constant": true,
      "inputs": [],
      "name": "TEST_HOUSE",
      "outputs": [
        {
          "name": "",
          "type": "uint256"
        }
      ],
      "payable": false,
      "stateMutability": "view",
      "type": "function"
    },
    {
      "constant": true,
      "inputs": [],
      "name": "owner",
      "outputs": [
        {
          "name": "",
          "type": "address"
        }
      ],
      "payable": false,
      "stateMutability": "view",
      "type": "function"
    },
    {
      "constant": true,
      "inputs": [],
      "name": "TEST_MODE",
      "outputs": [
        {
          "name": "",
          "type": "bool"
        }
      ],
      "payable": false,
      "stateMutability": "view",
      "type": "function"
    },
    {
      "constant": true,
      "inputs": [],
      "name": "TEST_PLAYER",
      "outputs": [
        {
          "name": "",
          "type": "uint256"
        }
      ],
      "payable": false,
      "stateMutability": "view",
      "type": "function"
    },
    {
      "constant": false,
      "inputs": [
        {
          "name": "newOwner",
          "type": "address"
        }
      ],
      "name": "transferOwnership",
      "outputs": [],
      "payable": false,
      "stateMutability": "nonpayable",
      "type": "function"
    },
    {
      "anonymous": false,
      "inputs": [],
      "name": "Pause",
      "type": "event"
    },
    {
      "anonymous": false,
      "inputs": [],
      "name": "Unpause",
      "type": "event"
    },
    {
      "anonymous": false,
      "inputs": [
        {
          "indexed": true,
          "name": "previousOwner",
          "type": "address"
        },
        {
          "indexed": true,
          "name": "newOwner",
          "type": "address"
        }
      ],
      "name": "OwnershipTransferred",
      "type": "event"
    },
    {
      "constant": false,
      "inputs": [
        {
          "name": "state",
          "type": "bool"
        }
      ],
      "name": "ToggleTestMode",
      "outputs": [],
      "payable": false,
      "stateMutability": "nonpayable",
      "type": "function"
    },
    {
      "constant": false,
      "inputs": [
        {
          "name": "house",
          "type": "uint256"
        },
        {
          "name": "player",
          "type": "uint256"
        }
      ],
      "name": "SetTestModeHands",
      "outputs": [],
      "payable": false,
      "stateMutability": "nonpayable",
      "type": "function"
    }
  ],
  "bytecode": "0x606060405260008060146101000a81548160ff02191690831515021790555060008060156101000a81548160ff021916908315150217905550606f600155606f600255336000806101000a81548173ffffffffffffffffffffffffffffffffffffffff021916908373ffffffffffffffffffffffffffffffffffffffff1602179055506106d5806100916000396000f3006060604052600436106100a4576000357c0100000000000000000000000000000000000000000000000000000000900463ffffffff1680633f4ba83a146100a95780635c975abb146100be5780638456cb59146100eb5780638a25aefa146101005780638da5cb5b14610129578063a4009e231461017e578063b2f3319e146101ab578063b46631cd146101d0578063df065d78146101fc578063f2fde38b14610225575b600080fd5b34156100b457600080fd5b6100bc61025e565b005b34156100c957600080fd5b6100d161031c565b604051808215151515815260200191505060405180910390f35b34156100f657600080fd5b6100fe61032f565b005b341561010b57600080fd5b6101136103ef565b6040518082815260200191505060405180910390f35b341561013457600080fd5b61013c6103f5565b604051808273ffffffffffffffffffffffffffffffffffffffff1673ffffffffffffffffffffffffffffffffffffffff16815260200191505060405180910390f35b341561018957600080fd5b61019161041a565b604051808215151515815260200191505060405180910390f35b34156101b657600080fd5b6101ce6004808035151590602001909190505061042d565b005b34156101db57600080fd5b6101fa60048080359060200190919080359060200190919050506104a5565b005b341561020757600080fd5b61020f61054e565b6040518082815260200191505060405180910390f35b341561023057600080fd5b61025c600480803573ffffffffffffffffffffffffffffffffffffffff16906020019091905050610554565b005b6000809054906101000a900473ffffffffffffffffffffffffffffffffffffffff1673ffffffffffffffffffffffffffffffffffffffff163373ffffffffffffffffffffffffffffffffffffffff161415156102b957600080fd5b600060149054906101000a900460ff1615156102d457600080fd5b60008060146101000a81548160ff0219169083151502179055507f7805862f689e2f13df9f062ff482ad3ad112aca9e0847911ed832e158c525b3360405160405180910390a1565b600060149054906101000a900460ff1681565b6000809054906101000a900473ffffffffffffffffffffffffffffffffffffffff1673ffffffffffffffffffffffffffffffffffffffff163373ffffffffffffffffffffffffffffffffffffffff1614151561038a57600080fd5b600060149054906101000a900460ff161515156103a657600080fd5b6001600060146101000a81548160ff0219169083151502179055507f6985a02210a168e66602d3235cb6db0e70f92b3ba4d376a33c0f3d9434bff62560405160405180910390a1565b60015481565b6000809054906101000a900473ffffffffffffffffffffffffffffffffffffffff1681565b600060159054906101000a900460ff1681565b6000809054906101000a900473ffffffffffffffffffffffffffffffffffffffff1673ffffffffffffffffffffffffffffffffffffffff163373ffffffffffffffffffffffffffffffffffffffff1614151561048857600080fd5b80600060156101000a81548160ff02191690831515021790555050565b6000809054906101000a900473ffffffffffffffffffffffffffffffffffffffff1673ffffffffffffffffffffffffffffffffffffffff163373ffffffffffffffffffffffffffffffffffffffff1614151561050057600080fd5b6101a08211158015610513575060018210155b151561051e57600080fd5b6101a08111158015610531575060018110155b151561053c57600080fd5b81600181905550806002819055505050565b60025481565b6000809054906101000a900473ffffffffffffffffffffffffffffffffffffffff1673ffffffffffffffffffffffffffffffffffffffff163373ffffffffffffffffffffffffffffffffffffffff161415156105af57600080fd5b600073ffffffffffffffffffffffffffffffffffffffff168173ffffffffffffffffffffffffffffffffffffffff16141515156105eb57600080fd5b8073ffffffffffffffffffffffffffffffffffffffff166000809054906101000a900473ffffffffffffffffffffffffffffffffffffffff1673ffffffffffffffffffffffffffffffffffffffff167f8be0079c531659141344cd1fd0a4f28419497f9722a3daafe3b4186f6b6457e060405160405180910390a3806000806101000a81548173ffffffffffffffffffffffffffffffffffffffff021916908373ffffffffffffffffffffffffffffffffffffffff160217905550505600a165627a7a723058204922a1d0b79e1b3481e90cba36036868736c25c6900b12653bb7468932743f320029",
  "source": "pragma solidity 0.4.21;\n\nimport \"../installed_contracts/zeppelin/contracts/lifecycle/Pausable.sol\";\n\ncontract TestMode is Pausable {\n    bool public TEST_MODE = false;\n    uint public TEST_HOUSE = 111;\n    uint public TEST_PLAYER = 111;\n\n    function ToggleTestMode(bool state) onlyOwner{\n      TEST_MODE = state;\n    }\n\n    function SetTestModeHands(uint house, uint player) onlyOwner{\n      require(house <= 416 && house >= 1);\n      require(player <= 416 && player >= 1);\n\n      TEST_HOUSE = house;\n      TEST_PLAYER = player;\n    }\n}\n",
  "sourcePath": "/Users/kuaiyu/Documents/Projects/Ethereum/temp/EthinoWar/contracts/TestMode.sol",
  "compiler": {
    "name": "solc",
    "version": "0.4.21+commit.dfe3193c.Emscripten.clang"
  },
  "schemaVersion": "2.0.0",
  "updatedAt": "2018-06-22T07:54:36.840Z"
}