{
  "contractName": "War",
  "abi": [
    {
      "constant": true,
      "inputs": [
        {
          "name": "",
          "type": "address"
        }
      ],
      "name": "firstHandInfo",
      "outputs": [
        {
          "name": "isTied",
          "type": "bool"
        },
        {
          "name": "fees",
          "type": "uint256"
        },
        {
          "name": "mainBetAmount",
          "type": "uint256"
        }
      ],
      "payable": false,
      "stateMutability": "view",
      "type": "function"
    },
    {
      "constant": true,
      "inputs": [],
      "name": "tokenDecimalPlaces",
      "outputs": [
        {
          "name": "",
          "type": "uint256"
        }
      ],
      "payable": false,
      "stateMutability": "view",
      "type": "function"
    },
    {
      "constant": false,
      "inputs": [],
      "name": "unpause",
      "outputs": [
        {
          "name": "",
          "type": "bool"
        }
      ],
      "payable": false,
      "stateMutability": "nonpayable",
      "type": "function"
    },
    {
      "constant": true,
      "inputs": [],
      "name": "manager",
      "outputs": [
        {
          "name": "",
          "type": "address"
        }
      ],
      "payable": false,
      "stateMutability": "view",
      "type": "function"
    },
    {
      "constant": true,
      "inputs": [],
      "name": "gasForShuffle",
      "outputs": [
        {
          "name": "",
          "type": "uint32"
        }
      ],
      "payable": false,
      "stateMutability": "view",
      "type": "function"
    },
    {
      "constant": true,
      "inputs": [],
      "name": "paused",
      "outputs": [
        {
          "name": "",
          "type": "bool"
        }
      ],
      "payable": false,
      "stateMutability": "view",
      "type": "function"
    },
    {
      "constant": true,
      "inputs": [],
      "name": "registeredToken",
      "outputs": [
        {
          "name": "",
          "type": "bool"
        }
      ],
      "payable": false,
      "stateMutability": "view",
      "type": "function"
    },
    {
      "constant": true,
      "inputs": [],
      "name": "tokenWinRatio",
      "outputs": [
        {
          "name": "",
          "type": "uint256"
        }
      ],
      "payable": false,
      "stateMutability": "view",
      "type": "function"
    },
    {
      "constant": false,
      "inputs": [],
      "name": "pause",
      "outputs": [
        {
          "name": "",
          "type": "bool"
        }
      ],
      "payable": false,
      "stateMutability": "nonpayable",
      "type": "function"
    },
    {
      "constant": true,
      "inputs": [],
      "name": "TEST_HOUSE",
      "outputs": [
        {
          "name": "",
          "type": "uint256"
        }
      ],
      "payable": false,
      "stateMutability": "view",
      "type": "function"
    },
    {
      "constant": true,
      "inputs": [],
      "name": "serviceFee",
      "outputs": [
        {
          "name": "",
          "type": "uint256"
        }
      ],
      "payable": false,
      "stateMutability": "view",
      "type": "function"
    },
    {
      "constant": true,
      "inputs": [],
      "name": "owner",
      "outputs": [
        {
          "name": "",
          "type": "address"
        }
      ],
      "payable": false,
      "stateMutability": "view",
      "type": "function"
    },
    {
      "constant": true,
      "inputs": [
        {
          "name": "",
          "type": "address"
        }
      ],
      "name": "hasHandInProgress",
      "outputs": [
        {
          "name": "",
          "type": "bool"
        }
      ],
      "payable": false,
      "stateMutability": "view",
      "type": "function"
    },
    {
      "constant": true,
      "inputs": [],
      "name": "tokenLossRatio",
      "outputs": [
        {
          "name": "",
          "type": "uint256"
        }
      ],
      "payable": false,
      "stateMutability": "view",
      "type": "function"
    },
    {
      "constant": true,
      "inputs": [],
      "name": "TEST_MODE",
      "outputs": [
        {
          "name": "",
          "type": "bool"
        }
      ],
      "payable": false,
      "stateMutability": "view",
      "type": "function"
    },
    {
      "constant": true,
      "inputs": [],
      "name": "sideBetPercent_MAX",
      "outputs": [
        {
          "name": "",
          "type": "uint256"
        }
      ],
      "payable": false,
      "stateMutability": "view",
      "type": "function"
    },
    {
      "constant": true,
      "inputs": [
        {
          "name": "",
          "type": "bytes32"
        }
      ],
      "name": "hand_info",
      "outputs": [
        {
          "name": "playerAddress",
          "type": "address"
        },
        {
          "name": "fees",
          "type": "uint256"
        },
        {
          "name": "mainBetAmount",
          "type": "uint256"
        },
        {
          "name": "sideBetAmount",
          "type": "uint256"
        },
        {
          "name": "sideBetPercentage",
          "type": "uint256"
        },
        {
          "name": "playerHand",
          "type": "uint256"
        },
        {
          "name": "houseHand",
          "type": "uint256"
        }
      ],
      "payable": false,
      "stateMutability": "view",
      "type": "function"
    },
    {
      "constant": true,
      "inputs": [],
      "name": "TEST_PLAYER",
      "outputs": [
        {
          "name": "",
          "type": "uint256"
        }
      ],
      "payable": false,
      "stateMutability": "view",
      "type": "function"
    },
    {
      "constant": true,
      "inputs": [],
      "name": "bet_MAX",
      "outputs": [
        {
          "name": "",
          "type": "uint256"
        }
      ],
      "payable": false,
      "stateMutability": "view",
      "type": "function"
    },
    {
      "constant": true,
      "inputs": [
        {
          "name": "",
          "type": "address"
        }
      ],
      "name": "refundPool",
      "outputs": [
        {
          "name": "",
          "type": "uint256"
        }
      ],
      "payable": false,
      "stateMutability": "view",
      "type": "function"
    },
    {
      "constant": false,
      "inputs": [
        {
          "name": "newOwner",
          "type": "address"
        }
      ],
      "name": "transferOwnership",
      "outputs": [],
      "payable": false,
      "stateMutability": "nonpayable",
      "type": "function"
    },
    {
      "constant": true,
      "inputs": [],
      "name": "bet_MIN",
      "outputs": [
        {
          "name": "",
          "type": "uint256"
        }
      ],
      "payable": false,
      "stateMutability": "view",
      "type": "function"
    },
    {
      "inputs": [],
      "payable": true,
      "stateMutability": "payable",
      "type": "constructor"
    },
    {
      "anonymous": false,
      "inputs": [
        {
          "indexed": true,
          "name": "playerAddr",
          "type": "address"
        },
        {
          "indexed": false,
          "name": "amount",
          "type": "uint256"
        }
      ],
      "name": "betPayout",
      "type": "event"
    },
    {
      "anonymous": false,
      "inputs": [
        {
          "indexed": true,
          "name": "playerAddr",
          "type": "address"
        },
        {
          "indexed": false,
          "name": "amount",
          "type": "uint256"
        }
      ],
      "name": "betPayoutToken",
      "type": "event"
    },
    {
      "anonymous": false,
      "inputs": [
        {
          "indexed": true,
          "name": "player",
          "type": "address"
        },
        {
          "indexed": false,
          "name": "orcID",
          "type": "bytes32"
        },
        {
          "indexed": false,
          "name": "dealerHand",
          "type": "uint256"
        },
        {
          "indexed": false,
          "name": "playerHand",
          "type": "uint256"
        },
        {
          "indexed": false,
          "name": "dealerSuit",
          "type": "uint256"
        },
        {
          "indexed": false,
          "name": "playerSuit",
          "type": "uint256"
        }
      ],
      "name": "dealtCards",
      "type": "event"
    },
    {
      "anonymous": false,
      "inputs": [
        {
          "indexed": false,
          "name": "orcID",
          "type": "bytes32"
        }
      ],
      "name": "currentOrcID",
      "type": "event"
    },
    {
      "anonymous": false,
      "inputs": [
        {
          "indexed": false,
          "name": "mainBet",
          "type": "uint256"
        },
        {
          "indexed": false,
          "name": "sideBet",
          "type": "uint256"
        },
        {
          "indexed": false,
          "name": "percent",
          "type": "uint256"
        }
      ],
      "name": "DEBUG_betSplit",
      "type": "event"
    },
    {
      "anonymous": false,
      "inputs": [
        {
          "indexed": false,
          "name": "msg",
          "type": "string"
        }
      ],
      "name": "DEBUG_str",
      "type": "event"
    },
    {
      "anonymous": false,
      "inputs": [
        {
          "indexed": false,
          "name": "error",
          "type": "string"
        }
      ],
      "name": "DEBUG_invalidOp",
      "type": "event"
    },
    {
      "anonymous": false,
      "inputs": [
        {
          "indexed": false,
          "name": "addr",
          "type": "address"
        }
      ],
      "name": "DEBUG_addr",
      "type": "event"
    },
    {
      "anonymous": false,
      "inputs": [
        {
          "indexed": false,
          "name": "thing",
          "type": "bytes32"
        }
      ],
      "name": "DEBUG_byte",
      "type": "event"
    },
    {
      "anonymous": false,
      "inputs": [
        {
          "indexed": false,
          "name": "thing",
          "type": "uint256"
        }
      ],
      "name": "DEBUG_uint",
      "type": "event"
    },
    {
      "anonymous": false,
      "inputs": [],
      "name": "Pause",
      "type": "event"
    },
    {
      "anonymous": false,
      "inputs": [],
      "name": "Unpause",
      "type": "event"
    },
    {
      "constant": false,
      "inputs": [
        {
          "name": "state",
          "type": "bool"
        }
      ],
      "name": "ToggleTestMode",
      "outputs": [],
      "payable": false,
      "stateMutability": "nonpayable",
      "type": "function"
    },
    {
      "constant": false,
      "inputs": [
        {
          "name": "house",
          "type": "uint256"
        },
        {
          "name": "player",
          "type": "uint256"
        }
      ],
      "name": "SetTestModeHands",
      "outputs": [],
      "payable": false,
      "stateMutability": "nonpayable",
      "type": "function"
    },
    {
      "constant": false,
      "inputs": [
        {
          "name": "gasAmount",
          "type": "uint32"
        }
      ],
      "name": "setOraclizeGas",
      "outputs": [],
      "payable": false,
      "stateMutability": "nonpayable",
      "type": "function"
    },
    {
      "constant": false,
      "inputs": [
        {
          "name": "_tokenAddress",
          "type": "address"
        },
        {
          "name": "decimalPlaces",
          "type": "uint256"
        }
      ],
      "name": "RegisterToken",
      "outputs": [],
      "payable": false,
      "stateMutability": "nonpayable",
      "type": "function"
    },
    {
      "constant": true,
      "inputs": [
        {
          "name": "who",
          "type": "address"
        }
      ],
      "name": "RemainingTokens",
      "outputs": [
        {
          "name": "",
          "type": "uint256"
        }
      ],
      "payable": false,
      "stateMutability": "view",
      "type": "function"
    },
    {
      "constant": false,
      "inputs": [],
      "name": "FundHouse",
      "outputs": [],
      "payable": true,
      "stateMutability": "payable",
      "type": "function"
    },
    {
      "constant": false,
      "inputs": [],
      "name": "WithdrawFunds",
      "outputs": [],
      "payable": false,
      "stateMutability": "nonpayable",
      "type": "function"
    },
    {
      "constant": false,
      "inputs": [
        {
          "name": "sideBetPercent",
          "type": "uint256"
        }
      ],
      "name": "playWar",
      "outputs": [],
      "payable": true,
      "stateMutability": "payable",
      "type": "function"
    },
    {
      "constant": false,
      "inputs": [
        {
          "name": "betInWei",
          "type": "uint256"
        }
      ],
      "name": "getTokenWinValue",
      "outputs": [
        {
          "name": "",
          "type": "uint256"
        }
      ],
      "payable": false,
      "stateMutability": "nonpayable",
      "type": "function"
    },
    {
      "constant": false,
      "inputs": [
        {
          "name": "betInWei",
          "type": "uint256"
        }
      ],
      "name": "getTokenLossValue",
      "outputs": [
        {
          "name": "",
          "type": "uint256"
        }
      ],
      "payable": false,
      "stateMutability": "nonpayable",
      "type": "function"
    },
    {
      "constant": false,
      "inputs": [
        {
          "name": "winAmount",
          "type": "uint256"
        },
        {
          "name": "lossAmount",
          "type": "uint256"
        }
      ],
      "name": "setWinLossAmount",
      "outputs": [],
      "payable": false,
      "stateMutability": "nonpayable",
      "type": "function"
    },
    {
      "constant": true,
      "inputs": [],
      "name": "getWinTokenAmount",
      "outputs": [
        {
          "name": "",
          "type": "uint256"
        }
      ],
      "payable": false,
      "stateMutability": "view",
      "type": "function"
    },
    {
      "constant": true,
      "inputs": [],
      "name": "getLossTokenAmount",
      "outputs": [
        {
          "name": "",
          "type": "uint256"
        }
      ],
      "payable": false,
      "stateMutability": "view",
      "type": "function"
    },
    {
      "constant": false,
      "inputs": [
        {
          "name": "orcID",
          "type": "bytes32"
        },
        {
          "name": "result",
          "type": "string"
        },
        {
          "name": "playerAddr",
          "type": "address"
        }
      ],
      "name": "parseResult",
      "outputs": [
        {
          "name": "",
          "type": "uint256"
        },
        {
          "name": "",
          "type": "uint256"
        }
      ],
      "payable": false,
      "stateMutability": "nonpayable",
      "type": "function"
    },
    {
      "constant": false,
      "inputs": [],
      "name": "refund",
      "outputs": [
        {
          "name": "",
          "type": "uint256"
        }
      ],
      "payable": false,
      "stateMutability": "nonpayable",
      "type": "function"
    },
    {
      "constant": false,
      "inputs": [
        {
          "name": "myid",
          "type": "bytes32"
        },
        {
          "name": "result",
          "type": "string"
        },
        {
          "name": "proof",
          "type": "bytes"
        }
      ],
      "name": "__callback",
      "outputs": [],
      "payable": false,
      "stateMutability": "nonpayable",
      "type": "function"
    },
    {
      "constant": false,
      "inputs": [
        {
          "name": "orcID",
          "type": "bytes32"
        },
        {
          "name": "result",
          "type": "string"
        }
      ],
      "name": "__callback",
      "outputs": [],
      "payable": false,
      "stateMutability": "nonpayable",
      "type": "function"
    },
    {
      "constant": false,
      "inputs": [],
      "name": "playerSurrender",
      "outputs": [],
      "payable": true,
      "stateMutability": "payable",
      "type": "function"
    },
    {
      "constant": false,
      "inputs": [
        {
          "name": "card",
          "type": "uint256"
        }
      ],
      "name": "getCardValue",
      "outputs": [
        {
          "name": "",
          "type": "uint256"
        }
      ],
      "payable": false,
      "stateMutability": "nonpayable",
      "type": "function"
    },
    {
      "constant": true,
      "inputs": [],
      "name": "houseBankRoll",
      "outputs": [
        {
          "name": "",
          "type": "uint256"
        }
      ],
      "payable": false,
      "stateMutability": "view",
      "type": "function"
    }
  ],
  "bytecode": "0x60606040526000600560146101000a81548160ff0219169083151502179055506050600955678ac7230489e80000600a5567016345785d8a0000600b556000600c60006101000a81548160ff0219169083151502179055506002600d556601f9465b8ab8e3600e556611c37937e08000600f556000601260006101000a81548160ff021916908315150217905550606f601355606f60145533600560006101000a81548173ffffffffffffffffffffffffffffffffffffffff021916908373ffffffffffffffffffffffffffffffffffffffff16021790555033600660006101000a81548173ffffffffffffffffffffffffffffffffffffffff021916908373ffffffffffffffffffffffffffffffffffffffff16021790555033600760006101000a81548173ffffffffffffffffffffffffffffffffffffffff021916908373ffffffffffffffffffffffffffffffffffffffff1602179055506202d2a8601060006101000a81548163ffffffff021916908363ffffffff160217905550614aa08061018d6000396000f300606060405260043610610203576000357c0100000000000000000000000000000000000000000000000000000000900463ffffffff168062ecd311146102085780631792cc611461026757806327dc297e14610290578063282651fe146102fa5780632e78f9a714610323578063339ac1741461035a57806338bbfa50146103645780633f4ba83a14610411578063468a04131461043e578063481c6a75146104e25780634c0aac9a1461053757806358aaf48a1461054c578063590e1ae3146105815780635b5e760c146105aa5780635c975abb146105e157806362eb6da11461060e57806365e807ab1461063b578063778317c4146106725780637ea5d50e1461069e5780638456cb59146106c757806389ed0b30146106f45780638a25aefa1461071d5780638abdf5aa146107465780638da5cb5b1461076f5780639429d2d9146107c4578063963d62fb14610815578063a4009e231461083e578063aa3dacac1461086b578063b2f3319e14610894578063b45cff5f146108b9578063b46631cd146108e2578063bb42e8e51461090e578063c6e2a07114610950578063d02cc69f146109e1578063df065d78146109f9578063e320697514610a22578063e4db0c5e14610a4b578063e5c1d3ce14610a98578063f2fde38b14610aa2578063f69a65b314610adb578063f91a545b14610b28578063fc0808e514610b51575b600080fd5b341561021357600080fd5b61023f600480803573ffffffffffffffffffffffffffffffffffffffff16906020019091905050610b7a565b6040518084151515158152602001838152602001828152602001935050505060405180910390f35b341561027257600080fd5b61027a610bb1565b6040518082815260200191505060405180910390f35b341561029b57600080fd5b6102f860048080356000191690602001909190803590602001908201803590602001908080601f01602080910402602001604051908101604052809392919081815260200183838082843782019150505050505091905050610bb7565b005b341561030557600080fd5b61030d61142f565b6040518082815260200191505060405180910390f35b341561032e57600080fd5b610344600480803590602001909190505061144c565b6040518082815260200191505060405180910390f35b610362611504565b005b341561036f57600080fd5b61040f60048080356000191690602001909190803590602001908201803590602001908080601f0160208091040260200160405190810160405280939291908181526020018383808284378201915050505050509190803590602001908201803590602001908080601f0160208091040260200160405190810160405280939291908181526020018383808284378201915050505050509190505061175b565b005b341561041c57600080fd5b610424611760565b604051808215151515815260200191505060405180910390f35b341561044957600080fd5b6104c560048080356000191690602001909190803590602001908201803590602001908080601f0160208091040260200160405190810160405280939291908181526020018383808284378201915050505050509190803573ffffffffffffffffffffffffffffffffffffffff16906020019091905050611827565b604051808381526020018281526020019250505060405180910390f35b34156104ed57600080fd5b6104f5611baf565b604051808273ffffffffffffffffffffffffffffffffffffffff1673ffffffffffffffffffffffffffffffffffffffff16815260200191505060405180910390f35b341561054257600080fd5b61054a611bd5565b005b341561055757600080fd5b61055f611c80565b604051808263ffffffff1663ffffffff16815260200191505060405180910390f35b341561058c57600080fd5b610594611c96565b6040518082815260200191505060405180910390f35b34156105b557600080fd5b6105cb6004808035906020019091905050611efc565b6040518082815260200191505060405180910390f35b34156105ec57600080fd5b6105f4611f13565b604051808215151515815260200191505060405180910390f35b341561061957600080fd5b610621611f26565b604051808215151515815260200191505060405180910390f35b341561064657600080fd5b61065c6004808035906020019091905050611f39565b6040518082815260200191505060405180910390f35b341561067d57600080fd5b61069c6004808035906020019091908035906020019091905050611f50565b005b34156106a957600080fd5b6106b1611fe4565b6040518082815260200191505060405180910390f35b34156106d257600080fd5b6106da611fea565b604051808215151515815260200191505060405180910390f35b34156106ff57600080fd5b61071b600480803563ffffffff169060200190919050506120b0565b005b341561072857600080fd5b610730612130565b6040518082815260200191505060405180910390f35b341561075157600080fd5b610759612136565b6040518082815260200191505060405180910390f35b341561077a57600080fd5b61078261213c565b604051808273ffffffffffffffffffffffffffffffffffffffff1673ffffffffffffffffffffffffffffffffffffffff16815260200191505060405180910390f35b34156107cf57600080fd5b6107fb600480803573ffffffffffffffffffffffffffffffffffffffff16906020019091905050612162565b604051808215151515815260200191505060405180910390f35b341561082057600080fd5b610828612182565b6040518082815260200191505060405180910390f35b341561084957600080fd5b610851612188565b604051808215151515815260200191505060405180910390f35b341561087657600080fd5b61087e61219b565b6040518082815260200191505060405180910390f35b341561089f57600080fd5b6108b7600480803515159060200190919050506121a1565b005b34156108c457600080fd5b6108cc61221a565b6040518082815260200191505060405180910390f35b34156108ed57600080fd5b61090c6004808035906020019091908035906020019091905050612239565b005b341561091957600080fd5b61094e600480803573ffffffffffffffffffffffffffffffffffffffff169060200190919080359060200190919050506122e3565b005b341561095b57600080fd5b61097560048080356000191690602001909190505061240e565b604051808873ffffffffffffffffffffffffffffffffffffffff1673ffffffffffffffffffffffffffffffffffffffff16815260200187815260200186815260200185815260200184815260200183815260200182815260200197505050505050505060405180910390f35b6109f76004808035906020019091905050612470565b005b3415610a0457600080fd5b610a0c612a0c565b6040518082815260200191505060405180910390f35b3415610a2d57600080fd5b610a35612a12565b6040518082815260200191505060405180910390f35b3415610a5657600080fd5b610a82600480803573ffffffffffffffffffffffffffffffffffffffff16906020019091905050612a18565b6040518082815260200191505060405180910390f35b610aa0612a30565b005b3415610aad57600080fd5b610ad9600480803573ffffffffffffffffffffffffffffffffffffffff16906020019091905050612a32565b005b3415610ae657600080fd5b610b12600480803573ffffffffffffffffffffffffffffffffffffffff16906020019091905050612b09565b6040518082815260200191505060405180910390f35b3415610b3357600080fd5b610b3b612bf5565b6040518082815260200191505060405180910390f35b3415610b5c57600080fd5b610b64612c12565b6040518082815260200191505060405180910390f35b60176020528060005260406000206000915090508060000160009054906101000a900460ff16908060010154908060020154905083565b600d5481565b6000806000806000610bc7614915565b6000806000610bd4612c18565b73ffffffffffffffffffffffffffffffffffffffff163373ffffffffffffffffffffffffffffffffffffffff16141515610c0d57600080fd5b6000601560008d6000191660001916815260200190815260200160002060000160009054906101000a900473ffffffffffffffffffffffffffffffffffffffff1673ffffffffffffffffffffffffffffffffffffffff1614151515610c7157600080fd5b601560008c6000191660001916815260200190815260200160002060000160009054906101000a900473ffffffffffffffffffffffffffffffffffffffff16985060011515601660008b73ffffffffffffffffffffffffffffffffffffffff1673ffffffffffffffffffffffffffffffffffffffff16815260200190815260200160002060009054906101000a900460ff161515141515610d1157600080fd5b6000601660008b73ffffffffffffffffffffffffffffffffffffffff1673ffffffffffffffffffffffffffffffffffffffff16815260200190815260200160002060006101000a81548160ff021916908315150217905550601860008a73ffffffffffffffffffffffffffffffffffffffff1673ffffffffffffffffffffffffffffffffffffffff16815260200190815260200160002060009055610db78b8b8b611827565b97509750868814156111ca577f6e4a8547a0f2d6541a77a459eff545d4777c23401787089993b1780e7ab979a06040518080602001828103825260058152602001807f546965642100000000000000000000000000000000000000000000000000000081525060200191505060405180910390a1601760008a73ffffffffffffffffffffffffffffffffffffffff1673ffffffffffffffffffffffffffffffffffffffff168152602001908152602001600020600201549450601760008a73ffffffffffffffffffffffffffffffffffffffff1673ffffffffffffffffffffffffffffffffffffffff168152602001908152602001600020600101549550601760008a73ffffffffffffffffffffffffffffffffffffffff1673ffffffffffffffffffffffffffffffffffffffff16815260200190815260200160002060000160009054906101000a900460ff1615611012577f6e4a8547a0f2d6541a77a459eff545d4777c23401787089993b1780e7ab979a06040518080602001828103825260178152602001807f5365636f6e6420546965202d203378207061796f75742100000000000000000081525060200191505060405180910390a1610f7d898688612f07565b8015610fa15750610fa089610f9b610f9488611efc565b600361300e565b613041565b5b1561100d57601760008a73ffffffffffffffffffffffffffffffffffffffff1673ffffffffffffffffffffffffffffffffffffffff168152602001908152602001600020600080820160006101000a81549060ff02191690556001820160009055600282016000905550505b6111c9565b7f6e4a8547a0f2d6541a77a459eff545d4777c23401787089993b1780e7ab979a060405180806020018281038252601a8152602001807f466972737420546965202d2070656e64696e6720616374696f6e00000000000081525060200191505060405180910390a16001601760008b73ffffffffffffffffffffffffffffffffffffffff1673ffffffffffffffffffffffffffffffffffffffff16815260200190815260200160002060000160006101000a81548160ff021916908315150217905550601560008c6000191660001916815260200190815260200160002060e060405190810160405290816000820160009054906101000a900473ffffffffffffffffffffffffffffffffffffffff1673ffffffffffffffffffffffffffffffffffffffff1673ffffffffffffffffffffffffffffffffffffffff168152602001600182015481526020016002820154815260200160038201548152602001600482015481526020016005820154815260200160068201548152505093506000846060015111156111b4576111a68b6131f4565b6111af8b61336f565b6111c8565b6111c6896111c187611f39565b613041565b505b5b5b601560008c60001916600019168152602001908152602001600020600201549250601560008c60001916600019168152602001908152602001600020600101549550868811156113225761121d83611efc565b915061122a898488612f07565b801561123c575061123b8983613041565b5b1561131d57601760008a73ffffffffffffffffffffffffffffffffffffffff1673ffffffffffffffffffffffffffffffffffffffff168152602001908152602001600020600080820160006101000a81549060ff0219169055600182016000905560028201600090555050601560008c60001916600019168152602001908152602001600020600080820160006101000a81549073ffffffffffffffffffffffffffffffffffffffff021916905560018201600090556002820160009055600382016000905560048201600090556005820160009055600682016000905550505b611422565b868810156114215761133383611f39565b905061133f8982613041565b1561142057601760008a73ffffffffffffffffffffffffffffffffffffffff1673ffffffffffffffffffffffffffffffffffffffff168152602001908152602001600020600080820160006101000a81549060ff0219169055600182016000905560028201600090555050601560008c60001916600019168152602001908152602001600020600080820160006101000a81549073ffffffffffffffffffffffffffffffffffffffff021916905560018201600090556002820160009055600382016000905560048201600090556005820160009055600682016000905550505b5b5b5050505050505050505050565b6000600e54670de0b6b3a764000081151561144657fe5b04905090565b60006101a082118061145e5750600182105b1561146c57600090506114ff565b60348211156114855760348281151561148157fe5b0691505b600082141561149757600d90506114ff565b6004821115156114aa57600e90506114ff565b60006004838115156114b857fe5b0611156114db576114d46114cd8360046134fd565b600161353e565b91506114e9565b6114e68260046134fd565b91505b60018214156114fb57600e90506114ff565b8190505b919050565b600080600560149054906101000a900460ff161561152157600080fd5b601760003373ffffffffffffffffffffffffffffffffffffffff1673ffffffffffffffffffffffffffffffffffffffff16815260200190815260200160002060000160009054906101000a900460ff16156116ee577f6e4a8547a0f2d6541a77a459eff545d4777c23401787089993b1780e7ab979a06040518080602001828103825260138152602001807f706c617965722073757272656e646572696e670000000000000000000000000081525060200191505060405180910390a161162b601760003373ffffffffffffffffffffffffffffffffffffffff1673ffffffffffffffffffffffffffffffffffffffff1681526020019081526020016000206002015460026134fd565b9150601760003373ffffffffffffffffffffffffffffffffffffffff1673ffffffffffffffffffffffffffffffffffffffff16815260200190815260200160002060010154905061167d338383612f07565b156116e957601760003373ffffffffffffffffffffffffffffffffffffffff1673ffffffffffffffffffffffffffffffffffffffff168152602001908152602001600020600080820160006101000a81549060ff02191690556001820160009055600282016000905550505b611757565b7f6e4a8547a0f2d6541a77a459eff545d4777c23401787089993b1780e7ab979a06040518080602001828103825260148152602001807f6e6f7468696e6720746f2073757272656e64657200000000000000000000000081525060200191505060405180910390a15b5050565b505050565b6000600560009054906101000a900473ffffffffffffffffffffffffffffffffffffffff1673ffffffffffffffffffffffffffffffffffffffff163373ffffffffffffffffffffffffffffffffffffffff161415156117be57600080fd5b600560149054906101000a900460ff1615156117d957600080fd5b6000600560146101000a81548160ff0219169083151502179055507f7805862f689e2f13df9f062ff482ad3ad112aca9e0847911ed832e158c525b3360405160405180910390a16001905090565b600080611832614969565b61183a614969565b6000806000806118498a61355c565b95506118ea61188c6040805190810160405280600181526020017f7d0000000000000000000000000000000000000000000000000000000000000081525061355c565b6118dc6118cd6040805190810160405280600181526020017f7b0000000000000000000000000000000000000000000000000000000000000081525061355c565b8961358a90919063ffffffff16565b61361490919063ffffffff16565b506119296040805190810160405280600181526020017f2c0000000000000000000000000000000000000000000000000000000000000081525061355c565b945061194e611949611944878961369590919063ffffffff16565b6136af565b61370d565b935061197361196e611969878961369590919063ffffffff16565b6136af565b61370d565b9250601260009054906101000a900460ff161561199557601354935060145492505b3073ffffffffffffffffffffffffffffffffffffffff16632e78f9a7856040518263ffffffff167c010000000000000000000000000000000000000000000000000000000002815260040180828152602001915050602060405180830381600087803b1515611a0357600080fd5b5af11515611a1057600080fd5b50505060405180519050601560008d60001916600019168152602001908152602001600020600601819055503073ffffffffffffffffffffffffffffffffffffffff16632e78f9a7846040518263ffffffff167c010000000000000000000000000000000000000000000000000000000002815260040180828152602001915050602060405180830381600087803b1515611aaa57600080fd5b5af11515611ab757600080fd5b50505060405180519050601560008d6000191660001916815260200190815260200160002060050181905550601560008c60001916600019168152602001908152602001600020600601549150601560008c600019166000191681526020019081526020016000206005015490508873ffffffffffffffffffffffffffffffffffffffff167fa3afae828658e1e58da778b78eeab7f29d71765dbd93a09381b6bcad486866e58c848488886040518086600019166000191681526020018581526020018481526020018381526020018281526020019550505050505060405180910390a2808297509750505050505050935093915050565b600760009054906101000a900473ffffffffffffffffffffffffffffffffffffffff1681565b600560009054906101000a900473ffffffffffffffffffffffffffffffffffffffff1673ffffffffffffffffffffffffffffffffffffffff163373ffffffffffffffffffffffffffffffffffffffff16141515611c3157600080fd5b3373ffffffffffffffffffffffffffffffffffffffff166108fc3073ffffffffffffffffffffffffffffffffffffffff16319081150290604051600060405180830381858888f1935050505050565b601060009054906101000a900463ffffffff1681565b6000806000339150601860008373ffffffffffffffffffffffffffffffffffffffff1673ffffffffffffffffffffffffffffffffffffffff16815260200190815260200160002054905060011515601660008473ffffffffffffffffffffffffffffffffffffffff1673ffffffffffffffffffffffffffffffffffffffff16815260200190815260200160002060009054906101000a900460ff161515141515611d3f57600080fd5b600081111515611d4e57600080fd5b600a548111151515611d5f57600080fd5b8173ffffffffffffffffffffffffffffffffffffffff166108fc829081150290604051600060405180830381858888f1935050505015611e8a578173ffffffffffffffffffffffffffffffffffffffff167f325741c2c5ea17ea8829fb19547120786d784369cacb62dce5bad13aed3df6e5826040518082815260200191505060405180910390a26000601660008473ffffffffffffffffffffffffffffffffffffffff1673ffffffffffffffffffffffffffffffffffffffff16815260200190815260200160002060006101000a81548160ff021916908315150217905550601860008373ffffffffffffffffffffffffffffffffffffffff1673ffffffffffffffffffffffffffffffffffffffff16815260200190815260200160002060009055809250611ef7565b7f6e4a8547a0f2d6541a77a459eff545d4777c23401787089993b1780e7ab979a06040518080602001828103825260148152602001807f464154414c3a20726566756e64206661696c656400000000000000000000000081525060200191505060405180910390a1600092505b505090565b6000600e5482811515611f0b57fe5b049050919050565b600560149054906101000a900460ff1681565b600c60009054906101000a900460ff1681565b6000600f5482811515611f4857fe5b049050919050565b600560009054906101000a900473ffffffffffffffffffffffffffffffffffffffff1673ffffffffffffffffffffffffffffffffffffffff163373ffffffffffffffffffffffffffffffffffffffff16141515611fac57600080fd5b81670de0b6b3a7640000811515611fbf57fe5b04600e8190555080670de0b6b3a7640000811515611fd957fe5b04600f819055505050565b600e5481565b6000600560009054906101000a900473ffffffffffffffffffffffffffffffffffffffff1673ffffffffffffffffffffffffffffffffffffffff163373ffffffffffffffffffffffffffffffffffffffff1614151561204857600080fd5b600560149054906101000a900460ff161561206257600080fd5b6001600560146101000a81548160ff0219169083151502179055507f6985a02210a168e66602d3235cb6db0e70f92b3ba4d376a33c0f3d9434bff62560405160405180910390a16001905090565b600560009054906101000a900473ffffffffffffffffffffffffffffffffffffffff1673ffffffffffffffffffffffffffffffffffffffff163373ffffffffffffffffffffffffffffffffffffffff1614151561210c57600080fd5b80601060006101000a81548163ffffffff021916908363ffffffff16021790555050565b60135481565b60115481565b600660009054906101000a900473ffffffffffffffffffffffffffffffffffffffff1681565b60166020528060005260406000206000915054906101000a900460ff1681565b600f5481565b601260009054906101000a900460ff1681565b60095481565b600560009054906101000a900473ffffffffffffffffffffffffffffffffffffffff1673ffffffffffffffffffffffffffffffffffffffff163373ffffffffffffffffffffffffffffffffffffffff161415156121fd57600080fd5b80601260006101000a81548160ff02191690831515021790555050565b60003073ffffffffffffffffffffffffffffffffffffffff1631905090565b600560009054906101000a900473ffffffffffffffffffffffffffffffffffffffff1673ffffffffffffffffffffffffffffffffffffffff163373ffffffffffffffffffffffffffffffffffffffff1614151561229557600080fd5b6101a082111580156122a8575060018210155b15156122b357600080fd5b6101a081111580156122c6575060018110155b15156122d157600080fd5b81601381905550806014819055505050565b600560009054906101000a900473ffffffffffffffffffffffffffffffffffffffff1673ffffffffffffffffffffffffffffffffffffffff163373ffffffffffffffffffffffffffffffffffffffff1614151561233f57600080fd5b81600860006101000a81548173ffffffffffffffffffffffffffffffffffffffff021916908373ffffffffffffffffffffffffffffffffffffffff1602179055507f6e4a8547a0f2d6541a77a459eff545d4777c23401787089993b1780e7ab979a06040518080602001828103825260108152602001807f544f4b454e20524547495354455245440000000000000000000000000000000081525060200191505060405180910390a16001600c60006101000a81548160ff02191690831515021790555080600d819055505050565b60156020528060005260406000206000915090508060000160009054906101000a900473ffffffffffffffffffffffffffffffffffffffff16908060010154908060020154908060030154908060040154908060050154908060060154905087565b6000806000806000612480614983565b612488614915565b600560149054906101000a900460ff16156124a257600080fd5b60011515600c60009054906101000a900460ff1615151415156124c457600080fd5b600088101580156124d757506009548811155b15156124e257600080fd5b60001515601660003373ffffffffffffffffffffffffffffffffffffffff1673ffffffffffffffffffffffffffffffffffffffff16815260200190815260200160002060009054906101000a900460ff16151514151561254157600080fd5b600a5434111580156125555750600b543410155b151561256057600080fd5b349650612577612570888a61300e565b60646134fd565b95506125838787613721565b94507fb82d4524d34e03b0c1b0d83049ea84e18809aab1d6b3274cbb96d1617e45c3fd85878a60405180848152602001838152602001828152602001935050505060405180910390a16126596040805190810160405280600c81526020017f576f6c6672616d416c70686100000000000000000000000000000000000000008152506040805190810160405280601a81526020017f52616e646f6d53616d706c655b52616e67655b3431365d2c325d000000000000815250601060009054906101000a900463ffffffff1663ffffffff1661373a565b93507f8415f67b82459151888994d7f123752ba9004f85aa373a5d717ae79a063c3faf8460405180826000191660001916815260200191505060405180910390a16126f16040805190810160405280600c81526020017f576f6c6672616d416c7068610000000000000000000000000000000000000000815250601060009054906101000a900463ffffffff1663ffffffff16613c56565b92507f82bcc51ff5ab20f2066b1b697b902d2ee2549348c8f58f85b996a7fcce09b613836040518082815260200191505060405180910390a1601760003373ffffffffffffffffffffffffffffffffffffffff1673ffffffffffffffffffffffffffffffffffffffff16815260200190815260200160002060000160009054906101000a900460ff16156127dd57601760003373ffffffffffffffffffffffffffffffffffffffff1673ffffffffffffffffffffffffffffffffffffffff16815260200190815260200160002060020154341415156127cc57fe5b6000861415156127d857fe5b612876565b60606040519081016040528060001515815260200184815260200186815250915081601760003373ffffffffffffffffffffffffffffffffffffffff1673ffffffffffffffffffffffffffffffffffffffff16815260200190815260200160002060008201518160000160006101000a81548160ff02191690831515021790555060208201518160010155604082015181600201559050505b60e0604051908101604052803373ffffffffffffffffffffffffffffffffffffffff16815260200184815260200186815260200187815260200189815260200160008152602001600081525090508060156000866000191660001916815260200190815260200160002060008201518160000160006101000a81548173ffffffffffffffffffffffffffffffffffffffff021916908373ffffffffffffffffffffffffffffffffffffffff1602179055506020820151816001015560408201518160020155606082015181600301556080820151816004015560a0820151816005015560c0820151816006015590505034601860003373ffffffffffffffffffffffffffffffffffffffff1673ffffffffffffffffffffffffffffffffffffffff168152602001908152602001600020819055506001601660003373ffffffffffffffffffffffffffffffffffffffff1673ffffffffffffffffffffffffffffffffffffffff16815260200190815260200160002060006101000a81548160ff0219169083151502179055505050505050505050565b60145481565b600a5481565b60186020528060005260406000206000915090505481565b565b600560009054906101000a900473ffffffffffffffffffffffffffffffffffffffff1673ffffffffffffffffffffffffffffffffffffffff163373ffffffffffffffffffffffffffffffffffffffff16141515612a8e57600080fd5b600073ffffffffffffffffffffffffffffffffffffffff168173ffffffffffffffffffffffffffffffffffffffff16141515612b065780600560006101000a81548173ffffffffffffffffffffffffffffffffffffffff021916908373ffffffffffffffffffffffffffffffffffffffff1602179055505b50565b6000600d54600a0a600860009054906101000a900473ffffffffffffffffffffffffffffffffffffffff1673ffffffffffffffffffffffffffffffffffffffff166370a08231846040518263ffffffff167c0100000000000000000000000000000000000000000000000000000000028152600401808273ffffffffffffffffffffffffffffffffffffffff1673ffffffffffffffffffffffffffffffffffffffff168152602001915050602060405180830381600087803b1515612bcd57600080fd5b5af11515612bda57600080fd5b50505060405180519050811515612bed57fe5b049050919050565b6000600f54670de0b6b3a7640000811515612c0c57fe5b04905090565b600b5481565b6000806000809054906101000a900473ffffffffffffffffffffffffffffffffffffffff1673ffffffffffffffffffffffffffffffffffffffff161480612c8857506000612c866000809054906101000a900473ffffffffffffffffffffffffffffffffffffffff16613fc0565b145b15612c9957612c976000613fcb565b505b6000809054906101000a900473ffffffffffffffffffffffffffffffffffffffff1673ffffffffffffffffffffffffffffffffffffffff166338cc48316040518163ffffffff167c0100000000000000000000000000000000000000000000000000000000028152600401602060405180830381600087803b1515612d1d57600080fd5b5af11515612d2a57600080fd5b5050506040518051905073ffffffffffffffffffffffffffffffffffffffff16600160009054906101000a900473ffffffffffffffffffffffffffffffffffffffff1673ffffffffffffffffffffffffffffffffffffffff16141515612e66576000809054906101000a900473ffffffffffffffffffffffffffffffffffffffff1673ffffffffffffffffffffffffffffffffffffffff166338cc48316040518163ffffffff167c0100000000000000000000000000000000000000000000000000000000028152600401602060405180830381600087803b1515612e0e57600080fd5b5af11515612e1b57600080fd5b50505060405180519050600160006101000a81548173ffffffffffffffffffffffffffffffffffffffff021916908373ffffffffffffffffffffffffffffffffffffffff1602179055505b600160009054906101000a900473ffffffffffffffffffffffffffffffffffffffff1673ffffffffffffffffffffffffffffffffffffffff1663c281d19e6040518163ffffffff167c0100000000000000000000000000000000000000000000000000000000028152600401602060405180830381600087803b1515612eeb57600080fd5b5af11515612ef857600080fd5b50505060405180519050905090565b60008373ffffffffffffffffffffffffffffffffffffffff166108fc849081150290604051600060405180830381858888f1935050505015612f9a578373ffffffffffffffffffffffffffffffffffffffff167f325741c2c5ea17ea8829fb19547120786d784369cacb62dce5bad13aed3df6e5846040518082815260200191505060405180910390a260019050613007565b7f6e4a8547a0f2d6541a77a459eff545d4777c23401787089993b1780e7ab979a06040518080602001828103825260118152602001807f464154414c3a20706179206661696c656400000000000000000000000000000081525060200191505060405180910390a1600090505b9392505050565b6000808284029050600084148061302f575082848281151561302c57fe5b04145b151561303757fe5b8091505092915050565b6000600860009054906101000a900473ffffffffffffffffffffffffffffffffffffffff1673ffffffffffffffffffffffffffffffffffffffff1663a9059cbb84600d54600a0a85026040518363ffffffff167c0100000000000000000000000000000000000000000000000000000000028152600401808373ffffffffffffffffffffffffffffffffffffffff1673ffffffffffffffffffffffffffffffffffffffff16815260200182815260200192505050602060405180830381600087803b151561310e57600080fd5b5af1151561311b57600080fd5b5050506040518051905015613181578273ffffffffffffffffffffffffffffffffffffffff167f636445730b1bbf400b84597c178e4bd11b72e774f51f9f3c524e51ad8f88a2aa836040518082815260200191505060405180910390a2600190506131ee565b7f6e4a8547a0f2d6541a77a459eff545d4777c23401787089993b1780e7ab979a060405180806020018281038252601a8152602001807f464154414c3a2070617920696e20746f6b656e206661696c656400000000000081525060200191505060405180910390a1600090505b92915050565b6131fc614915565b60156000836000191660001916815260200190815260200160002060e060405190810160405290816000820160009054906101000a900473ffffffffffffffffffffffffffffffffffffffff1673ffffffffffffffffffffffffffffffffffffffff1673ffffffffffffffffffffffffffffffffffffffff1681526020016001820154815260200160028201548152602001600382015481526020016004820154815260200160058201548152602001600682015481525050905060008160600151111561336b577f6e4a8547a0f2d6541a77a459eff545d4777c23401787089993b1780e7ab979a06040518080602001828103825260228152602001807f536964652062657420776f6e2120706179696e6720706c61796572203178204581526020017f544800000000000000000000000000000000000000000000000000000000000081525060400191505060405180910390a1613369816000015182606001518360200151612f07565b505b5050565b613377614915565b600060156000846000191660001916815260200190815260200160002060e060405190810160405290816000820160009054906101000a900473ffffffffffffffffffffffffffffffffffffffff1673ffffffffffffffffffffffffffffffffffffffff1673ffffffffffffffffffffffffffffffffffffffff168152602001600182015481526020016002820154815260200160038201548152602001600482015481526020016005820154815260200160068201548152505091506000826060015111156134f8577f6e4a8547a0f2d6541a77a459eff545d4777c23401787089993b1780e7ab979a06040518080602001828103825260258152602001807f536964652062657420776f6e2120706179696e6720706c61796572203130782081526020017f544f4b454e00000000000000000000000000000000000000000000000000000081525060400191505060405180910390a16134e66134df8360600151611efc565b600a61300e565b90506134f6826000015182613041565b505b505050565b60008060008311151561350c57fe5b828481151561351757fe5b049050828481151561352557fe5b06818402018414151561353457fe5b8091505092915050565b600080828401905083811015151561355257fe5b8091505092915050565b613564614969565b600060208301905060408051908101604052808451815260200182815250915050919050565b613592614969565b60008260000151846000015110156135ac5783915061360d565b60019050826020015184602001511415156135da578251602085015160208501518281208383201493505050505b801561360957826000015184600001818151039150818152505082600001518460200181815101915081815250505b8391505b5092915050565b61361c614969565b6000808360000151856000015110156136375784925061368d565b836000015185600001518660200151010391506001905083602001518214151561366e578351602085015181812082852014925050505b80156136895783600001518560000181815103915081815250505b8492505b505092915050565b61369d614969565b6136a883838361445c565b5092915050565b6136b76149a7565b6136bf6149a7565b600083600001516040518059106136d35750595b9080825280601f01601f1916602001820160405250915060208201905061370381856020015186600001516144fa565b8192505050919050565b600061371a826000614545565b9050919050565b600082821115151561372f57fe5b818303905092915050565b60008060008060009054906101000a900473ffffffffffffffffffffffffffffffffffffffff1673ffffffffffffffffffffffffffffffffffffffff1614806137ac575060006137aa6000809054906101000a900473ffffffffffffffffffffffffffffffffffffffff16613fc0565b145b156137bd576137bb6000613fcb565b505b6000809054906101000a900473ffffffffffffffffffffffffffffffffffffffff1673ffffffffffffffffffffffffffffffffffffffff166338cc48316040518163ffffffff167c0100000000000000000000000000000000000000000000000000000000028152600401602060405180830381600087803b151561384157600080fd5b5af1151561384e57600080fd5b5050506040518051905073ffffffffffffffffffffffffffffffffffffffff16600160009054906101000a900473ffffffffffffffffffffffffffffffffffffffff1673ffffffffffffffffffffffffffffffffffffffff1614151561398a576000809054906101000a900473ffffffffffffffffffffffffffffffffffffffff1673ffffffffffffffffffffffffffffffffffffffff166338cc48316040518163ffffffff167c0100000000000000000000000000000000000000000000000000000000028152600401602060405180830381600087803b151561393257600080fd5b5af1151561393f57600080fd5b50505060405180519050600160006101000a81548173ffffffffffffffffffffffffffffffffffffffff021916908373ffffffffffffffffffffffffffffffffffffffff1602179055505b600160009054906101000a900473ffffffffffffffffffffffffffffffffffffffff1673ffffffffffffffffffffffffffffffffffffffff16632ef3accc86856040518363ffffffff167c01000000000000000000000000000000000000000000000000000000000281526004018080602001838152602001828103825284818151815260200191508051906020019080838360005b83811015613a3b578082015181840152602081019050613a20565b50505050905090810190601f168015613a685780820380516001836020036101000a031916815260200191505b509350505050602060405180830381600087803b1515613a8757600080fd5b5af11515613a9457600080fd5b505050604051805190509050823a02670de0b6b3a764000001811115613ac05760006001029150613c4e565b600160009054906101000a900473ffffffffffffffffffffffffffffffffffffffff1673ffffffffffffffffffffffffffffffffffffffff1663c51be90f8260008888886040518663ffffffff167c0100000000000000000000000000000000000000000000000000000000028152600401808581526020018060200180602001848152602001838103835286818151815260200191508051906020019080838360005b83811015613b7f578082015181840152602081019050613b64565b50505050905090810190601f168015613bac5780820380516001836020036101000a031916815260200191505b50838103825285818151815260200191508051906020019080838360005b83811015613be5578082015181840152602081019050613bca565b50505050905090810190601f168015613c125780820380516001836020036101000a031916815260200191505b5096505050505050506020604051808303818588803b1515613c3357600080fd5b5af11515613c4057600080fd5b505050506040518051905091505b509392505050565b6000806000809054906101000a900473ffffffffffffffffffffffffffffffffffffffff1673ffffffffffffffffffffffffffffffffffffffff161480613cc657506000613cc46000809054906101000a900473ffffffffffffffffffffffffffffffffffffffff16613fc0565b145b15613cd757613cd56000613fcb565b505b6000809054906101000a900473ffffffffffffffffffffffffffffffffffffffff1673ffffffffffffffffffffffffffffffffffffffff166338cc48316040518163ffffffff167c0100000000000000000000000000000000000000000000000000000000028152600401602060405180830381600087803b1515613d5b57600080fd5b5af11515613d6857600080fd5b5050506040518051905073ffffffffffffffffffffffffffffffffffffffff16600160009054906101000a900473ffffffffffffffffffffffffffffffffffffffff1673ffffffffffffffffffffffffffffffffffffffff16141515613ea4576000809054906101000a900473ffffffffffffffffffffffffffffffffffffffff1673ffffffffffffffffffffffffffffffffffffffff166338cc48316040518163ffffffff167c0100000000000000000000000000000000000000000000000000000000028152600401602060405180830381600087803b1515613e4c57600080fd5b5af11515613e5957600080fd5b50505060405180519050600160006101000a81548173ffffffffffffffffffffffffffffffffffffffff021916908373ffffffffffffffffffffffffffffffffffffffff1602179055505b600160009054906101000a900473ffffffffffffffffffffffffffffffffffffffff1673ffffffffffffffffffffffffffffffffffffffff16632ef3accc84846040518363ffffffff167c01000000000000000000000000000000000000000000000000000000000281526004018080602001838152602001828103825284818151815260200191508051906020019080838360005b83811015613f55578082015181840152602081019050613f3a565b50505050905090810190601f168015613f825780820380516001836020036101000a031916815260200191505b509350505050602060405180830381600087803b1515613fa157600080fd5b5af11515613fae57600080fd5b50505060405180519050905092915050565b6000813b9050919050565b600080613feb731d3b2638a7cc9f2cb3d298a3da7a90b67e5506ed613fc0565b111561408c57731d3b2638a7cc9f2cb3d298a3da7a90b67e5506ed6000806101000a81548173ffffffffffffffffffffffffffffffffffffffff021916908373ffffffffffffffffffffffffffffffffffffffff1602179055506140836040805190810160405280600b81526020017f6574685f6d61696e6e657400000000000000000000000000000000000000000081525061483f565b60019050614457565b60006140ab73c03a2615d5efaf5f49f60b7bb6583eaec212fdf1613fc0565b111561414c5773c03a2615d5efaf5f49f60b7bb6583eaec212fdf16000806101000a81548173ffffffffffffffffffffffffffffffffffffffff021916908373ffffffffffffffffffffffffffffffffffffffff1602179055506141436040805190810160405280600c81526020017f6574685f726f707374656e33000000000000000000000000000000000000000081525061483f565b60019050614457565b600061416b73b7a07bcf2ba2f2703b24c0691b5278999c59ac7e613fc0565b111561420c5773b7a07bcf2ba2f2703b24c0691b5278999c59ac7e6000806101000a81548173ffffffffffffffffffffffffffffffffffffffff021916908373ffffffffffffffffffffffffffffffffffffffff1602179055506142036040805190810160405280600981526020017f6574685f6b6f76616e000000000000000000000000000000000000000000000081525061483f565b60019050614457565b600061422b73146500cfd35b22e4a392fe0adc06de1a1368ed48613fc0565b11156142cc5773146500cfd35b22e4a392fe0adc06de1a1368ed486000806101000a81548173ffffffffffffffffffffffffffffffffffffffff021916908373ffffffffffffffffffffffffffffffffffffffff1602179055506142c36040805190810160405280600b81526020017f6574685f72696e6b65627900000000000000000000000000000000000000000081525061483f565b60019050614457565b60006142eb736f485c8bf6fc43ea212e93bbf8ce046c7f1cb475613fc0565b111561434e57736f485c8bf6fc43ea212e93bbf8ce046c7f1cb4756000806101000a81548173ffffffffffffffffffffffffffffffffffffffff021916908373ffffffffffffffffffffffffffffffffffffffff16021790555060019050614457565b600061436d7320e12a1f859b3feae5fb2a0a32c18f5a65555bbf613fc0565b11156143d0577320e12a1f859b3feae5fb2a0a32c18f5a65555bbf6000806101000a81548173ffffffffffffffffffffffffffffffffffffffff021916908373ffffffffffffffffffffffffffffffffffffffff16021790555060019050614457565b60006143ef7351efaf4c8b3c9afbd5ab9f4bbc82784ab6ef8faa613fc0565b1115614452577351efaf4c8b3c9afbd5ab9f4bbc82784ab6ef8faa6000806101000a81548173ffffffffffffffffffffffffffffffffffffffff021916908373ffffffffffffffffffffffffffffffffffffffff16021790555060019050614457565b600090505b919050565b614464614969565b60006144828560000151866020015186600001518760200151614859565b905084602001518360200181815250508460200151810383600001818152505084600001518560200151018114156144c45760008560000181815250506144ef565b8360000151836000015101856000018181510391508181525050836000015181018560200181815250505b829150509392505050565b60005b60208210151561452257825184526020840193506020830192506020820391506144fd565b6001826020036101000a0390508019835116818551168181178652505050505050565b600061454f6149bb565b60008060008693506000925060009150600090505b83518110156148205760307f010000000000000000000000000000000000000000000000000000000000000002848281518110151561459f57fe5b9060200101517f010000000000000000000000000000000000000000000000000000000000000090047f0100000000000000000000000000000000000000000000000000000000000000027effffffffffffffffffffffffffffffffffffffffffffffffffffffffffffff1916101580156146b7575060397f010000000000000000000000000000000000000000000000000000000000000002848281518110151561464757fe5b9060200101517f010000000000000000000000000000000000000000000000000000000000000090047f0100000000000000000000000000000000000000000000000000000000000000027effffffffffffffffffffffffffffffffffffffffffffffffffffffffffffff191611155b156147685781156146da5760008614156146d057614820565b8580600190039650505b600a83029250603084828151811015156146f057fe5b9060200101517f010000000000000000000000000000000000000000000000000000000000000090047f0100000000000000000000000000000000000000000000000000000000000000027f010000000000000000000000000000000000000000000000000000000000000090040383019250614813565b602e7f010000000000000000000000000000000000000000000000000000000000000002848281518110151561479a57fe5b9060200101517f010000000000000000000000000000000000000000000000000000000000000090047f0100000000000000000000000000000000000000000000000000000000000000027effffffffffffffffffffffffffffffffffffffffffffffffffffffffffffff1916141561481257600191505b5b8080600101915050614564565b60008611156148325785600a0a830292505b8294505050505092915050565b80600290805190602001906148559291906149cf565b5050565b60008060008060008887111515614903576020871115156148ba5760018760200360080260020a031980875116888b038a018a96505b8183885116146148af5760018701965080600188031061488f578b8b0196505b505050839450614909565b8686209150879350600092505b868903831115156149025786842090508060001916826000191614156148ef57839450614909565b60018401935082806001019350506148c7565b5b88880194505b50505050949350505050565b60e060405190810160405280600073ffffffffffffffffffffffffffffffffffffffff1681526020016000815260200160008152602001600081526020016000815260200160008152602001600081525090565b604080519081016040528060008152602001600081525090565b60606040519081016040528060001515815260200160008152602001600081525090565b602060405190810160405280600081525090565b602060405190810160405280600081525090565b828054600181600116156101000203166002900490600052602060002090601f016020900481019282601f10614a1057805160ff1916838001178555614a3e565b82800160010185558215614a3e579182015b82811115614a3d578251825591602001919060010190614a22565b5b509050614a4b9190614a4f565b5090565b614a7191905b80821115614a6d576000816000905550600101614a55565b5090565b905600a165627a7a72305820b85a62b0909bf2231f77693a8ad3dc0262bd760748a42ff5baa31e6e275194860029",
  "source": "pragma solidity ^0.4.19;\n\nimport \"../installed_contracts/oraclize/contracts/usingOraclize.sol\";\nimport \"../installed_contracts/stringutils/strings.sol\";\nimport \"../installed_contracts/zeppelin/contracts/lifecycle/Pausable.sol\";\n\ninterface ERC20Token {\n    function totalSupply() external view returns (uint);\n    function balanceOf(address who) external constant returns (uint256);\n    function transfer(address to, uint256 value) external returns (bool);\n}\n\ncontract War is usingOraclize, Pausable {\n    using strings for *;\n\n    address public owner;\n    address public manager;\n    ERC20Token Token;\n\n    //make these configurablef\n    uint public sideBetPercent_MAX = 80;\n    uint public bet_MAX = 10 ether;\n    uint public bet_MIN = 0.1 ether;\n    bool public registeredToken = false;\n    uint public tokenDecimalPlaces = 2;\n    uint public tokenWinRatio = 555555555555555 wei; //1800\n    uint public tokenLossRatio = 5000000000000000 wei; //200\n\n    uint32 public gasForShuffle; //caculateable?\n    uint public serviceFee;\n\n    bool public TEST_MODE = false;\n    uint public TEST_HOUSE = 111;\n    uint public TEST_PLAYER = 111;\n\n    struct Info{\n        address playerAddress;\n        uint fees;\n        uint mainBetAmount;\n        uint sideBetAmount;\n        uint sideBetPercentage;\n        uint playerHand;\n        uint houseHand;\n    }\n\n    mapping (bytes32 => Info) public hand_info;\n\n    mapping (address => bool) public hasHandInProgress;\n\n    struct FirstHand{ //UPDATE FRONT END IF CHANGED, ONLY APPEND AT END\n        bool isTied;\n        uint fees;\n        uint mainBetAmount;\n    }\n\n    mapping (address => FirstHand) public firstHandInfo;\n\n    mapping (address => uint) public refundPool;\n\n    // mapping (string => uint) cards;\n\n    //EVENTS\n\n    event betPayout(address indexed playerAddr, uint amount);\n    event betPayoutToken(address indexed playerAddr, uint amount);\n    event dealtCards(address indexed player, bytes32 orcID, uint dealerHand, uint playerHand, uint dealerSuit, uint playerSuit);\n    event currentOrcID(bytes32 orcID);\n\n    event DEBUG_betSplit(uint mainBet, uint sideBet, uint percent);\n    event DEBUG_str(string msg);\n    event DEBUG_invalidOp(string error);\n    event DEBUG_addr(address addr);\n    event DEBUG_byte(bytes32 thing);\n    event DEBUG_uint(uint thing);\n\n    modifier TokenCheck() {\n       if (registeredToken != true) { //check balance\n            revert();\n        }\n        _;\n    }\n\n    function War() public payable{\n        //Remove before flight\n        /* OAR = OraclizeAddrResolverI(0x6f485C8BF6fc43eA212E93BBF8ce046C7f1cb475); */\n\n        owner = msg.sender;\n        manager = msg.sender;\n\n        /* oraclize_setCustomGasPrice(1000000000 wei); //1 GWei */\n        gasForShuffle = 185000;\n    }\n\n    function ToggleTestMode(bool state) onlyOwner{\n      TEST_MODE = state;\n    }\n\n    function SetTestModeHands(uint house, uint player) onlyOwner{\n      require(house <= 416 && house >= 1);\n      require(player <= 416 && player >= 1);\n\n      TEST_HOUSE = house;\n      TEST_PLAYER = player;\n    }\n\n    function setOraclizeGas(uint32 gasAmount) onlyOwner{\n      gasForShuffle = gasAmount;\n    }\n\n    function RegisterToken(address _tokenAddress, uint decimalPlaces) public onlyOwner{\n        Token = ERC20Token(_tokenAddress);\n        DEBUG_str(\"TOKEN REGISTERED\");\n        registeredToken = true;\n        tokenDecimalPlaces = decimalPlaces;\n    }\n\n    function RemainingTokens(address who) public constant returns (uint){\n        return Token.balanceOf(who)/(10 ** tokenDecimalPlaces);\n    }\n\n    function FundHouse() public payable {}\n\n    function WithdrawFunds() public onlyOwner{\n      msg.sender.send(address(this).balance);\n    }\n\n    /*function playWar(uint sideBetPercent, uint customDealerVal, uint customPlayerVal) public whenNotPaused payable {*/\n    function playWar(uint sideBetPercent) public whenNotPaused TokenCheck payable {\n\n      require(sideBetPercent >= 0 && sideBetPercent <= sideBetPercent_MAX);\n\n      require(hasHandInProgress[msg.sender]==false);\n\n      //ALPHA MAX bet\n      require(msg.value <= bet_MAX && msg.value >= bet_MIN);\n\n      uint betAmount = msg.value;\n\n      uint sideBetAmount = div(mul(betAmount,sideBetPercent),100);\n      uint mainBetAmount = sub(betAmount,sideBetAmount);\n\n      emit DEBUG_betSplit(mainBetAmount, sideBetAmount, sideBetPercent);\n      //section\n\n      //Initiate oraclize call\n      bytes32 orcID = oraclize_query(\"WolframAlpha\", \"RandomSample[Range[416],2]\",gasForShuffle);\n      currentOrcID(orcID);\n\n      uint orcFees = oraclize_getPrice(\"WolframAlpha\", gasForShuffle);\n      emit DEBUG_uint(orcFees);\n\n      //do logs + array store\n\n      //check if previous hand was a tie and player chose to go to WAR ***\n      if(firstHandInfo[msg.sender].isTied){\n        assert(msg.value == firstHandInfo[msg.sender].mainBetAmount);\n        assert(sideBetAmount == 0);\n      }\n      else{\n        FirstHand memory thisHand = FirstHand({\n          isTied : false,\n          fees: orcFees,\n          mainBetAmount : mainBetAmount\n        });\n\n        firstHandInfo[msg.sender] = thisHand;\n      }\n\n      Info memory info = Info({\n          playerAddress : msg.sender,\n          mainBetAmount : mainBetAmount,\n          sideBetAmount : sideBetAmount,\n          fees: orcFees,\n          sideBetPercentage : sideBetPercent,\n          playerHand : 0,\n          houseHand : 0\n      });\n\n      hand_info[orcID] = info;\n      refundPool[msg.sender] = msg.value;\n      hasHandInProgress[msg.sender] = true;\n    }\n\n    function getTokenWinValue(uint betInWei) public returns(uint){\n        return betInWei/tokenWinRatio;\n    }\n    function getTokenLossValue(uint betInWei) public returns(uint){\n        return betInWei/tokenLossRatio;\n    }\n    function setWinLossAmount(uint winAmount, uint lossAmount)public onlyOwner{\n        tokenWinRatio = 1 ether/winAmount;\n        tokenLossRatio = 1 ether/lossAmount;\n    }\n    function getWinTokenAmount()public constant returns(uint){\n        return 1 ether/tokenWinRatio;\n    }\n    function getLossTokenAmount()public constant returns(uint){\n        return 1 ether/tokenLossRatio;\n    }\n\n    function parseResult(bytes32 orcID, string result, address playerAddr) returns(uint, uint){\n        //parse wolfram shuffle\n        strings.slice memory partition = result.toSlice();\n        partition.beyond(\"{\".toSlice()).until(\"}\".toSlice());\n        strings.slice memory delim = \",\".toSlice();\n        // string[] memory parts = new string[](2);\n\n        uint houseRaw = parseInt(partition.split(delim).toString());\n        uint playerRaw = parseInt(partition.split(delim).toString());\n\n        if(TEST_MODE){\n          houseRaw = TEST_HOUSE;\n          playerRaw = TEST_PLAYER;\n        }\n\n        hand_info[orcID].houseHand = this.getCardValue(houseRaw);\n        hand_info[orcID].playerHand = this.getCardValue(playerRaw);\n\n        uint houseHand = hand_info[orcID].houseHand;\n        uint playerHand = hand_info[orcID].playerHand;\n\n        //Event for front-end to alert hand finished\n        dealtCards(playerAddr, orcID, houseHand, playerHand, houseRaw, playerRaw);\n\n        return(playerHand, houseHand);\n    }\n\n    function refund() returns(uint){\n      var _addr = msg.sender;\n      var amount = refundPool[_addr];\n      require(hasHandInProgress[_addr]==true);\n      require(amount>0);\n      require(amount<=bet_MAX); //what if total bet with winning amount TODO: create debt tracking dictionary\n\n      if(_addr.send(amount)){\n        betPayout(_addr, amount);\n        hasHandInProgress[_addr]=false; //**IMPORTANT CHECK THIS LOGIC**\n        delete refundPool[_addr];\n        return amount;\n      }\n      else{\n        DEBUG_str(\"FATAL: refund failed\"); //if pay failed on win?????????????????????????\n        return 0;\n      }\n    }\n\n    function __callback(bytes32 orcID, string result) {\n        //security checks\n        require(msg.sender == oraclize_cbAddress());\n        require(hand_info[orcID].playerAddress!=0x0);\n        //**NEED TO CHECK INPUT FORMAT FOR REFUND\n\n        address playerAddr = hand_info[orcID].playerAddress;\n        require(hasHandInProgress[playerAddr]==true);\n\n        hasHandInProgress[playerAddr] = false;\n        delete refundPool[playerAddr];\n\n        var (playerHand, houseHand) =  parseResult(orcID, result, playerAddr);\n\n        uint fees;\n\n        if(playerHand == houseHand){\n            DEBUG_str(\"Tied!\");\n\n            uint betAmount = firstHandInfo[playerAddr].mainBetAmount;\n            fees = firstHandInfo[playerAddr].fees;\n\n            if(firstHandInfo[playerAddr].isTied){\n                DEBUG_str(\"Second Tie - 3x payout!\");\n\n                if(pay(playerAddr, betAmount,fees) &&\n                payToken(playerAddr, mul(getTokenWinValue(betAmount),3))){\n                    delete firstHandInfo[playerAddr];\n                }\n            }\n            else{\n                DEBUG_str(\"First Tie - pending action\");\n                firstHandInfo[playerAddr].isTied = true;\n\n                Info memory hand = hand_info[orcID];\n\n                if(hand.sideBetAmount > 0){\n                    sideBetPay(orcID);\n                    sideBetPayToken(orcID);\n                }\n                else{\n                    payToken(playerAddr, getTokenLossValue(betAmount));\n                }\n            }\n            //\n        }\n\n\n        uint winAmount = hand_info[orcID].mainBetAmount;\n        fees = hand_info[orcID].fees;\n\n        //Pay winner\n        if(playerHand > houseHand){\n          uint winTokenAmount = getTokenWinValue(winAmount);\n\n          if(pay(playerAddr,winAmount,fees) && payToken(playerAddr,winTokenAmount)){\n              delete firstHandInfo[playerAddr];\n              delete hand_info[orcID];\n          }\n        }\n        else if(playerHand < houseHand){\n            uint lossTokenAmount = getTokenLossValue(winAmount);\n\n            if(payToken(playerAddr,lossTokenAmount)){\n                delete firstHandInfo[playerAddr];\n                delete hand_info[orcID];\n            }\n        }\n    }\n\n    function playerSurrender() public whenNotPaused payable {\n\n      if(firstHandInfo[msg.sender].isTied){\n          DEBUG_str(\"player surrendering\");\n\n          uint returnAmount = div(firstHandInfo[msg.sender].mainBetAmount,2);\n          uint fees = firstHandInfo[msg.sender].fees;\n\n          if(pay(msg.sender,returnAmount,fees)){\n            delete firstHandInfo[msg.sender];\n            // delete hand_info[orcID];\n          }\n      }\n      else{\n        DEBUG_str(\"nothing to surrender\"); //change this function to return false\n      }\n\n    }\n\n    function pay(address _addr, uint amount, uint fees) private returns(bool){\n        if(_addr.send(amount)){ //PAY IN ether\n          betPayout(_addr, amount);\n          return true;\n        }\n        else{\n          //Put in refund?\n          DEBUG_str(\"FATAL: pay failed\");\n          return false;\n        }\n    }\n\n    function payToken(address _addr, uint amount) private returns(bool){\n\n        if(Token.transfer(_addr,amount * 10 ** tokenDecimalPlaces)){ //PAY IN token\n          betPayoutToken(_addr, amount); //actuall number\n          return true;\n        }\n        else{\n          //Put in refund?\n          DEBUG_str(\"FATAL: pay in token failed\");\n          return false;\n        }\n    }\n\n    function sideBetPay(bytes32 orcID) private{\n\n        Info memory hand = hand_info[orcID];\n\n        if(hand.sideBetAmount > 0){\n          DEBUG_str(\"Side bet won! paying player 1x ETH\");\n          //pay side bet once and for all + remove sidebet history\n        //   uint sideBetWin = mul(hand.sideBetAmount,10);\n          pay(hand.playerAddress,hand.sideBetAmount,hand.fees);\n        }\n    }\n\n    function sideBetPayToken(bytes32 orcID) private{\n\n        Info memory hand = hand_info[orcID];\n\n        if(hand.sideBetAmount > 0){\n          DEBUG_str(\"Side bet won! paying player 10x TOKEN\");\n          //pay side bet once and for all + remove sidebet history\n          uint sideBetWin = mul(getTokenWinValue(hand.sideBetAmount),10);\n          payToken(hand.playerAddress,sideBetWin);\n        }\n    }\n\n    /*Special Sauce*/\n    function getCardValue(uint card) public returns(uint){\n      if(card > 416 || card < 1){\n        return 0;\n      }\n\n      if(card > 52){\n        card = card % 52;\n      }\n\n      if(card == 0){\n      \treturn 13;\n      }else if(card <= 4){\n        return 14;\n      }else if(card % 4 > 0){\n        card = add(div(card,4),1);\n      }else{\n        card = div(card,4);\n      }\n\n      if(card == 1){\n        return 14;\n      }\n      else{\n        return card;\n      }\n\n    }\n\n    function mul(uint a, uint b) internal returns (uint) {\n      uint c = a * b;\n      assert(a == 0 || c / a == b);\n      return c;\n    }\n\n    function div(uint a, uint b) internal returns (uint) {\n      assert(b > 0);\n      uint c = a / b;\n      assert(a == b * c + a % b);\n      return c;\n    }\n\n    function sub(uint a, uint b) internal returns (uint) {\n      assert(b <= a);\n      return a - b;\n    }\n\n    function add(uint a, uint b) internal returns (uint) {\n      uint c = a + b;\n      assert(c >= a);\n      return c;\n    }\n\n    function houseBankRoll() constant public returns(uint){\n        return address(this).balance;\n    }\n}\n",
  "sourcePath": "/Users/kuaiyu/Documents/Projects/Ethereum/temp/EthinoWar/contracts/War.sol",
  "compiler": {
    "name": "solc",
    "version": "0.4.21+commit.dfe3193c.Emscripten.clang"
  },
  "schemaVersion": "2.0.0",
  "updatedAt": "2018-05-15T21:02:35.913Z"
}