{
  "contractName": "War",
  "abi": [
    {
      "constant": true,
      "inputs": [
        {
          "name": "",
          "type": "address"
        }
      ],
      "name": "firstHandInfo",
      "outputs": [
        {
          "name": "isTied",
          "type": "bool"
        },
        {
          "name": "fees",
          "type": "uint256"
        },
        {
          "name": "mainBetAmount",
          "type": "uint256"
        }
      ],
      "payable": false,
      "stateMutability": "view",
      "type": "function"
    },
    {
      "constant": true,
      "inputs": [],
      "name": "tokenDecimalPlaces",
      "outputs": [
        {
          "name": "",
          "type": "uint256"
        }
      ],
      "payable": false,
      "stateMutability": "view",
      "type": "function"
    },
    {
      "constant": true,
      "inputs": [
        {
          "name": "",
          "type": "address"
        }
      ],
      "name": "hasGameInProgress",
      "outputs": [
        {
          "name": "",
          "type": "bool"
        }
      ],
      "payable": false,
      "stateMutability": "view",
      "type": "function"
    },
    {
      "constant": false,
      "inputs": [],
      "name": "unpause",
      "outputs": [
        {
          "name": "",
          "type": "bool"
        }
      ],
      "payable": false,
      "stateMutability": "nonpayable",
      "type": "function"
    },
    {
      "constant": true,
      "inputs": [],
      "name": "manager",
      "outputs": [
        {
          "name": "",
          "type": "address"
        }
      ],
      "payable": false,
      "stateMutability": "view",
      "type": "function"
    },
    {
      "constant": true,
      "inputs": [],
      "name": "gasForShuffle",
      "outputs": [
        {
          "name": "",
          "type": "uint32"
        }
      ],
      "payable": false,
      "stateMutability": "view",
      "type": "function"
    },
    {
      "constant": true,
      "inputs": [],
      "name": "paused",
      "outputs": [
        {
          "name": "",
          "type": "bool"
        }
      ],
      "payable": false,
      "stateMutability": "view",
      "type": "function"
    },
    {
      "constant": true,
      "inputs": [],
      "name": "registeredToken",
      "outputs": [
        {
          "name": "",
          "type": "bool"
        }
      ],
      "payable": false,
      "stateMutability": "view",
      "type": "function"
    },
    {
      "constant": true,
      "inputs": [],
      "name": "tokenWinRatio",
      "outputs": [
        {
          "name": "",
          "type": "uint256"
        }
      ],
      "payable": false,
      "stateMutability": "view",
      "type": "function"
    },
    {
      "constant": false,
      "inputs": [],
      "name": "pause",
      "outputs": [
        {
          "name": "",
          "type": "bool"
        }
      ],
      "payable": false,
      "stateMutability": "nonpayable",
      "type": "function"
    },
    {
      "constant": true,
      "inputs": [],
      "name": "TEST_HOUSE",
      "outputs": [
        {
          "name": "",
          "type": "uint256"
        }
      ],
      "payable": false,
      "stateMutability": "view",
      "type": "function"
    },
    {
      "constant": true,
      "inputs": [],
      "name": "serviceFee",
      "outputs": [
        {
          "name": "",
          "type": "uint256"
        }
      ],
      "payable": false,
      "stateMutability": "view",
      "type": "function"
    },
    {
      "constant": true,
      "inputs": [],
      "name": "owner",
      "outputs": [
        {
          "name": "",
          "type": "address"
        }
      ],
      "payable": false,
      "stateMutability": "view",
      "type": "function"
    },
    {
      "constant": true,
      "inputs": [],
      "name": "tokenLossRatio",
      "outputs": [
        {
          "name": "",
          "type": "uint256"
        }
      ],
      "payable": false,
      "stateMutability": "view",
      "type": "function"
    },
    {
      "constant": true,
      "inputs": [],
      "name": "TEST_MODE",
      "outputs": [
        {
          "name": "",
          "type": "bool"
        }
      ],
      "payable": false,
      "stateMutability": "view",
      "type": "function"
    },
    {
      "constant": true,
      "inputs": [],
      "name": "sideBetPercent_MAX",
      "outputs": [
        {
          "name": "",
          "type": "uint256"
        }
      ],
      "payable": false,
      "stateMutability": "view",
      "type": "function"
    },
    {
      "constant": true,
      "inputs": [
        {
          "name": "",
          "type": "bytes32"
        }
      ],
      "name": "hand_info",
      "outputs": [
        {
          "name": "playerAddress",
          "type": "address"
        },
        {
          "name": "fees",
          "type": "uint256"
        },
        {
          "name": "mainBetAmount",
          "type": "uint256"
        },
        {
          "name": "sideBetAmount",
          "type": "uint256"
        },
        {
          "name": "sideBetPercentage",
          "type": "uint256"
        },
        {
          "name": "isNewGame",
          "type": "bool"
        },
        {
          "name": "playerHand",
          "type": "uint256"
        },
        {
          "name": "houseHand",
          "type": "uint256"
        }
      ],
      "payable": false,
      "stateMutability": "view",
      "type": "function"
    },
    {
      "constant": true,
      "inputs": [],
      "name": "TEST_PLAYER",
      "outputs": [
        {
          "name": "",
          "type": "uint256"
        }
      ],
      "payable": false,
      "stateMutability": "view",
      "type": "function"
    },
    {
      "constant": true,
      "inputs": [],
      "name": "bet_MAX",
      "outputs": [
        {
          "name": "",
          "type": "uint256"
        }
      ],
      "payable": false,
      "stateMutability": "view",
      "type": "function"
    },
    {
      "constant": false,
      "inputs": [
        {
          "name": "newOwner",
          "type": "address"
        }
      ],
      "name": "transferOwnership",
      "outputs": [],
      "payable": false,
      "stateMutability": "nonpayable",
      "type": "function"
    },
    {
      "inputs": [],
      "payable": true,
      "stateMutability": "payable",
      "type": "constructor"
    },
    {
      "anonymous": false,
      "inputs": [
        {
          "indexed": true,
          "name": "playerAddr",
          "type": "address"
        },
        {
          "indexed": false,
          "name": "amount",
          "type": "uint256"
        }
      ],
      "name": "betPayout",
      "type": "event"
    },
    {
      "anonymous": false,
      "inputs": [
        {
          "indexed": true,
          "name": "playerAddr",
          "type": "address"
        },
        {
          "indexed": false,
          "name": "amount",
          "type": "uint256"
        }
      ],
      "name": "betPayoutToken",
      "type": "event"
    },
    {
      "anonymous": false,
      "inputs": [
        {
          "indexed": true,
          "name": "player",
          "type": "address"
        },
        {
          "indexed": false,
          "name": "orcID",
          "type": "bytes32"
        },
        {
          "indexed": false,
          "name": "dealerHand",
          "type": "uint256"
        },
        {
          "indexed": false,
          "name": "playerHand",
          "type": "uint256"
        },
        {
          "indexed": false,
          "name": "dealerSuit",
          "type": "uint256"
        },
        {
          "indexed": false,
          "name": "playerSuit",
          "type": "uint256"
        }
      ],
      "name": "dealtCards",
      "type": "event"
    },
    {
      "anonymous": false,
      "inputs": [
        {
          "indexed": false,
          "name": "orcID",
          "type": "bytes32"
        }
      ],
      "name": "currentOrcID",
      "type": "event"
    },
    {
      "anonymous": false,
      "inputs": [
        {
          "indexed": false,
          "name": "mainBet",
          "type": "uint256"
        },
        {
          "indexed": false,
          "name": "sideBet",
          "type": "uint256"
        },
        {
          "indexed": false,
          "name": "percent",
          "type": "uint256"
        }
      ],
      "name": "DEBUG_betSplit",
      "type": "event"
    },
    {
      "anonymous": false,
      "inputs": [
        {
          "indexed": false,
          "name": "msg",
          "type": "string"
        }
      ],
      "name": "DEBUG_str",
      "type": "event"
    },
    {
      "anonymous": false,
      "inputs": [
        {
          "indexed": false,
          "name": "addr",
          "type": "address"
        }
      ],
      "name": "DEBUG_addr",
      "type": "event"
    },
    {
      "anonymous": false,
      "inputs": [
        {
          "indexed": false,
          "name": "thing",
          "type": "bytes32"
        }
      ],
      "name": "DEBUG_byte",
      "type": "event"
    },
    {
      "anonymous": false,
      "inputs": [
        {
          "indexed": false,
          "name": "thing",
          "type": "uint256"
        }
      ],
      "name": "DEBUG_uint",
      "type": "event"
    },
    {
      "anonymous": false,
      "inputs": [],
      "name": "Pause",
      "type": "event"
    },
    {
      "anonymous": false,
      "inputs": [],
      "name": "Unpause",
      "type": "event"
    },
    {
      "constant": false,
      "inputs": [
        {
          "name": "state",
          "type": "bool"
        }
      ],
      "name": "ToggleTestMode",
      "outputs": [],
      "payable": false,
      "stateMutability": "nonpayable",
      "type": "function"
    },
    {
      "constant": false,
      "inputs": [
        {
          "name": "house",
          "type": "uint256"
        },
        {
          "name": "player",
          "type": "uint256"
        }
      ],
      "name": "SetTestModeHands",
      "outputs": [],
      "payable": false,
      "stateMutability": "nonpayable",
      "type": "function"
    },
    {
      "constant": false,
      "inputs": [
        {
          "name": "gasAmount",
          "type": "uint32"
        }
      ],
      "name": "setOraclizeGas",
      "outputs": [],
      "payable": false,
      "stateMutability": "nonpayable",
      "type": "function"
    },
    {
      "constant": false,
      "inputs": [
        {
          "name": "_tokenAddress",
          "type": "address"
        },
        {
          "name": "decimalPlaces",
          "type": "uint256"
        }
      ],
      "name": "RegisterToken",
      "outputs": [],
      "payable": false,
      "stateMutability": "nonpayable",
      "type": "function"
    },
    {
      "constant": true,
      "inputs": [
        {
          "name": "who",
          "type": "address"
        }
      ],
      "name": "RemainingTokens",
      "outputs": [
        {
          "name": "",
          "type": "uint256"
        }
      ],
      "payable": false,
      "stateMutability": "view",
      "type": "function"
    },
    {
      "constant": false,
      "inputs": [],
      "name": "FundHouse",
      "outputs": [],
      "payable": true,
      "stateMutability": "payable",
      "type": "function"
    },
    {
      "constant": false,
      "inputs": [],
      "name": "WithdrawFunds",
      "outputs": [],
      "payable": false,
      "stateMutability": "nonpayable",
      "type": "function"
    },
    {
      "constant": false,
      "inputs": [
        {
          "name": "sideBetPercent",
          "type": "uint256"
        }
      ],
      "name": "playWar",
      "outputs": [],
      "payable": true,
      "stateMutability": "payable",
      "type": "function"
    },
    {
      "constant": false,
      "inputs": [
        {
          "name": "betInWei",
          "type": "uint256"
        }
      ],
      "name": "getTokenWinValue",
      "outputs": [
        {
          "name": "",
          "type": "uint256"
        }
      ],
      "payable": false,
      "stateMutability": "nonpayable",
      "type": "function"
    },
    {
      "constant": false,
      "inputs": [
        {
          "name": "betInWei",
          "type": "uint256"
        }
      ],
      "name": "getTokenLossValue",
      "outputs": [
        {
          "name": "",
          "type": "uint256"
        }
      ],
      "payable": false,
      "stateMutability": "nonpayable",
      "type": "function"
    },
    {
      "constant": false,
      "inputs": [
        {
          "name": "winAmount",
          "type": "uint256"
        },
        {
          "name": "lossAmount",
          "type": "uint256"
        }
      ],
      "name": "setWinLossAmount",
      "outputs": [],
      "payable": false,
      "stateMutability": "nonpayable",
      "type": "function"
    },
    {
      "constant": true,
      "inputs": [],
      "name": "getWinTokenAmount",
      "outputs": [
        {
          "name": "",
          "type": "uint256"
        }
      ],
      "payable": false,
      "stateMutability": "view",
      "type": "function"
    },
    {
      "constant": true,
      "inputs": [],
      "name": "getLossTokenAmount",
      "outputs": [
        {
          "name": "",
          "type": "uint256"
        }
      ],
      "payable": false,
      "stateMutability": "view",
      "type": "function"
    },
    {
      "constant": false,
      "inputs": [
        {
          "name": "orcID",
          "type": "bytes32"
        },
        {
          "name": "result",
          "type": "string"
        },
        {
          "name": "playerAddr",
          "type": "address"
        }
      ],
      "name": "parseResult",
      "outputs": [
        {
          "name": "",
          "type": "uint256"
        },
        {
          "name": "",
          "type": "uint256"
        }
      ],
      "payable": false,
      "stateMutability": "nonpayable",
      "type": "function"
    },
    {
      "constant": false,
      "inputs": [
        {
          "name": "myid",
          "type": "bytes32"
        },
        {
          "name": "result",
          "type": "string"
        },
        {
          "name": "proof",
          "type": "bytes"
        }
      ],
      "name": "__callback",
      "outputs": [],
      "payable": false,
      "stateMutability": "nonpayable",
      "type": "function"
    },
    {
      "constant": false,
      "inputs": [
        {
          "name": "orcID",
          "type": "bytes32"
        },
        {
          "name": "result",
          "type": "string"
        }
      ],
      "name": "__callback",
      "outputs": [],
      "payable": false,
      "stateMutability": "nonpayable",
      "type": "function"
    },
    {
      "constant": false,
      "inputs": [],
      "name": "playerSurrender",
      "outputs": [],
      "payable": true,
      "stateMutability": "payable",
      "type": "function"
    },
    {
      "constant": false,
      "inputs": [
        {
          "name": "card",
          "type": "uint256"
        }
      ],
      "name": "getCardValue",
      "outputs": [
        {
          "name": "",
          "type": "uint256"
        }
      ],
      "payable": false,
      "stateMutability": "nonpayable",
      "type": "function"
    },
    {
      "constant": true,
      "inputs": [],
      "name": "houseBankRoll",
      "outputs": [
        {
          "name": "",
          "type": "uint256"
        }
      ],
      "payable": false,
      "stateMutability": "view",
      "type": "function"
    }
  ],
  "bytecode": "0x60606040526000600560146101000a81548160ff0219169083151502179055506050600955670de0b6b3a7640000600a556000600b60006101000a81548160ff0219169083151502179055506002600c556601f9465b8ab8e3600d556611c37937e08000600e556000601160006101000a81548160ff021916908315150217905550606f601255606f60135533600560006101000a81548173ffffffffffffffffffffffffffffffffffffffff021916908373ffffffffffffffffffffffffffffffffffffffff16021790555033600660006101000a81548173ffffffffffffffffffffffffffffffffffffffff021916908373ffffffffffffffffffffffffffffffffffffffff16021790555033600760006101000a81548173ffffffffffffffffffffffffffffffffffffffff021916908373ffffffffffffffffffffffffffffffffffffffff1602179055506202bf20600f60006101000a81548163ffffffff021916908363ffffffff160217905550614692806101816000396000f3006060604052600436106101e2576000357c0100000000000000000000000000000000000000000000000000000000900463ffffffff168062ecd311146101e75780631792cc61146102465780631d59c6bb1461026f57806327dc297e146102c0578063282651fe1461032a5780632e78f9a714610353578063339ac1741461038a57806338bbfa50146103945780633f4ba83a14610441578063468a04131461046e578063481c6a75146105125780634c0aac9a1461056757806358aaf48a1461057c5780635b5e760c146105b15780635c975abb146105e857806362eb6da11461061557806365e807ab14610642578063778317c4146106795780637ea5d50e146106a55780638456cb59146106ce57806389ed0b30146106fb5780638a25aefa146107245780638abdf5aa1461074d5780638da5cb5b14610776578063963d62fb146107cb578063a4009e23146107f4578063aa3dacac14610821578063b2f3319e1461084a578063b45cff5f1461086f578063b46631cd14610898578063bb42e8e5146108c4578063c6e2a07114610906578063d02cc69f146109a2578063df065d78146109ba578063e3206975146109e3578063e5c1d3ce14610a0c578063f2fde38b14610a16578063f69a65b314610a4f578063f91a545b14610a9c575b600080fd5b34156101f257600080fd5b61021e600480803573ffffffffffffffffffffffffffffffffffffffff16906020019091905050610ac5565b6040518084151515158152602001838152602001828152602001935050505060405180910390f35b341561025157600080fd5b610259610afc565b6040518082815260200191505060405180910390f35b341561027a57600080fd5b6102a6600480803573ffffffffffffffffffffffffffffffffffffffff16906020019091905050610b02565b604051808215151515815260200191505060405180910390f35b34156102cb57600080fd5b61032860048080356000191690602001909190803590602001908201803590602001908080601f01602080910402602001604051908101604052809392919081815260200183838082843782019150505050505091905050610b22565b005b341561033557600080fd5b61033d6112e2565b6040518082815260200191505060405180910390f35b341561035e57600080fd5b61037460048080359060200190919050506112ff565b6040518082815260200191505060405180910390f35b6103926113b7565b005b341561039f57600080fd5b61043f60048080356000191690602001909190803590602001908201803590602001908080601f0160208091040260200160405190810160405280939291908181526020018383808284378201915050505050509190803590602001908201803590602001908080601f0160208091040260200160405190810160405280939291908181526020018383808284378201915050505050509190505061160e565b005b341561044c57600080fd5b610454611613565b604051808215151515815260200191505060405180910390f35b341561047957600080fd5b6104f560048080356000191690602001909190803590602001908201803590602001908080601f0160208091040260200160405190810160405280939291908181526020018383808284378201915050505050509190803573ffffffffffffffffffffffffffffffffffffffff169060200190919050506116da565b604051808381526020018281526020019250505060405180910390f35b341561051d57600080fd5b610525611a62565b604051808273ffffffffffffffffffffffffffffffffffffffff1673ffffffffffffffffffffffffffffffffffffffff16815260200191505060405180910390f35b341561057257600080fd5b61057a611a88565b005b341561058757600080fd5b61058f611b33565b604051808263ffffffff1663ffffffff16815260200191505060405180910390f35b34156105bc57600080fd5b6105d26004808035906020019091905050611b49565b6040518082815260200191505060405180910390f35b34156105f357600080fd5b6105fb611b60565b604051808215151515815260200191505060405180910390f35b341561062057600080fd5b610628611b73565b604051808215151515815260200191505060405180910390f35b341561064d57600080fd5b6106636004808035906020019091905050611b86565b6040518082815260200191505060405180910390f35b341561068457600080fd5b6106a36004808035906020019091908035906020019091905050611b9d565b005b34156106b057600080fd5b6106b8611c31565b6040518082815260200191505060405180910390f35b34156106d957600080fd5b6106e1611c37565b604051808215151515815260200191505060405180910390f35b341561070657600080fd5b610722600480803563ffffffff16906020019091905050611cfd565b005b341561072f57600080fd5b610737611d7d565b6040518082815260200191505060405180910390f35b341561075857600080fd5b610760611d83565b6040518082815260200191505060405180910390f35b341561078157600080fd5b610789611d89565b604051808273ffffffffffffffffffffffffffffffffffffffff1673ffffffffffffffffffffffffffffffffffffffff16815260200191505060405180910390f35b34156107d657600080fd5b6107de611daf565b6040518082815260200191505060405180910390f35b34156107ff57600080fd5b610807611db5565b604051808215151515815260200191505060405180910390f35b341561082c57600080fd5b610834611dc8565b6040518082815260200191505060405180910390f35b341561085557600080fd5b61086d60048080351515906020019091905050611dce565b005b341561087a57600080fd5b610882611e47565b6040518082815260200191505060405180910390f35b34156108a357600080fd5b6108c26004808035906020019091908035906020019091905050611e66565b005b34156108cf57600080fd5b610904600480803573ffffffffffffffffffffffffffffffffffffffff16906020019091908035906020019091905050611f10565b005b341561091157600080fd5b61092b60048080356000191690602001909190505061203b565b604051808973ffffffffffffffffffffffffffffffffffffffff1673ffffffffffffffffffffffffffffffffffffffff168152602001888152602001878152602001868152602001858152602001841515151581526020018381526020018281526020019850505050505050505060405180910390f35b6109b860048080359060200190919050506120b0565b005b34156109c557600080fd5b6109cd6125da565b6040518082815260200191505060405180910390f35b34156109ee57600080fd5b6109f66125e0565b6040518082815260200191505060405180910390f35b610a146125e6565b005b3415610a2157600080fd5b610a4d600480803573ffffffffffffffffffffffffffffffffffffffff169060200190919050506125e8565b005b3415610a5a57600080fd5b610a86600480803573ffffffffffffffffffffffffffffffffffffffff169060200190919050506126bf565b6040518082815260200191505060405180910390f35b3415610aa757600080fd5b610aaf6127ab565b6040518082815260200191505060405180910390f35b60166020528060005260406000206000915090508060000160009054906101000a900460ff16908060010154908060020154905083565b600c5481565b60156020528060005260406000206000915054906101000a900460ff1681565b6000806000806000610b326144fd565b6000806000610b3f6127c8565b73ffffffffffffffffffffffffffffffffffffffff163373ffffffffffffffffffffffffffffffffffffffff16141515610b7857600080fd5b6000601460008d6000191660001916815260200190815260200160002060000160009054906101000a900473ffffffffffffffffffffffffffffffffffffffff1673ffffffffffffffffffffffffffffffffffffffff161415610bda57600080fd5b601460008c6000191660001916815260200190815260200160002060000160009054906101000a900473ffffffffffffffffffffffffffffffffffffffff169850610c268b8b8b6116da565b9750975086881415611055577f6e4a8547a0f2d6541a77a459eff545d4777c23401787089993b1780e7ab979a06040518080602001828103825260058152602001807f546965642100000000000000000000000000000000000000000000000000000081525060200191505060405180910390a1601660008a73ffffffffffffffffffffffffffffffffffffffff1673ffffffffffffffffffffffffffffffffffffffff168152602001908152602001600020600201549450601660008a73ffffffffffffffffffffffffffffffffffffffff1673ffffffffffffffffffffffffffffffffffffffff168152602001908152602001600020600101549550601660008a73ffffffffffffffffffffffffffffffffffffffff1673ffffffffffffffffffffffffffffffffffffffff16815260200190815260200160002060000160009054906101000a900460ff1615610e81577f6e4a8547a0f2d6541a77a459eff545d4777c23401787089993b1780e7ab979a06040518080602001828103825260178152602001807f5365636f6e6420546965202d203378207061796f75742100000000000000000081525060200191505060405180910390a1610dec898688612ab7565b8015610e105750610e0f89610e0a610e0388611b49565b6003612bbe565b612bf1565b5b15610e7c57601660008a73ffffffffffffffffffffffffffffffffffffffff1673ffffffffffffffffffffffffffffffffffffffff168152602001908152602001600020600080820160006101000a81549060ff02191690556001820160009055600282016000905550505b611054565b7f6e4a8547a0f2d6541a77a459eff545d4777c23401787089993b1780e7ab979a060405180806020018281038252601a8152602001807f466972737420546965202d2070656e64696e6720616374696f6e00000000000081525060200191505060405180910390a16001601660008b73ffffffffffffffffffffffffffffffffffffffff1673ffffffffffffffffffffffffffffffffffffffff16815260200190815260200160002060000160006101000a81548160ff021916908315150217905550601460008c6000191660001916815260200190815260200160002061010060405190810160405290816000820160009054906101000a900473ffffffffffffffffffffffffffffffffffffffff1673ffffffffffffffffffffffffffffffffffffffff1673ffffffffffffffffffffffffffffffffffffffff168152602001600182015481526020016002820154815260200160038201548152602001600482015481526020016005820160009054906101000a900460ff1615151515815260200160068201548152602001600782015481525050935060008460600151111561103f576110318b612da4565b61103a8b612f3b565b611053565b6110518961104c87611b86565b612bf1565b505b5b5b601460008c60001916600019168152602001908152602001600020600201549250601460008c60001916600019168152602001908152602001600020600101549550868811156111c1576110a883611b49565b91506110b5898488612ab7565b80156110c757506110c68983612bf1565b5b156111bc57601660008a73ffffffffffffffffffffffffffffffffffffffff1673ffffffffffffffffffffffffffffffffffffffff168152602001908152602001600020600080820160006101000a81549060ff0219169055600182016000905560028201600090555050601460008c60001916600019168152602001908152602001600020600080820160006101000a81549073ffffffffffffffffffffffffffffffffffffffff021916905560018201600090556002820160009055600382016000905560048201600090556005820160006101000a81549060ff02191690556006820160009055600782016000905550505b6112d5565b868810156112d4576111d283611b86565b90506111de8982612bf1565b156112d357601660008a73ffffffffffffffffffffffffffffffffffffffff1673ffffffffffffffffffffffffffffffffffffffff168152602001908152602001600020600080820160006101000a81549060ff0219169055600182016000905560028201600090555050601460008c60001916600019168152602001908152602001600020600080820160006101000a81549073ffffffffffffffffffffffffffffffffffffffff021916905560018201600090556002820160009055600382016000905560048201600090556005820160006101000a81549060ff02191690556006820160009055600782016000905550505b5b5b5050505050505050505050565b6000600d54670de0b6b3a76400008115156112f957fe5b04905090565b60006101a08211806113115750600182105b1561131f57600090506113b2565b60348211156113385760348281151561133457fe5b0691505b600082141561134a57600d90506113b2565b60048211151561135d57600e90506113b2565b600060048381151561136b57fe5b06111561138e576113876113808360046130e5565b6001613126565b915061139c565b6113998260046130e5565b91505b60018214156113ae57600e90506113b2565b8190505b919050565b600080600560149054906101000a900460ff16156113d457600080fd5b601660003373ffffffffffffffffffffffffffffffffffffffff1673ffffffffffffffffffffffffffffffffffffffff16815260200190815260200160002060000160009054906101000a900460ff16156115a1577f6e4a8547a0f2d6541a77a459eff545d4777c23401787089993b1780e7ab979a06040518080602001828103825260138152602001807f706c617965722073757272656e646572696e670000000000000000000000000081525060200191505060405180910390a16114de601660003373ffffffffffffffffffffffffffffffffffffffff1673ffffffffffffffffffffffffffffffffffffffff1681526020019081526020016000206002015460026130e5565b9150601660003373ffffffffffffffffffffffffffffffffffffffff1673ffffffffffffffffffffffffffffffffffffffff168152602001908152602001600020600101549050611530338383612ab7565b1561159c57601660003373ffffffffffffffffffffffffffffffffffffffff1673ffffffffffffffffffffffffffffffffffffffff168152602001908152602001600020600080820160006101000a81549060ff02191690556001820160009055600282016000905550505b61160a565b7f6e4a8547a0f2d6541a77a459eff545d4777c23401787089993b1780e7ab979a06040518080602001828103825260148152602001807f6e6f7468696e6720746f2073757272656e64657200000000000000000000000081525060200191505060405180910390a15b5050565b505050565b6000600560009054906101000a900473ffffffffffffffffffffffffffffffffffffffff1673ffffffffffffffffffffffffffffffffffffffff163373ffffffffffffffffffffffffffffffffffffffff1614151561167157600080fd5b600560149054906101000a900460ff16151561168c57600080fd5b6000600560146101000a81548160ff0219169083151502179055507f7805862f689e2f13df9f062ff482ad3ad112aca9e0847911ed832e158c525b3360405160405180910390a16001905090565b6000806116e561455b565b6116ed61455b565b6000806000806116fc8a613144565b955061179d61173f6040805190810160405280600181526020017f7d00000000000000000000000000000000000000000000000000000000000000815250613144565b61178f6117806040805190810160405280600181526020017f7b00000000000000000000000000000000000000000000000000000000000000815250613144565b8961317290919063ffffffff16565b6131fc90919063ffffffff16565b506117dc6040805190810160405280600181526020017f2c00000000000000000000000000000000000000000000000000000000000000815250613144565b94506118016117fc6117f7878961327d90919063ffffffff16565b613297565b6132f5565b935061182661182161181c878961327d90919063ffffffff16565b613297565b6132f5565b9250601160009054906101000a900460ff161561184857601254935060135492505b3073ffffffffffffffffffffffffffffffffffffffff16632e78f9a7856040518263ffffffff167c010000000000000000000000000000000000000000000000000000000002815260040180828152602001915050602060405180830381600087803b15156118b657600080fd5b5af115156118c357600080fd5b50505060405180519050601460008d60001916600019168152602001908152602001600020600701819055503073ffffffffffffffffffffffffffffffffffffffff16632e78f9a7846040518263ffffffff167c010000000000000000000000000000000000000000000000000000000002815260040180828152602001915050602060405180830381600087803b151561195d57600080fd5b5af1151561196a57600080fd5b50505060405180519050601460008d6000191660001916815260200190815260200160002060060181905550601460008c60001916600019168152602001908152602001600020600701549150601460008c600019166000191681526020019081526020016000206006015490508873ffffffffffffffffffffffffffffffffffffffff167fa3afae828658e1e58da778b78eeab7f29d71765dbd93a09381b6bcad486866e58c848488886040518086600019166000191681526020018581526020018481526020018381526020018281526020019550505050505060405180910390a2808297509750505050505050935093915050565b600760009054906101000a900473ffffffffffffffffffffffffffffffffffffffff1681565b600560009054906101000a900473ffffffffffffffffffffffffffffffffffffffff1673ffffffffffffffffffffffffffffffffffffffff163373ffffffffffffffffffffffffffffffffffffffff16141515611ae457600080fd5b3373ffffffffffffffffffffffffffffffffffffffff166108fc3073ffffffffffffffffffffffffffffffffffffffff16319081150290604051600060405180830381858888f1935050505050565b600f60009054906101000a900463ffffffff1681565b6000600d5482811515611b5857fe5b049050919050565b600560149054906101000a900460ff1681565b600b60009054906101000a900460ff1681565b6000600e5482811515611b9557fe5b049050919050565b600560009054906101000a900473ffffffffffffffffffffffffffffffffffffffff1673ffffffffffffffffffffffffffffffffffffffff163373ffffffffffffffffffffffffffffffffffffffff16141515611bf957600080fd5b81670de0b6b3a7640000811515611c0c57fe5b04600d8190555080670de0b6b3a7640000811515611c2657fe5b04600e819055505050565b600d5481565b6000600560009054906101000a900473ffffffffffffffffffffffffffffffffffffffff1673ffffffffffffffffffffffffffffffffffffffff163373ffffffffffffffffffffffffffffffffffffffff16141515611c9557600080fd5b600560149054906101000a900460ff1615611caf57600080fd5b6001600560146101000a81548160ff0219169083151502179055507f6985a02210a168e66602d3235cb6db0e70f92b3ba4d376a33c0f3d9434bff62560405160405180910390a16001905090565b600560009054906101000a900473ffffffffffffffffffffffffffffffffffffffff1673ffffffffffffffffffffffffffffffffffffffff163373ffffffffffffffffffffffffffffffffffffffff16141515611d5957600080fd5b80600f60006101000a81548163ffffffff021916908363ffffffff16021790555050565b60125481565b60105481565b600660009054906101000a900473ffffffffffffffffffffffffffffffffffffffff1681565b600e5481565b601160009054906101000a900460ff1681565b60095481565b600560009054906101000a900473ffffffffffffffffffffffffffffffffffffffff1673ffffffffffffffffffffffffffffffffffffffff163373ffffffffffffffffffffffffffffffffffffffff16141515611e2a57600080fd5b80601160006101000a81548160ff02191690831515021790555050565b60003073ffffffffffffffffffffffffffffffffffffffff1631905090565b600560009054906101000a900473ffffffffffffffffffffffffffffffffffffffff1673ffffffffffffffffffffffffffffffffffffffff163373ffffffffffffffffffffffffffffffffffffffff16141515611ec257600080fd5b6101a08211158015611ed5575060018210155b1515611ee057600080fd5b6101a08111158015611ef3575060018110155b1515611efe57600080fd5b81601281905550806013819055505050565b600560009054906101000a900473ffffffffffffffffffffffffffffffffffffffff1673ffffffffffffffffffffffffffffffffffffffff163373ffffffffffffffffffffffffffffffffffffffff16141515611f6c57600080fd5b81600860006101000a81548173ffffffffffffffffffffffffffffffffffffffff021916908373ffffffffffffffffffffffffffffffffffffffff1602179055507f6e4a8547a0f2d6541a77a459eff545d4777c23401787089993b1780e7ab979a06040518080602001828103825260108152602001807f544f4b454e20524547495354455245440000000000000000000000000000000081525060200191505060405180910390a16001600b60006101000a81548160ff02191690831515021790555080600c819055505050565b60146020528060005260406000206000915090508060000160009054906101000a900473ffffffffffffffffffffffffffffffffffffffff16908060010154908060020154908060030154908060040154908060050160009054906101000a900460ff16908060060154908060070154905088565b6000806000806000806120c1614575565b6120c96144fd565b600560149054906101000a900460ff16156120e357600080fd5b60011515600b60009054906101000a900460ff16151514151561210557600080fd5b6000891015801561211857506009548911155b151561212357600080fd5b600a5434111580156121355750600034115b151561214057600080fd5b349750612157612150898b612bbe565b60646130e5565b96506121638888613309565b95507fb82d4524d34e03b0c1b0d83049ea84e18809aab1d6b3274cbb96d1617e45c3fd86888b60405180848152602001838152602001828152602001935050505060405180910390a16001945061223d6040805190810160405280600c81526020017f576f6c6672616d416c70686100000000000000000000000000000000000000008152506040805190810160405280601a81526020017f52616e646f6d53616d706c655b52616e67655b3431365d2c325d000000000000815250600f60009054906101000a900463ffffffff1663ffffffff16613322565b93507f8415f67b82459151888994d7f123752ba9004f85aa373a5d717ae79a063c3faf8460405180826000191660001916815260200191505060405180910390a16122d56040805190810160405280600c81526020017f576f6c6672616d416c7068610000000000000000000000000000000000000000815250600f60009054906101000a900463ffffffff1663ffffffff1661383e565b92507f82bcc51ff5ab20f2066b1b697b902d2ee2549348c8f58f85b996a7fcce09b613836040518082815260200191505060405180910390a1601660003373ffffffffffffffffffffffffffffffffffffffff1673ffffffffffffffffffffffffffffffffffffffff16815260200190815260200160002060000160009054906101000a900460ff16156123c55760009450601660003373ffffffffffffffffffffffffffffffffffffffff1673ffffffffffffffffffffffffffffffffffffffff16815260200190815260200160002060020154341415156123b457fe5b6000871415156123c057fe5b61245e565b60606040519081016040528060001515815260200184815260200187815250915081601660003373ffffffffffffffffffffffffffffffffffffffff1673ffffffffffffffffffffffffffffffffffffffff16815260200190815260200160002060008201518160000160006101000a81548160ff02191690831515021790555060208201518160010155604082015181600201559050505b610100604051908101604052803373ffffffffffffffffffffffffffffffffffffffff1681526020018481526020018781526020018881526020018a8152602001861515815260200160008152602001600081525090508060146000866000191660001916815260200190815260200160002060008201518160000160006101000a81548173ffffffffffffffffffffffffffffffffffffffff021916908373ffffffffffffffffffffffffffffffffffffffff1602179055506020820151816001015560408201518160020155606082015181600301556080820151816004015560a08201518160050160006101000a81548160ff02191690831515021790555060c0820151816006015560e082015181600701559050506001601560003373ffffffffffffffffffffffffffffffffffffffff1673ffffffffffffffffffffffffffffffffffffffff16815260200190815260200160002060006101000a81548160ff021916908315150217905550505050505050505050565b60135481565b600a5481565b565b600560009054906101000a900473ffffffffffffffffffffffffffffffffffffffff1673ffffffffffffffffffffffffffffffffffffffff163373ffffffffffffffffffffffffffffffffffffffff1614151561264457600080fd5b600073ffffffffffffffffffffffffffffffffffffffff168173ffffffffffffffffffffffffffffffffffffffff161415156126bc5780600560006101000a81548173ffffffffffffffffffffffffffffffffffffffff021916908373ffffffffffffffffffffffffffffffffffffffff1602179055505b50565b6000600c54600a0a600860009054906101000a900473ffffffffffffffffffffffffffffffffffffffff1673ffffffffffffffffffffffffffffffffffffffff166370a08231846040518263ffffffff167c0100000000000000000000000000000000000000000000000000000000028152600401808273ffffffffffffffffffffffffffffffffffffffff1673ffffffffffffffffffffffffffffffffffffffff168152602001915050602060405180830381600087803b151561278357600080fd5b5af1151561279057600080fd5b505050604051805190508115156127a357fe5b049050919050565b6000600e54670de0b6b3a76400008115156127c257fe5b04905090565b6000806000809054906101000a900473ffffffffffffffffffffffffffffffffffffffff1673ffffffffffffffffffffffffffffffffffffffff161480612838575060006128366000809054906101000a900473ffffffffffffffffffffffffffffffffffffffff16613ba8565b145b15612849576128476000613bb3565b505b6000809054906101000a900473ffffffffffffffffffffffffffffffffffffffff1673ffffffffffffffffffffffffffffffffffffffff166338cc48316040518163ffffffff167c0100000000000000000000000000000000000000000000000000000000028152600401602060405180830381600087803b15156128cd57600080fd5b5af115156128da57600080fd5b5050506040518051905073ffffffffffffffffffffffffffffffffffffffff16600160009054906101000a900473ffffffffffffffffffffffffffffffffffffffff1673ffffffffffffffffffffffffffffffffffffffff16141515612a16576000809054906101000a900473ffffffffffffffffffffffffffffffffffffffff1673ffffffffffffffffffffffffffffffffffffffff166338cc48316040518163ffffffff167c0100000000000000000000000000000000000000000000000000000000028152600401602060405180830381600087803b15156129be57600080fd5b5af115156129cb57600080fd5b50505060405180519050600160006101000a81548173ffffffffffffffffffffffffffffffffffffffff021916908373ffffffffffffffffffffffffffffffffffffffff1602179055505b600160009054906101000a900473ffffffffffffffffffffffffffffffffffffffff1673ffffffffffffffffffffffffffffffffffffffff1663c281d19e6040518163ffffffff167c0100000000000000000000000000000000000000000000000000000000028152600401602060405180830381600087803b1515612a9b57600080fd5b5af11515612aa857600080fd5b50505060405180519050905090565b60008373ffffffffffffffffffffffffffffffffffffffff166108fc849081150290604051600060405180830381858888f1935050505015612b4a578373ffffffffffffffffffffffffffffffffffffffff167f325741c2c5ea17ea8829fb19547120786d784369cacb62dce5bad13aed3df6e5846040518082815260200191505060405180910390a260019050612bb7565b7f6e4a8547a0f2d6541a77a459eff545d4777c23401787089993b1780e7ab979a06040518080602001828103825260118152602001807f464154414c3a20706179206661696c656400000000000000000000000000000081525060200191505060405180910390a1600090505b9392505050565b60008082840290506000841480612bdf5750828482811515612bdc57fe5b04145b1515612be757fe5b8091505092915050565b6000600860009054906101000a900473ffffffffffffffffffffffffffffffffffffffff1673ffffffffffffffffffffffffffffffffffffffff1663a9059cbb84600c54600a0a85026040518363ffffffff167c0100000000000000000000000000000000000000000000000000000000028152600401808373ffffffffffffffffffffffffffffffffffffffff1673ffffffffffffffffffffffffffffffffffffffff16815260200182815260200192505050602060405180830381600087803b1515612cbe57600080fd5b5af11515612ccb57600080fd5b5050506040518051905015612d31578273ffffffffffffffffffffffffffffffffffffffff167f636445730b1bbf400b84597c178e4bd11b72e774f51f9f3c524e51ad8f88a2aa836040518082815260200191505060405180910390a260019050612d9e565b7f6e4a8547a0f2d6541a77a459eff545d4777c23401787089993b1780e7ab979a060405180806020018281038252601a8152602001807f464154414c3a2070617920696e20746f6b656e206661696c656400000000000081525060200191505060405180910390a1600090505b92915050565b612dac6144fd565b60146000836000191660001916815260200190815260200160002061010060405190810160405290816000820160009054906101000a900473ffffffffffffffffffffffffffffffffffffffff1673ffffffffffffffffffffffffffffffffffffffff1673ffffffffffffffffffffffffffffffffffffffff168152602001600182015481526020016002820154815260200160038201548152602001600482015481526020016005820160009054906101000a900460ff16151515158152602001600682015481526020016007820154815250509050600081606001511115612f37577f6e4a8547a0f2d6541a77a459eff545d4777c23401787089993b1780e7ab979a06040518080602001828103825260228152602001807f536964652062657420776f6e2120706179696e6720706c61796572203178204581526020017f544800000000000000000000000000000000000000000000000000000000000081525060400191505060405180910390a1612f35816000015182606001518360200151612ab7565b505b5050565b612f436144fd565b600060146000846000191660001916815260200190815260200160002061010060405190810160405290816000820160009054906101000a900473ffffffffffffffffffffffffffffffffffffffff1673ffffffffffffffffffffffffffffffffffffffff1673ffffffffffffffffffffffffffffffffffffffff168152602001600182015481526020016002820154815260200160038201548152602001600482015481526020016005820160009054906101000a900460ff161515151581526020016006820154815260200160078201548152505091506000826060015111156130e0577f6e4a8547a0f2d6541a77a459eff545d4777c23401787089993b1780e7ab979a06040518080602001828103825260258152602001807f536964652062657420776f6e2120706179696e6720706c61796572203130782081526020017f544f4b454e00000000000000000000000000000000000000000000000000000081525060400191505060405180910390a16130ce6130c78360600151611b49565b600a612bbe565b90506130de826000015182612bf1565b505b505050565b6000806000831115156130f457fe5b82848115156130ff57fe5b049050828481151561310d57fe5b06818402018414151561311c57fe5b8091505092915050565b600080828401905083811015151561313a57fe5b8091505092915050565b61314c61455b565b600060208301905060408051908101604052808451815260200182815250915050919050565b61317a61455b565b6000826000015184600001511015613194578391506131f5565b60019050826020015184602001511415156131c2578251602085015160208501518281208383201493505050505b80156131f157826000015184600001818151039150818152505082600001518460200181815101915081815250505b8391505b5092915050565b61320461455b565b60008083600001518560000151101561321f57849250613275565b8360000151856000015186602001510103915060019050836020015182141515613256578351602085015181812082852014925050505b80156132715783600001518560000181815103915081815250505b8492505b505092915050565b61328561455b565b613290838383614044565b5092915050565b61329f614599565b6132a7614599565b600083600001516040518059106132bb5750595b9080825280601f01601f191660200182016040525091506020820190506132eb81856020015186600001516140e2565b8192505050919050565b600061330282600061412d565b9050919050565b600082821115151561331757fe5b818303905092915050565b60008060008060009054906101000a900473ffffffffffffffffffffffffffffffffffffffff1673ffffffffffffffffffffffffffffffffffffffff161480613394575060006133926000809054906101000a900473ffffffffffffffffffffffffffffffffffffffff16613ba8565b145b156133a5576133a36000613bb3565b505b6000809054906101000a900473ffffffffffffffffffffffffffffffffffffffff1673ffffffffffffffffffffffffffffffffffffffff166338cc48316040518163ffffffff167c0100000000000000000000000000000000000000000000000000000000028152600401602060405180830381600087803b151561342957600080fd5b5af1151561343657600080fd5b5050506040518051905073ffffffffffffffffffffffffffffffffffffffff16600160009054906101000a900473ffffffffffffffffffffffffffffffffffffffff1673ffffffffffffffffffffffffffffffffffffffff16141515613572576000809054906101000a900473ffffffffffffffffffffffffffffffffffffffff1673ffffffffffffffffffffffffffffffffffffffff166338cc48316040518163ffffffff167c0100000000000000000000000000000000000000000000000000000000028152600401602060405180830381600087803b151561351a57600080fd5b5af1151561352757600080fd5b50505060405180519050600160006101000a81548173ffffffffffffffffffffffffffffffffffffffff021916908373ffffffffffffffffffffffffffffffffffffffff1602179055505b600160009054906101000a900473ffffffffffffffffffffffffffffffffffffffff1673ffffffffffffffffffffffffffffffffffffffff16632ef3accc86856040518363ffffffff167c01000000000000000000000000000000000000000000000000000000000281526004018080602001838152602001828103825284818151815260200191508051906020019080838360005b83811015613623578082015181840152602081019050613608565b50505050905090810190601f1680156136505780820380516001836020036101000a031916815260200191505b509350505050602060405180830381600087803b151561366f57600080fd5b5af1151561367c57600080fd5b505050604051805190509050823a02670de0b6b3a7640000018111156136a85760006001029150613836565b600160009054906101000a900473ffffffffffffffffffffffffffffffffffffffff1673ffffffffffffffffffffffffffffffffffffffff1663c51be90f8260008888886040518663ffffffff167c0100000000000000000000000000000000000000000000000000000000028152600401808581526020018060200180602001848152602001838103835286818151815260200191508051906020019080838360005b8381101561376757808201518184015260208101905061374c565b50505050905090810190601f1680156137945780820380516001836020036101000a031916815260200191505b50838103825285818151815260200191508051906020019080838360005b838110156137cd5780820151818401526020810190506137b2565b50505050905090810190601f1680156137fa5780820380516001836020036101000a031916815260200191505b5096505050505050506020604051808303818588803b151561381b57600080fd5b5af1151561382857600080fd5b505050506040518051905091505b509392505050565b6000806000809054906101000a900473ffffffffffffffffffffffffffffffffffffffff1673ffffffffffffffffffffffffffffffffffffffff1614806138ae575060006138ac6000809054906101000a900473ffffffffffffffffffffffffffffffffffffffff16613ba8565b145b156138bf576138bd6000613bb3565b505b6000809054906101000a900473ffffffffffffffffffffffffffffffffffffffff1673ffffffffffffffffffffffffffffffffffffffff166338cc48316040518163ffffffff167c0100000000000000000000000000000000000000000000000000000000028152600401602060405180830381600087803b151561394357600080fd5b5af1151561395057600080fd5b5050506040518051905073ffffffffffffffffffffffffffffffffffffffff16600160009054906101000a900473ffffffffffffffffffffffffffffffffffffffff1673ffffffffffffffffffffffffffffffffffffffff16141515613a8c576000809054906101000a900473ffffffffffffffffffffffffffffffffffffffff1673ffffffffffffffffffffffffffffffffffffffff166338cc48316040518163ffffffff167c0100000000000000000000000000000000000000000000000000000000028152600401602060405180830381600087803b1515613a3457600080fd5b5af11515613a4157600080fd5b50505060405180519050600160006101000a81548173ffffffffffffffffffffffffffffffffffffffff021916908373ffffffffffffffffffffffffffffffffffffffff1602179055505b600160009054906101000a900473ffffffffffffffffffffffffffffffffffffffff1673ffffffffffffffffffffffffffffffffffffffff16632ef3accc84846040518363ffffffff167c01000000000000000000000000000000000000000000000000000000000281526004018080602001838152602001828103825284818151815260200191508051906020019080838360005b83811015613b3d578082015181840152602081019050613b22565b50505050905090810190601f168015613b6a5780820380516001836020036101000a031916815260200191505b509350505050602060405180830381600087803b1515613b8957600080fd5b5af11515613b9657600080fd5b50505060405180519050905092915050565b6000813b9050919050565b600080613bd3731d3b2638a7cc9f2cb3d298a3da7a90b67e5506ed613ba8565b1115613c7457731d3b2638a7cc9f2cb3d298a3da7a90b67e5506ed6000806101000a81548173ffffffffffffffffffffffffffffffffffffffff021916908373ffffffffffffffffffffffffffffffffffffffff160217905550613c6b6040805190810160405280600b81526020017f6574685f6d61696e6e6574000000000000000000000000000000000000000000815250614427565b6001905061403f565b6000613c9373c03a2615d5efaf5f49f60b7bb6583eaec212fdf1613ba8565b1115613d345773c03a2615d5efaf5f49f60b7bb6583eaec212fdf16000806101000a81548173ffffffffffffffffffffffffffffffffffffffff021916908373ffffffffffffffffffffffffffffffffffffffff160217905550613d2b6040805190810160405280600c81526020017f6574685f726f707374656e330000000000000000000000000000000000000000815250614427565b6001905061403f565b6000613d5373b7a07bcf2ba2f2703b24c0691b5278999c59ac7e613ba8565b1115613df45773b7a07bcf2ba2f2703b24c0691b5278999c59ac7e6000806101000a81548173ffffffffffffffffffffffffffffffffffffffff021916908373ffffffffffffffffffffffffffffffffffffffff160217905550613deb6040805190810160405280600981526020017f6574685f6b6f76616e0000000000000000000000000000000000000000000000815250614427565b6001905061403f565b6000613e1373146500cfd35b22e4a392fe0adc06de1a1368ed48613ba8565b1115613eb45773146500cfd35b22e4a392fe0adc06de1a1368ed486000806101000a81548173ffffffffffffffffffffffffffffffffffffffff021916908373ffffffffffffffffffffffffffffffffffffffff160217905550613eab6040805190810160405280600b81526020017f6574685f72696e6b656279000000000000000000000000000000000000000000815250614427565b6001905061403f565b6000613ed3736f485c8bf6fc43ea212e93bbf8ce046c7f1cb475613ba8565b1115613f3657736f485c8bf6fc43ea212e93bbf8ce046c7f1cb4756000806101000a81548173ffffffffffffffffffffffffffffffffffffffff021916908373ffffffffffffffffffffffffffffffffffffffff1602179055506001905061403f565b6000613f557320e12a1f859b3feae5fb2a0a32c18f5a65555bbf613ba8565b1115613fb8577320e12a1f859b3feae5fb2a0a32c18f5a65555bbf6000806101000a81548173ffffffffffffffffffffffffffffffffffffffff021916908373ffffffffffffffffffffffffffffffffffffffff1602179055506001905061403f565b6000613fd77351efaf4c8b3c9afbd5ab9f4bbc82784ab6ef8faa613ba8565b111561403a577351efaf4c8b3c9afbd5ab9f4bbc82784ab6ef8faa6000806101000a81548173ffffffffffffffffffffffffffffffffffffffff021916908373ffffffffffffffffffffffffffffffffffffffff1602179055506001905061403f565b600090505b919050565b61404c61455b565b600061406a8560000151866020015186600001518760200151614441565b905084602001518360200181815250508460200151810383600001818152505084600001518560200151018114156140ac5760008560000181815250506140d7565b8360000151836000015101856000018181510391508181525050836000015181018560200181815250505b829150509392505050565b60005b60208210151561410a57825184526020840193506020830192506020820391506140e5565b6001826020036101000a0390508019835116818551168181178652505050505050565b60006141376145ad565b60008060008693506000925060009150600090505b83518110156144085760307f010000000000000000000000000000000000000000000000000000000000000002848281518110151561418757fe5b9060200101517f010000000000000000000000000000000000000000000000000000000000000090047f0100000000000000000000000000000000000000000000000000000000000000027effffffffffffffffffffffffffffffffffffffffffffffffffffffffffffff19161015801561429f575060397f010000000000000000000000000000000000000000000000000000000000000002848281518110151561422f57fe5b9060200101517f010000000000000000000000000000000000000000000000000000000000000090047f0100000000000000000000000000000000000000000000000000000000000000027effffffffffffffffffffffffffffffffffffffffffffffffffffffffffffff191611155b156143505781156142c25760008614156142b857614408565b8580600190039650505b600a83029250603084828151811015156142d857fe5b9060200101517f010000000000000000000000000000000000000000000000000000000000000090047f0100000000000000000000000000000000000000000000000000000000000000027f0100000000000000000000000000000000000000000000000000000000000000900403830192506143fb565b602e7f010000000000000000000000000000000000000000000000000000000000000002848281518110151561438257fe5b9060200101517f010000000000000000000000000000000000000000000000000000000000000090047f0100000000000000000000000000000000000000000000000000000000000000027effffffffffffffffffffffffffffffffffffffffffffffffffffffffffffff191614156143fa57600191505b5b808060010191505061414c565b600086111561441a5785600a0a830292505b8294505050505092915050565b806002908051906020019061443d9291906145c1565b5050565b600080600080600088871115156144eb576020871115156144a25760018760200360080260020a031980875116888b038a018a96505b81838851161461449757600187019650806001880310614477578b8b0196505b5050508394506144f1565b8686209150879350600092505b868903831115156144ea5786842090508060001916826000191614156144d7578394506144f1565b60018401935082806001019350506144af565b5b88880194505b50505050949350505050565b61010060405190810160405280600073ffffffffffffffffffffffffffffffffffffffff1681526020016000815260200160008152602001600081526020016000815260200160001515815260200160008152602001600081525090565b604080519081016040528060008152602001600081525090565b60606040519081016040528060001515815260200160008152602001600081525090565b602060405190810160405280600081525090565b602060405190810160405280600081525090565b828054600181600116156101000203166002900490600052602060002090601f016020900481019282601f1061460257805160ff1916838001178555614630565b82800160010185558215614630579182015b8281111561462f578251825591602001919060010190614614565b5b50905061463d9190614641565b5090565b61466391905b8082111561465f576000816000905550600101614647565b5090565b905600a165627a7a7230582064d2742c1c746f6b0ca880f3df7fc8461c64618369860adc368e775922eb02d30029",
  "source": "pragma solidity ^0.4.19;\n\nimport \"../installed_contracts/oraclize/contracts/usingOraclize.sol\";\nimport \"../installed_contracts/stringutils/strings.sol\";\nimport \"../installed_contracts/zeppelin/contracts/lifecycle/Pausable.sol\";\n\ninterface ERC20Token {\n    function totalSupply() external view returns (uint);\n    function balanceOf(address who) external constant returns (uint256);\n    function transfer(address to, uint256 value) external returns (bool);\n}\n\ncontract War is usingOraclize, Pausable {\n    using strings for *;\n\n    address public owner;\n    address public manager;\n    ERC20Token Token;\n\n    //make these configurablef\n    uint public sideBetPercent_MAX = 80;\n    uint public bet_MAX = 1 ether;\n    bool public registeredToken = false;\n    uint public tokenDecimalPlaces = 2;\n    uint public tokenWinRatio = 555555555555555 wei; //1800\n    uint public tokenLossRatio = 5000000000000000 wei; //200\n\n    uint32 public gasForShuffle; //caculateable?\n    uint public serviceFee;\n\n    bool public TEST_MODE = false;\n    uint public TEST_HOUSE = 111;\n    uint public TEST_PLAYER = 111;\n\n    struct Info{\n        address playerAddress;\n        uint fees;\n        uint mainBetAmount;\n        uint sideBetAmount;\n        uint sideBetPercentage;\n        bool isNewGame;\n        uint playerHand;\n        uint houseHand;\n    }\n\n    mapping (bytes32 => Info) public hand_info;\n\n    mapping (address => bool) public hasGameInProgress;\n\n    struct FirstHand{ //UPDATE FRONT END IF CHANGED, ONLY APPEND AT END\n        bool isTied;\n        uint fees;\n        uint mainBetAmount;\n    }\n\n    mapping (address => FirstHand) public firstHandInfo;\n\n    // mapping (string => uint) cards;\n\n    //EVENTS\n\n    event betPayout(address indexed playerAddr, uint amount);\n    event betPayoutToken(address indexed playerAddr, uint amount);\n    event dealtCards(address indexed player, bytes32 orcID, uint dealerHand, uint playerHand, uint dealerSuit, uint playerSuit);\n    event currentOrcID(bytes32 orcID);\n\n    event DEBUG_betSplit(uint mainBet, uint sideBet, uint percent);\n    event DEBUG_str(string msg);\n    event DEBUG_addr(address addr);\n    event DEBUG_byte(bytes32 thing);\n    event DEBUG_uint(uint thing);\n\n    modifier TokenCheck() {\n       if (registeredToken != true) { //check balance\n            revert();\n        }\n        _;\n    }\n\n    function War() public payable{\n        //Remove before flight\n        /* OAR = OraclizeAddrResolverI(0x6f485C8BF6fc43eA212E93BBF8ce046C7f1cb475); */\n\n        owner = msg.sender;\n        manager = msg.sender;\n\n        /* oraclize_setCustomGasPrice(1000000000 wei); //1 GWei */\n        gasForShuffle = 180000;\n    }\n\n    function ToggleTestMode(bool state) onlyOwner{\n      TEST_MODE = state;\n    }\n\n    function SetTestModeHands(uint house, uint player) onlyOwner{\n      require(house <= 416 && house >= 1);\n      require(player <= 416 && player >= 1);\n\n      TEST_HOUSE = house;\n      TEST_PLAYER = player;\n    }\n\n    function setOraclizeGas(uint32 gasAmount) onlyOwner{\n      gasForShuffle = gasAmount;\n    }\n\n    function RegisterToken(address _tokenAddress, uint decimalPlaces) public onlyOwner{\n        Token = ERC20Token(_tokenAddress);\n        DEBUG_str(\"TOKEN REGISTERED\");\n        registeredToken = true;\n        tokenDecimalPlaces = decimalPlaces;\n    }\n\n    function RemainingTokens(address who) public constant returns (uint){\n        return Token.balanceOf(who)/(10 ** tokenDecimalPlaces);\n    }\n\n    function FundHouse() public payable {}\n\n    function WithdrawFunds() public onlyOwner{\n      msg.sender.send(address(this).balance);\n    }\n\n    /*function playWar(uint sideBetPercent, uint customDealerVal, uint customPlayerVal) public whenNotPaused payable {*/\n    function playWar(uint sideBetPercent) public whenNotPaused TokenCheck payable {\n\n      require(sideBetPercent >= 0 && sideBetPercent <= sideBetPercent_MAX);\n      //arequire(hasGameInProgress[msg.sender]==false);\n\n      //ALPHA MAX bet\n      require(msg.value <= bet_MAX && msg.value > 0);\n\n      uint betAmount = msg.value;\n\n      uint sideBetAmount = div(mul(betAmount,sideBetPercent),100);\n      uint mainBetAmount = sub(betAmount,sideBetAmount);\n\n      emit DEBUG_betSplit(mainBetAmount, sideBetAmount, sideBetPercent);\n      //section\n\n      bool isNewGame = true;\n\n      //Initiate oraclize call\n      bytes32 orcID = oraclize_query(\"WolframAlpha\", \"RandomSample[Range[416],2]\",gasForShuffle);\n      currentOrcID(orcID);\n\n      uint orcFees = oraclize_getPrice(\"WolframAlpha\", gasForShuffle);\n      emit DEBUG_uint(orcFees);\n\n      //do logs + array store\n\n      //check if previous hand was a tie and player chose to go to WAR ***\n      if(firstHandInfo[msg.sender].isTied){\n        isNewGame = false;\n        assert(msg.value == firstHandInfo[msg.sender].mainBetAmount);\n        assert(sideBetAmount == 0);\n      }\n      else{\n        FirstHand memory thisHand = FirstHand({\n          isTied : false,\n          fees: orcFees,\n          mainBetAmount : mainBetAmount\n        });\n\n        firstHandInfo[msg.sender] = thisHand;\n      }\n\n      Info memory info = Info({\n          playerAddress : msg.sender,\n          mainBetAmount : mainBetAmount,\n          sideBetAmount : sideBetAmount,\n          fees: orcFees,\n          sideBetPercentage : sideBetPercent,\n          isNewGame : isNewGame,\n          playerHand : 0,\n          houseHand : 0\n      });\n\n      hand_info[orcID] = info;\n\n      hasGameInProgress[msg.sender] = true;\n    }\n\n    function getTokenWinValue(uint betInWei) public returns(uint){\n        return betInWei/tokenWinRatio;\n    }\n    function getTokenLossValue(uint betInWei) public returns(uint){\n        return betInWei/tokenLossRatio;\n    }\n    function setWinLossAmount(uint winAmount, uint lossAmount)public onlyOwner{\n        tokenWinRatio = 1 ether/winAmount;\n        tokenLossRatio = 1 ether/lossAmount;\n    }\n    function getWinTokenAmount()public constant returns(uint){\n        return 1 ether/tokenWinRatio;\n    }\n    function getLossTokenAmount()public constant returns(uint){\n        return 1 ether/tokenLossRatio;\n    }\n\n    function parseResult(bytes32 orcID, string result, address playerAddr) returns(uint, uint){\n        //parse wolfram shuffle\n        strings.slice memory partition = result.toSlice();\n        partition.beyond(\"{\".toSlice()).until(\"}\".toSlice());\n        strings.slice memory delim = \",\".toSlice();\n        // string[] memory parts = new string[](2);\n\n        uint houseRaw = parseInt(partition.split(delim).toString());\n        uint playerRaw = parseInt(partition.split(delim).toString());\n\n        if(TEST_MODE){\n          houseRaw = TEST_HOUSE;\n          playerRaw = TEST_PLAYER;\n        }\n\n        hand_info[orcID].houseHand = this.getCardValue(houseRaw);\n        hand_info[orcID].playerHand = this.getCardValue(playerRaw);\n\n        uint houseHand = hand_info[orcID].houseHand;\n        uint playerHand = hand_info[orcID].playerHand;\n\n        //Event for front-end to alert hand finished\n        dealtCards(playerAddr, orcID, houseHand, playerHand, houseRaw, playerRaw);\n\n        return(playerHand, houseHand);\n    }\n\n    function __callback(bytes32 orcID, string result) {\n        //security checks\n        if (msg.sender != oraclize_cbAddress()) revert();\n        if (hand_info[orcID].playerAddress==0x0) revert(); //maybe change bytes32 to uint for testing\n\n        //**NEED TO CHECK INPUT FORMAT FOR REFUND\n\n        address playerAddr = hand_info[orcID].playerAddress;\n\n        var (playerHand, houseHand) =  parseResult(orcID, result, playerAddr);\n\n        uint fees;\n\n        if(playerHand == houseHand){\n            DEBUG_str(\"Tied!\");\n\n            uint betAmount = firstHandInfo[playerAddr].mainBetAmount;\n            fees = firstHandInfo[playerAddr].fees;\n\n            if(firstHandInfo[playerAddr].isTied){\n                DEBUG_str(\"Second Tie - 3x payout!\");\n\n                if(pay(playerAddr, betAmount,fees) &&\n                payToken(playerAddr, mul(getTokenWinValue(betAmount),3))){\n                    delete firstHandInfo[playerAddr];\n                }\n            }\n            else{\n                DEBUG_str(\"First Tie - pending action\");\n                firstHandInfo[playerAddr].isTied = true;\n\n                Info memory hand = hand_info[orcID];\n\n                if(hand.sideBetAmount > 0){\n                    sideBetPay(orcID);\n                    sideBetPayToken(orcID);\n                }\n                else{\n                    payToken(playerAddr, getTokenLossValue(betAmount));\n                }\n            }\n            //\n        }\n\n\n        uint winAmount = hand_info[orcID].mainBetAmount;\n        fees = hand_info[orcID].fees;\n\n        //Pay winner\n        if(playerHand > houseHand){\n          uint winTokenAmount = getTokenWinValue(winAmount);\n\n          if(pay(playerAddr,winAmount,fees) && payToken(playerAddr,winTokenAmount)){\n              delete firstHandInfo[playerAddr];\n              delete hand_info[orcID];\n          }\n        }\n        else if(playerHand < houseHand){\n            uint lossTokenAmount = getTokenLossValue(winAmount);\n\n            if(payToken(playerAddr,lossTokenAmount)){\n                delete firstHandInfo[playerAddr];\n                delete hand_info[orcID];\n            }\n        }\n    }\n\n    function playerSurrender() public whenNotPaused payable {\n\n      if(firstHandInfo[msg.sender].isTied){\n          DEBUG_str(\"player surrendering\");\n\n          uint returnAmount = div(firstHandInfo[msg.sender].mainBetAmount,2);\n          uint fees = firstHandInfo[msg.sender].fees;\n\n          if(pay(msg.sender,returnAmount,fees)){\n            delete firstHandInfo[msg.sender];\n            // delete hand_info[orcID];\n          }\n      }\n      else{\n        DEBUG_str(\"nothing to surrender\"); //change this function to return false\n      }\n\n    }\n\n    function pay(address _addr, uint amount, uint fees) private returns(bool){\n        if(_addr.send(amount)){ //PAY IN ether\n          betPayout(_addr, amount);\n          return true;\n        }\n        else{\n          //Put in refund?\n          DEBUG_str(\"FATAL: pay failed\");\n          return false;\n        }\n    }\n\n    function payToken(address _addr, uint amount) private returns(bool){\n\n        if(Token.transfer(_addr,amount * 10 ** tokenDecimalPlaces)){ //PAY IN token\n          betPayoutToken(_addr, amount); //actuall number\n          return true;\n        }\n        else{\n          //Put in refund?\n          DEBUG_str(\"FATAL: pay in token failed\");\n          return false;\n        }\n    }\n\n    function sideBetPay(bytes32 orcID) private{\n\n        Info memory hand = hand_info[orcID];\n\n        if(hand.sideBetAmount > 0){\n          DEBUG_str(\"Side bet won! paying player 1x ETH\");\n          //pay side bet once and for all + remove sidebet history\n        //   uint sideBetWin = mul(hand.sideBetAmount,10);\n          pay(hand.playerAddress,hand.sideBetAmount,hand.fees);\n        }\n    }\n\n    function sideBetPayToken(bytes32 orcID) private{\n\n        Info memory hand = hand_info[orcID];\n\n        if(hand.sideBetAmount > 0){\n          DEBUG_str(\"Side bet won! paying player 10x TOKEN\");\n          //pay side bet once and for all + remove sidebet history\n          uint sideBetWin = mul(getTokenWinValue(hand.sideBetAmount),10);\n          payToken(hand.playerAddress,sideBetWin);\n        }\n    }\n\n    /*Special Sauce*/\n    function getCardValue(uint card) public returns(uint){\n      if(card > 416 || card < 1){\n        return 0;\n      }\n\n      if(card > 52){\n        card = card % 52;\n      }\n\n      if(card == 0){\n      \treturn 13;\n      }else if(card <= 4){\n        return 14;\n      }else if(card % 4 > 0){\n        card = add(div(card,4),1);\n      }else{\n        card = div(card,4);\n      }\n\n      if(card == 1){\n        return 14;\n      }\n      else{\n        return card;\n      }\n\n    }\n\n    function mul(uint a, uint b) internal returns (uint) {\n      uint c = a * b;\n      assert(a == 0 || c / a == b);\n      return c;\n    }\n\n    function div(uint a, uint b) internal returns (uint) {\n      assert(b > 0);\n      uint c = a / b;\n      assert(a == b * c + a % b);\n      return c;\n    }\n\n    function sub(uint a, uint b) internal returns (uint) {\n      assert(b <= a);\n      return a - b;\n    }\n\n    function add(uint a, uint b) internal returns (uint) {\n      uint c = a + b;\n      assert(c >= a);\n      return c;\n    }\n\n    function houseBankRoll() constant public returns(uint){\n        return address(this).balance;\n    }\n}\n",
  "sourcePath": "/Users/kuaiyu/Documents/Projects/Ethereum/temp/EthinoWar/contracts/War.sol",
  "compiler": {
    "name": "solc",
    "version": "0.4.21+commit.dfe3193c.Emscripten.clang"
  },
  "schemaVersion": "2.0.0",
  "updatedAt": "2018-05-09T08:31:19.573Z"
}