{
  "contractName": "War",
  "abi": [
    {
      "constant": true,
      "inputs": [
        {
          "name": "",
          "type": "address"
        }
      ],
      "name": "firstHandInfo",
      "outputs": [
        {
          "name": "isTied",
          "type": "bool"
        },
        {
          "name": "fees",
          "type": "uint256"
        },
        {
          "name": "mainBetAmount",
          "type": "uint256"
        }
      ],
      "payable": false,
      "stateMutability": "view",
      "type": "function"
    },
    {
      "constant": true,
      "inputs": [],
      "name": "tokenDecimalPlaces",
      "outputs": [
        {
          "name": "",
          "type": "uint256"
        }
      ],
      "payable": false,
      "stateMutability": "view",
      "type": "function"
    },
    {
      "constant": true,
      "inputs": [],
      "name": "getWinTokenAmount",
      "outputs": [
        {
          "name": "",
          "type": "uint256"
        }
      ],
      "payable": false,
      "stateMutability": "view",
      "type": "function"
    },
    {
      "constant": false,
      "inputs": [],
      "name": "unpause",
      "outputs": [],
      "payable": false,
      "stateMutability": "nonpayable",
      "type": "function"
    },
    {
      "constant": true,
      "inputs": [],
      "name": "gasForShuffle",
      "outputs": [
        {
          "name": "",
          "type": "uint256"
        }
      ],
      "payable": false,
      "stateMutability": "view",
      "type": "function"
    },
    {
      "constant": true,
      "inputs": [
        {
          "name": "betInWei",
          "type": "uint256"
        }
      ],
      "name": "getTokenWinValue",
      "outputs": [
        {
          "name": "",
          "type": "uint256"
        }
      ],
      "payable": false,
      "stateMutability": "view",
      "type": "function"
    },
    {
      "constant": true,
      "inputs": [],
      "name": "paused",
      "outputs": [
        {
          "name": "",
          "type": "bool"
        }
      ],
      "payable": false,
      "stateMutability": "view",
      "type": "function"
    },
    {
      "constant": true,
      "inputs": [],
      "name": "registeredToken",
      "outputs": [
        {
          "name": "",
          "type": "bool"
        }
      ],
      "payable": false,
      "stateMutability": "view",
      "type": "function"
    },
    {
      "constant": true,
      "inputs": [
        {
          "name": "betInWei",
          "type": "uint256"
        }
      ],
      "name": "getTokenLossValue",
      "outputs": [
        {
          "name": "",
          "type": "uint256"
        }
      ],
      "payable": false,
      "stateMutability": "view",
      "type": "function"
    },
    {
      "constant": false,
      "inputs": [
        {
          "name": "winAmount",
          "type": "uint256"
        },
        {
          "name": "lossAmount",
          "type": "uint256"
        }
      ],
      "name": "setWinLossAmount",
      "outputs": [],
      "payable": false,
      "stateMutability": "nonpayable",
      "type": "function"
    },
    {
      "constant": true,
      "inputs": [],
      "name": "tokenWinRatio",
      "outputs": [
        {
          "name": "",
          "type": "uint256"
        }
      ],
      "payable": false,
      "stateMutability": "view",
      "type": "function"
    },
    {
      "constant": false,
      "inputs": [],
      "name": "pause",
      "outputs": [],
      "payable": false,
      "stateMutability": "nonpayable",
      "type": "function"
    },
    {
      "constant": true,
      "inputs": [],
      "name": "TEST_HOUSE",
      "outputs": [
        {
          "name": "",
          "type": "uint256"
        }
      ],
      "payable": false,
      "stateMutability": "view",
      "type": "function"
    },
    {
      "constant": true,
      "inputs": [],
      "name": "serviceFee",
      "outputs": [
        {
          "name": "",
          "type": "uint256"
        }
      ],
      "payable": false,
      "stateMutability": "view",
      "type": "function"
    },
    {
      "constant": true,
      "inputs": [],
      "name": "owner",
      "outputs": [
        {
          "name": "",
          "type": "address"
        }
      ],
      "payable": false,
      "stateMutability": "view",
      "type": "function"
    },
    {
      "constant": true,
      "inputs": [
        {
          "name": "",
          "type": "address"
        }
      ],
      "name": "hasHandInProgress",
      "outputs": [
        {
          "name": "",
          "type": "bool"
        }
      ],
      "payable": false,
      "stateMutability": "view",
      "type": "function"
    },
    {
      "constant": true,
      "inputs": [],
      "name": "tokenLossRatio",
      "outputs": [
        {
          "name": "",
          "type": "uint256"
        }
      ],
      "payable": false,
      "stateMutability": "view",
      "type": "function"
    },
    {
      "constant": true,
      "inputs": [],
      "name": "tokenAddress",
      "outputs": [
        {
          "name": "",
          "type": "address"
        }
      ],
      "payable": false,
      "stateMutability": "view",
      "type": "function"
    },
    {
      "constant": true,
      "inputs": [],
      "name": "TEST_MODE",
      "outputs": [
        {
          "name": "",
          "type": "bool"
        }
      ],
      "payable": false,
      "stateMutability": "view",
      "type": "function"
    },
    {
      "constant": true,
      "inputs": [],
      "name": "sideBetPercent_MAX",
      "outputs": [
        {
          "name": "",
          "type": "uint256"
        }
      ],
      "payable": false,
      "stateMutability": "view",
      "type": "function"
    },
    {
      "constant": false,
      "inputs": [
        {
          "name": "state",
          "type": "bool"
        }
      ],
      "name": "ToggleTestMode",
      "outputs": [],
      "payable": false,
      "stateMutability": "nonpayable",
      "type": "function"
    },
    {
      "constant": false,
      "inputs": [
        {
          "name": "house",
          "type": "uint256"
        },
        {
          "name": "player",
          "type": "uint256"
        }
      ],
      "name": "SetTestModeHands",
      "outputs": [],
      "payable": false,
      "stateMutability": "nonpayable",
      "type": "function"
    },
    {
      "constant": false,
      "inputs": [
        {
          "name": "_tokenAddress",
          "type": "address"
        },
        {
          "name": "decimalPlaces",
          "type": "uint256"
        }
      ],
      "name": "RegisterToken",
      "outputs": [],
      "payable": false,
      "stateMutability": "nonpayable",
      "type": "function"
    },
    {
      "constant": true,
      "inputs": [
        {
          "name": "",
          "type": "bytes32"
        }
      ],
      "name": "hand_info",
      "outputs": [
        {
          "name": "playerAddress",
          "type": "address"
        },
        {
          "name": "fees",
          "type": "uint256"
        },
        {
          "name": "mainBetAmount",
          "type": "uint256"
        },
        {
          "name": "sideBetAmount",
          "type": "uint256"
        },
        {
          "name": "sideBetPercentage",
          "type": "uint256"
        },
        {
          "name": "playerHand",
          "type": "uint256"
        },
        {
          "name": "houseHand",
          "type": "uint256"
        }
      ],
      "payable": false,
      "stateMutability": "view",
      "type": "function"
    },
    {
      "constant": true,
      "inputs": [],
      "name": "TEST_PLAYER",
      "outputs": [
        {
          "name": "",
          "type": "uint256"
        }
      ],
      "payable": false,
      "stateMutability": "view",
      "type": "function"
    },
    {
      "constant": true,
      "inputs": [],
      "name": "bet_MAX",
      "outputs": [
        {
          "name": "",
          "type": "uint256"
        }
      ],
      "payable": false,
      "stateMutability": "view",
      "type": "function"
    },
    {
      "constant": true,
      "inputs": [
        {
          "name": "",
          "type": "address"
        }
      ],
      "name": "refundPool",
      "outputs": [
        {
          "name": "",
          "type": "uint256"
        }
      ],
      "payable": false,
      "stateMutability": "view",
      "type": "function"
    },
    {
      "constant": false,
      "inputs": [
        {
          "name": "newOwner",
          "type": "address"
        }
      ],
      "name": "transferOwnership",
      "outputs": [],
      "payable": false,
      "stateMutability": "nonpayable",
      "type": "function"
    },
    {
      "constant": true,
      "inputs": [
        {
          "name": "who",
          "type": "address"
        }
      ],
      "name": "RemainingTokens",
      "outputs": [
        {
          "name": "",
          "type": "uint256"
        }
      ],
      "payable": false,
      "stateMutability": "view",
      "type": "function"
    },
    {
      "constant": true,
      "inputs": [],
      "name": "getLossTokenAmount",
      "outputs": [
        {
          "name": "",
          "type": "uint256"
        }
      ],
      "payable": false,
      "stateMutability": "view",
      "type": "function"
    },
    {
      "constant": true,
      "inputs": [],
      "name": "bet_MIN",
      "outputs": [
        {
          "name": "",
          "type": "uint256"
        }
      ],
      "payable": false,
      "stateMutability": "view",
      "type": "function"
    },
    {
      "inputs": [],
      "payable": false,
      "stateMutability": "nonpayable",
      "type": "constructor"
    },
    {
      "payable": true,
      "stateMutability": "payable",
      "type": "fallback"
    },
    {
      "anonymous": false,
      "inputs": [
        {
          "indexed": true,
          "name": "playerAddr",
          "type": "address"
        },
        {
          "indexed": false,
          "name": "amount",
          "type": "uint256"
        }
      ],
      "name": "betPayout",
      "type": "event"
    },
    {
      "anonymous": false,
      "inputs": [
        {
          "indexed": true,
          "name": "playerAddr",
          "type": "address"
        },
        {
          "indexed": false,
          "name": "amount",
          "type": "uint256"
        }
      ],
      "name": "betPayoutToken",
      "type": "event"
    },
    {
      "anonymous": false,
      "inputs": [
        {
          "indexed": true,
          "name": "player",
          "type": "address"
        },
        {
          "indexed": false,
          "name": "orcID",
          "type": "bytes32"
        },
        {
          "indexed": false,
          "name": "dealerHand",
          "type": "uint256"
        },
        {
          "indexed": false,
          "name": "playerHand",
          "type": "uint256"
        },
        {
          "indexed": false,
          "name": "dealerSuit",
          "type": "uint256"
        },
        {
          "indexed": false,
          "name": "playerSuit",
          "type": "uint256"
        }
      ],
      "name": "dealtCards",
      "type": "event"
    },
    {
      "anonymous": false,
      "inputs": [
        {
          "indexed": false,
          "name": "orcID",
          "type": "bytes32"
        }
      ],
      "name": "currentOrcID",
      "type": "event"
    },
    {
      "anonymous": false,
      "inputs": [
        {
          "indexed": false,
          "name": "mainBet",
          "type": "uint256"
        },
        {
          "indexed": false,
          "name": "sideBet",
          "type": "uint256"
        },
        {
          "indexed": false,
          "name": "percent",
          "type": "uint256"
        }
      ],
      "name": "DEBUG_betSplit",
      "type": "event"
    },
    {
      "anonymous": false,
      "inputs": [
        {
          "indexed": false,
          "name": "msg",
          "type": "string"
        }
      ],
      "name": "DEBUG_str",
      "type": "event"
    },
    {
      "anonymous": false,
      "inputs": [
        {
          "indexed": false,
          "name": "error",
          "type": "string"
        }
      ],
      "name": "DEBUG_invalidOp",
      "type": "event"
    },
    {
      "anonymous": false,
      "inputs": [
        {
          "indexed": false,
          "name": "addr",
          "type": "address"
        }
      ],
      "name": "DEBUG_addr",
      "type": "event"
    },
    {
      "anonymous": false,
      "inputs": [
        {
          "indexed": false,
          "name": "thing",
          "type": "bytes32"
        }
      ],
      "name": "DEBUG_byte",
      "type": "event"
    },
    {
      "anonymous": false,
      "inputs": [
        {
          "indexed": false,
          "name": "thing",
          "type": "uint256"
        }
      ],
      "name": "DEBUG_uint",
      "type": "event"
    },
    {
      "anonymous": false,
      "inputs": [],
      "name": "Pause",
      "type": "event"
    },
    {
      "anonymous": false,
      "inputs": [],
      "name": "Unpause",
      "type": "event"
    },
    {
      "anonymous": false,
      "inputs": [
        {
          "indexed": true,
          "name": "previousOwner",
          "type": "address"
        },
        {
          "indexed": true,
          "name": "newOwner",
          "type": "address"
        }
      ],
      "name": "OwnershipTransferred",
      "type": "event"
    },
    {
      "constant": false,
      "inputs": [
        {
          "name": "gasAmount",
          "type": "uint32"
        }
      ],
      "name": "setOraclizeGas",
      "outputs": [],
      "payable": false,
      "stateMutability": "nonpayable",
      "type": "function"
    },
    {
      "constant": true,
      "inputs": [],
      "name": "houseBankRoll",
      "outputs": [
        {
          "name": "",
          "type": "uint256"
        }
      ],
      "payable": false,
      "stateMutability": "view",
      "type": "function"
    },
    {
      "constant": false,
      "inputs": [],
      "name": "withdrawFunds",
      "outputs": [],
      "payable": false,
      "stateMutability": "nonpayable",
      "type": "function"
    },
    {
      "constant": false,
      "inputs": [],
      "name": "withdrawTokens",
      "outputs": [],
      "payable": false,
      "stateMutability": "nonpayable",
      "type": "function"
    },
    {
      "constant": false,
      "inputs": [
        {
          "name": "sideBetPercent",
          "type": "uint256"
        }
      ],
      "name": "playWar",
      "outputs": [],
      "payable": true,
      "stateMutability": "payable",
      "type": "function"
    },
    {
      "constant": false,
      "inputs": [],
      "name": "refund",
      "outputs": [
        {
          "name": "",
          "type": "uint256"
        }
      ],
      "payable": false,
      "stateMutability": "nonpayable",
      "type": "function"
    },
    {
      "constant": false,
      "inputs": [
        {
          "name": "orcID",
          "type": "bytes32"
        },
        {
          "name": "result",
          "type": "string"
        }
      ],
      "name": "__callback",
      "outputs": [],
      "payable": false,
      "stateMutability": "nonpayable",
      "type": "function"
    },
    {
      "constant": false,
      "inputs": [
        {
          "name": "myid",
          "type": "bytes32"
        },
        {
          "name": "result",
          "type": "string"
        },
        {
          "name": "proof",
          "type": "bytes"
        }
      ],
      "name": "__callback",
      "outputs": [],
      "payable": false,
      "stateMutability": "nonpayable",
      "type": "function"
    },
    {
      "constant": false,
      "inputs": [],
      "name": "playerSurrender",
      "outputs": [],
      "payable": true,
      "stateMutability": "payable",
      "type": "function"
    }
  ],
  "bytecode": "0x60606040526000600560146101000a81548160ff0219169083151502179055506000600660146101000a81548160ff02191690831515021790555060026007556601f9465b8ab8e36009556611c37937e08000600a556000600b60006101000a81548160ff021916908315150217905550606f600c55606f600d556050600e55678ac7230489e80000600f5567016345785d8a00006010556202d2a860115534156100a957600080fd5b33600560006101000a81548173ffffffffffffffffffffffffffffffffffffffff021916908373ffffffffffffffffffffffffffffffffffffffff160217905550614b03806100f96000396000f3006060604052600436106101ed576000357c0100000000000000000000000000000000000000000000000000000000900463ffffffff168062ecd311146101ef5780631792cc611461024e57806324600fc31461027757806327dc297e1461028c578063282651fe146102f6578063339ac1741461031f57806338bbfa50146103295780633f4ba83a146103d657806358aaf48a146103eb578063590e1ae3146104145780635b5e760c1461043d5780635c975abb1461047457806362eb6da1146104a157806365e807ab146104ce578063778317c4146105055780637ea5d50e146105315780638456cb591461055a57806389ed0b301461056f5780638a25aefa146105985780638abdf5aa146105c15780638d8f2adb146105ea5780638da5cb5b146105ff5780639429d2d914610654578063963d62fb146106a55780639d76ea58146106ce578063a4009e2314610723578063aa3dacac14610750578063b2f3319e14610779578063b45cff5f1461079e578063b46631cd146107c7578063bb42e8e5146107f3578063c6e2a07114610835578063d02cc69f146108c6578063df065d78146108de578063e320697514610907578063e4db0c5e14610930578063f2fde38b1461097d578063f69a65b3146109b6578063f91a545b14610a03578063fc0808e514610a2c575b005b34156101fa57600080fd5b610226600480803573ffffffffffffffffffffffffffffffffffffffff16906020019091905050610a55565b6040518084151515158152602001838152602001828152602001935050505060405180910390f35b341561025957600080fd5b610261610a8c565b6040518082815260200191505060405180910390f35b341561028257600080fd5b61028a610a92565b005b341561029757600080fd5b6102f460048080356000191690602001909190803590602001908201803590602001908080601f01602080910402602001604051908101604052809392919081815260200183838082843782019150505050505091905050610b47565b005b341561030157600080fd5b6103096113cc565b6040518082815260200191505060405180910390f35b6103276113e9565b005b341561033457600080fd5b6103d460048080356000191690602001909190803590602001908201803590602001908080601f0160208091040260200160405190810160405280939291908181526020018383808284378201915050505050509190803590602001908201803590602001908080601f0160208091040260200160405190810160405280939291908181526020018383808284378201915050505050509190505061164b565b005b34156103e157600080fd5b6103e9611650565b005b34156103f657600080fd5b6103fe611710565b6040518082815260200191505060405180910390f35b341561041f57600080fd5b610427611716565b6040518082815260200191505060405180910390f35b341561044857600080fd5b61045e6004808035906020019091905050611998565b6040518082815260200191505060405180910390f35b341561047f57600080fd5b6104876119af565b604051808215151515815260200191505060405180910390f35b34156104ac57600080fd5b6104b46119c2565b604051808215151515815260200191505060405180910390f35b34156104d957600080fd5b6104ef60048080359060200190919050506119d5565b6040518082815260200191505060405180910390f35b341561051057600080fd5b61052f60048080359060200190919080359060200190919050506119ec565b005b341561053c57600080fd5b610544611a80565b6040518082815260200191505060405180910390f35b341561056557600080fd5b61056d611a86565b005b341561057a57600080fd5b610596600480803563ffffffff16906020019091905050611b47565b005b34156105a357600080fd5b6105ab611bb3565b6040518082815260200191505060405180910390f35b34156105cc57600080fd5b6105d4611bb9565b6040518082815260200191505060405180910390f35b34156105f557600080fd5b6105fd611bbf565b005b341561060a57600080fd5b610612611dd1565b604051808273ffffffffffffffffffffffffffffffffffffffff1673ffffffffffffffffffffffffffffffffffffffff16815260200191505060405180910390f35b341561065f57600080fd5b61068b600480803573ffffffffffffffffffffffffffffffffffffffff16906020019091905050611df7565b604051808215151515815260200191505060405180910390f35b34156106b057600080fd5b6106b8611e17565b6040518082815260200191505060405180910390f35b34156106d957600080fd5b6106e1611e1d565b604051808273ffffffffffffffffffffffffffffffffffffffff1673ffffffffffffffffffffffffffffffffffffffff16815260200191505060405180910390f35b341561072e57600080fd5b610736611e43565b604051808215151515815260200191505060405180910390f35b341561075b57600080fd5b610763611e56565b6040518082815260200191505060405180910390f35b341561078457600080fd5b61079c60048080351515906020019091905050611e5c565b005b34156107a957600080fd5b6107b1611ed5565b6040518082815260200191505060405180910390f35b34156107d257600080fd5b6107f16004808035906020019091908035906020019091905050611ef4565b005b34156107fe57600080fd5b610833600480803573ffffffffffffffffffffffffffffffffffffffff16906020019091908035906020019091905050611f9e565b005b341561084057600080fd5b61085a6004808035600019169060200190919050506120a2565b604051808873ffffffffffffffffffffffffffffffffffffffff1673ffffffffffffffffffffffffffffffffffffffff16815260200187815260200186815260200185815260200184815260200183815260200182815260200197505050505050505060405180910390f35b6108dc6004808035906020019091905050612104565b005b34156108e957600080fd5b6108f161266c565b6040518082815260200191505060405180910390f35b341561091257600080fd5b61091a612672565b6040518082815260200191505060405180910390f35b341561093b57600080fd5b610967600480803573ffffffffffffffffffffffffffffffffffffffff16906020019091905050612678565b6040518082815260200191505060405180910390f35b341561098857600080fd5b6109b4600480803573ffffffffffffffffffffffffffffffffffffffff16906020019091905050612690565b005b34156109c157600080fd5b6109ed600480803573ffffffffffffffffffffffffffffffffffffffff169060200190919050506127e8565b6040518082815260200191505060405180910390f35b3415610a0e57600080fd5b610a166128d4565b6040518082815260200191505060405180910390f35b3415610a3757600080fd5b610a3f6128f1565b6040518082815260200191505060405180910390f35b60156020528060005260406000206000915090508060000160009054906101000a900460ff16908060010154908060020154905083565b60075481565b600560009054906101000a900473ffffffffffffffffffffffffffffffffffffffff1673ffffffffffffffffffffffffffffffffffffffff163373ffffffffffffffffffffffffffffffffffffffff16141515610aee57600080fd5b3373ffffffffffffffffffffffffffffffffffffffff166108fc3073ffffffffffffffffffffffffffffffffffffffff16319081150290604051600060405180830381858888f193505050501515610b4557600080fd5b565b6000806000806000610b57614978565b6000806000610b646128f7565b73ffffffffffffffffffffffffffffffffffffffff163373ffffffffffffffffffffffffffffffffffffffff16141515610b9d57600080fd5b6000601360008d6000191660001916815260200190815260200160002060000160009054906101000a900473ffffffffffffffffffffffffffffffffffffffff1673ffffffffffffffffffffffffffffffffffffffff1614151515610c0157600080fd5b601360008c6000191660001916815260200190815260200160002060000160009054906101000a900473ffffffffffffffffffffffffffffffffffffffff16985060011515601460008b73ffffffffffffffffffffffffffffffffffffffff1673ffffffffffffffffffffffffffffffffffffffff16815260200190815260200160002060009054906101000a900460ff161515141515610ca157600080fd5b6000601460008b73ffffffffffffffffffffffffffffffffffffffff1673ffffffffffffffffffffffffffffffffffffffff16815260200190815260200160002060006101000a81548160ff021916908315150217905550601660008a73ffffffffffffffffffffffffffffffffffffffff1673ffffffffffffffffffffffffffffffffffffffff16815260200190815260200160002060009055610d478b8b8b612be6565b809850819950505086881415611167577f6e4a8547a0f2d6541a77a459eff545d4777c23401787089993b1780e7ab979a06040518080602001828103825260058152602001807f546965642100000000000000000000000000000000000000000000000000000081525060200191505060405180910390a1601560008a73ffffffffffffffffffffffffffffffffffffffff1673ffffffffffffffffffffffffffffffffffffffff168152602001908152602001600020600201549450601560008a73ffffffffffffffffffffffffffffffffffffffff1673ffffffffffffffffffffffffffffffffffffffff168152602001908152602001600020600101549550601560008a73ffffffffffffffffffffffffffffffffffffffff1673ffffffffffffffffffffffffffffffffffffffff16815260200190815260200160002060000160009054906101000a900460ff1615610faf577f6e4a8547a0f2d6541a77a459eff545d4777c23401787089993b1780e7ab979a06040518080602001828103825260178152602001807f5365636f6e6420546965202d203378207061796f75742100000000000000000081525060200191505060405180910390a1610f11898688612e76565b8015610f3e5750610f3d89610f386003610f2a89611998565b612f9290919063ffffffff16565b612fc5565b5b15610faa57601560008a73ffffffffffffffffffffffffffffffffffffffff1673ffffffffffffffffffffffffffffffffffffffff168152602001908152602001600020600080820160006101000a81549060ff02191690556001820160009055600282016000905550505b611166565b7f6e4a8547a0f2d6541a77a459eff545d4777c23401787089993b1780e7ab979a060405180806020018281038252601a8152602001807f466972737420546965202d2070656e64696e6720616374696f6e00000000000081525060200191505060405180910390a16001601560008b73ffffffffffffffffffffffffffffffffffffffff1673ffffffffffffffffffffffffffffffffffffffff16815260200190815260200160002060000160006101000a81548160ff021916908315150217905550601360008c6000191660001916815260200190815260200160002060e060405190810160405290816000820160009054906101000a900473ffffffffffffffffffffffffffffffffffffffff1673ffffffffffffffffffffffffffffffffffffffff1673ffffffffffffffffffffffffffffffffffffffff16815260200160018201548152602001600282015481526020016003820154815260200160048201548152602001600582015481526020016006820154815250509350600084606001511115611151576111438b613178565b61114c8b6132f3565b611165565b6111638961115e876119d5565b612fc5565b505b5b5b601360008c60001916600019168152602001908152602001600020600201549250601360008c60001916600019168152602001908152602001600020600101549550868811156112bf576111ba83611998565b91506111c7898488612e76565b80156111d957506111d88983612fc5565b5b156112ba57601560008a73ffffffffffffffffffffffffffffffffffffffff1673ffffffffffffffffffffffffffffffffffffffff168152602001908152602001600020600080820160006101000a81549060ff0219169055600182016000905560028201600090555050601360008c60001916600019168152602001908152602001600020600080820160006101000a81549073ffffffffffffffffffffffffffffffffffffffff021916905560018201600090556002820160009055600382016000905560048201600090556005820160009055600682016000905550505b6113bf565b868810156113be576112d0836119d5565b90506112dc8982612fc5565b156113bd57601560008a73ffffffffffffffffffffffffffffffffffffffff1673ffffffffffffffffffffffffffffffffffffffff168152602001908152602001600020600080820160006101000a81549060ff0219169055600182016000905560028201600090555050601360008c60001916600019168152602001908152602001600020600080820160006101000a81549073ffffffffffffffffffffffffffffffffffffffff021916905560018201600090556002820160009055600382016000905560048201600090556005820160009055600682016000905550505b5b5b5050505050505050505050565b6000600954670de0b6b3a76400008115156113e357fe5b04905090565b600080600560149054906101000a900460ff1615151561140857600080fd5b601560003373ffffffffffffffffffffffffffffffffffffffff1673ffffffffffffffffffffffffffffffffffffffff16815260200190815260200160002060000160009054906101000a900460ff16156115de577f6e4a8547a0f2d6541a77a459eff545d4777c23401787089993b1780e7ab979a06040518080602001828103825260138152602001807f706c617965722073757272656e646572696e670000000000000000000000000081525060200191505060405180910390a161151b6002601560003373ffffffffffffffffffffffffffffffffffffffff1673ffffffffffffffffffffffffffffffffffffffff1681526020019081526020016000206002015461348a90919063ffffffff16565b9150601560003373ffffffffffffffffffffffffffffffffffffffff1673ffffffffffffffffffffffffffffffffffffffff16815260200190815260200160002060010154905061156d338383612e76565b156115d957601560003373ffffffffffffffffffffffffffffffffffffffff1673ffffffffffffffffffffffffffffffffffffffff168152602001908152602001600020600080820160006101000a81549060ff02191690556001820160009055600282016000905550505b611647565b7f6e4a8547a0f2d6541a77a459eff545d4777c23401787089993b1780e7ab979a06040518080602001828103825260148152602001807f6e6f7468696e6720746f2073757272656e64657200000000000000000000000081525060200191505060405180910390a15b5050565b505050565b600560009054906101000a900473ffffffffffffffffffffffffffffffffffffffff1673ffffffffffffffffffffffffffffffffffffffff163373ffffffffffffffffffffffffffffffffffffffff161415156116ac57600080fd5b600560149054906101000a900460ff1615156116c757600080fd5b6000600560146101000a81548160ff0219169083151502179055507f7805862f689e2f13df9f062ff482ad3ad112aca9e0847911ed832e158c525b3360405160405180910390a1565b60115481565b6000806000600560149054906101000a900460ff1615151561173757600080fd5b339150601660008373ffffffffffffffffffffffffffffffffffffffff1673ffffffffffffffffffffffffffffffffffffffff16815260200190815260200160002054905060011515601460008473ffffffffffffffffffffffffffffffffffffffff1673ffffffffffffffffffffffffffffffffffffffff16815260200190815260200160002060009054906101000a900460ff1615151415156117db57600080fd5b6000811115156117ea57600080fd5b600f5481111515156117fb57600080fd5b8173ffffffffffffffffffffffffffffffffffffffff166108fc829081150290604051600060405180830381858888f1935050505015611926578173ffffffffffffffffffffffffffffffffffffffff167f325741c2c5ea17ea8829fb19547120786d784369cacb62dce5bad13aed3df6e5826040518082815260200191505060405180910390a26000601460008473ffffffffffffffffffffffffffffffffffffffff1673ffffffffffffffffffffffffffffffffffffffff16815260200190815260200160002060006101000a81548160ff021916908315150217905550601660008373ffffffffffffffffffffffffffffffffffffffff1673ffffffffffffffffffffffffffffffffffffffff16815260200190815260200160002060009055809250611993565b7f6e4a8547a0f2d6541a77a459eff545d4777c23401787089993b1780e7ab979a06040518080602001828103825260148152602001807f464154414c3a20726566756e64206661696c656400000000000000000000000081525060200191505060405180910390a1600092505b505090565b6000600954828115156119a757fe5b049050919050565b600560149054906101000a900460ff1681565b600660149054906101000a900460ff1681565b6000600a54828115156119e457fe5b049050919050565b600560009054906101000a900473ffffffffffffffffffffffffffffffffffffffff1673ffffffffffffffffffffffffffffffffffffffff163373ffffffffffffffffffffffffffffffffffffffff16141515611a4857600080fd5b81670de0b6b3a7640000811515611a5b57fe5b0460098190555080670de0b6b3a7640000811515611a7557fe5b04600a819055505050565b60095481565b600560009054906101000a900473ffffffffffffffffffffffffffffffffffffffff1673ffffffffffffffffffffffffffffffffffffffff163373ffffffffffffffffffffffffffffffffffffffff16141515611ae257600080fd5b600560149054906101000a900460ff16151515611afe57600080fd5b6001600560146101000a81548160ff0219169083151502179055507f6985a02210a168e66602d3235cb6db0e70f92b3ba4d376a33c0f3d9434bff62560405160405180910390a1565b600560009054906101000a900473ffffffffffffffffffffffffffffffffffffffff1673ffffffffffffffffffffffffffffffffffffffff163373ffffffffffffffffffffffffffffffffffffffff16141515611ba357600080fd5b8063ffffffff1660118190555050565b600c5481565b60125481565b6000600560009054906101000a900473ffffffffffffffffffffffffffffffffffffffff1673ffffffffffffffffffffffffffffffffffffffff163373ffffffffffffffffffffffffffffffffffffffff16141515611c1d57600080fd5b600660009054906101000a900473ffffffffffffffffffffffffffffffffffffffff1673ffffffffffffffffffffffffffffffffffffffff166370a08231306040518263ffffffff167c0100000000000000000000000000000000000000000000000000000000028152600401808273ffffffffffffffffffffffffffffffffffffffff1673ffffffffffffffffffffffffffffffffffffffff168152602001915050602060405180830381600087803b1515611cd957600080fd5b5af11515611ce657600080fd5b505050604051805190509050600660009054906101000a900473ffffffffffffffffffffffffffffffffffffffff1673ffffffffffffffffffffffffffffffffffffffff1663a9059cbb33836040518363ffffffff167c0100000000000000000000000000000000000000000000000000000000028152600401808373ffffffffffffffffffffffffffffffffffffffff1673ffffffffffffffffffffffffffffffffffffffff16815260200182815260200192505050602060405180830381600087803b1515611db657600080fd5b5af11515611dc357600080fd5b505050604051805190505050565b600560009054906101000a900473ffffffffffffffffffffffffffffffffffffffff1681565b60146020528060005260406000206000915054906101000a900460ff1681565b600a5481565b600860009054906101000a900473ffffffffffffffffffffffffffffffffffffffff1681565b600b60009054906101000a900460ff1681565b600e5481565b600560009054906101000a900473ffffffffffffffffffffffffffffffffffffffff1673ffffffffffffffffffffffffffffffffffffffff163373ffffffffffffffffffffffffffffffffffffffff16141515611eb857600080fd5b80600b60006101000a81548160ff02191690831515021790555050565b60003073ffffffffffffffffffffffffffffffffffffffff1631905090565b600560009054906101000a900473ffffffffffffffffffffffffffffffffffffffff1673ffffffffffffffffffffffffffffffffffffffff163373ffffffffffffffffffffffffffffffffffffffff16141515611f5057600080fd5b6101a08211158015611f63575060018210155b1515611f6e57600080fd5b6101a08111158015611f81575060018110155b1515611f8c57600080fd5b81600c8190555080600d819055505050565b600560009054906101000a900473ffffffffffffffffffffffffffffffffffffffff1673ffffffffffffffffffffffffffffffffffffffff163373ffffffffffffffffffffffffffffffffffffffff16141515611ffa57600080fd5b81600660006101000a81548173ffffffffffffffffffffffffffffffffffffffff021916908373ffffffffffffffffffffffffffffffffffffffff16021790555081600860006101000a81548173ffffffffffffffffffffffffffffffffffffffff021916908373ffffffffffffffffffffffffffffffffffffffff1602179055506001600660146101000a81548160ff021916908315150217905550806007819055505050565b60136020528060005260406000206000915090508060000160009054906101000a900473ffffffffffffffffffffffffffffffffffffffff16908060010154908060020154908060030154908060040154908060050154908060060154905087565b60008060008060006121146149cc565b61211c614978565b600560149054906101000a900460ff1615151561213857600080fd5b60011515600660149054906101000a900460ff16151514151561215a57600080fd5b6000881015801561216d5750600e548811155b151561217857600080fd5b60001515601460003373ffffffffffffffffffffffffffffffffffffffff1673ffffffffffffffffffffffffffffffffffffffff16815260200190815260200160002060009054906101000a900460ff1615151415156121d757600080fd5b600f5434111580156121eb57506010543410155b15156121f657600080fd5b34965061221f60646122118a8a612f9290919063ffffffff16565b61348a90919063ffffffff16565b955061223486886134cb90919063ffffffff16565b94507fb82d4524d34e03b0c1b0d83049ea84e18809aab1d6b3274cbb96d1617e45c3fd85878a60405180848152602001838152602001828152602001935050505060405180910390a16122f46040805190810160405280600c81526020017f576f6c6672616d416c70686100000000000000000000000000000000000000008152506040805190810160405280601a81526020017f52616e646f6d53616d706c655b52616e67655b3431365d2c325d0000000000008152506011546134e4565b93507f8415f67b82459151888994d7f123752ba9004f85aa373a5d717ae79a063c3faf8460405180826000191660001916815260200191505060405180910390a16123766040805190810160405280600c81526020017f576f6c6672616d416c7068610000000000000000000000000000000000000000815250601154613a00565b9250601560003373ffffffffffffffffffffffffffffffffffffffff1673ffffffffffffffffffffffffffffffffffffffff16815260200190815260200160002060000160009054906101000a900460ff161561242b57601560003373ffffffffffffffffffffffffffffffffffffffff1673ffffffffffffffffffffffffffffffffffffffff168152602001908152602001600020600201543414151561241a57fe5b60008614151561242657fe5b6124c4565b60606040519081016040528060001515815260200184815260200186815250915081601560003373ffffffffffffffffffffffffffffffffffffffff1673ffffffffffffffffffffffffffffffffffffffff16815260200190815260200160002060008201518160000160006101000a81548160ff02191690831515021790555060208201518160010155604082015181600201559050505b60e0604051908101604052803373ffffffffffffffffffffffffffffffffffffffff16815260200184815260200186815260200187815260200189815260200160008152602001600081525090508060136000866000191660001916815260200190815260200160002060008201518160000160006101000a81548173ffffffffffffffffffffffffffffffffffffffff021916908373ffffffffffffffffffffffffffffffffffffffff1602179055506020820151816001015560408201518160020155606082015181600301556080820151816004015560a0820151816005015560c082015181600601559050506125c783346134cb90919063ffffffff16565b601660003373ffffffffffffffffffffffffffffffffffffffff1673ffffffffffffffffffffffffffffffffffffffff168152602001908152602001600020819055506001601460003373ffffffffffffffffffffffffffffffffffffffff1673ffffffffffffffffffffffffffffffffffffffff16815260200190815260200160002060006101000a81548160ff0219169083151502179055505050505050505050565b600d5481565b600f5481565b60166020528060005260406000206000915090505481565b600560009054906101000a900473ffffffffffffffffffffffffffffffffffffffff1673ffffffffffffffffffffffffffffffffffffffff163373ffffffffffffffffffffffffffffffffffffffff161415156126ec57600080fd5b600073ffffffffffffffffffffffffffffffffffffffff168173ffffffffffffffffffffffffffffffffffffffff161415151561272857600080fd5b8073ffffffffffffffffffffffffffffffffffffffff16600560009054906101000a900473ffffffffffffffffffffffffffffffffffffffff1673ffffffffffffffffffffffffffffffffffffffff167f8be0079c531659141344cd1fd0a4f28419497f9722a3daafe3b4186f6b6457e060405160405180910390a380600560006101000a81548173ffffffffffffffffffffffffffffffffffffffff021916908373ffffffffffffffffffffffffffffffffffffffff16021790555050565b6000600754600a0a600660009054906101000a900473ffffffffffffffffffffffffffffffffffffffff1673ffffffffffffffffffffffffffffffffffffffff166370a08231846040518263ffffffff167c0100000000000000000000000000000000000000000000000000000000028152600401808273ffffffffffffffffffffffffffffffffffffffff1673ffffffffffffffffffffffffffffffffffffffff168152602001915050602060405180830381600087803b15156128ac57600080fd5b5af115156128b957600080fd5b505050604051805190508115156128cc57fe5b049050919050565b6000600a54670de0b6b3a76400008115156128eb57fe5b04905090565b60105481565b6000806000809054906101000a900473ffffffffffffffffffffffffffffffffffffffff1673ffffffffffffffffffffffffffffffffffffffff161480612967575060006129656000809054906101000a900473ffffffffffffffffffffffffffffffffffffffff16613d6a565b145b15612978576129766000613d75565b505b6000809054906101000a900473ffffffffffffffffffffffffffffffffffffffff1673ffffffffffffffffffffffffffffffffffffffff166338cc48316040518163ffffffff167c0100000000000000000000000000000000000000000000000000000000028152600401602060405180830381600087803b15156129fc57600080fd5b5af11515612a0957600080fd5b5050506040518051905073ffffffffffffffffffffffffffffffffffffffff16600160009054906101000a900473ffffffffffffffffffffffffffffffffffffffff1673ffffffffffffffffffffffffffffffffffffffff16141515612b45576000809054906101000a900473ffffffffffffffffffffffffffffffffffffffff1673ffffffffffffffffffffffffffffffffffffffff166338cc48316040518163ffffffff167c0100000000000000000000000000000000000000000000000000000000028152600401602060405180830381600087803b1515612aed57600080fd5b5af11515612afa57600080fd5b50505060405180519050600160006101000a81548173ffffffffffffffffffffffffffffffffffffffff021916908373ffffffffffffffffffffffffffffffffffffffff1602179055505b600160009054906101000a900473ffffffffffffffffffffffffffffffffffffffff1673ffffffffffffffffffffffffffffffffffffffff1663c281d19e6040518163ffffffff167c0100000000000000000000000000000000000000000000000000000000028152600401602060405180830381600087803b1515612bca57600080fd5b5af11515612bd757600080fd5b50505060405180519050905090565b600080612bf16149f0565b612bf96149f0565b600080600080612c088a614206565b9550612ca9612c4b6040805190810160405280600181526020017f7d00000000000000000000000000000000000000000000000000000000000000815250614206565b612c9b612c8c6040805190810160405280600181526020017f7b00000000000000000000000000000000000000000000000000000000000000815250614206565b8961423490919063ffffffff16565b6142be90919063ffffffff16565b50612ce86040805190810160405280600181526020017f2c00000000000000000000000000000000000000000000000000000000000000815250614206565b9450612d0d612d08612d03878961433f90919063ffffffff16565b614359565b6143b7565b9350612d32612d2d612d28878961433f90919063ffffffff16565b614359565b6143b7565b9250600b60009054906101000a900460ff1615612d5457600c549350600d5492505b612d5d846143cb565b601360008d6000191660001916815260200190815260200160002060060181905550612d88836143cb565b601360008d6000191660001916815260200190815260200160002060050181905550601360008c60001916600019168152602001908152602001600020600601549150601360008c600019166000191681526020019081526020016000206005015490508873ffffffffffffffffffffffffffffffffffffffff167fa3afae828658e1e58da778b78eeab7f29d71765dbd93a09381b6bcad486866e58c848488886040518086600019166000191681526020018581526020018481526020018381526020018281526020019550505050505060405180910390a2808297509750505050505050935093915050565b6000612e8b82846134cb90919063ffffffff16565b92508373ffffffffffffffffffffffffffffffffffffffff166108fc849081150290604051600060405180830381858888f1935050505015612f1e578373ffffffffffffffffffffffffffffffffffffffff167f325741c2c5ea17ea8829fb19547120786d784369cacb62dce5bad13aed3df6e5846040518082815260200191505060405180910390a260019050612f8b565b7f6e4a8547a0f2d6541a77a459eff545d4777c23401787089993b1780e7ab979a06040518080602001828103825260118152602001807f464154414c3a20706179206661696c656400000000000000000000000000000081525060200191505060405180910390a1600090505b9392505050565b6000808284029050612fbb6000851480612fb65750838583811515612fb357fe5b04145b614492565b8091505092915050565b6000600660009054906101000a900473ffffffffffffffffffffffffffffffffffffffff1673ffffffffffffffffffffffffffffffffffffffff1663a9059cbb84600754600a0a85026040518363ffffffff167c0100000000000000000000000000000000000000000000000000000000028152600401808373ffffffffffffffffffffffffffffffffffffffff1673ffffffffffffffffffffffffffffffffffffffff16815260200182815260200192505050602060405180830381600087803b151561309257600080fd5b5af1151561309f57600080fd5b5050506040518051905015613105578273ffffffffffffffffffffffffffffffffffffffff167f636445730b1bbf400b84597c178e4bd11b72e774f51f9f3c524e51ad8f88a2aa836040518082815260200191505060405180910390a260019050613172565b7f6e4a8547a0f2d6541a77a459eff545d4777c23401787089993b1780e7ab979a060405180806020018281038252601a8152602001807f464154414c3a2070617920696e20746f6b656e206661696c656400000000000081525060200191505060405180910390a1600090505b92915050565b613180614978565b60136000836000191660001916815260200190815260200160002060e060405190810160405290816000820160009054906101000a900473ffffffffffffffffffffffffffffffffffffffff1673ffffffffffffffffffffffffffffffffffffffff1673ffffffffffffffffffffffffffffffffffffffff168152602001600182015481526020016002820154815260200160038201548152602001600482015481526020016005820154815260200160068201548152505090506000816060015111156132ef577f6e4a8547a0f2d6541a77a459eff545d4777c23401787089993b1780e7ab979a06040518080602001828103825260228152602001807f536964652062657420776f6e2120706179696e6720706c61796572203178204581526020017f544800000000000000000000000000000000000000000000000000000000000081525060400191505060405180910390a16132ed816000015182606001518360200151612e76565b505b5050565b6132fb614978565b600060136000846000191660001916815260200190815260200160002060e060405190810160405290816000820160009054906101000a900473ffffffffffffffffffffffffffffffffffffffff1673ffffffffffffffffffffffffffffffffffffffff1673ffffffffffffffffffffffffffffffffffffffff16815260200160018201548152602001600282015481526020016003820154815260200160048201548152602001600582015481526020016006820154815250509150600082606001511115613485577f6e4a8547a0f2d6541a77a459eff545d4777c23401787089993b1780e7ab979a06040518080602001828103825260258152602001807f536964652062657420776f6e2120706179696e6720706c61796572203130782081526020017f544f4b454e00000000000000000000000000000000000000000000000000000081525060400191505060405180910390a1613473600a6134658460600151611998565b612f9290919063ffffffff16565b9050613483826000015182612fc5565b505b505050565b60008061349960008411614492565b82848115156134a457fe5b0490506134c183858115156134b557fe5b06828502018514614492565b8091505092915050565b60006134d983831115614492565b818303905092915050565b60008060008060009054906101000a900473ffffffffffffffffffffffffffffffffffffffff1673ffffffffffffffffffffffffffffffffffffffff161480613556575060006135546000809054906101000a900473ffffffffffffffffffffffffffffffffffffffff16613d6a565b145b15613567576135656000613d75565b505b6000809054906101000a900473ffffffffffffffffffffffffffffffffffffffff1673ffffffffffffffffffffffffffffffffffffffff166338cc48316040518163ffffffff167c0100000000000000000000000000000000000000000000000000000000028152600401602060405180830381600087803b15156135eb57600080fd5b5af115156135f857600080fd5b5050506040518051905073ffffffffffffffffffffffffffffffffffffffff16600160009054906101000a900473ffffffffffffffffffffffffffffffffffffffff1673ffffffffffffffffffffffffffffffffffffffff16141515613734576000809054906101000a900473ffffffffffffffffffffffffffffffffffffffff1673ffffffffffffffffffffffffffffffffffffffff166338cc48316040518163ffffffff167c0100000000000000000000000000000000000000000000000000000000028152600401602060405180830381600087803b15156136dc57600080fd5b5af115156136e957600080fd5b50505060405180519050600160006101000a81548173ffffffffffffffffffffffffffffffffffffffff021916908373ffffffffffffffffffffffffffffffffffffffff1602179055505b600160009054906101000a900473ffffffffffffffffffffffffffffffffffffffff1673ffffffffffffffffffffffffffffffffffffffff16632ef3accc86856040518363ffffffff167c01000000000000000000000000000000000000000000000000000000000281526004018080602001838152602001828103825284818151815260200191508051906020019080838360005b838110156137e55780820151818401526020810190506137ca565b50505050905090810190601f1680156138125780820380516001836020036101000a031916815260200191505b509350505050602060405180830381600087803b151561383157600080fd5b5af1151561383e57600080fd5b505050604051805190509050823a02670de0b6b3a76400000181111561386a57600060010291506139f8565b600160009054906101000a900473ffffffffffffffffffffffffffffffffffffffff1673ffffffffffffffffffffffffffffffffffffffff1663c51be90f8260008888886040518663ffffffff167c0100000000000000000000000000000000000000000000000000000000028152600401808581526020018060200180602001848152602001838103835286818151815260200191508051906020019080838360005b8381101561392957808201518184015260208101905061390e565b50505050905090810190601f1680156139565780820380516001836020036101000a031916815260200191505b50838103825285818151815260200191508051906020019080838360005b8381101561398f578082015181840152602081019050613974565b50505050905090810190601f1680156139bc5780820380516001836020036101000a031916815260200191505b5096505050505050506020604051808303818588803b15156139dd57600080fd5b5af115156139ea57600080fd5b505050506040518051905091505b509392505050565b6000806000809054906101000a900473ffffffffffffffffffffffffffffffffffffffff1673ffffffffffffffffffffffffffffffffffffffff161480613a7057506000613a6e6000809054906101000a900473ffffffffffffffffffffffffffffffffffffffff16613d6a565b145b15613a8157613a7f6000613d75565b505b6000809054906101000a900473ffffffffffffffffffffffffffffffffffffffff1673ffffffffffffffffffffffffffffffffffffffff166338cc48316040518163ffffffff167c0100000000000000000000000000000000000000000000000000000000028152600401602060405180830381600087803b1515613b0557600080fd5b5af11515613b1257600080fd5b5050506040518051905073ffffffffffffffffffffffffffffffffffffffff16600160009054906101000a900473ffffffffffffffffffffffffffffffffffffffff1673ffffffffffffffffffffffffffffffffffffffff16141515613c4e576000809054906101000a900473ffffffffffffffffffffffffffffffffffffffff1673ffffffffffffffffffffffffffffffffffffffff166338cc48316040518163ffffffff167c0100000000000000000000000000000000000000000000000000000000028152600401602060405180830381600087803b1515613bf657600080fd5b5af11515613c0357600080fd5b50505060405180519050600160006101000a81548173ffffffffffffffffffffffffffffffffffffffff021916908373ffffffffffffffffffffffffffffffffffffffff1602179055505b600160009054906101000a900473ffffffffffffffffffffffffffffffffffffffff1673ffffffffffffffffffffffffffffffffffffffff16632ef3accc84846040518363ffffffff167c01000000000000000000000000000000000000000000000000000000000281526004018080602001838152602001828103825284818151815260200191508051906020019080838360005b83811015613cff578082015181840152602081019050613ce4565b50505050905090810190601f168015613d2c5780820380516001836020036101000a031916815260200191505b509350505050602060405180830381600087803b1515613d4b57600080fd5b5af11515613d5857600080fd5b50505060405180519050905092915050565b6000813b9050919050565b600080613d95731d3b2638a7cc9f2cb3d298a3da7a90b67e5506ed613d6a565b1115613e3657731d3b2638a7cc9f2cb3d298a3da7a90b67e5506ed6000806101000a81548173ffffffffffffffffffffffffffffffffffffffff021916908373ffffffffffffffffffffffffffffffffffffffff160217905550613e2d6040805190810160405280600b81526020017f6574685f6d61696e6e65740000000000000000000000000000000000000000008152506144a1565b60019050614201565b6000613e5573c03a2615d5efaf5f49f60b7bb6583eaec212fdf1613d6a565b1115613ef65773c03a2615d5efaf5f49f60b7bb6583eaec212fdf16000806101000a81548173ffffffffffffffffffffffffffffffffffffffff021916908373ffffffffffffffffffffffffffffffffffffffff160217905550613eed6040805190810160405280600c81526020017f6574685f726f707374656e3300000000000000000000000000000000000000008152506144a1565b60019050614201565b6000613f1573b7a07bcf2ba2f2703b24c0691b5278999c59ac7e613d6a565b1115613fb65773b7a07bcf2ba2f2703b24c0691b5278999c59ac7e6000806101000a81548173ffffffffffffffffffffffffffffffffffffffff021916908373ffffffffffffffffffffffffffffffffffffffff160217905550613fad6040805190810160405280600981526020017f6574685f6b6f76616e00000000000000000000000000000000000000000000008152506144a1565b60019050614201565b6000613fd573146500cfd35b22e4a392fe0adc06de1a1368ed48613d6a565b11156140765773146500cfd35b22e4a392fe0adc06de1a1368ed486000806101000a81548173ffffffffffffffffffffffffffffffffffffffff021916908373ffffffffffffffffffffffffffffffffffffffff16021790555061406d6040805190810160405280600b81526020017f6574685f72696e6b6562790000000000000000000000000000000000000000008152506144a1565b60019050614201565b6000614095736f485c8bf6fc43ea212e93bbf8ce046c7f1cb475613d6a565b11156140f857736f485c8bf6fc43ea212e93bbf8ce046c7f1cb4756000806101000a81548173ffffffffffffffffffffffffffffffffffffffff021916908373ffffffffffffffffffffffffffffffffffffffff16021790555060019050614201565b60006141177320e12a1f859b3feae5fb2a0a32c18f5a65555bbf613d6a565b111561417a577320e12a1f859b3feae5fb2a0a32c18f5a65555bbf6000806101000a81548173ffffffffffffffffffffffffffffffffffffffff021916908373ffffffffffffffffffffffffffffffffffffffff16021790555060019050614201565b60006141997351efaf4c8b3c9afbd5ab9f4bbc82784ab6ef8faa613d6a565b11156141fc577351efaf4c8b3c9afbd5ab9f4bbc82784ab6ef8faa6000806101000a81548173ffffffffffffffffffffffffffffffffffffffff021916908373ffffffffffffffffffffffffffffffffffffffff16021790555060019050614201565b600090505b919050565b61420e6149f0565b600060208301905060408051908101604052808451815260200182815250915050919050565b61423c6149f0565b6000826000015184600001511015614256578391506142b7565b6001905082602001518460200151141515614284578251602085015160208501518281208383201493505050505b80156142b357826000015184600001818151039150818152505082600001518460200181815101915081815250505b8391505b5092915050565b6142c66149f0565b6000808360000151856000015110156142e157849250614337565b8360000151856000015186602001510103915060019050836020015182141515614318578351602085015181812082852014925050505b80156143335783600001518560000181815103915081815250505b8492505b505092915050565b6143476149f0565b6143528383836144bb565b5092915050565b614361614a0a565b614369614a0a565b6000836000015160405180591061437d5750595b9080825280601f01601f191660200182016040525091506020820190506143ad8185602001518660000151614559565b8192505050919050565b60006143c48260006145a4565b9050919050565b60006101a08211806143dd5750600182105b156143eb576000905061448d565b6034828115156143f757fe5b069150600082141561440c57600d905061448d565b60048211151561441f57600e905061448d565b600060048381151561442d57fe5b0611156144625761445b600161444d60048561348a90919063ffffffff16565b61489e90919063ffffffff16565b9150614479565b61447660048361348a90919063ffffffff16565b91505b60018214614487578161448a565b600e5b90505b919050565b80151561449e57600080fd5b50565b80600290805190602001906144b7929190614a1e565b5050565b6144c36149f0565b60006144e185600001518660200151866000015187602001516148bc565b9050846020015183602001818152505084602001518103836000018181525050846000015185602001510181141561452357600085600001818152505061454e565b8360000151836000015101856000018181510391508181525050836000015181018560200181815250505b829150509392505050565b60005b602082101515614581578251845260208401935060208301925060208203915061455c565b6001826020036101000a0390508019835116818551168181178652505050505050565b60006145ae614a9e565b60008060008693506000925060009150600090505b835181101561487f5760307f01000000000000000000000000000000000000000000000000000000000000000284828151811015156145fe57fe5b9060200101517f010000000000000000000000000000000000000000000000000000000000000090047f0100000000000000000000000000000000000000000000000000000000000000027effffffffffffffffffffffffffffffffffffffffffffffffffffffffffffff191610158015614716575060397f01000000000000000000000000000000000000000000000000000000000000000284828151811015156146a657fe5b9060200101517f010000000000000000000000000000000000000000000000000000000000000090047f0100000000000000000000000000000000000000000000000000000000000000027effffffffffffffffffffffffffffffffffffffffffffffffffffffffffffff191611155b156147c757811561473957600086141561472f5761487f565b8580600190039650505b600a830292506030848281518110151561474f57fe5b9060200101517f010000000000000000000000000000000000000000000000000000000000000090047f0100000000000000000000000000000000000000000000000000000000000000027f010000000000000000000000000000000000000000000000000000000000000090040383019250614872565b602e7f01000000000000000000000000000000000000000000000000000000000000000284828151811015156147f957fe5b9060200101517f010000000000000000000000000000000000000000000000000000000000000090047f0100000000000000000000000000000000000000000000000000000000000000027effffffffffffffffffffffffffffffffffffffffffffffffffffffffffffff1916141561487157600191505b5b80806001019150506145c3565b60008611156148915785600a0a830292505b8294505050505092915050565b60008082840190506148b284821015614492565b8091505092915050565b600080600080600088871115156149665760208711151561491d5760018760200360080260020a031980875116888b038a018a96505b818388511614614912576001870196508060018803106148f2578b8b0196505b50505083945061496c565b8686209150879350600092505b868903831115156149655786842090508060001916826000191614156149525783945061496c565b600184019350828060010193505061492a565b5b88880194505b50505050949350505050565b60e060405190810160405280600073ffffffffffffffffffffffffffffffffffffffff1681526020016000815260200160008152602001600081526020016000815260200160008152602001600081525090565b60606040519081016040528060001515815260200160008152602001600081525090565b604080519081016040528060008152602001600081525090565b602060405190810160405280600081525090565b828054600181600116156101000203166002900490600052602060002090601f016020900481019282601f10614a5f57805160ff1916838001178555614a8d565b82800160010185558215614a8d579182015b82811115614a8c578251825591602001919060010190614a71565b5b509050614a9a9190614ab2565b5090565b602060405190810160405280600081525090565b614ad491905b80821115614ad0576000816000905550600101614ab8565b5090565b905600a165627a7a72305820e7a58190d508d90a55076bf31f8b098a6c5e00a69bf11beb9a9c53f706a4ca190029",
  "source": "pragma solidity ^0.4.21;\n\nimport \"../installed_contracts/oraclize/contracts/usingOraclize.sol\";\nimport \"../installed_contracts/stringutils/strings.sol\";\nimport \"../installed_contracts/zeppelin/contracts/lifecycle/Pausable.sol\";\nimport \"../installed_contracts/zeppelin/contracts/SafeMath.sol\";\nimport \"./PlayToken.sol\";\nimport \"./CustomEvents.sol\";\nimport \"./TestMode.sol\";\n\ncontract War is usingOraclize, Pausable, PlayToken, CustomEvents, TestMode {\n    using strings for *;\n    using SafeMath for uint;\n\n    //make these configurable\n    uint public sideBetPercent_MAX = 80;\n    uint public bet_MAX = 10 ether;\n    uint public bet_MIN = 0.1 ether;\n\n    uint public gasForShuffle = 185000;\n    uint public serviceFee;\n\n    struct Info{\n        address playerAddress;\n        uint fees;\n        uint mainBetAmount;\n        uint sideBetAmount;\n        uint sideBetPercentage;\n        uint playerHand;\n        uint houseHand;\n    }\n\n    mapping (bytes32 => Info) public hand_info;\n\n    mapping (address => bool) public hasHandInProgress;\n\n    struct FirstHand{\n        bool isTied;\n        uint fees;\n        uint mainBetAmount;\n    }\n\n    mapping (address => FirstHand) public firstHandInfo;\n    mapping (address => uint) public refundPool;\n\n    function War() public{\n\n    }\n\n    function() public payable { }\n\n    function setOraclizeGas(uint32 gasAmount) public onlyOwner{\n      gasForShuffle = gasAmount;\n    }\n\n    function houseBankRoll() view public returns(uint){\n        return address(this).balance;\n    }\n\n    function withdrawFunds() public onlyOwner{\n      msg.sender.transfer(address(this).balance);\n    }\n\n    function withdrawTokens() public onlyOwner{\n      uint amount = Token.balanceOf(address(this));\n      Token.transfer(msg.sender, amount);\n    }\n\n    function playWar(uint sideBetPercent) public whenNotPaused TokenCheck payable {\n\n      require(sideBetPercent >= 0 && sideBetPercent <= sideBetPercent_MAX);\n\n      require(hasHandInProgress[msg.sender]==false);\n\n      require(msg.value <= bet_MAX && msg.value >= bet_MIN);\n\n      uint betAmount = msg.value;\n    //   uint sideBetAmount = div(mul(betAmount,sideBetPercent),100);\n      uint sideBetAmount = betAmount.mul(sideBetPercent).div(100);\n    //   uint mainBetAmount = sub(betAmount,sideBetAmount);\n      uint mainBetAmount = betAmount.sub(sideBetAmount);\n\n      DEBUG_betSplit(mainBetAmount, sideBetAmount, sideBetPercent);\n      //section\n\n      //Initiate oraclize call\n      bytes32 orcID = oraclize_query(\"WolframAlpha\", \"RandomSample[Range[416],2]\",gasForShuffle);\n      currentOrcID(orcID);\n\n      uint orcFees = oraclize_getPrice(\"WolframAlpha\", gasForShuffle);\n\n      //check if previous hand was a tie and player chose to go to WAR ***\n      if(firstHandInfo[msg.sender].isTied){\n        assert(msg.value == firstHandInfo[msg.sender].mainBetAmount);\n        assert(sideBetAmount == 0);\n      }\n      else{\n        FirstHand memory thisHand = FirstHand({\n          isTied : false,\n          fees: orcFees,\n          mainBetAmount : mainBetAmount\n        });\n\n        firstHandInfo[msg.sender] = thisHand;\n      }\n\n      Info memory info = Info({\n          playerAddress : msg.sender,\n          mainBetAmount : mainBetAmount,\n          sideBetAmount : sideBetAmount,\n          fees: orcFees,\n          sideBetPercentage : sideBetPercent,\n          playerHand : 0,\n          houseHand : 0\n      });\n\n      hand_info[orcID] = info;\n      refundPool[msg.sender] = msg.value.sub(orcFees);\n      hasHandInProgress[msg.sender] = true;\n    }\n\n\n    function parseResult(bytes32 orcID, string result, address playerAddr) private returns(uint, uint){\n        //parse wolfram shuffle\n        strings.slice memory partition = result.toSlice();\n        partition.beyond(\"{\".toSlice()).until(\"}\".toSlice());\n        strings.slice memory delim = \",\".toSlice();\n\n        uint houseRaw = parseInt(partition.split(delim).toString());\n        uint playerRaw = parseInt(partition.split(delim).toString());\n\n        if(TEST_MODE){\n          houseRaw = TEST_HOUSE;\n          playerRaw = TEST_PLAYER;\n        }\n\n        hand_info[orcID].houseHand = getCardValue(houseRaw);\n        hand_info[orcID].playerHand = getCardValue(playerRaw);\n\n        uint houseHand = hand_info[orcID].houseHand;\n        uint playerHand = hand_info[orcID].playerHand;\n\n        //Event for front-end to alert hand finished\n        dealtCards(playerAddr, orcID, houseHand, playerHand, houseRaw, playerRaw);\n\n        return(playerHand, houseHand);\n    }\n\n    function refund() whenNotPaused public returns(uint){\n      address _addr = msg.sender;\n      uint amount = refundPool[_addr];\n      require(hasHandInProgress[_addr]==true);\n      require(amount>0);\n      require(amount<=bet_MAX); //what if total bet with winning amount TODO: create debt tracking dictionary\n\n      if(_addr.send(amount)){\n        betPayout(_addr, amount);\n        hasHandInProgress[_addr]=false; //**IMPORTANT CHECK THIS LOGIC**\n        delete refundPool[_addr];\n        return amount;\n      }\n      else{\n        DEBUG_str(\"FATAL: refund failed\"); //if pay failed on win?????????????????????????\n        return 0;\n      }\n    }\n\n    function __callback(bytes32 orcID, string result) public{\n        //security checks\n        require(msg.sender == oraclize_cbAddress());\n        require(hand_info[orcID].playerAddress!=0x0);\n        //**NEED TO CHECK INPUT FORMAT FOR REFUND\n\n        address playerAddr = hand_info[orcID].playerAddress;\n        require(hasHandInProgress[playerAddr]==true);\n\n        hasHandInProgress[playerAddr] = false;\n        delete refundPool[playerAddr];\n\n        uint playerHand;\n        uint houseHand;\n\n        (playerHand, houseHand) =  parseResult(orcID, result, playerAddr);\n\n        uint fees;\n\n        if(playerHand == houseHand){\n            DEBUG_str(\"Tied!\");\n\n            uint betAmount = firstHandInfo[playerAddr].mainBetAmount;\n            fees = firstHandInfo[playerAddr].fees;\n\n            if(firstHandInfo[playerAddr].isTied){\n                DEBUG_str(\"Second Tie - 3x payout!\");\n\n                if(pay(playerAddr, betAmount,fees) &&\n                //payToken(playerAddr, mul(getTokenWinValue(betAmount),3))){\n                payToken(playerAddr, getTokenWinValue(betAmount).mul(3))){\n                    delete firstHandInfo[playerAddr];\n                }\n            }\n            else{\n                DEBUG_str(\"First Tie - pending action\");\n                firstHandInfo[playerAddr].isTied = true;\n\n                Info memory hand = hand_info[orcID];\n\n                if(hand.sideBetAmount > 0){\n                    sideBetPay(orcID);\n                    sideBetPayToken(orcID);\n                }\n                else{\n                    payToken(playerAddr, getTokenLossValue(betAmount));\n                }\n            }\n            //\n        }\n\n\n        uint winAmount = hand_info[orcID].mainBetAmount;\n        fees = hand_info[orcID].fees;\n\n        //Pay winner\n        if(playerHand > houseHand){\n          uint winTokenAmount = getTokenWinValue(winAmount);\n\n          if(pay(playerAddr,winAmount,fees) && payToken(playerAddr,winTokenAmount)){\n              delete firstHandInfo[playerAddr];\n              delete hand_info[orcID];\n          }\n        }\n        else if(playerHand < houseHand){\n            uint lossTokenAmount = getTokenLossValue(winAmount);\n\n            if(payToken(playerAddr,lossTokenAmount)){\n                delete firstHandInfo[playerAddr];\n                delete hand_info[orcID];\n            }\n        }\n    }\n\n    function playerSurrender() public whenNotPaused payable {\n\n      if(firstHandInfo[msg.sender].isTied){\n          DEBUG_str(\"player surrendering\");\n\n        //   uint returnAmount = div(firstHandInfo[msg.sender].mainBetAmount,2);\n          uint returnAmount = (firstHandInfo[msg.sender].mainBetAmount).div(2);\n          uint fees = firstHandInfo[msg.sender].fees;\n\n          if(pay(msg.sender,returnAmount,fees)){\n            delete firstHandInfo[msg.sender];\n            // delete hand_info[orcID];\n          }\n      }\n      else{\n        DEBUG_str(\"nothing to surrender\"); //change this function to return false\n      }\n\n    }\n\n    function pay(address _addr, uint amount, uint fees) private returns(bool){\n        amount = amount.sub(fees);\n        if(_addr.send(amount)){ //PAY IN ether\n          betPayout(_addr, amount);\n          return true;\n        }\n        else{\n          //Put in refund?\n          DEBUG_str(\"FATAL: pay failed\");\n          return false;\n        }\n    }\n\n    function payToken(address _addr, uint amount) private returns(bool){\n\n        if(Token.transfer(_addr,amount * 10 ** tokenDecimalPlaces)){ //PAY IN token\n          betPayoutToken(_addr, amount); //actuall number\n          return true;\n        }\n        else{\n          DEBUG_str(\"FATAL: pay in token failed\");\n          return false;\n        }\n    }\n\n    function sideBetPay(bytes32 orcID) private{\n\n        Info memory hand = hand_info[orcID];\n\n        if(hand.sideBetAmount > 0){\n          DEBUG_str(\"Side bet won! paying player 1x ETH\");\n          //pay side bet once and for all + remove sidebet history\n          pay(hand.playerAddress,hand.sideBetAmount,hand.fees);\n        }\n    }\n\n    function sideBetPayToken(bytes32 orcID) private{\n\n        Info memory hand = hand_info[orcID];\n\n        if(hand.sideBetAmount > 0){\n          DEBUG_str(\"Side bet won! paying player 10x TOKEN\");\n          //pay side bet once and for all + remove sidebet history\n          uint sideBetWin = getTokenWinValue(hand.sideBetAmount).mul(10);\n          payToken(hand.playerAddress,sideBetWin);\n        }\n    }\n\n    function getCardValue(uint card) private returns(uint){\n      if (card > 416 || card < 1) {\n        return 0;\n      }\n\n      card = card % 52;\n\n      if (card == 0) {\n        return 13;\n      } else if (card <= 4) {\n        return 14;\n      } else if (card % 4 > 0) {\n        card = card.div(4).add(1);\n      } else {\n        card = card.div(4);\n      }\n\n      return card == 1 ? 14 : card;\n    }\n}\n",
  "sourcePath": "/Users/kuaiyu/Documents/Projects/Ethereum/temp/EthinoWar/contracts/War.sol",
  "compiler": {
    "name": "solc",
    "version": "0.4.21+commit.dfe3193c.Emscripten.clang"
  },
  "schemaVersion": "2.0.0",
  "updatedAt": "2018-06-22T07:56:32.254Z"
}