{
  "contractName": "War",
  "abi": [
    {
      "constant": true,
      "inputs": [
        {
          "name": "",
          "type": "address"
        }
      ],
      "name": "firstHandInfo",
      "outputs": [
        {
          "name": "isTied",
          "type": "bool"
        },
        {
          "name": "fees",
          "type": "uint256"
        },
        {
          "name": "mainBetAmount",
          "type": "uint256"
        }
      ],
      "payable": false,
      "stateMutability": "view",
      "type": "function"
    },
    {
      "constant": true,
      "inputs": [],
      "name": "tokenDecimalPlaces",
      "outputs": [
        {
          "name": "",
          "type": "uint256"
        }
      ],
      "payable": false,
      "stateMutability": "view",
      "type": "function"
    },
    {
      "constant": true,
      "inputs": [
        {
          "name": "",
          "type": "address"
        }
      ],
      "name": "hasGameInProgress",
      "outputs": [
        {
          "name": "",
          "type": "bool"
        }
      ],
      "payable": false,
      "stateMutability": "view",
      "type": "function"
    },
    {
      "constant": false,
      "inputs": [],
      "name": "unpause",
      "outputs": [
        {
          "name": "",
          "type": "bool"
        }
      ],
      "payable": false,
      "stateMutability": "nonpayable",
      "type": "function"
    },
    {
      "constant": true,
      "inputs": [],
      "name": "manager",
      "outputs": [
        {
          "name": "",
          "type": "address"
        }
      ],
      "payable": false,
      "stateMutability": "view",
      "type": "function"
    },
    {
      "constant": true,
      "inputs": [],
      "name": "gasForShuffle",
      "outputs": [
        {
          "name": "",
          "type": "uint32"
        }
      ],
      "payable": false,
      "stateMutability": "view",
      "type": "function"
    },
    {
      "constant": true,
      "inputs": [],
      "name": "paused",
      "outputs": [
        {
          "name": "",
          "type": "bool"
        }
      ],
      "payable": false,
      "stateMutability": "view",
      "type": "function"
    },
    {
      "constant": true,
      "inputs": [],
      "name": "registeredToken",
      "outputs": [
        {
          "name": "",
          "type": "bool"
        }
      ],
      "payable": false,
      "stateMutability": "view",
      "type": "function"
    },
    {
      "constant": true,
      "inputs": [],
      "name": "tokenWinRatio",
      "outputs": [
        {
          "name": "",
          "type": "uint256"
        }
      ],
      "payable": false,
      "stateMutability": "view",
      "type": "function"
    },
    {
      "constant": false,
      "inputs": [],
      "name": "pause",
      "outputs": [
        {
          "name": "",
          "type": "bool"
        }
      ],
      "payable": false,
      "stateMutability": "nonpayable",
      "type": "function"
    },
    {
      "constant": true,
      "inputs": [],
      "name": "serviceFee",
      "outputs": [
        {
          "name": "",
          "type": "uint256"
        }
      ],
      "payable": false,
      "stateMutability": "view",
      "type": "function"
    },
    {
      "constant": true,
      "inputs": [],
      "name": "owner",
      "outputs": [
        {
          "name": "",
          "type": "address"
        }
      ],
      "payable": false,
      "stateMutability": "view",
      "type": "function"
    },
    {
      "constant": true,
      "inputs": [],
      "name": "tokenLossRatio",
      "outputs": [
        {
          "name": "",
          "type": "uint256"
        }
      ],
      "payable": false,
      "stateMutability": "view",
      "type": "function"
    },
    {
      "constant": true,
      "inputs": [],
      "name": "sideBetPercent_MAX",
      "outputs": [
        {
          "name": "",
          "type": "uint256"
        }
      ],
      "payable": false,
      "stateMutability": "view",
      "type": "function"
    },
    {
      "constant": true,
      "inputs": [
        {
          "name": "",
          "type": "bytes32"
        }
      ],
      "name": "hand_info",
      "outputs": [
        {
          "name": "playerAddress",
          "type": "address"
        },
        {
          "name": "fees",
          "type": "uint256"
        },
        {
          "name": "mainBetAmount",
          "type": "uint256"
        },
        {
          "name": "sideBetAmount",
          "type": "uint256"
        },
        {
          "name": "sideBetPercentage",
          "type": "uint256"
        },
        {
          "name": "isNewGame",
          "type": "bool"
        },
        {
          "name": "playerHand",
          "type": "uint256"
        },
        {
          "name": "houseHand",
          "type": "uint256"
        }
      ],
      "payable": false,
      "stateMutability": "view",
      "type": "function"
    },
    {
      "constant": true,
      "inputs": [],
      "name": "bet_MAX",
      "outputs": [
        {
          "name": "",
          "type": "uint256"
        }
      ],
      "payable": false,
      "stateMutability": "view",
      "type": "function"
    },
    {
      "constant": false,
      "inputs": [
        {
          "name": "newOwner",
          "type": "address"
        }
      ],
      "name": "transferOwnership",
      "outputs": [],
      "payable": false,
      "stateMutability": "nonpayable",
      "type": "function"
    },
    {
      "inputs": [],
      "payable": true,
      "stateMutability": "payable",
      "type": "constructor"
    },
    {
      "anonymous": false,
      "inputs": [
        {
          "indexed": true,
          "name": "playerAddr",
          "type": "address"
        },
        {
          "indexed": false,
          "name": "amount",
          "type": "uint256"
        }
      ],
      "name": "betPayout",
      "type": "event"
    },
    {
      "anonymous": false,
      "inputs": [
        {
          "indexed": true,
          "name": "player",
          "type": "address"
        },
        {
          "indexed": false,
          "name": "orcID",
          "type": "bytes32"
        },
        {
          "indexed": false,
          "name": "dealerHand",
          "type": "uint256"
        },
        {
          "indexed": false,
          "name": "playerHand",
          "type": "uint256"
        },
        {
          "indexed": false,
          "name": "dealerSuit",
          "type": "uint256"
        },
        {
          "indexed": false,
          "name": "playerSuit",
          "type": "uint256"
        }
      ],
      "name": "dealtCards",
      "type": "event"
    },
    {
      "anonymous": false,
      "inputs": [
        {
          "indexed": false,
          "name": "orcID",
          "type": "bytes32"
        }
      ],
      "name": "currentOrcID",
      "type": "event"
    },
    {
      "anonymous": false,
      "inputs": [
        {
          "indexed": false,
          "name": "mainBet",
          "type": "uint256"
        },
        {
          "indexed": false,
          "name": "sideBet",
          "type": "uint256"
        },
        {
          "indexed": false,
          "name": "percent",
          "type": "uint256"
        }
      ],
      "name": "DEBUG_betSplit",
      "type": "event"
    },
    {
      "anonymous": false,
      "inputs": [
        {
          "indexed": false,
          "name": "msg",
          "type": "string"
        }
      ],
      "name": "DEBUG_str",
      "type": "event"
    },
    {
      "anonymous": false,
      "inputs": [
        {
          "indexed": false,
          "name": "addr",
          "type": "address"
        }
      ],
      "name": "DEBUG_addr",
      "type": "event"
    },
    {
      "anonymous": false,
      "inputs": [
        {
          "indexed": false,
          "name": "thing",
          "type": "bytes32"
        }
      ],
      "name": "DEBUG_byte",
      "type": "event"
    },
    {
      "anonymous": false,
      "inputs": [
        {
          "indexed": false,
          "name": "thing",
          "type": "uint256"
        }
      ],
      "name": "DEBUG_uint",
      "type": "event"
    },
    {
      "anonymous": false,
      "inputs": [],
      "name": "Pause",
      "type": "event"
    },
    {
      "anonymous": false,
      "inputs": [],
      "name": "Unpause",
      "type": "event"
    },
    {
      "constant": false,
      "inputs": [
        {
          "name": "gasAmount",
          "type": "uint32"
        }
      ],
      "name": "setOraclizeGas",
      "outputs": [],
      "payable": false,
      "stateMutability": "nonpayable",
      "type": "function"
    },
    {
      "constant": false,
      "inputs": [
        {
          "name": "_tokenAddress",
          "type": "address"
        },
        {
          "name": "decimalPlaces",
          "type": "uint256"
        }
      ],
      "name": "RegisterToken",
      "outputs": [],
      "payable": false,
      "stateMutability": "nonpayable",
      "type": "function"
    },
    {
      "constant": true,
      "inputs": [
        {
          "name": "who",
          "type": "address"
        }
      ],
      "name": "RemainingTokens",
      "outputs": [
        {
          "name": "",
          "type": "uint256"
        }
      ],
      "payable": false,
      "stateMutability": "view",
      "type": "function"
    },
    {
      "constant": false,
      "inputs": [],
      "name": "FundHouse",
      "outputs": [],
      "payable": true,
      "stateMutability": "payable",
      "type": "function"
    },
    {
      "constant": false,
      "inputs": [],
      "name": "WithdrawFunds",
      "outputs": [],
      "payable": false,
      "stateMutability": "nonpayable",
      "type": "function"
    },
    {
      "constant": false,
      "inputs": [
        {
          "name": "sideBetPercent",
          "type": "uint256"
        }
      ],
      "name": "playWar",
      "outputs": [],
      "payable": true,
      "stateMutability": "payable",
      "type": "function"
    },
    {
      "constant": false,
      "inputs": [
        {
          "name": "betInWei",
          "type": "uint256"
        }
      ],
      "name": "getTokenWinValue",
      "outputs": [
        {
          "name": "",
          "type": "uint256"
        }
      ],
      "payable": false,
      "stateMutability": "nonpayable",
      "type": "function"
    },
    {
      "constant": false,
      "inputs": [
        {
          "name": "betInWei",
          "type": "uint256"
        }
      ],
      "name": "getTokenLossValue",
      "outputs": [
        {
          "name": "",
          "type": "uint256"
        }
      ],
      "payable": false,
      "stateMutability": "nonpayable",
      "type": "function"
    },
    {
      "constant": false,
      "inputs": [
        {
          "name": "winAmount",
          "type": "uint256"
        },
        {
          "name": "lossAmount",
          "type": "uint256"
        }
      ],
      "name": "setWinLossAmount",
      "outputs": [],
      "payable": false,
      "stateMutability": "nonpayable",
      "type": "function"
    },
    {
      "constant": true,
      "inputs": [],
      "name": "getWinTokenAmount",
      "outputs": [
        {
          "name": "",
          "type": "uint256"
        }
      ],
      "payable": false,
      "stateMutability": "view",
      "type": "function"
    },
    {
      "constant": true,
      "inputs": [],
      "name": "getLossTokenAmount",
      "outputs": [
        {
          "name": "",
          "type": "uint256"
        }
      ],
      "payable": false,
      "stateMutability": "view",
      "type": "function"
    },
    {
      "constant": false,
      "inputs": [
        {
          "name": "orcID",
          "type": "bytes32"
        },
        {
          "name": "result",
          "type": "string"
        },
        {
          "name": "playerAddr",
          "type": "address"
        }
      ],
      "name": "parseResult",
      "outputs": [
        {
          "name": "",
          "type": "uint256"
        },
        {
          "name": "",
          "type": "uint256"
        }
      ],
      "payable": false,
      "stateMutability": "nonpayable",
      "type": "function"
    },
    {
      "constant": false,
      "inputs": [
        {
          "name": "myid",
          "type": "bytes32"
        },
        {
          "name": "result",
          "type": "string"
        },
        {
          "name": "proof",
          "type": "bytes"
        }
      ],
      "name": "__callback",
      "outputs": [],
      "payable": false,
      "stateMutability": "nonpayable",
      "type": "function"
    },
    {
      "constant": false,
      "inputs": [
        {
          "name": "orcID",
          "type": "bytes32"
        },
        {
          "name": "result",
          "type": "string"
        }
      ],
      "name": "__callback",
      "outputs": [],
      "payable": false,
      "stateMutability": "nonpayable",
      "type": "function"
    },
    {
      "constant": false,
      "inputs": [],
      "name": "playerSurrender",
      "outputs": [],
      "payable": true,
      "stateMutability": "payable",
      "type": "function"
    },
    {
      "constant": false,
      "inputs": [
        {
          "name": "card",
          "type": "uint256"
        }
      ],
      "name": "getCardValue",
      "outputs": [
        {
          "name": "",
          "type": "uint256"
        }
      ],
      "payable": false,
      "stateMutability": "nonpayable",
      "type": "function"
    },
    {
      "constant": true,
      "inputs": [],
      "name": "houseBankRoll",
      "outputs": [
        {
          "name": "",
          "type": "uint256"
        }
      ],
      "payable": false,
      "stateMutability": "view",
      "type": "function"
    }
  ],
  "bytecode": "0x60606040526000600560146101000a81548160ff0219169083151502179055506050600955670de0b6b3a7640000600a556000600b60006101000a81548160ff0219169083151502179055506002600c556601f9465b8ab8e3600d556611c37937e08000600e5533600560006101000a81548173ffffffffffffffffffffffffffffffffffffffff021916908373ffffffffffffffffffffffffffffffffffffffff16021790555033600660006101000a81548173ffffffffffffffffffffffffffffffffffffffff021916908373ffffffffffffffffffffffffffffffffffffffff16021790555033600760006101000a81548173ffffffffffffffffffffffffffffffffffffffff021916908373ffffffffffffffffffffffffffffffffffffffff1602179055506202bf20600f60006101000a81548163ffffffff021916908363ffffffff1602179055506144118061015c6000396000f3006060604052600436106101ab576000357c0100000000000000000000000000000000000000000000000000000000900463ffffffff168062ecd311146101b05780631792cc611461020f5780631d59c6bb1461023857806327dc297e14610289578063282651fe146102f35780632e78f9a71461031c578063339ac1741461035357806338bbfa501461035d5780633f4ba83a1461040a578063468a041314610437578063481c6a75146104db5780634c0aac9a1461053057806358aaf48a146105455780635b5e760c1461057a5780635c975abb146105b157806362eb6da1146105de57806365e807ab1461060b578063778317c4146106425780637ea5d50e1461066e5780638456cb591461069757806389ed0b30146106c45780638abdf5aa146106ed5780638da5cb5b14610716578063963d62fb1461076b578063aa3dacac14610794578063b45cff5f146107bd578063bb42e8e5146107e6578063c6e2a07114610828578063d02cc69f146108c4578063e3206975146108dc578063e5c1d3ce14610905578063f2fde38b1461090f578063f69a65b314610948578063f91a545b14610995575b600080fd5b34156101bb57600080fd5b6101e7600480803573ffffffffffffffffffffffffffffffffffffffff169060200190919050506109be565b6040518084151515158152602001838152602001828152602001935050505060405180910390f35b341561021a57600080fd5b6102226109f5565b6040518082815260200191505060405180910390f35b341561024357600080fd5b61026f600480803573ffffffffffffffffffffffffffffffffffffffff169060200190919050506109fb565b604051808215151515815260200191505060405180910390f35b341561029457600080fd5b6102f160048080356000191690602001909190803590602001908201803590602001908080601f01602080910402602001604051908101604052809392919081815260200183838082843782019150505050505091905050610a1b565b005b34156102fe57600080fd5b6103066111db565b6040518082815260200191505060405180910390f35b341561032757600080fd5b61033d60048080359060200190919050506111f8565b6040518082815260200191505060405180910390f35b61035b6112b0565b005b341561036857600080fd5b61040860048080356000191690602001909190803590602001908201803590602001908080601f0160208091040260200160405190810160405280939291908181526020018383808284378201915050505050509190803590602001908201803590602001908080601f01602080910402602001604051908101604052809392919081815260200183838082843782019150505050505091905050611507565b005b341561041557600080fd5b61041d61150c565b604051808215151515815260200191505060405180910390f35b341561044257600080fd5b6104be60048080356000191690602001909190803590602001908201803590602001908080601f0160208091040260200160405190810160405280939291908181526020018383808284378201915050505050509190803573ffffffffffffffffffffffffffffffffffffffff169060200190919050506115d3565b604051808381526020018281526020019250505060405180910390f35b34156104e657600080fd5b6104ee61193b565b604051808273ffffffffffffffffffffffffffffffffffffffff1673ffffffffffffffffffffffffffffffffffffffff16815260200191505060405180910390f35b341561053b57600080fd5b610543611961565b005b341561055057600080fd5b610558611a0c565b604051808263ffffffff1663ffffffff16815260200191505060405180910390f35b341561058557600080fd5b61059b6004808035906020019091905050611a22565b6040518082815260200191505060405180910390f35b34156105bc57600080fd5b6105c4611a39565b604051808215151515815260200191505060405180910390f35b34156105e957600080fd5b6105f1611a4c565b604051808215151515815260200191505060405180910390f35b341561061657600080fd5b61062c6004808035906020019091905050611a5f565b6040518082815260200191505060405180910390f35b341561064d57600080fd5b61066c6004808035906020019091908035906020019091905050611a76565b005b341561067957600080fd5b610681611b0a565b6040518082815260200191505060405180910390f35b34156106a257600080fd5b6106aa611b10565b604051808215151515815260200191505060405180910390f35b34156106cf57600080fd5b6106eb600480803563ffffffff16906020019091905050611bd6565b005b34156106f857600080fd5b610700611c56565b6040518082815260200191505060405180910390f35b341561072157600080fd5b610729611c5c565b604051808273ffffffffffffffffffffffffffffffffffffffff1673ffffffffffffffffffffffffffffffffffffffff16815260200191505060405180910390f35b341561077657600080fd5b61077e611c82565b6040518082815260200191505060405180910390f35b341561079f57600080fd5b6107a7611c88565b6040518082815260200191505060405180910390f35b34156107c857600080fd5b6107d0611c8e565b6040518082815260200191505060405180910390f35b34156107f157600080fd5b610826600480803573ffffffffffffffffffffffffffffffffffffffff16906020019091908035906020019091905050611cad565b005b341561083357600080fd5b61084d600480803560001916906020019091905050611dd8565b604051808973ffffffffffffffffffffffffffffffffffffffff1673ffffffffffffffffffffffffffffffffffffffff168152602001888152602001878152602001868152602001858152602001841515151581526020018381526020018281526020019850505050505050505060405180910390f35b6108da6004808035906020019091905050611e4d565b005b34156108e757600080fd5b6108ef61235f565b6040518082815260200191505060405180910390f35b61090d612365565b005b341561091a57600080fd5b610946600480803573ffffffffffffffffffffffffffffffffffffffff16906020019091905050612367565b005b341561095357600080fd5b61097f600480803573ffffffffffffffffffffffffffffffffffffffff1690602001909190505061243e565b6040518082815260200191505060405180910390f35b34156109a057600080fd5b6109a861252a565b6040518082815260200191505060405180910390f35b60136020528060005260406000206000915090508060000160009054906101000a900460ff16908060010154908060020154905083565b600c5481565b60126020528060005260406000206000915054906101000a900460ff1681565b6000806000806000610a2b61427c565b6000806000610a38612547565b73ffffffffffffffffffffffffffffffffffffffff163373ffffffffffffffffffffffffffffffffffffffff16141515610a7157600080fd5b6000601160008d6000191660001916815260200190815260200160002060000160009054906101000a900473ffffffffffffffffffffffffffffffffffffffff1673ffffffffffffffffffffffffffffffffffffffff161415610ad357600080fd5b601160008c6000191660001916815260200190815260200160002060000160009054906101000a900473ffffffffffffffffffffffffffffffffffffffff169850610b1f8b8b8b6115d3565b9750975086881415610f4e577f6e4a8547a0f2d6541a77a459eff545d4777c23401787089993b1780e7ab979a06040518080602001828103825260058152602001807f546965642100000000000000000000000000000000000000000000000000000081525060200191505060405180910390a1601360008a73ffffffffffffffffffffffffffffffffffffffff1673ffffffffffffffffffffffffffffffffffffffff168152602001908152602001600020600201549450601360008a73ffffffffffffffffffffffffffffffffffffffff1673ffffffffffffffffffffffffffffffffffffffff168152602001908152602001600020600101549550601360008a73ffffffffffffffffffffffffffffffffffffffff1673ffffffffffffffffffffffffffffffffffffffff16815260200190815260200160002060000160009054906101000a900460ff1615610d7a577f6e4a8547a0f2d6541a77a459eff545d4777c23401787089993b1780e7ab979a06040518080602001828103825260178152602001807f5365636f6e6420546965202d203378207061796f75742100000000000000000081525060200191505060405180910390a1610ce5898688612836565b8015610d095750610d0889610d03610cfc88611a22565b600361293d565b612970565b5b15610d7557601360008a73ffffffffffffffffffffffffffffffffffffffff1673ffffffffffffffffffffffffffffffffffffffff168152602001908152602001600020600080820160006101000a81549060ff02191690556001820160009055600282016000905550505b610f4d565b7f6e4a8547a0f2d6541a77a459eff545d4777c23401787089993b1780e7ab979a060405180806020018281038252601a8152602001807f466972737420546965202d2070656e64696e6720616374696f6e00000000000081525060200191505060405180910390a16001601360008b73ffffffffffffffffffffffffffffffffffffffff1673ffffffffffffffffffffffffffffffffffffffff16815260200190815260200160002060000160006101000a81548160ff021916908315150217905550601160008c6000191660001916815260200190815260200160002061010060405190810160405290816000820160009054906101000a900473ffffffffffffffffffffffffffffffffffffffff1673ffffffffffffffffffffffffffffffffffffffff1673ffffffffffffffffffffffffffffffffffffffff168152602001600182015481526020016002820154815260200160038201548152602001600482015481526020016005820160009054906101000a900460ff16151515158152602001600682015481526020016007820154815250509350600084606001511115610f3857610f2a8b612b23565b610f338b612cba565b610f4c565b610f4a89610f4587611a5f565b612970565b505b5b5b601160008c60001916600019168152602001908152602001600020600201549250601160008c60001916600019168152602001908152602001600020600101549550868811156110ba57610fa183611a22565b9150610fae898488612836565b8015610fc05750610fbf8983612970565b5b156110b557601360008a73ffffffffffffffffffffffffffffffffffffffff1673ffffffffffffffffffffffffffffffffffffffff168152602001908152602001600020600080820160006101000a81549060ff0219169055600182016000905560028201600090555050601160008c60001916600019168152602001908152602001600020600080820160006101000a81549073ffffffffffffffffffffffffffffffffffffffff021916905560018201600090556002820160009055600382016000905560048201600090556005820160006101000a81549060ff02191690556006820160009055600782016000905550505b6111ce565b868810156111cd576110cb83611a5f565b90506110d78982612970565b156111cc57601360008a73ffffffffffffffffffffffffffffffffffffffff1673ffffffffffffffffffffffffffffffffffffffff168152602001908152602001600020600080820160006101000a81549060ff0219169055600182016000905560028201600090555050601160008c60001916600019168152602001908152602001600020600080820160006101000a81549073ffffffffffffffffffffffffffffffffffffffff021916905560018201600090556002820160009055600382016000905560048201600090556005820160006101000a81549060ff02191690556006820160009055600782016000905550505b5b5b5050505050505050505050565b6000600d54670de0b6b3a76400008115156111f257fe5b04905090565b60006101a082118061120a5750600182105b1561121857600090506112ab565b60348211156112315760348281151561122d57fe5b0691505b600082141561124357600d90506112ab565b60048211151561125657600e90506112ab565b600060048381151561126457fe5b06111561128757611280611279836004612e64565b6001612ea5565b9150611295565b611292826004612e64565b91505b60018214156112a757600e90506112ab565b8190505b919050565b600080600560149054906101000a900460ff16156112cd57600080fd5b601360003373ffffffffffffffffffffffffffffffffffffffff1673ffffffffffffffffffffffffffffffffffffffff16815260200190815260200160002060000160009054906101000a900460ff161561149a577f6e4a8547a0f2d6541a77a459eff545d4777c23401787089993b1780e7ab979a06040518080602001828103825260138152602001807f706c617965722073757272656e646572696e670000000000000000000000000081525060200191505060405180910390a16113d7601360003373ffffffffffffffffffffffffffffffffffffffff1673ffffffffffffffffffffffffffffffffffffffff168152602001908152602001600020600201546002612e64565b9150601360003373ffffffffffffffffffffffffffffffffffffffff1673ffffffffffffffffffffffffffffffffffffffff168152602001908152602001600020600101549050611429338383612836565b1561149557601360003373ffffffffffffffffffffffffffffffffffffffff1673ffffffffffffffffffffffffffffffffffffffff168152602001908152602001600020600080820160006101000a81549060ff02191690556001820160009055600282016000905550505b611503565b7f6e4a8547a0f2d6541a77a459eff545d4777c23401787089993b1780e7ab979a06040518080602001828103825260148152602001807f6e6f7468696e6720746f2073757272656e64657200000000000000000000000081525060200191505060405180910390a15b5050565b505050565b6000600560009054906101000a900473ffffffffffffffffffffffffffffffffffffffff1673ffffffffffffffffffffffffffffffffffffffff163373ffffffffffffffffffffffffffffffffffffffff1614151561156a57600080fd5b600560149054906101000a900460ff16151561158557600080fd5b6000600560146101000a81548160ff0219169083151502179055507f7805862f689e2f13df9f062ff482ad3ad112aca9e0847911ed832e158c525b3360405160405180910390a16001905090565b6000806115de6142da565b6115e66142da565b6000806000806115f58a612ec3565b95506116966116386040805190810160405280600181526020017f7d00000000000000000000000000000000000000000000000000000000000000815250612ec3565b6116886116796040805190810160405280600181526020017f7b00000000000000000000000000000000000000000000000000000000000000815250612ec3565b89612ef190919063ffffffff16565b612f7b90919063ffffffff16565b506116d56040805190810160405280600181526020017f2c00000000000000000000000000000000000000000000000000000000000000815250612ec3565b94506116fa6116f56116f08789612ffc90919063ffffffff16565b613016565b613074565b935061171f61171a6117158789612ffc90919063ffffffff16565b613016565b613074565b92503073ffffffffffffffffffffffffffffffffffffffff16632e78f9a7856040518263ffffffff167c010000000000000000000000000000000000000000000000000000000002815260040180828152602001915050602060405180830381600087803b151561178f57600080fd5b5af1151561179c57600080fd5b50505060405180519050601160008d60001916600019168152602001908152602001600020600701819055503073ffffffffffffffffffffffffffffffffffffffff16632e78f9a7846040518263ffffffff167c010000000000000000000000000000000000000000000000000000000002815260040180828152602001915050602060405180830381600087803b151561183657600080fd5b5af1151561184357600080fd5b50505060405180519050601160008d6000191660001916815260200190815260200160002060060181905550601160008c60001916600019168152602001908152602001600020600701549150601160008c600019166000191681526020019081526020016000206006015490508873ffffffffffffffffffffffffffffffffffffffff167fa3afae828658e1e58da778b78eeab7f29d71765dbd93a09381b6bcad486866e58c848488886040518086600019166000191681526020018581526020018481526020018381526020018281526020019550505050505060405180910390a2808297509750505050505050935093915050565b600760009054906101000a900473ffffffffffffffffffffffffffffffffffffffff1681565b600560009054906101000a900473ffffffffffffffffffffffffffffffffffffffff1673ffffffffffffffffffffffffffffffffffffffff163373ffffffffffffffffffffffffffffffffffffffff161415156119bd57600080fd5b3373ffffffffffffffffffffffffffffffffffffffff166108fc3073ffffffffffffffffffffffffffffffffffffffff16319081150290604051600060405180830381858888f1935050505050565b600f60009054906101000a900463ffffffff1681565b6000600d5482811515611a3157fe5b049050919050565b600560149054906101000a900460ff1681565b600b60009054906101000a900460ff1681565b6000600e5482811515611a6e57fe5b049050919050565b600560009054906101000a900473ffffffffffffffffffffffffffffffffffffffff1673ffffffffffffffffffffffffffffffffffffffff163373ffffffffffffffffffffffffffffffffffffffff16141515611ad257600080fd5b81670de0b6b3a7640000811515611ae557fe5b04600d8190555080670de0b6b3a7640000811515611aff57fe5b04600e819055505050565b600d5481565b6000600560009054906101000a900473ffffffffffffffffffffffffffffffffffffffff1673ffffffffffffffffffffffffffffffffffffffff163373ffffffffffffffffffffffffffffffffffffffff16141515611b6e57600080fd5b600560149054906101000a900460ff1615611b8857600080fd5b6001600560146101000a81548160ff0219169083151502179055507f6985a02210a168e66602d3235cb6db0e70f92b3ba4d376a33c0f3d9434bff62560405160405180910390a16001905090565b600560009054906101000a900473ffffffffffffffffffffffffffffffffffffffff1673ffffffffffffffffffffffffffffffffffffffff163373ffffffffffffffffffffffffffffffffffffffff16141515611c3257600080fd5b80600f60006101000a81548163ffffffff021916908363ffffffff16021790555050565b60105481565b600660009054906101000a900473ffffffffffffffffffffffffffffffffffffffff1681565b600e5481565b60095481565b60003073ffffffffffffffffffffffffffffffffffffffff1631905090565b600560009054906101000a900473ffffffffffffffffffffffffffffffffffffffff1673ffffffffffffffffffffffffffffffffffffffff163373ffffffffffffffffffffffffffffffffffffffff16141515611d0957600080fd5b81600860006101000a81548173ffffffffffffffffffffffffffffffffffffffff021916908373ffffffffffffffffffffffffffffffffffffffff1602179055507f6e4a8547a0f2d6541a77a459eff545d4777c23401787089993b1780e7ab979a06040518080602001828103825260108152602001807f544f4b454e20524547495354455245440000000000000000000000000000000081525060200191505060405180910390a16001600b60006101000a81548160ff02191690831515021790555080600c819055505050565b60116020528060005260406000206000915090508060000160009054906101000a900473ffffffffffffffffffffffffffffffffffffffff16908060010154908060020154908060030154908060040154908060050160009054906101000a900460ff16908060060154908060070154905088565b600080600080600080611e5e6142f4565b611e6661427c565b600560149054906101000a900460ff1615611e8057600080fd5b60011515600b60009054906101000a900460ff161515141515611ea257600080fd5b60008910158015611eb557506009548911155b1515611ec057600080fd5b600a543411151515611ed157600080fd5b349750611ee8611ee1898b61293d565b6064612e64565b9650611ef48888613088565b95507fb82d4524d34e03b0c1b0d83049ea84e18809aab1d6b3274cbb96d1617e45c3fd86888b60405180848152602001838152602001828152602001935050505060405180910390a160019450611fce6040805190810160405280600c81526020017f576f6c6672616d416c70686100000000000000000000000000000000000000008152506040805190810160405280601a81526020017f52616e646f6d53616d706c655b52616e67655b3431365d2c325d000000000000815250600f60009054906101000a900463ffffffff1663ffffffff166130a1565b93507f8415f67b82459151888994d7f123752ba9004f85aa373a5d717ae79a063c3faf8460405180826000191660001916815260200191505060405180910390a16120666040805190810160405280600c81526020017f576f6c6672616d416c7068610000000000000000000000000000000000000000815250600f60009054906101000a900463ffffffff1663ffffffff166135bd565b92507f82bcc51ff5ab20f2066b1b697b902d2ee2549348c8f58f85b996a7fcce09b613836040518082815260200191505060405180910390a1601360003373ffffffffffffffffffffffffffffffffffffffff1673ffffffffffffffffffffffffffffffffffffffff16815260200190815260200160002060000160009054906101000a900460ff161561214a5760009450601360003373ffffffffffffffffffffffffffffffffffffffff1673ffffffffffffffffffffffffffffffffffffffff168152602001908152602001600020600201543414151561214557fe5b6121e3565b60606040519081016040528060001515815260200184815260200187815250915081601360003373ffffffffffffffffffffffffffffffffffffffff1673ffffffffffffffffffffffffffffffffffffffff16815260200190815260200160002060008201518160000160006101000a81548160ff02191690831515021790555060208201518160010155604082015181600201559050505b610100604051908101604052803373ffffffffffffffffffffffffffffffffffffffff1681526020018481526020018781526020018881526020018a8152602001861515815260200160008152602001600081525090508060116000866000191660001916815260200190815260200160002060008201518160000160006101000a81548173ffffffffffffffffffffffffffffffffffffffff021916908373ffffffffffffffffffffffffffffffffffffffff1602179055506020820151816001015560408201518160020155606082015181600301556080820151816004015560a08201518160050160006101000a81548160ff02191690831515021790555060c0820151816006015560e082015181600701559050506001601260003373ffffffffffffffffffffffffffffffffffffffff1673ffffffffffffffffffffffffffffffffffffffff16815260200190815260200160002060006101000a81548160ff021916908315150217905550505050505050505050565b600a5481565b565b600560009054906101000a900473ffffffffffffffffffffffffffffffffffffffff1673ffffffffffffffffffffffffffffffffffffffff163373ffffffffffffffffffffffffffffffffffffffff161415156123c357600080fd5b600073ffffffffffffffffffffffffffffffffffffffff168173ffffffffffffffffffffffffffffffffffffffff1614151561243b5780600560006101000a81548173ffffffffffffffffffffffffffffffffffffffff021916908373ffffffffffffffffffffffffffffffffffffffff1602179055505b50565b6000600c54600a0a600860009054906101000a900473ffffffffffffffffffffffffffffffffffffffff1673ffffffffffffffffffffffffffffffffffffffff166370a08231846040518263ffffffff167c0100000000000000000000000000000000000000000000000000000000028152600401808273ffffffffffffffffffffffffffffffffffffffff1673ffffffffffffffffffffffffffffffffffffffff168152602001915050602060405180830381600087803b151561250257600080fd5b5af1151561250f57600080fd5b5050506040518051905081151561252257fe5b049050919050565b6000600e54670de0b6b3a764000081151561254157fe5b04905090565b6000806000809054906101000a900473ffffffffffffffffffffffffffffffffffffffff1673ffffffffffffffffffffffffffffffffffffffff1614806125b7575060006125b56000809054906101000a900473ffffffffffffffffffffffffffffffffffffffff16613927565b145b156125c8576125c66000613932565b505b6000809054906101000a900473ffffffffffffffffffffffffffffffffffffffff1673ffffffffffffffffffffffffffffffffffffffff166338cc48316040518163ffffffff167c0100000000000000000000000000000000000000000000000000000000028152600401602060405180830381600087803b151561264c57600080fd5b5af1151561265957600080fd5b5050506040518051905073ffffffffffffffffffffffffffffffffffffffff16600160009054906101000a900473ffffffffffffffffffffffffffffffffffffffff1673ffffffffffffffffffffffffffffffffffffffff16141515612795576000809054906101000a900473ffffffffffffffffffffffffffffffffffffffff1673ffffffffffffffffffffffffffffffffffffffff166338cc48316040518163ffffffff167c0100000000000000000000000000000000000000000000000000000000028152600401602060405180830381600087803b151561273d57600080fd5b5af1151561274a57600080fd5b50505060405180519050600160006101000a81548173ffffffffffffffffffffffffffffffffffffffff021916908373ffffffffffffffffffffffffffffffffffffffff1602179055505b600160009054906101000a900473ffffffffffffffffffffffffffffffffffffffff1673ffffffffffffffffffffffffffffffffffffffff1663c281d19e6040518163ffffffff167c0100000000000000000000000000000000000000000000000000000000028152600401602060405180830381600087803b151561281a57600080fd5b5af1151561282757600080fd5b50505060405180519050905090565b60008373ffffffffffffffffffffffffffffffffffffffff166108fc849081150290604051600060405180830381858888f19350505050156128c9578373ffffffffffffffffffffffffffffffffffffffff167f325741c2c5ea17ea8829fb19547120786d784369cacb62dce5bad13aed3df6e5846040518082815260200191505060405180910390a260019050612936565b7f6e4a8547a0f2d6541a77a459eff545d4777c23401787089993b1780e7ab979a06040518080602001828103825260118152602001807f464154414c3a20706179206661696c656400000000000000000000000000000081525060200191505060405180910390a1600090505b9392505050565b6000808284029050600084148061295e575082848281151561295b57fe5b04145b151561296657fe5b8091505092915050565b6000600860009054906101000a900473ffffffffffffffffffffffffffffffffffffffff1673ffffffffffffffffffffffffffffffffffffffff1663a9059cbb84600c54600a0a85026040518363ffffffff167c0100000000000000000000000000000000000000000000000000000000028152600401808373ffffffffffffffffffffffffffffffffffffffff1673ffffffffffffffffffffffffffffffffffffffff16815260200182815260200192505050602060405180830381600087803b1515612a3d57600080fd5b5af11515612a4a57600080fd5b5050506040518051905015612ab0578273ffffffffffffffffffffffffffffffffffffffff167f325741c2c5ea17ea8829fb19547120786d784369cacb62dce5bad13aed3df6e5836040518082815260200191505060405180910390a260019050612b1d565b7f6e4a8547a0f2d6541a77a459eff545d4777c23401787089993b1780e7ab979a060405180806020018281038252601a8152602001807f464154414c3a2070617920696e20746f6b656e206661696c656400000000000081525060200191505060405180910390a1600090505b92915050565b612b2b61427c565b60116000836000191660001916815260200190815260200160002061010060405190810160405290816000820160009054906101000a900473ffffffffffffffffffffffffffffffffffffffff1673ffffffffffffffffffffffffffffffffffffffff1673ffffffffffffffffffffffffffffffffffffffff168152602001600182015481526020016002820154815260200160038201548152602001600482015481526020016005820160009054906101000a900460ff16151515158152602001600682015481526020016007820154815250509050600081606001511115612cb6577f6e4a8547a0f2d6541a77a459eff545d4777c23401787089993b1780e7ab979a06040518080602001828103825260228152602001807f536964652062657420776f6e2120706179696e6720706c61796572203178204581526020017f544800000000000000000000000000000000000000000000000000000000000081525060400191505060405180910390a1612cb4816000015182606001518360200151612836565b505b5050565b612cc261427c565b600060116000846000191660001916815260200190815260200160002061010060405190810160405290816000820160009054906101000a900473ffffffffffffffffffffffffffffffffffffffff1673ffffffffffffffffffffffffffffffffffffffff1673ffffffffffffffffffffffffffffffffffffffff168152602001600182015481526020016002820154815260200160038201548152602001600482015481526020016005820160009054906101000a900460ff16151515158152602001600682015481526020016007820154815250509150600082606001511115612e5f577f6e4a8547a0f2d6541a77a459eff545d4777c23401787089993b1780e7ab979a06040518080602001828103825260258152602001807f536964652062657420776f6e2120706179696e6720706c61796572203130782081526020017f544f4b454e00000000000000000000000000000000000000000000000000000081525060400191505060405180910390a1612e4d612e468360600151611a22565b600a61293d565b9050612e5d826000015182612970565b505b505050565b600080600083111515612e7357fe5b8284811515612e7e57fe5b0490508284811515612e8c57fe5b068184020184141515612e9b57fe5b8091505092915050565b6000808284019050838110151515612eb957fe5b8091505092915050565b612ecb6142da565b600060208301905060408051908101604052808451815260200182815250915050919050565b612ef96142da565b6000826000015184600001511015612f1357839150612f74565b6001905082602001518460200151141515612f41578251602085015160208501518281208383201493505050505b8015612f7057826000015184600001818151039150818152505082600001518460200181815101915081815250505b8391505b5092915050565b612f836142da565b600080836000015185600001511015612f9e57849250612ff4565b8360000151856000015186602001510103915060019050836020015182141515612fd5578351602085015181812082852014925050505b8015612ff05783600001518560000181815103915081815250505b8492505b505092915050565b6130046142da565b61300f838383613dc3565b5092915050565b61301e614318565b613026614318565b6000836000015160405180591061303a5750595b9080825280601f01601f1916602001820160405250915060208201905061306a8185602001518660000151613e61565b8192505050919050565b6000613081826000613eac565b9050919050565b600082821115151561309657fe5b818303905092915050565b60008060008060009054906101000a900473ffffffffffffffffffffffffffffffffffffffff1673ffffffffffffffffffffffffffffffffffffffff161480613113575060006131116000809054906101000a900473ffffffffffffffffffffffffffffffffffffffff16613927565b145b15613124576131226000613932565b505b6000809054906101000a900473ffffffffffffffffffffffffffffffffffffffff1673ffffffffffffffffffffffffffffffffffffffff166338cc48316040518163ffffffff167c0100000000000000000000000000000000000000000000000000000000028152600401602060405180830381600087803b15156131a857600080fd5b5af115156131b557600080fd5b5050506040518051905073ffffffffffffffffffffffffffffffffffffffff16600160009054906101000a900473ffffffffffffffffffffffffffffffffffffffff1673ffffffffffffffffffffffffffffffffffffffff161415156132f1576000809054906101000a900473ffffffffffffffffffffffffffffffffffffffff1673ffffffffffffffffffffffffffffffffffffffff166338cc48316040518163ffffffff167c0100000000000000000000000000000000000000000000000000000000028152600401602060405180830381600087803b151561329957600080fd5b5af115156132a657600080fd5b50505060405180519050600160006101000a81548173ffffffffffffffffffffffffffffffffffffffff021916908373ffffffffffffffffffffffffffffffffffffffff1602179055505b600160009054906101000a900473ffffffffffffffffffffffffffffffffffffffff1673ffffffffffffffffffffffffffffffffffffffff16632ef3accc86856040518363ffffffff167c01000000000000000000000000000000000000000000000000000000000281526004018080602001838152602001828103825284818151815260200191508051906020019080838360005b838110156133a2578082015181840152602081019050613387565b50505050905090810190601f1680156133cf5780820380516001836020036101000a031916815260200191505b509350505050602060405180830381600087803b15156133ee57600080fd5b5af115156133fb57600080fd5b505050604051805190509050823a02670de0b6b3a76400000181111561342757600060010291506135b5565b600160009054906101000a900473ffffffffffffffffffffffffffffffffffffffff1673ffffffffffffffffffffffffffffffffffffffff1663c51be90f8260008888886040518663ffffffff167c0100000000000000000000000000000000000000000000000000000000028152600401808581526020018060200180602001848152602001838103835286818151815260200191508051906020019080838360005b838110156134e65780820151818401526020810190506134cb565b50505050905090810190601f1680156135135780820380516001836020036101000a031916815260200191505b50838103825285818151815260200191508051906020019080838360005b8381101561354c578082015181840152602081019050613531565b50505050905090810190601f1680156135795780820380516001836020036101000a031916815260200191505b5096505050505050506020604051808303818588803b151561359a57600080fd5b5af115156135a757600080fd5b505050506040518051905091505b509392505050565b6000806000809054906101000a900473ffffffffffffffffffffffffffffffffffffffff1673ffffffffffffffffffffffffffffffffffffffff16148061362d5750600061362b6000809054906101000a900473ffffffffffffffffffffffffffffffffffffffff16613927565b145b1561363e5761363c6000613932565b505b6000809054906101000a900473ffffffffffffffffffffffffffffffffffffffff1673ffffffffffffffffffffffffffffffffffffffff166338cc48316040518163ffffffff167c0100000000000000000000000000000000000000000000000000000000028152600401602060405180830381600087803b15156136c257600080fd5b5af115156136cf57600080fd5b5050506040518051905073ffffffffffffffffffffffffffffffffffffffff16600160009054906101000a900473ffffffffffffffffffffffffffffffffffffffff1673ffffffffffffffffffffffffffffffffffffffff1614151561380b576000809054906101000a900473ffffffffffffffffffffffffffffffffffffffff1673ffffffffffffffffffffffffffffffffffffffff166338cc48316040518163ffffffff167c0100000000000000000000000000000000000000000000000000000000028152600401602060405180830381600087803b15156137b357600080fd5b5af115156137c057600080fd5b50505060405180519050600160006101000a81548173ffffffffffffffffffffffffffffffffffffffff021916908373ffffffffffffffffffffffffffffffffffffffff1602179055505b600160009054906101000a900473ffffffffffffffffffffffffffffffffffffffff1673ffffffffffffffffffffffffffffffffffffffff16632ef3accc84846040518363ffffffff167c01000000000000000000000000000000000000000000000000000000000281526004018080602001838152602001828103825284818151815260200191508051906020019080838360005b838110156138bc5780820151818401526020810190506138a1565b50505050905090810190601f1680156138e95780820380516001836020036101000a031916815260200191505b509350505050602060405180830381600087803b151561390857600080fd5b5af1151561391557600080fd5b50505060405180519050905092915050565b6000813b9050919050565b600080613952731d3b2638a7cc9f2cb3d298a3da7a90b67e5506ed613927565b11156139f357731d3b2638a7cc9f2cb3d298a3da7a90b67e5506ed6000806101000a81548173ffffffffffffffffffffffffffffffffffffffff021916908373ffffffffffffffffffffffffffffffffffffffff1602179055506139ea6040805190810160405280600b81526020017f6574685f6d61696e6e65740000000000000000000000000000000000000000008152506141a6565b60019050613dbe565b6000613a1273c03a2615d5efaf5f49f60b7bb6583eaec212fdf1613927565b1115613ab35773c03a2615d5efaf5f49f60b7bb6583eaec212fdf16000806101000a81548173ffffffffffffffffffffffffffffffffffffffff021916908373ffffffffffffffffffffffffffffffffffffffff160217905550613aaa6040805190810160405280600c81526020017f6574685f726f707374656e3300000000000000000000000000000000000000008152506141a6565b60019050613dbe565b6000613ad273b7a07bcf2ba2f2703b24c0691b5278999c59ac7e613927565b1115613b735773b7a07bcf2ba2f2703b24c0691b5278999c59ac7e6000806101000a81548173ffffffffffffffffffffffffffffffffffffffff021916908373ffffffffffffffffffffffffffffffffffffffff160217905550613b6a6040805190810160405280600981526020017f6574685f6b6f76616e00000000000000000000000000000000000000000000008152506141a6565b60019050613dbe565b6000613b9273146500cfd35b22e4a392fe0adc06de1a1368ed48613927565b1115613c335773146500cfd35b22e4a392fe0adc06de1a1368ed486000806101000a81548173ffffffffffffffffffffffffffffffffffffffff021916908373ffffffffffffffffffffffffffffffffffffffff160217905550613c2a6040805190810160405280600b81526020017f6574685f72696e6b6562790000000000000000000000000000000000000000008152506141a6565b60019050613dbe565b6000613c52736f485c8bf6fc43ea212e93bbf8ce046c7f1cb475613927565b1115613cb557736f485c8bf6fc43ea212e93bbf8ce046c7f1cb4756000806101000a81548173ffffffffffffffffffffffffffffffffffffffff021916908373ffffffffffffffffffffffffffffffffffffffff16021790555060019050613dbe565b6000613cd47320e12a1f859b3feae5fb2a0a32c18f5a65555bbf613927565b1115613d37577320e12a1f859b3feae5fb2a0a32c18f5a65555bbf6000806101000a81548173ffffffffffffffffffffffffffffffffffffffff021916908373ffffffffffffffffffffffffffffffffffffffff16021790555060019050613dbe565b6000613d567351efaf4c8b3c9afbd5ab9f4bbc82784ab6ef8faa613927565b1115613db9577351efaf4c8b3c9afbd5ab9f4bbc82784ab6ef8faa6000806101000a81548173ffffffffffffffffffffffffffffffffffffffff021916908373ffffffffffffffffffffffffffffffffffffffff16021790555060019050613dbe565b600090505b919050565b613dcb6142da565b6000613de985600001518660200151866000015187602001516141c0565b90508460200151836020018181525050846020015181038360000181815250508460000151856020015101811415613e2b576000856000018181525050613e56565b8360000151836000015101856000018181510391508181525050836000015181018560200181815250505b829150509392505050565b60005b602082101515613e895782518452602084019350602083019250602082039150613e64565b6001826020036101000a0390508019835116818551168181178652505050505050565b6000613eb661432c565b60008060008693506000925060009150600090505b83518110156141875760307f0100000000000000000000000000000000000000000000000000000000000000028482815181101515613f0657fe5b9060200101517f010000000000000000000000000000000000000000000000000000000000000090047f0100000000000000000000000000000000000000000000000000000000000000027effffffffffffffffffffffffffffffffffffffffffffffffffffffffffffff19161015801561401e575060397f0100000000000000000000000000000000000000000000000000000000000000028482815181101515613fae57fe5b9060200101517f010000000000000000000000000000000000000000000000000000000000000090047f0100000000000000000000000000000000000000000000000000000000000000027effffffffffffffffffffffffffffffffffffffffffffffffffffffffffffff191611155b156140cf57811561404157600086141561403757614187565b8580600190039650505b600a830292506030848281518110151561405757fe5b9060200101517f010000000000000000000000000000000000000000000000000000000000000090047f0100000000000000000000000000000000000000000000000000000000000000027f01000000000000000000000000000000000000000000000000000000000000009004038301925061417a565b602e7f010000000000000000000000000000000000000000000000000000000000000002848281518110151561410157fe5b9060200101517f010000000000000000000000000000000000000000000000000000000000000090047f0100000000000000000000000000000000000000000000000000000000000000027effffffffffffffffffffffffffffffffffffffffffffffffffffffffffffff1916141561417957600191505b5b8080600101915050613ecb565b60008611156141995785600a0a830292505b8294505050505092915050565b80600290805190602001906141bc929190614340565b5050565b6000806000806000888711151561426a576020871115156142215760018760200360080260020a031980875116888b038a018a96505b818388511614614216576001870196508060018803106141f6578b8b0196505b505050839450614270565b8686209150879350600092505b8689038311151561426957868420905080600019168260001916141561425657839450614270565b600184019350828060010193505061422e565b5b88880194505b50505050949350505050565b61010060405190810160405280600073ffffffffffffffffffffffffffffffffffffffff1681526020016000815260200160008152602001600081526020016000815260200160001515815260200160008152602001600081525090565b604080519081016040528060008152602001600081525090565b60606040519081016040528060001515815260200160008152602001600081525090565b602060405190810160405280600081525090565b602060405190810160405280600081525090565b828054600181600116156101000203166002900490600052602060002090601f016020900481019282601f1061438157805160ff19168380011785556143af565b828001600101855582156143af579182015b828111156143ae578251825591602001919060010190614393565b5b5090506143bc91906143c0565b5090565b6143e291905b808211156143de5760008160009055506001016143c6565b5090565b905600a165627a7a723058208b2daadb3f1967d4af17baa7326765c39c1bf9aafb29376236bf11a832b752070029",
  "source": "pragma solidity ^0.4.19;\n\nimport \"../installed_contracts/oraclize/contracts/usingOraclize.sol\";\nimport \"../installed_contracts/stringutils/strings.sol\";\nimport \"../installed_contracts/zeppelin/contracts/lifecycle/Pausable.sol\";\n\ninterface ERC20Token {\n    function totalSupply() external view returns (uint);\n    function balanceOf(address who) external constant returns (uint256);\n    function transfer(address to, uint256 value) external returns (bool);\n}\n\ncontract War is usingOraclize, Pausable {\n    using strings for *;\n\n    address public owner;\n    address public manager;\n    ERC20Token Token;\n\n    //make these configurablef\n    uint public sideBetPercent_MAX = 80;\n    uint public bet_MAX = 1 ether;\n    bool public registeredToken = false;\n    uint public tokenDecimalPlaces = 2;\n    uint public tokenWinRatio = 555555555555555 wei; //1800\n    uint public tokenLossRatio = 5000000000000000 wei; //200\n\n    uint32 public gasForShuffle; //caculateable?\n    uint public serviceFee;\n\n    struct Info{\n        address playerAddress;\n        uint fees;\n        uint mainBetAmount;\n        uint sideBetAmount;\n        uint sideBetPercentage;\n        bool isNewGame;\n        uint playerHand;\n        uint houseHand;\n    }\n\n    mapping (bytes32 => Info) public hand_info;\n\n    mapping (address => bool) public hasGameInProgress;\n\n    struct FirstHand{\n        bool isTied;\n        uint fees;\n        uint mainBetAmount;\n    }\n\n    mapping (address => FirstHand) public firstHandInfo;\n\n    // mapping (string => uint) cards;\n\n    //EVENTS\n\n    event betPayout(address indexed playerAddr, uint amount);\n    event dealtCards(address indexed player, bytes32 orcID, uint dealerHand, uint playerHand, uint dealerSuit, uint playerSuit);\n    event currentOrcID(bytes32 orcID);\n\n    event DEBUG_betSplit(uint mainBet, uint sideBet, uint percent);\n    event DEBUG_str(string msg);\n    event DEBUG_addr(address addr);\n    event DEBUG_byte(bytes32 thing);\n    event DEBUG_uint(uint thing);\n\n    modifier TokenCheck() {\n       if (registeredToken != true) { //check balance\n            revert();\n        }\n        _;\n    }\n\n    function War() public payable{\n        //Remove before flight\n        //OAR = OraclizeAddrResolverI(0x6f485C8BF6fc43eA212E93BBF8ce046C7f1cb475);\n\n        owner = msg.sender;\n        manager = msg.sender;\n\n        /* oraclize_setCustomGasPrice(1000000000 wei); //1 GWei */\n        gasForShuffle = 180000;\n    }\n\n    function setOraclizeGas(uint32 gasAmount) onlyOwner{\n      gasForShuffle = gasAmount;\n    }\n\n    function RegisterToken(address _tokenAddress, uint decimalPlaces) public onlyOwner{\n        Token = ERC20Token(_tokenAddress);\n        DEBUG_str(\"TOKEN REGISTERED\");\n        registeredToken = true;\n        tokenDecimalPlaces = decimalPlaces;\n    }\n\n    function RemainingTokens(address who) public constant returns (uint){\n        return Token.balanceOf(who)/(10 ** tokenDecimalPlaces);\n    }\n\n    function FundHouse() public payable {}\n\n    function WithdrawFunds() public onlyOwner{\n      msg.sender.send(address(this).balance);\n    }\n\n    /*function playWar(uint sideBetPercent, uint customDealerVal, uint customPlayerVal) public whenNotPaused payable {*/\n    function playWar(uint sideBetPercent) public whenNotPaused TokenCheck payable {\n\n      require(sideBetPercent >= 0 && sideBetPercent <= sideBetPercent_MAX);\n      //arequire(hasGameInProgress[msg.sender]==false);\n\n      //ALPHA MAX bet\n      require(msg.value <= bet_MAX);\n\n      uint betAmount = msg.value;\n\n      uint sideBetAmount = div(mul(betAmount,sideBetPercent),100);\n      uint mainBetAmount = sub(betAmount,sideBetAmount);\n\n      emit DEBUG_betSplit(mainBetAmount, sideBetAmount, sideBetPercent);\n      //section\n\n      bool isNewGame = true;\n\n      //Initiate oraclize call\n      bytes32 orcID = oraclize_query(\"WolframAlpha\", \"RandomSample[Range[416],2]\",gasForShuffle);\n      currentOrcID(orcID);\n\n      uint orcFees = oraclize_getPrice(\"WolframAlpha\", gasForShuffle);\n      emit DEBUG_uint(orcFees);\n\n      //do logs + array store\n\n      //check if previous hand was a tie and player chose to go to WAR ***\n      if(firstHandInfo[msg.sender].isTied){\n        isNewGame = false;\n        assert(msg.value == firstHandInfo[msg.sender].mainBetAmount);\n      }\n      else{\n        FirstHand memory thisHand = FirstHand({\n          isTied : false,\n          fees: orcFees,\n          mainBetAmount : mainBetAmount\n        });\n\n        firstHandInfo[msg.sender] = thisHand;\n      }\n\n      Info memory info = Info({\n          playerAddress : msg.sender,\n          mainBetAmount : mainBetAmount,\n          sideBetAmount : sideBetAmount,\n          fees: orcFees,\n          sideBetPercentage : sideBetPercent,\n          isNewGame : isNewGame,\n          playerHand : 0,\n          houseHand : 0\n      });\n\n      hand_info[orcID] = info;\n\n      hasGameInProgress[msg.sender] = true;\n    }\n\n    function getTokenWinValue(uint betInWei) public returns(uint){\n        return betInWei/tokenWinRatio;\n    }\n    function getTokenLossValue(uint betInWei) public returns(uint){\n        return betInWei/tokenLossRatio;\n    }\n    function setWinLossAmount(uint winAmount, uint lossAmount)public onlyOwner{\n        tokenWinRatio = 1 ether/winAmount;\n        tokenLossRatio = 1 ether/lossAmount;\n    }\n    function getWinTokenAmount()public constant returns(uint){\n        return 1 ether/tokenWinRatio;\n    }\n    function getLossTokenAmount()public constant returns(uint){\n        return 1 ether/tokenLossRatio;\n    }\n\n    function parseResult(bytes32 orcID, string result, address playerAddr) returns(uint, uint){\n        //parse wolfram shuffle\n        strings.slice memory partition = result.toSlice();\n        partition.beyond(\"{\".toSlice()).until(\"}\".toSlice());\n        strings.slice memory delim = \",\".toSlice();\n        // string[] memory parts = new string[](2);\n\n        uint houseRaw = parseInt(partition.split(delim).toString());\n        uint playerRaw = parseInt(partition.split(delim).toString());\n\n        hand_info[orcID].houseHand = this.getCardValue(houseRaw);\n        hand_info[orcID].playerHand = this.getCardValue(playerRaw);\n\n        uint houseHand = hand_info[orcID].houseHand;\n        uint playerHand = hand_info[orcID].playerHand;\n\n        //Event for front-end to alert hand finished\n        dealtCards(playerAddr, orcID, houseHand, playerHand, houseRaw, playerRaw);\n\n        return(playerHand, houseHand);\n    }\n\n    function __callback(bytes32 orcID, string result) {\n        //security checks\n        if (msg.sender != oraclize_cbAddress()) revert();\n        if (hand_info[orcID].playerAddress==0x0) revert(); //maybe change bytes32 to uint for testing\n\n        //**NEED TO CHECK INPUT FORMAT FOR REFUND\n\n        address playerAddr = hand_info[orcID].playerAddress;\n\n        var (playerHand, houseHand) =  parseResult(orcID, result, playerAddr);\n\n        uint fees;\n\n        if(playerHand == houseHand){\n            DEBUG_str(\"Tied!\");\n\n            uint betAmount = firstHandInfo[playerAddr].mainBetAmount;\n            fees = firstHandInfo[playerAddr].fees;\n\n            if(firstHandInfo[playerAddr].isTied){\n                DEBUG_str(\"Second Tie - 3x payout!\");\n\n                if(pay(playerAddr, betAmount,fees) &&\n                payToken(playerAddr, mul(getTokenWinValue(betAmount),3))){\n                    delete firstHandInfo[playerAddr];\n                }\n            }\n            else{\n                DEBUG_str(\"First Tie - pending action\");\n                firstHandInfo[playerAddr].isTied = true;\n\n                Info memory hand = hand_info[orcID];\n\n                if(hand.sideBetAmount > 0){\n                    sideBetPay(orcID);\n                    sideBetPayToken(orcID);\n                }\n                else{\n                    payToken(playerAddr, getTokenLossValue(betAmount));\n                }\n            }\n            //\n        }\n\n\n        uint winAmount = hand_info[orcID].mainBetAmount;\n        fees = hand_info[orcID].fees;\n\n        //Pay winner\n        if(playerHand > houseHand){\n          uint winTokenAmount = getTokenWinValue(winAmount);\n\n          if(pay(playerAddr,winAmount,fees) && payToken(playerAddr,winTokenAmount)){\n              delete firstHandInfo[playerAddr];\n              delete hand_info[orcID];\n          }\n        }\n        else if(playerHand < houseHand){\n            uint lossTokenAmount = getTokenLossValue(winAmount);\n\n            if(payToken(playerAddr,lossTokenAmount)){\n                delete firstHandInfo[playerAddr];\n                delete hand_info[orcID];\n            }\n        }\n    }\n\n    function playerSurrender() public whenNotPaused payable {\n\n      if(firstHandInfo[msg.sender].isTied){\n          DEBUG_str(\"player surrendering\");\n\n          uint returnAmount = div(firstHandInfo[msg.sender].mainBetAmount,2);\n          uint fees = firstHandInfo[msg.sender].fees;\n\n          if(pay(msg.sender,returnAmount,fees)){\n            delete firstHandInfo[msg.sender];\n            // delete hand_info[orcID];\n          }\n      }\n      else{\n        DEBUG_str(\"nothing to surrender\"); //change this function to return false\n      }\n\n    }\n\n    function pay(address _addr, uint amount, uint fees) private returns(bool){\n        if(_addr.send(amount)){ //PAY IN ether\n          betPayout(_addr, amount);\n          return true;\n        }\n        else{\n          //Put in refund?\n          DEBUG_str(\"FATAL: pay failed\");\n          return false;\n        }\n    }\n\n    function payToken(address _addr, uint amount) private returns(bool){\n\n        if(Token.transfer(_addr,amount * 10 ** tokenDecimalPlaces)){ //PAY IN token\n          betPayout(_addr, amount);\n          return true;\n        }\n        else{\n          //Put in refund?\n          DEBUG_str(\"FATAL: pay in token failed\");\n          return false;\n        }\n    }\n\n    function sideBetPay(bytes32 orcID) private{\n\n        Info memory hand = hand_info[orcID];\n\n        if(hand.sideBetAmount > 0){\n          DEBUG_str(\"Side bet won! paying player 1x ETH\");\n          //pay side bet once and for all + remove sidebet history\n        //   uint sideBetWin = mul(hand.sideBetAmount,10);\n          pay(hand.playerAddress,hand.sideBetAmount,hand.fees);\n        }\n    }\n\n    function sideBetPayToken(bytes32 orcID) private{\n\n        Info memory hand = hand_info[orcID];\n\n        if(hand.sideBetAmount > 0){\n          DEBUG_str(\"Side bet won! paying player 10x TOKEN\");\n          //pay side bet once and for all + remove sidebet history\n          uint sideBetWin = mul(getTokenWinValue(hand.sideBetAmount),10);\n          payToken(hand.playerAddress,sideBetWin);\n        }\n    }\n\n    /*Special Sauce*/\n    function getCardValue(uint card) public returns(uint){\n      if(card > 416 || card < 1){\n        return 0;\n      }\n\n      if(card > 52){\n        card = card % 52;\n      }\n\n      if(card == 0){\n      \treturn 13;\n      }else if(card <= 4){\n        return 14;\n      }else if(card % 4 > 0){\n        card = add(div(card,4),1);\n      }else{\n        card = div(card,4);\n      }\n\n      if(card == 1){\n        return 14;\n      }\n      else{\n        return card;\n      }\n\n    }\n\n    function mul(uint a, uint b) internal returns (uint) {\n      uint c = a * b;\n      assert(a == 0 || c / a == b);\n      return c;\n    }\n\n    function div(uint a, uint b) internal returns (uint) {\n      assert(b > 0);\n      uint c = a / b;\n      assert(a == b * c + a % b);\n      return c;\n    }\n\n    function sub(uint a, uint b) internal returns (uint) {\n      assert(b <= a);\n      return a - b;\n    }\n\n    function add(uint a, uint b) internal returns (uint) {\n      uint c = a + b;\n      assert(c >= a);\n      return c;\n    }\n\n    function houseBankRoll() constant public returns(uint){\n        return address(this).balance;\n    }\n}\n",
  "sourcePath": "/Users/kuaiyu/Documents/Projects/Ethereum/temp/EthinoWar/contracts/War.sol",
  "compiler": {
    "name": "solc",
    "version": "0.4.21+commit.dfe3193c.Emscripten.clang"
  },
  "schemaVersion": "2.0.0",
  "updatedAt": "2018-05-03T00:03:35.556Z"
}