{
  "contractName": "WarStatic",
  "abi": [
    {
      "constant": true,
      "inputs": [
        {
          "name": "",
          "type": "address"
        }
      ],
      "name": "firstHandInfo",
      "outputs": [
        {
          "name": "isTied",
          "type": "bool"
        },
        {
          "name": "mainBetAmount",
          "type": "uint256"
        }
      ],
      "payable": false,
      "stateMutability": "view",
      "type": "function"
    },
    {
      "constant": true,
      "inputs": [],
      "name": "tokenDecimalPlaces",
      "outputs": [
        {
          "name": "",
          "type": "uint256"
        }
      ],
      "payable": false,
      "stateMutability": "view",
      "type": "function"
    },
    {
      "constant": true,
      "inputs": [
        {
          "name": "",
          "type": "uint256"
        }
      ],
      "name": "hand_info",
      "outputs": [
        {
          "name": "playerAddress",
          "type": "address"
        },
        {
          "name": "mainBetAmount",
          "type": "uint256"
        },
        {
          "name": "sideBetAmount",
          "type": "uint256"
        },
        {
          "name": "sideBetPercentage",
          "type": "uint256"
        },
        {
          "name": "isNewGame",
          "type": "bool"
        },
        {
          "name": "playerHand",
          "type": "uint256"
        },
        {
          "name": "houseHand",
          "type": "uint256"
        }
      ],
      "payable": false,
      "stateMutability": "view",
      "type": "function"
    },
    {
      "constant": true,
      "inputs": [
        {
          "name": "",
          "type": "address"
        }
      ],
      "name": "hasGameInProgress",
      "outputs": [
        {
          "name": "",
          "type": "bool"
        }
      ],
      "payable": false,
      "stateMutability": "view",
      "type": "function"
    },
    {
      "constant": false,
      "inputs": [
        {
          "name": "myid",
          "type": "bytes32"
        },
        {
          "name": "result",
          "type": "string"
        }
      ],
      "name": "__callback",
      "outputs": [],
      "payable": false,
      "stateMutability": "nonpayable",
      "type": "function"
    },
    {
      "constant": false,
      "inputs": [
        {
          "name": "myid",
          "type": "bytes32"
        },
        {
          "name": "result",
          "type": "string"
        },
        {
          "name": "proof",
          "type": "bytes"
        }
      ],
      "name": "__callback",
      "outputs": [],
      "payable": false,
      "stateMutability": "nonpayable",
      "type": "function"
    },
    {
      "constant": false,
      "inputs": [],
      "name": "unpause",
      "outputs": [
        {
          "name": "",
          "type": "bool"
        }
      ],
      "payable": false,
      "stateMutability": "nonpayable",
      "type": "function"
    },
    {
      "constant": true,
      "inputs": [],
      "name": "manager",
      "outputs": [
        {
          "name": "",
          "type": "address"
        }
      ],
      "payable": false,
      "stateMutability": "view",
      "type": "function"
    },
    {
      "constant": true,
      "inputs": [],
      "name": "gasForShuffle",
      "outputs": [
        {
          "name": "",
          "type": "uint32"
        }
      ],
      "payable": false,
      "stateMutability": "view",
      "type": "function"
    },
    {
      "constant": true,
      "inputs": [],
      "name": "paused",
      "outputs": [
        {
          "name": "",
          "type": "bool"
        }
      ],
      "payable": false,
      "stateMutability": "view",
      "type": "function"
    },
    {
      "constant": true,
      "inputs": [],
      "name": "registeredToken",
      "outputs": [
        {
          "name": "",
          "type": "bool"
        }
      ],
      "payable": false,
      "stateMutability": "view",
      "type": "function"
    },
    {
      "constant": true,
      "inputs": [],
      "name": "tokenWinRatio",
      "outputs": [
        {
          "name": "",
          "type": "uint256"
        }
      ],
      "payable": false,
      "stateMutability": "view",
      "type": "function"
    },
    {
      "constant": false,
      "inputs": [],
      "name": "pause",
      "outputs": [
        {
          "name": "",
          "type": "bool"
        }
      ],
      "payable": false,
      "stateMutability": "nonpayable",
      "type": "function"
    },
    {
      "constant": true,
      "inputs": [],
      "name": "owner",
      "outputs": [
        {
          "name": "",
          "type": "address"
        }
      ],
      "payable": false,
      "stateMutability": "view",
      "type": "function"
    },
    {
      "constant": true,
      "inputs": [],
      "name": "tokenLossRatio",
      "outputs": [
        {
          "name": "",
          "type": "uint256"
        }
      ],
      "payable": false,
      "stateMutability": "view",
      "type": "function"
    },
    {
      "constant": true,
      "inputs": [],
      "name": "sideBetPercent_MAX",
      "outputs": [
        {
          "name": "",
          "type": "uint256"
        }
      ],
      "payable": false,
      "stateMutability": "view",
      "type": "function"
    },
    {
      "constant": true,
      "inputs": [],
      "name": "bet_MAX",
      "outputs": [
        {
          "name": "",
          "type": "uint256"
        }
      ],
      "payable": false,
      "stateMutability": "view",
      "type": "function"
    },
    {
      "constant": false,
      "inputs": [
        {
          "name": "newOwner",
          "type": "address"
        }
      ],
      "name": "transferOwnership",
      "outputs": [],
      "payable": false,
      "stateMutability": "nonpayable",
      "type": "function"
    },
    {
      "anonymous": false,
      "inputs": [
        {
          "indexed": true,
          "name": "playerAddr",
          "type": "address"
        },
        {
          "indexed": false,
          "name": "amount",
          "type": "uint256"
        }
      ],
      "name": "betPayout",
      "type": "event"
    },
    {
      "anonymous": false,
      "inputs": [
        {
          "indexed": true,
          "name": "player",
          "type": "address"
        },
        {
          "indexed": false,
          "name": "dealerHand",
          "type": "uint256"
        },
        {
          "indexed": false,
          "name": "playerHand",
          "type": "uint256"
        },
        {
          "indexed": false,
          "name": "dealerSuit",
          "type": "uint256"
        },
        {
          "indexed": false,
          "name": "playerSuit",
          "type": "uint256"
        }
      ],
      "name": "dealtCards",
      "type": "event"
    },
    {
      "anonymous": false,
      "inputs": [
        {
          "indexed": false,
          "name": "mainBet",
          "type": "uint256"
        },
        {
          "indexed": false,
          "name": "sideBet",
          "type": "uint256"
        },
        {
          "indexed": false,
          "name": "percent",
          "type": "uint256"
        }
      ],
      "name": "DEBUG_betSplit",
      "type": "event"
    },
    {
      "anonymous": false,
      "inputs": [
        {
          "indexed": false,
          "name": "msg",
          "type": "string"
        }
      ],
      "name": "DEBUG_str",
      "type": "event"
    },
    {
      "anonymous": false,
      "inputs": [
        {
          "indexed": false,
          "name": "addr",
          "type": "address"
        }
      ],
      "name": "DEBUG_addr",
      "type": "event"
    },
    {
      "anonymous": false,
      "inputs": [
        {
          "indexed": false,
          "name": "thing",
          "type": "bytes32"
        }
      ],
      "name": "DEBUG_byte",
      "type": "event"
    },
    {
      "anonymous": false,
      "inputs": [
        {
          "indexed": false,
          "name": "thing",
          "type": "uint256"
        }
      ],
      "name": "DEBUG_uint",
      "type": "event"
    },
    {
      "anonymous": false,
      "inputs": [],
      "name": "Pause",
      "type": "event"
    },
    {
      "anonymous": false,
      "inputs": [],
      "name": "Unpause",
      "type": "event"
    },
    {
      "constant": false,
      "inputs": [],
      "name": "War",
      "outputs": [],
      "payable": true,
      "stateMutability": "payable",
      "type": "function"
    },
    {
      "constant": false,
      "inputs": [
        {
          "name": "_tokenAddress",
          "type": "address"
        }
      ],
      "name": "RegisterToken",
      "outputs": [],
      "payable": false,
      "stateMutability": "nonpayable",
      "type": "function"
    },
    {
      "constant": true,
      "inputs": [],
      "name": "RemainingTokens",
      "outputs": [
        {
          "name": "",
          "type": "uint256"
        }
      ],
      "payable": false,
      "stateMutability": "view",
      "type": "function"
    },
    {
      "constant": true,
      "inputs": [
        {
          "name": "who",
          "type": "address"
        }
      ],
      "name": "GetTokenBalance",
      "outputs": [
        {
          "name": "",
          "type": "uint256"
        }
      ],
      "payable": false,
      "stateMutability": "view",
      "type": "function"
    },
    {
      "constant": false,
      "inputs": [],
      "name": "FundHouse",
      "outputs": [],
      "payable": true,
      "stateMutability": "payable",
      "type": "function"
    },
    {
      "constant": false,
      "inputs": [
        {
          "name": "sideBetPercent",
          "type": "uint256"
        }
      ],
      "name": "playWar",
      "outputs": [],
      "payable": true,
      "stateMutability": "payable",
      "type": "function"
    },
    {
      "constant": false,
      "inputs": [
        {
          "name": "betInWei",
          "type": "uint256"
        }
      ],
      "name": "getTokenWinValue",
      "outputs": [
        {
          "name": "",
          "type": "uint256"
        }
      ],
      "payable": false,
      "stateMutability": "nonpayable",
      "type": "function"
    },
    {
      "constant": false,
      "inputs": [
        {
          "name": "betInWei",
          "type": "uint256"
        }
      ],
      "name": "getTokenLossValue",
      "outputs": [
        {
          "name": "",
          "type": "uint256"
        }
      ],
      "payable": false,
      "stateMutability": "nonpayable",
      "type": "function"
    },
    {
      "constant": false,
      "inputs": [
        {
          "name": "orcID",
          "type": "uint256"
        },
        {
          "name": "result",
          "type": "string"
        },
        {
          "name": "playerAddr",
          "type": "address"
        }
      ],
      "name": "parseResult",
      "outputs": [
        {
          "name": "",
          "type": "uint256"
        },
        {
          "name": "",
          "type": "uint256"
        }
      ],
      "payable": false,
      "stateMutability": "nonpayable",
      "type": "function"
    },
    {
      "constant": false,
      "inputs": [
        {
          "name": "orcID",
          "type": "uint256"
        },
        {
          "name": "result",
          "type": "string"
        }
      ],
      "name": "manualCallback",
      "outputs": [],
      "payable": true,
      "stateMutability": "payable",
      "type": "function"
    },
    {
      "constant": false,
      "inputs": [],
      "name": "playerSurrender",
      "outputs": [],
      "payable": true,
      "stateMutability": "payable",
      "type": "function"
    },
    {
      "constant": false,
      "inputs": [
        {
          "name": "winAmount",
          "type": "uint256"
        },
        {
          "name": "lossAmount",
          "type": "uint256"
        }
      ],
      "name": "setWinLossAmount",
      "outputs": [],
      "payable": false,
      "stateMutability": "nonpayable",
      "type": "function"
    },
    {
      "constant": true,
      "inputs": [],
      "name": "getWinTokenAmount",
      "outputs": [
        {
          "name": "",
          "type": "uint256"
        }
      ],
      "payable": false,
      "stateMutability": "view",
      "type": "function"
    },
    {
      "constant": true,
      "inputs": [],
      "name": "getLossTokenAmount",
      "outputs": [
        {
          "name": "",
          "type": "uint256"
        }
      ],
      "payable": false,
      "stateMutability": "view",
      "type": "function"
    },
    {
      "constant": true,
      "inputs": [],
      "name": "getLossTokenAmount2",
      "outputs": [
        {
          "name": "temp",
          "type": "uint256"
        }
      ],
      "payable": false,
      "stateMutability": "view",
      "type": "function"
    },
    {
      "constant": false,
      "inputs": [
        {
          "name": "card",
          "type": "uint256"
        }
      ],
      "name": "getCardValue",
      "outputs": [
        {
          "name": "",
          "type": "uint256"
        }
      ],
      "payable": false,
      "stateMutability": "nonpayable",
      "type": "function"
    },
    {
      "constant": true,
      "inputs": [],
      "name": "houseBankRoll",
      "outputs": [
        {
          "name": "",
          "type": "uint256"
        }
      ],
      "payable": false,
      "stateMutability": "view",
      "type": "function"
    },
    {
      "constant": false,
      "inputs": [],
      "name": "destroy",
      "outputs": [],
      "payable": false,
      "stateMutability": "nonpayable",
      "type": "function"
    }
  ],
  "bytecode": "0x60606040526000600560146101000a81548160ff0219169083151502179055506050600955670de0b6b3a7640000600a556000600b60006101000a81548160ff0219169083151502179055506002600c556601f9465b8ab8e3600d556611c37937e08000600e5533600560006101000a81548173ffffffffffffffffffffffffffffffffffffffff021916908373ffffffffffffffffffffffffffffffffffffffff16021790555061324e806100b66000396000f3006060604052600436106101c1576000357c0100000000000000000000000000000000000000000000000000000000900463ffffffff168062ecd311146101c6578063065013b51461021e5780631792cc61146102475780631a645170146102705780631d59c6bb1461030157806327dc297e14610352578063282651fe146103bc5780632e78f9a7146103e5578063339ac1741461041c57806338bbfa50146104265780633f4ba83a146104d3578063481c6a75146105005780634b116cec1461055557806358aaf48a146105b057806359c30356146105e55780635b5e760c146106855780635c975abb146106bc57806362eb6da1146106e957806365e807ab14610716578063778317c41461074d5780637ea5d50e1461077957806383197ef0146107a25780638456cb59146107b75780638da5cb5b146107e45780639457309714610839578063963d62fb14610843578063aa3dacac1461086c578063b45cff5f14610895578063d02cc69f146108be578063e3206975146108d6578063e5c1d3ce146108ff578063ea1ab1fe14610909578063f2fde38b14610932578063f6c736fc1461096b578063f7fe8023146109b8578063f91a545b146109f1575b600080fd5b34156101d157600080fd5b6101fd600480803573ffffffffffffffffffffffffffffffffffffffff16906020019091905050610a1a565b60405180831515151581526020018281526020019250505060405180910390f35b341561022957600080fd5b610231610a4b565b6040518082815260200191505060405180910390f35b341561025257600080fd5b61025a610a68565b6040518082815260200191505060405180910390f35b341561027b57600080fd5b6102916004808035906020019091905050610a6e565b604051808873ffffffffffffffffffffffffffffffffffffffff1673ffffffffffffffffffffffffffffffffffffffff1681526020018781526020018681526020018581526020018415151515815260200183815260200182815260200197505050505050505060405180910390f35b341561030c57600080fd5b610338600480803573ffffffffffffffffffffffffffffffffffffffff16906020019091905050610add565b604051808215151515815260200191505060405180910390f35b341561035d57600080fd5b6103ba60048080356000191690602001909190803590602001908201803590602001908080601f01602080910402602001604051908101604052809392919081815260200183838082843782019150505050505091905050610afd565b005b34156103c757600080fd5b6103cf610b2f565b6040518082815260200191505060405180910390f35b34156103f057600080fd5b6104066004808035906020019091905050610b4c565b6040518082815260200191505060405180910390f35b610424610c04565b005b341561043157600080fd5b6104d160048080356000191690602001909190803590602001908201803590602001908080601f0160208091040260200160405190810160405280939291908181526020018383808284378201915050505050509190803590602001908201803590602001908080601f01602080910402602001604051908101604052809392919081815260200183838082843782019150505050505091905050610e0b565b005b34156104de57600080fd5b6104e6610e10565b604051808215151515815260200191505060405180910390f35b341561050b57600080fd5b610513610ed7565b604051808273ffffffffffffffffffffffffffffffffffffffff1673ffffffffffffffffffffffffffffffffffffffff16815260200191505060405180910390f35b6105ae600480803590602001909190803590602001908201803590602001908080601f01602080910402602001604051908101604052809392919081815260200183838082843782019150505050505091905050610efd565b005b34156105bb57600080fd5b6105c361161f565b604051808263ffffffff1663ffffffff16815260200191505060405180910390f35b34156105f057600080fd5b610668600480803590602001909190803590602001908201803590602001908080601f0160208091040260200160405190810160405280939291908181526020018383808284378201915050505050509190803573ffffffffffffffffffffffffffffffffffffffff16906020019091905050611635565b604051808381526020018281526020019250505060405180910390f35b341561069057600080fd5b6106a66004808035906020019091905050611975565b6040518082815260200191505060405180910390f35b34156106c757600080fd5b6106cf61198c565b604051808215151515815260200191505060405180910390f35b34156106f457600080fd5b6106fc61199f565b604051808215151515815260200191505060405180910390f35b341561072157600080fd5b61073760048080359060200190919050506119b2565b6040518082815260200191505060405180910390f35b341561075857600080fd5b61077760048080359060200190919080359060200190919050506119c9565b005b341561078457600080fd5b61078c611a5d565b6040518082815260200191505060405180910390f35b34156107ad57600080fd5b6107b5611a63565b005b34156107c257600080fd5b6107ca611b41565b604051808215151515815260200191505060405180910390f35b34156107ef57600080fd5b6107f7611c07565b604051808273ffffffffffffffffffffffffffffffffffffffff1673ffffffffffffffffffffffffffffffffffffffff16815260200191505060405180910390f35b610841611c2d565b005b341561084e57600080fd5b610856611cd5565b6040518082815260200191505060405180910390f35b341561087757600080fd5b61087f611cdb565b6040518082815260200191505060405180910390f35b34156108a057600080fd5b6108a8611ce1565b6040518082815260200191505060405180910390f35b6108d46004808035906020019091905050611d00565b005b34156108e157600080fd5b6108e96120c2565b6040518082815260200191505060405180910390f35b6109076120c8565b005b341561091457600080fd5b61091c6120ca565b6040518082815260200191505060405180910390f35b341561093d57600080fd5b610969600480803573ffffffffffffffffffffffffffffffffffffffff169060200190919050506121a4565b005b341561097657600080fd5b6109a2600480803573ffffffffffffffffffffffffffffffffffffffff1690602001909190505061227b565b6040518082815260200191505060405180910390f35b34156109c357600080fd5b6109ef600480803573ffffffffffffffffffffffffffffffffffffffff16906020019091905050612357565b005b34156109fc57600080fd5b610a0461247a565b6040518082815260200191505060405180910390f35b60126020528060005260406000206000915090508060000160009054906101000a900460ff16908060010154905082565b6000600d54670de0b6b3a7640000811515610a6257fe5b04905090565b600c5481565b60106020528060005260406000206000915090508060000160009054906101000a900473ffffffffffffffffffffffffffffffffffffffff16908060010154908060020154908060030154908060040160009054906101000a900460ff16908060050154908060060154905087565b60116020528060005260406000206000915054906101000a900460ff1681565b610b2b82826000604051805910610b115750595b9080825280601f01601f1916602001820160405250610e0b565b5050565b6000600d54670de0b6b3a7640000811515610b4657fe5b04905090565b60006101a0821180610b5e5750600182105b15610b6c5760009050610bff565b6034821115610b8557603482811515610b8157fe5b0691505b6000821415610b9757600d9050610bff565b600482111515610baa57600e9050610bff565b6000600483811515610bb857fe5b061115610bdb57610bd4610bcd836004612497565b60016124d8565b9150610be9565b610be6826004612497565b91505b6001821415610bfb57600e9050610bff565b8190505b919050565b6000600560149054906101000a900460ff1615610c2057600080fd5b601260003373ffffffffffffffffffffffffffffffffffffffff1673ffffffffffffffffffffffffffffffffffffffff16815260200190815260200160002060000160009054906101000a900460ff1615610d9f577f6e4a8547a0f2d6541a77a459eff545d4777c23401787089993b1780e7ab979a06040518080602001828103825260138152602001807f706c617965722073757272656e646572696e670000000000000000000000000081525060200191505060405180910390a1610d2a601260003373ffffffffffffffffffffffffffffffffffffffff1673ffffffffffffffffffffffffffffffffffffffff168152602001908152602001600020600101546002612497565b9050610d3633826124f6565b15610d9a57601260003373ffffffffffffffffffffffffffffffffffffffff1673ffffffffffffffffffffffffffffffffffffffff168152602001908152602001600020600080820160006101000a81549060ff0219169055600182016000905550505b610e08565b7f6e4a8547a0f2d6541a77a459eff545d4777c23401787089993b1780e7ab979a06040518080602001828103825260148152602001807f6e6f7468696e6720746f2073757272656e64657200000000000000000000000081525060200191505060405180910390a15b50565b505050565b6000600560009054906101000a900473ffffffffffffffffffffffffffffffffffffffff1673ffffffffffffffffffffffffffffffffffffffff163373ffffffffffffffffffffffffffffffffffffffff16141515610e6e57600080fd5b600560149054906101000a900460ff161515610e8957600080fd5b6000600560146101000a81548160ff0219169083151502179055507f7805862f689e2f13df9f062ff482ad3ad112aca9e0847911ed832e158c525b3360405160405180910390a16001905090565b600760009054906101000a900473ffffffffffffffffffffffffffffffffffffffff1681565b600080600080610f0b61316e565b600080600080601060008c815260200190815260200160002060000160009054906101000a900473ffffffffffffffffffffffffffffffffffffffff1673ffffffffffffffffffffffffffffffffffffffff161415610f6957600080fd5b601060008b815260200190815260200160002060000160009054906101000a900473ffffffffffffffffffffffffffffffffffffffff169750610fad8a8a8a611635565b80975081985050508587141561137f577f6e4a8547a0f2d6541a77a459eff545d4777c23401787089993b1780e7ab979a06040518080602001828103825260058152602001807f546965642100000000000000000000000000000000000000000000000000000081525060200191505060405180910390a1601260008973ffffffffffffffffffffffffffffffffffffffff1673ffffffffffffffffffffffffffffffffffffffff168152602001908152602001600020600101549450601260008973ffffffffffffffffffffffffffffffffffffffff1673ffffffffffffffffffffffffffffffffffffffff16815260200190815260200160002060000160009054906101000a900460ff16156111be577f6e4a8547a0f2d6541a77a459eff545d4777c23401787089993b1780e7ab979a06040518080602001828103825260178152602001807f5365636f6e6420546965202d203378207061796f75742100000000000000000081525060200191505060405180910390a161113188866124f6565b801561115557506111548861114f61114888611975565b60036125fc565b61262f565b5b156111b957601260008973ffffffffffffffffffffffffffffffffffffffff1673ffffffffffffffffffffffffffffffffffffffff168152602001908152602001600020600080820160006101000a81549060ff0219169055600182016000905550505b61137e565b7f6e4a8547a0f2d6541a77a459eff545d4777c23401787089993b1780e7ab979a060405180806020018281038252601a8152602001807f466972737420546965202d2070656e64696e6720616374696f6e00000000000081525060200191505060405180910390a16001601260008a73ffffffffffffffffffffffffffffffffffffffff1673ffffffffffffffffffffffffffffffffffffffff16815260200190815260200160002060000160006101000a81548160ff021916908315150217905550601060008b815260200190815260200160002060e060405190810160405290816000820160009054906101000a900473ffffffffffffffffffffffffffffffffffffffff1673ffffffffffffffffffffffffffffffffffffffff1673ffffffffffffffffffffffffffffffffffffffff1681526020016001820154815260200160028201548152602001600382015481526020016004820160009054906101000a900460ff161515151581526020016005820154815260200160068201548152505093506000846040015111156113695761135b8a6127db565b6113648a61295a565b61137d565b61137b88611376876119b2565b61262f565b505b5b5b601060008b815260200190815260200160002060010154925085871115611517576113a983611975565b91507f82bcc51ff5ab20f2066b1b697b902d2ee2549348c8f58f85b996a7fcce09b613836040518082815260200191505060405180910390a17f82bcc51ff5ab20f2066b1b697b902d2ee2549348c8f58f85b996a7fcce09b613826040518082815260200191505060405180910390a161142388846124f6565b80156114355750611434888361262f565b5b1561151257601260008973ffffffffffffffffffffffffffffffffffffffff1673ffffffffffffffffffffffffffffffffffffffff168152602001908152602001600020600080820160006101000a81549060ff021916905560018201600090555050601060008b8152602001908152602001600020600080820160006101000a81549073ffffffffffffffffffffffffffffffffffffffff02191690556001820160009055600282016000905560038201600090556004820160006101000a81549060ff02191690556005820160009055600682016000905550505b611613565b8587101561161257611528836119b2565b9050611534888261262f565b1561161157601260008973ffffffffffffffffffffffffffffffffffffffff1673ffffffffffffffffffffffffffffffffffffffff168152602001908152602001600020600080820160006101000a81549060ff021916905560018201600090555050601060008b8152602001908152602001600020600080820160006101000a81549073ffffffffffffffffffffffffffffffffffffffff02191690556001820160009055600282016000905560038201600090556004820160006101000a81549060ff02191690556005820160009055600682016000905550505b5b5b50505050505050505050565b600f60009054906101000a900463ffffffff1681565b6000806116406131c4565b6116486131c4565b6000806000806116578a612af1565b95506116f861169a6040805190810160405280600181526020017f7d00000000000000000000000000000000000000000000000000000000000000815250612af1565b6116ea6116db6040805190810160405280600181526020017f7b00000000000000000000000000000000000000000000000000000000000000815250612af1565b89612b1f90919063ffffffff16565b612ba990919063ffffffff16565b506117376040805190810160405280600181526020017f2c00000000000000000000000000000000000000000000000000000000000000815250612af1565b945061175c6117576117528789612c2a90919063ffffffff16565b612c44565b612ca2565b935061178161177c6117778789612c2a90919063ffffffff16565b612c44565b612ca2565b92503073ffffffffffffffffffffffffffffffffffffffff16632e78f9a7856040518263ffffffff167c010000000000000000000000000000000000000000000000000000000002815260040180828152602001915050602060405180830381600087803b15156117f157600080fd5b5af115156117fe57600080fd5b50505060405180519050601060008d8152602001908152602001600020600601819055503073ffffffffffffffffffffffffffffffffffffffff16632e78f9a7846040518263ffffffff167c010000000000000000000000000000000000000000000000000000000002815260040180828152602001915050602060405180830381600087803b151561189057600080fd5b5af1151561189d57600080fd5b50505060405180519050601060008d815260200190815260200160002060050181905550601060008c8152602001908152602001600020600601549150601060008c81526020019081526020016000206005015490508873ffffffffffffffffffffffffffffffffffffffff167fcbc80ab3b09d04019c02ce8feb0589afa366492488499af7cdaf8471cca6db75838387876040518085815260200184815260200183815260200182815260200194505050505060405180910390a26002600181915080905097509750505050505050935093915050565b6000600d548281151561198457fe5b049050919050565b600560149054906101000a900460ff1681565b600b60009054906101000a900460ff1681565b6000600e54828115156119c157fe5b049050919050565b600560009054906101000a900473ffffffffffffffffffffffffffffffffffffffff1673ffffffffffffffffffffffffffffffffffffffff163373ffffffffffffffffffffffffffffffffffffffff16141515611a2557600080fd5b81670de0b6b3a7640000811515611a3857fe5b04600d8190555080670de0b6b3a7640000811515611a5257fe5b04600e819055505050565b600d5481565b600560009054906101000a900473ffffffffffffffffffffffffffffffffffffffff1673ffffffffffffffffffffffffffffffffffffffff163373ffffffffffffffffffffffffffffffffffffffff16141515611abf57600080fd5b6001600560146101000a81548160ff0219169083151502179055507f6985a02210a168e66602d3235cb6db0e70f92b3ba4d376a33c0f3d9434bff62560405160405180910390a1600660009054906101000a900473ffffffffffffffffffffffffffffffffffffffff1673ffffffffffffffffffffffffffffffffffffffff16ff5b6000600560009054906101000a900473ffffffffffffffffffffffffffffffffffffffff1673ffffffffffffffffffffffffffffffffffffffff163373ffffffffffffffffffffffffffffffffffffffff16141515611b9f57600080fd5b600560149054906101000a900460ff1615611bb957600080fd5b6001600560146101000a81548160ff0219169083151502179055507f6985a02210a168e66602d3235cb6db0e70f92b3ba4d376a33c0f3d9434bff62560405160405180910390a16001905090565b600660009054906101000a900473ffffffffffffffffffffffffffffffffffffffff1681565b33600660006101000a81548173ffffffffffffffffffffffffffffffffffffffff021916908373ffffffffffffffffffffffffffffffffffffffff16021790555033600760006101000a81548173ffffffffffffffffffffffffffffffffffffffff021916908373ffffffffffffffffffffffffffffffffffffffff1602179055506203d090600f60006101000a81548163ffffffff021916908363ffffffff160217905550565b600e5481565b60095481565b60003073ffffffffffffffffffffffffffffffffffffffff1631905090565b600080600080611d0e6131de565b6000611d1861316e565b600560149054906101000a900460ff1615611d3257600080fd5b60011515600b60009054906101000a900460ff161515141515611d5457600080fd5b60008810158015611d6757506009548811155b1515611d7257600080fd5b600a543411151515611d8357600080fd5b349650611d9a611d93888a6125fc565b6064612497565b9550611da68787612cb6565b94507fb82d4524d34e03b0c1b0d83049ea84e18809aab1d6b3274cbb96d1617e45c3fd85878a60405180848152602001838152602001828152602001935050505060405180910390a160019350601260003373ffffffffffffffffffffffffffffffffffffffff1673ffffffffffffffffffffffffffffffffffffffff16815260200190815260200160002060000160009054906101000a900460ff1615611e9e5760009350601260003373ffffffffffffffffffffffffffffffffffffffff1673ffffffffffffffffffffffffffffffffffffffff1681526020019081526020016000206001015434141515611e9957fe5b611f26565b604080519081016040528060001515815260200186815250925082601260003373ffffffffffffffffffffffffffffffffffffffff1673ffffffffffffffffffffffffffffffffffffffff16815260200190815260200160002060008201518160000160006101000a81548160ff021916908315150217905550602082015181600101559050505b4291507f82bcc51ff5ab20f2066b1b697b902d2ee2549348c8f58f85b996a7fcce09b613826040518082815260200191505060405180910390a160e0604051908101604052803373ffffffffffffffffffffffffffffffffffffffff16815260200186815260200187815260200189815260200185151581526020016000815260200160008152509050806010600084815260200190815260200160002060008201518160000160006101000a81548173ffffffffffffffffffffffffffffffffffffffff021916908373ffffffffffffffffffffffffffffffffffffffff16021790555060208201518160010155604082015181600201556060820151816003015560808201518160040160006101000a81548160ff02191690831515021790555060a0820151816005015560c082015181600601559050506001601160003373ffffffffffffffffffffffffffffffffffffffff1673ffffffffffffffffffffffffffffffffffffffff16815260200190815260200160002060006101000a81548160ff0219169083151502179055505050505050505050565b600a5481565b565b6000600860009054906101000a900473ffffffffffffffffffffffffffffffffffffffff1673ffffffffffffffffffffffffffffffffffffffff166370a08231306040518263ffffffff167c0100000000000000000000000000000000000000000000000000000000028152600401808273ffffffffffffffffffffffffffffffffffffffff1673ffffffffffffffffffffffffffffffffffffffff168152602001915050602060405180830381600087803b151561218857600080fd5b5af1151561219557600080fd5b50505060405180519050905090565b600560009054906101000a900473ffffffffffffffffffffffffffffffffffffffff1673ffffffffffffffffffffffffffffffffffffffff163373ffffffffffffffffffffffffffffffffffffffff1614151561220057600080fd5b600073ffffffffffffffffffffffffffffffffffffffff168173ffffffffffffffffffffffffffffffffffffffff161415156122785780600560006101000a81548173ffffffffffffffffffffffffffffffffffffffff021916908373ffffffffffffffffffffffffffffffffffffffff1602179055505b50565b6000600860009054906101000a900473ffffffffffffffffffffffffffffffffffffffff1673ffffffffffffffffffffffffffffffffffffffff166370a08231836040518263ffffffff167c0100000000000000000000000000000000000000000000000000000000028152600401808273ffffffffffffffffffffffffffffffffffffffff1673ffffffffffffffffffffffffffffffffffffffff168152602001915050602060405180830381600087803b151561233957600080fd5b5af1151561234657600080fd5b505050604051805190509050919050565b600560009054906101000a900473ffffffffffffffffffffffffffffffffffffffff1673ffffffffffffffffffffffffffffffffffffffff163373ffffffffffffffffffffffffffffffffffffffff161415156123b357600080fd5b80600860006101000a81548173ffffffffffffffffffffffffffffffffffffffff021916908373ffffffffffffffffffffffffffffffffffffffff1602179055507f6e4a8547a0f2d6541a77a459eff545d4777c23401787089993b1780e7ab979a06040518080602001828103825260108152602001807f544f4b454e20524547495354455245440000000000000000000000000000000081525060200191505060405180910390a16001600b60006101000a81548160ff02191690831515021790555050565b6000600e54670de0b6b3a764000081151561249157fe5b04905090565b6000806000831115156124a657fe5b82848115156124b157fe5b04905082848115156124bf57fe5b0681840201841415156124ce57fe5b8091505092915050565b60008082840190508381101515156124ec57fe5b8091505092915050565b60008273ffffffffffffffffffffffffffffffffffffffff166108fc839081150290604051600060405180830381858888f1935050505015612589578273ffffffffffffffffffffffffffffffffffffffff167f325741c2c5ea17ea8829fb19547120786d784369cacb62dce5bad13aed3df6e5836040518082815260200191505060405180910390a2600190506125f6565b7f6e4a8547a0f2d6541a77a459eff545d4777c23401787089993b1780e7ab979a06040518080602001828103825260118152602001807f464154414c3a20706179206661696c656400000000000000000000000000000081525060200191505060405180910390a1600090505b92915050565b6000808284029050600084148061261d575082848281151561261a57fe5b04145b151561262557fe5b8091505092915050565b6000600860009054906101000a900473ffffffffffffffffffffffffffffffffffffffff1673ffffffffffffffffffffffffffffffffffffffff1663a9059cbb84846040518363ffffffff167c0100000000000000000000000000000000000000000000000000000000028152600401808373ffffffffffffffffffffffffffffffffffffffff1673ffffffffffffffffffffffffffffffffffffffff16815260200182815260200192505050602060405180830381600087803b15156126f557600080fd5b5af1151561270257600080fd5b5050506040518051905015612768578273ffffffffffffffffffffffffffffffffffffffff167f325741c2c5ea17ea8829fb19547120786d784369cacb62dce5bad13aed3df6e5836040518082815260200191505060405180910390a2600190506127d5565b7f6e4a8547a0f2d6541a77a459eff545d4777c23401787089993b1780e7ab979a060405180806020018281038252601a8152602001807f464154414c3a2070617920696e20746f6b656e206661696c656400000000000081525060200191505060405180910390a1600090505b92915050565b6127e361316e565b6010600083815260200190815260200160002060e060405190810160405290816000820160009054906101000a900473ffffffffffffffffffffffffffffffffffffffff1673ffffffffffffffffffffffffffffffffffffffff1673ffffffffffffffffffffffffffffffffffffffff1681526020016001820154815260200160028201548152602001600382015481526020016004820160009054906101000a900460ff16151515158152602001600582015481526020016006820154815250509050600081604001511115612956577f6e4a8547a0f2d6541a77a459eff545d4777c23401787089993b1780e7ab979a06040518080602001828103825260228152602001807f536964652062657420776f6e2120706179696e6720706c61796572203178204581526020017f544800000000000000000000000000000000000000000000000000000000000081525060400191505060405180910390a1612954816000015182604001516124f6565b505b5050565b61296261316e565b60006010600084815260200190815260200160002060e060405190810160405290816000820160009054906101000a900473ffffffffffffffffffffffffffffffffffffffff1673ffffffffffffffffffffffffffffffffffffffff1673ffffffffffffffffffffffffffffffffffffffff1681526020016001820154815260200160028201548152602001600382015481526020016004820160009054906101000a900460ff16151515158152602001600582015481526020016006820154815250509150600082604001511115612aec577f6e4a8547a0f2d6541a77a459eff545d4777c23401787089993b1780e7ab979a06040518080602001828103825260258152602001807f536964652062657420776f6e2120706179696e6720706c61796572203130782081526020017f544f4b454e00000000000000000000000000000000000000000000000000000081525060400191505060405180910390a1612ada612ad38360400151611975565b600a6125fc565b9050612aea82600001518261262f565b505b505050565b612af96131c4565b600060208301905060408051908101604052808451815260200182815250915050919050565b612b276131c4565b6000826000015184600001511015612b4157839150612ba2565b6001905082602001518460200151141515612b6f578251602085015160208501518281208383201493505050505b8015612b9e57826000015184600001818151039150818152505082600001518460200181815101915081815250505b8391505b5092915050565b612bb16131c4565b600080836000015185600001511015612bcc57849250612c22565b8360000151856000015186602001510103915060019050836020015182141515612c03578351602085015181812082852014925050505b8015612c1e5783600001518560000181815103915081815250505b8492505b505092915050565b612c326131c4565b612c3d838383612ccf565b5092915050565b612c4c6131fa565b612c546131fa565b60008360000151604051805910612c685750595b9080825280601f01601f19166020018201604052509150602082019050612c988185602001518660000151612d6d565b8192505050919050565b6000612caf826000612db8565b9050919050565b6000828211151515612cc457fe5b818303905092915050565b612cd76131c4565b6000612cf585600001518660200151866000015187602001516130b2565b90508460200151836020018181525050846020015181038360000181815250508460000151856020015101811415612d37576000856000018181525050612d62565b8360000151836000015101856000018181510391508181525050836000015181018560200181815250505b829150509392505050565b60005b602082101515612d955782518452602084019350602083019250602082039150612d70565b6001826020036101000a0390508019835116818551168181178652505050505050565b6000612dc261320e565b60008060008693506000925060009150600090505b83518110156130935760307f0100000000000000000000000000000000000000000000000000000000000000028482815181101515612e1257fe5b9060200101517f010000000000000000000000000000000000000000000000000000000000000090047f0100000000000000000000000000000000000000000000000000000000000000027effffffffffffffffffffffffffffffffffffffffffffffffffffffffffffff191610158015612f2a575060397f0100000000000000000000000000000000000000000000000000000000000000028482815181101515612eba57fe5b9060200101517f010000000000000000000000000000000000000000000000000000000000000090047f0100000000000000000000000000000000000000000000000000000000000000027effffffffffffffffffffffffffffffffffffffffffffffffffffffffffffff191611155b15612fdb578115612f4d576000861415612f4357613093565b8580600190039650505b600a8302925060308482815181101515612f6357fe5b9060200101517f010000000000000000000000000000000000000000000000000000000000000090047f0100000000000000000000000000000000000000000000000000000000000000027f010000000000000000000000000000000000000000000000000000000000000090040383019250613086565b602e7f010000000000000000000000000000000000000000000000000000000000000002848281518110151561300d57fe5b9060200101517f010000000000000000000000000000000000000000000000000000000000000090047f0100000000000000000000000000000000000000000000000000000000000000027effffffffffffffffffffffffffffffffffffffffffffffffffffffffffffff1916141561308557600191505b5b8080600101915050612dd7565b60008611156130a55785600a0a830292505b8294505050505092915050565b6000806000806000888711151561315c576020871115156131135760018760200360080260020a031980875116888b038a018a96505b818388511614613108576001870196508060018803106130e8578b8b0196505b505050839450613162565b8686209150879350600092505b8689038311151561315b57868420905080600019168260001916141561314857839450613162565b6001840193508280600101935050613120565b5b88880194505b50505050949350505050565b60e060405190810160405280600073ffffffffffffffffffffffffffffffffffffffff16815260200160008152602001600081526020016000815260200160001515815260200160008152602001600081525090565b604080519081016040528060008152602001600081525090565b6040805190810160405280600015158152602001600081525090565b602060405190810160405280600081525090565b6020604051908101604052806000815250905600a165627a7a7230582062ac33eb215e8b6b768a58b3f3ea1187566261d9fc48f149046222c0dd0275350029",
  "source": "pragma solidity ^0.4.0;\n\nimport \"../installed_contracts/oraclize/contracts/usingOraclize.sol\";\nimport \"../installed_contracts/stringutils/strings.sol\";\nimport \"../installed_contracts/zeppelin/contracts/lifecycle/Pausable.sol\";\n\ninterface ERC20Token {\n    function totalSupply() external view returns (uint);\n    function balanceOf(address who) external constant returns (uint256);\n    function transfer(address to, uint256 value) external returns (bool);\n}\n\ncontract WarStatic is usingOraclize, Pausable {\n    using strings for *;\n\n    address public owner;\n    address public manager;\n    ERC20Token Token;\n\n    //make these configurablef\n    uint public sideBetPercent_MAX = 80;\n    uint public bet_MAX = 1 ether;\n    bool public registeredToken = false;\n    uint public tokenDecimalPlaces = 2;\n    uint public tokenWinRatio = 555555555555555 wei;\n    uint public tokenLossRatio = 5000000000000000 wei;\n\n    uint32 public gasForShuffle; //caculateable?\n\n    struct Info{\n        address playerAddress;\n        uint mainBetAmount;\n        uint sideBetAmount;\n        uint sideBetPercentage;\n        bool isNewGame;\n        uint playerHand;\n        uint houseHand;\n    }\n\n    mapping (uint => Info) public hand_info;\n\n    mapping (address => bool) public hasGameInProgress;\n\n    struct FirstHand{\n        bool isTied;\n        uint mainBetAmount;\n    }\n\n    mapping (address => FirstHand) public firstHandInfo;\n\n    // mapping (string => uint) cards;\n\n    //EVENTS\n\n    event betPayout(address indexed playerAddr, uint amount);\n    event dealtCards(address indexed player, uint dealerHand, uint playerHand, uint dealerSuit, uint playerSuit);\n\n    event DEBUG_betSplit(uint mainBet, uint sideBet, uint percent);\n    event DEBUG_str(string msg);\n    event DEBUG_addr(address addr);\n    event DEBUG_byte(bytes32 thing);\n    event DEBUG_uint(uint thing);\n\n    modifier TokenCheck() {\n       if (registeredToken != true) { //check balance\n            revert();\n        }\n        _;\n    }\n\n    function War() public payable{\n        //Remove before flight\n        // OAR = OraclizeAddrResolverI(0x6f485C8BF6fc43eA212E93BBF8ce046C7f1cb475);\n\n        owner = msg.sender;\n        manager = msg.sender;\n\n        gasForShuffle = 250000;\n    }\n\n    function RegisterToken(address _tokenAddress) public onlyOwner{\n        Token = ERC20Token(_tokenAddress);\n        emit DEBUG_str(\"TOKEN REGISTERED\");\n        registeredToken = true;\n    }\n\n    function RemainingTokens() public constant returns (uint){\n        return Token.balanceOf(this);\n    }\n\n    function GetTokenBalance(address who) public constant returns (uint){\n        return Token.balanceOf(who);\n    }\n\n    function FundHouse() public payable {}\n\n    /*function playWar(uint sideBetPercent, uint customDealerVal, uint customPlayerVal) public whenNotPaused payable {*/\n    function playWar(uint sideBetPercent) public whenNotPaused TokenCheck payable {\n\n      require(sideBetPercent >= 0 && sideBetPercent <= sideBetPercent_MAX);\n      //arequire(hasGameInProgress[msg.sender]==false);\n\n      //ALPHA MAX bet\n      require(msg.value <= bet_MAX);\n\n      uint betAmount = msg.value;\n\n      uint sideBetAmount = div(mul(betAmount,sideBetPercent),100);\n      uint mainBetAmount = sub(betAmount,sideBetAmount);\n\n      emit DEBUG_betSplit(mainBetAmount, sideBetAmount, sideBetPercent);\n      //section\n\n      bool isNewGame = true;\n\n      //check if previous hand was a tie and player chose to go to WAR ***\n      if(firstHandInfo[msg.sender].isTied){\n        isNewGame = false;\n        assert(msg.value == firstHandInfo[msg.sender].mainBetAmount);\n      }\n      else{\n        FirstHand memory thisHand = FirstHand({\n          isTied : false,\n          mainBetAmount : mainBetAmount\n        });\n\n        firstHandInfo[msg.sender] = thisHand;\n      }\n\n      //bytes32 orcID = oraclize_query(\"WolframAlpha\", \"RandomSample[Range[416],2]\",gasForShuffle);\n      uint orcID = now;\n      DEBUG_uint(orcID);\n\n      //do logs + array store\n\n      Info memory info = Info({\n          playerAddress : msg.sender,\n          mainBetAmount : mainBetAmount,\n          sideBetAmount : sideBetAmount,\n          sideBetPercentage : sideBetPercent,\n          isNewGame : isNewGame,\n          playerHand : 0,\n          houseHand : 0\n      });\n\n      hand_info[orcID] = info;\n\n      hasGameInProgress[msg.sender] = true;\n    }\n\n    function getTokenWinValue(uint betInWei) public returns(uint){\n        return betInWei/tokenWinRatio;\n    }\n    function getTokenLossValue(uint betInWei) public returns(uint){\n        return betInWei/tokenLossRatio;\n    }\n\n    function parseResult(uint orcID, string result, address playerAddr) returns(uint, uint){\n        //parse wolfram shuffle\n        strings.slice memory partition = result.toSlice();\n        partition.beyond(\"{\".toSlice()).until(\"}\".toSlice());\n        strings.slice memory delim = \",\".toSlice();\n        // string[] memory parts = new string[](2);\n\n        uint houseRaw = parseInt(partition.split(delim).toString());\n        uint playerRaw = parseInt(partition.split(delim).toString());\n\n        hand_info[orcID].houseHand = this.getCardValue(houseRaw);\n        hand_info[orcID].playerHand = this.getCardValue(playerRaw);\n\n        uint houseHand = hand_info[orcID].houseHand;\n        uint playerHand = hand_info[orcID].playerHand;\n\n        //Event for front-end to alert hand finished\n        dealtCards(playerAddr, houseHand, playerHand, houseRaw, playerRaw);\n\n        return(2, 1);\n    }\n\n    function manualCallback(uint orcID, string result) public payable{\n        //security checks\n        // if (msg.sender != oraclize_cbAddress()) revert();\n        if (hand_info[orcID].playerAddress==0x0) revert(); //maybe change bytes32 to uint for testing\n\n        //**NEED TO CHECK INPUT FORMAT FOR REFUND\n\n        // address playerAddr = hand_info[orcID].playerAddress;\n\n        // //parse wolfram shuffle\n        // strings.slice memory partition = result.toSlice();\n        // partition.beyond(\"{\".toSlice()).until(\"}\".toSlice());\n        // strings.slice memory delim = \",\".toSlice();\n        // // string[] memory parts = new string[](2);\n\n        // uint houseRaw = parseInt(partition.split(delim).toString());\n        // uint playerRaw = parseInt(partition.split(delim).toString());\n\n        // hand_info[orcID].houseHand = this.getCardValue(houseRaw);\n        // hand_info[orcID].playerHand = this.getCardValue(playerRaw);\n\n        // uint houseHand = hand_info[orcID].houseHand;\n        // uint playerHand = hand_info[orcID].playerHand;\n\n        // //Event for front-end to alert hand finished\n        // dealtCards(playerAddr, houseHand, playerHand, houseRaw, playerRaw);\n\n        address playerAddr = hand_info[orcID].playerAddress;\n\n        uint playerHand;\n        uint houseHand;\n\n        (playerHand, houseHand) =  parseResult(orcID, result, playerAddr);\n\n        if(playerHand == houseHand){\n            DEBUG_str(\"Tied!\");\n\n            uint betAmount = firstHandInfo[playerAddr].mainBetAmount;\n\n            if(firstHandInfo[playerAddr].isTied){\n                DEBUG_str(\"Second Tie - 3x payout!\");\n\n                if(pay(playerAddr, betAmount) &&\n                payToken(playerAddr, mul(getTokenWinValue(betAmount),3))){\n                    delete firstHandInfo[playerAddr];\n                }\n            }\n            else{\n                DEBUG_str(\"First Tie - pending action\");\n                firstHandInfo[playerAddr].isTied = true;\n\n                Info memory hand = hand_info[orcID];\n\n                if(hand.sideBetAmount > 0){\n                    sideBetPay(orcID);\n                    sideBetPayToken(orcID);\n                }\n                else{\n                    payToken(playerAddr, getTokenLossValue(betAmount));\n                }\n            }\n            //\n        }\n\n\n        uint winAmount = hand_info[orcID].mainBetAmount;\n\n        //Pay winner\n        if(playerHand > houseHand){\n          uint winTokenAmount = getTokenWinValue(winAmount);\n\n          DEBUG_uint(winAmount);\n          DEBUG_uint(winTokenAmount);\n\n          if(pay(playerAddr,winAmount) && payToken(playerAddr,winTokenAmount)){\n              delete firstHandInfo[playerAddr];\n              delete hand_info[orcID];\n          }\n        }\n        else if(playerHand < houseHand){\n            uint lossTokenAmount = getTokenLossValue(winAmount);\n\n            if(payToken(playerAddr,lossTokenAmount)){\n                delete firstHandInfo[playerAddr];\n                delete hand_info[orcID];\n            }\n        }\n    }\n\n    // function __callback(bytes32 orcID, string result) {\n    //     //security checks\n    //     if (msg.sender != oraclize_cbAddress()) revert();\n    //     if (hand_info[orcID].playerAddress==0x0) revert();\n\n    //     //**NEED TO CHECK INPUT FORMAT FOR REFUND\n\n    //     address playerAddr = hand_info[orcID].playerAddress;\n\n    //     //parse wolfram shuffle\n    //     strings.slice memory partition = result.toSlice();\n    //     partition.beyond(\"{\".toSlice()).until(\"}\".toSlice());\n    //     strings.slice memory delim = \",\".toSlice();\n    //     string[] memory parts = new string[](2);\n\n    //     uint houseRaw = parseInt(partition.split(delim).toString());\n    //     uint playerRaw = parseInt(partition.split(delim).toString());\n\n    //     hand_info[orcID].houseHand = this.getCardValue(houseRaw);\n    //     hand_info[orcID].playerHand = this.getCardValue(playerRaw);\n\n    //     uint houseHand = hand_info[orcID].houseHand;\n    //     uint playerHand = hand_info[orcID].playerHand;\n\n    //     //Event for front-end to alert hand finished\n    //     dealtCards(playerAddr, houseHand, playerHand, houseRaw, playerRaw);\n\n\n    //     if(playerHand == houseHand){\n    //         DEBUG_str(\"Tied!\");\n\n    //         if(firstHandInfo[playerAddr].isTied){\n    //             DEBUG_str(\"Second Tie - 3x payout!\");\n    //             delete firstHandInfo[playerAddr];\n\n    //             uint triplePay = mul(firstHandInfo[playerAddr].mainBetAmount,3);\n    //             pay(playerAddr, triplePay);\n    //         }\n    //         else{\n    //             DEBUG_str(\"First Tie - pending action\");\n    //             firstHandInfo[playerAddr].isTied = true;\n\n    //             sideBetPay(orcID);\n    //         }\n    //         //\n    //     }\n\n    //     //Pay winner\n    //     if(playerHand > houseHand){\n\n    //       var winAmount = mul(hand_info[orcID].mainBetAmount,2);\n\n    //       if(pay(playerAddr,winAmount)){\n    //           delete firstHandInfo[playerAddr];\n    //           delete hand_info[orcID];\n    //       }\n    //     }\n    //     else if(playerHand < houseHand){\n    //         delete firstHandInfo[playerAddr];\n    //         delete hand_info[orcID];\n    //     }\n    // }\n\n    function playerSurrender() public whenNotPaused payable {\n\n      if(firstHandInfo[msg.sender].isTied){\n          DEBUG_str(\"player surrendering\");\n\n          uint returnAmount = div(firstHandInfo[msg.sender].mainBetAmount,2);\n          if(pay(msg.sender,returnAmount)){\n            delete firstHandInfo[msg.sender];\n            // delete hand_info[orcID];\n          }\n      }\n      else{\n        DEBUG_str(\"nothing to surrender\"); //change this function to return false\n      }\n\n    }\n\n    function setWinLossAmount(uint winAmount, uint lossAmount)public onlyOwner{\n        tokenWinRatio = 1 ether/winAmount;\n        tokenLossRatio = 1 ether/lossAmount;\n    }\n\n    function getWinTokenAmount()public constant returns(uint){\n        return 1 ether/tokenWinRatio;\n    }\n\n    function getLossTokenAmount()public constant returns(uint){\n        return 1 ether/tokenLossRatio;\n    }\n\n    function getLossTokenAmount2()public constant returns(uint temp){\n        temp = 1 ether/tokenWinRatio;\n    }\n\n    function pay(address _addr, uint amount) private returns(bool){\n        if(_addr.send(amount)){ //PAY IN ether\n          betPayout(_addr, amount);\n          return true;\n        }\n        else{\n          //Put in refund?\n          DEBUG_str(\"FATAL: pay failed\");\n          return false;\n        }\n    }\n\n    function payToken(address _addr, uint amount) private returns(bool){\n        if(Token.transfer(_addr,amount)){ //PAY IN token\n          betPayout(_addr, amount);\n          return true;\n        }\n        else{\n          //Put in refund?\n          DEBUG_str(\"FATAL: pay in token failed\");\n          return false;\n        }\n    }\n\n    function sideBetPay(uint orcID) private{\n\n        Info memory hand = hand_info[orcID];\n\n        if(hand.sideBetAmount > 0){\n          DEBUG_str(\"Side bet won! paying player 1x ETH\");\n          //pay side bet once and for all + remove sidebet history\n        //   uint sideBetWin = mul(hand.sideBetAmount,10);\n          pay(hand.playerAddress,hand.sideBetAmount);\n        }\n    }\n\n    function sideBetPayToken(uint orcID) private{\n\n        Info memory hand = hand_info[orcID];\n\n        if(hand.sideBetAmount > 0){\n          DEBUG_str(\"Side bet won! paying player 10x TOKEN\");\n          //pay side bet once and for all + remove sidebet history\n          uint sideBetWin = mul(getTokenWinValue(hand.sideBetAmount),10);\n          payToken(hand.playerAddress,sideBetWin);\n        }\n    }\n\n    /*Special Sauce*/\n    function getCardValue(uint card) public returns(uint){\n      if(card > 416 || card < 1){\n        return 0;\n      }\n\n      if(card > 52){\n        card = card % 52;\n      }\n\n      if(card == 0){\n      \treturn 13;\n      }else if(card <= 4){\n        return 14;\n      }else if(card % 4 > 0){\n        card = add(div(card,4),1);\n      }else{\n        card = div(card,4);\n      }\n\n      if(card == 1){\n        return 14;\n      }\n      else{\n        return card;\n      }\n\n    }\n\n    function mul(uint a, uint b) internal returns (uint) {\n      uint c = a * b;\n      assert(a == 0 || c / a == b);\n      return c;\n    }\n\n    function div(uint a, uint b) internal returns (uint) {\n      assert(b > 0);\n      uint c = a / b;\n      assert(a == b * c + a % b);\n      return c;\n    }\n\n    function sub(uint a, uint b) internal returns (uint) {\n      assert(b <= a);\n      return a - b;\n    }\n\n    function add(uint a, uint b) internal returns (uint) {\n      uint c = a + b;\n      assert(c >= a);\n      return c;\n    }\n\n    function houseBankRoll() constant public returns(uint){\n        return this.balance;\n    }\n\n    function destroy() onlyOwner public{ //do we need this\n      paused = true;\n      Pause();\n      selfdestruct(owner);\n    }\n}\n",
  "sourcePath": "/Users/kuaiyu/Documents/Projects/Ethereum/temp/EthinoWar/contracts/WarStatic.sol",
  "compiler": {
    "name": "solc",
    "version": "0.4.21+commit.dfe3193c.Emscripten.clang"
  },
  "schemaVersion": "2.0.0",
  "updatedAt": "2018-04-25T22:30:51.133Z"
}